{
	"task03/NftAction.sol": {
		"NftAction": {
			"abi": [
				{
					"inputs": [],
					"stateMutability": "nonpayable",
					"type": "constructor"
				},
				{
					"inputs": [],
					"name": "NextAciontId",
					"outputs": [
						{
							"internalType": "uint256",
							"name": "",
							"type": "uint256"
						}
					],
					"stateMutability": "view",
					"type": "function"
				},
				{
					"inputs": [
						{
							"internalType": "uint256",
							"name": "",
							"type": "uint256"
						}
					],
					"name": "aciton",
					"outputs": [
						{
							"internalType": "uint256",
							"name": "stratime",
							"type": "uint256"
						},
						{
							"internalType": "uint256",
							"name": "keeptime",
							"type": "uint256"
						},
						{
							"internalType": "bool",
							"name": "isend",
							"type": "bool"
						},
						{
							"internalType": "uint256",
							"name": "statpirce",
							"type": "uint256"
						},
						{
							"internalType": "uint256",
							"name": "maxprice",
							"type": "uint256"
						},
						{
							"internalType": "address",
							"name": "maxaddress",
							"type": "address"
						},
						{
							"internalType": "uint256",
							"name": "TokenId",
							"type": "uint256"
						},
						{
							"internalType": "address",
							"name": "Tokenaddress",
							"type": "address"
						},
						{
							"internalType": "address",
							"name": "nftaddress",
							"type": "address"
						},
						{
							"internalType": "address",
							"name": "seller",
							"type": "address"
						}
					],
					"stateMutability": "view",
					"type": "function"
				},
				{
					"inputs": [],
					"name": "admin",
					"outputs": [
						{
							"internalType": "address",
							"name": "",
							"type": "address"
						}
					],
					"stateMutability": "view",
					"type": "function"
				},
				{
					"inputs": [
						{
							"internalType": "uint256",
							"name": "_statpirce",
							"type": "uint256"
						},
						{
							"internalType": "uint256",
							"name": "keeptime",
							"type": "uint256"
						},
						{
							"internalType": "uint256",
							"name": "_TokenId",
							"type": "uint256"
						},
						{
							"internalType": "address",
							"name": "_nftaddress",
							"type": "address"
						}
					],
					"name": "createAciton",
					"outputs": [],
					"stateMutability": "nonpayable",
					"type": "function"
				},
				{
					"inputs": [
						{
							"internalType": "uint256",
							"name": "_id",
							"type": "uint256"
						}
					],
					"name": "joinAciton",
					"outputs": [],
					"stateMutability": "payable",
					"type": "function"
				}
			],
			"devdoc": {
				"kind": "dev",
				"methods": {},
				"version": 1
			},
			"evm": {
				"assembly": "    /* \"task03/NftAction.sol\":66:2482  contract NftAction{... */\n  mstore(0x40, 0x80)\n    /* \"task03/NftAction.sol\":769:817  constructor(){... */\n  callvalue\n  dup1\n  iszero\n  tag_1\n  jumpi\n  revert(0x00, 0x00)\ntag_1:\n  pop\n    /* \"task03/NftAction.sol\":799:809  msg.sender */\n  caller\n    /* \"task03/NftAction.sol\":793:798  admin */\n  0x02\n  0x00\n    /* \"task03/NftAction.sol\":793:809  admin=msg.sender */\n  0x0100\n  exp\n  dup2\n  sload\n  dup2\n  0xffffffffffffffffffffffffffffffffffffffff\n  mul\n  not\n  and\n  swap1\n  dup4\n  0xffffffffffffffffffffffffffffffffffffffff\n  and\n  mul\n  or\n  swap1\n  sstore\n  pop\n    /* \"task03/NftAction.sol\":66:2482  contract NftAction{... */\n  dataSize(sub_0)\n  dup1\n  dataOffset(sub_0)\n  0x00\n  codecopy\n  0x00\n  return\nstop\n\nsub_0: assembly {\n        /* \"task03/NftAction.sol\":66:2482  contract NftAction{... */\n      mstore(0x40, 0x80)\n      jumpi(tag_1, lt(calldatasize, 0x04))\n      shr(0xe0, calldataload(0x00))\n      dup1\n      0x3a27dcfc\n      eq\n      tag_2\n      jumpi\n      dup1\n      0x5dc3c1b5\n      eq\n      tag_3\n      jumpi\n      dup1\n      0xcf285b68\n      eq\n      tag_4\n      jumpi\n      dup1\n      0xf851a440\n      eq\n      tag_5\n      jumpi\n      dup1\n      0xfd754f06\n      eq\n      tag_6\n      jumpi\n    tag_1:\n      revert(0x00, 0x00)\n        /* \"task03/NftAction.sol\":703:731  uint256 public  NextAciontId */\n    tag_2:\n      callvalue\n      dup1\n      iszero\n      tag_7\n      jumpi\n      revert(0x00, 0x00)\n    tag_7:\n      pop\n      tag_8\n      tag_9\n      jump\t// in\n    tag_8:\n      mload(0x40)\n      tag_10\n      swap2\n      swap1\n      tag_11\n      jump\t// in\n    tag_10:\n      mload(0x40)\n      dup1\n      swap2\n      sub\n      swap1\n      return\n        /* \"task03/NftAction.sol\":1878:2471  function  joinAciton(uint256 _id)public payable{... */\n    tag_3:\n      tag_12\n      0x04\n      dup1\n      calldatasize\n      sub\n      dup2\n      add\n      swap1\n      tag_13\n      swap2\n      swap1\n      tag_14\n      jump\t// in\n    tag_13:\n      tag_15\n      jump\t// in\n    tag_12:\n      stop\n        /* \"task03/NftAction.sol\":847:1850  function  createAciton(uint256 _statpirce,uint256 keeptime,uint256 _TokenId,address _nftaddress)public {... */\n    tag_4:\n      callvalue\n      dup1\n      iszero\n      tag_16\n      jumpi\n      revert(0x00, 0x00)\n    tag_16:\n      pop\n      tag_17\n      0x04\n      dup1\n      calldatasize\n      sub\n      dup2\n      add\n      swap1\n      tag_18\n      swap2\n      swap1\n      tag_19\n      jump\t// in\n    tag_18:\n      tag_20\n      jump\t// in\n    tag_17:\n      stop\n        /* \"task03/NftAction.sol\":740:760  address public admin */\n    tag_5:\n      callvalue\n      dup1\n      iszero\n      tag_21\n      jumpi\n      revert(0x00, 0x00)\n    tag_21:\n      pop\n      tag_22\n      tag_23\n      jump\t// in\n    tag_22:\n      mload(0x40)\n      tag_24\n      swap2\n      swap1\n      tag_25\n      jump\t// in\n    tag_24:\n      mload(0x40)\n      dup1\n      swap2\n      sub\n      swap1\n      return\n        /* \"task03/NftAction.sol\":653:694  mapping (uint256=>NftInfo) public  aciton */\n    tag_6:\n      callvalue\n      dup1\n      iszero\n      tag_26\n      jumpi\n      revert(0x00, 0x00)\n    tag_26:\n      pop\n      tag_27\n      0x04\n      dup1\n      calldatasize\n      sub\n      dup2\n      add\n      swap1\n      tag_28\n      swap2\n      swap1\n      tag_14\n      jump\t// in\n    tag_28:\n      tag_29\n      jump\t// in\n    tag_27:\n      mload(0x40)\n      tag_30\n      swap11\n      swap10\n      swap9\n      swap8\n      swap7\n      swap6\n      swap5\n      swap4\n      swap3\n      swap2\n      swap1\n      tag_31\n      jump\t// in\n    tag_30:\n      mload(0x40)\n      dup1\n      swap2\n      sub\n      swap1\n      return\n        /* \"task03/NftAction.sol\":703:731  uint256 public  NextAciontId */\n    tag_9:\n      sload(0x01)\n      dup2\n      jump\t// out\n        /* \"task03/NftAction.sol\":1878:2471  function  joinAciton(uint256 _id)public payable{... */\n    tag_15:\n        /* \"task03/NftAction.sol\":1955:1961  aciton */\n      0x00\n        /* \"task03/NftAction.sol\":1955:1966  aciton[_id] */\n      0x00\n        /* \"task03/NftAction.sol\":1962:1965  _id */\n      dup3\n        /* \"task03/NftAction.sol\":1955:1966  aciton[_id] */\n      dup2\n      mstore\n      0x20\n      add\n      swap1\n      dup2\n      mstore\n      0x20\n      add\n      0x00\n      keccak256\n        /* \"task03/NftAction.sol\":1955:1976  aciton[_id].statpirce */\n      0x03\n      add\n      sload\n        /* \"task03/NftAction.sol\":1944:1953  msg.value */\n      callvalue\n        /* \"task03/NftAction.sol\":1944:1976  msg.value>=aciton[_id].statpirce */\n      lt\n      iszero\n        /* \"task03/NftAction.sol\":1936:2005  require(msg.value>=aciton[_id].statpirce,\"price must pass statpirce\") */\n      tag_33\n      jumpi\n      mload(0x40)\n      0x08c379a000000000000000000000000000000000000000000000000000000000\n      dup2\n      mstore\n      0x04\n      add\n      tag_34\n      swap1\n      tag_35\n      jump\t// in\n    tag_34:\n      mload(0x40)\n      dup1\n      swap2\n      sub\n      swap1\n      revert\n    tag_33:\n        /* \"task03/NftAction.sol\":2061:2067  aciton */\n      0x00\n        /* \"task03/NftAction.sol\":2061:2072  aciton[_id] */\n      0x00\n        /* \"task03/NftAction.sol\":2068:2071  _id */\n      dup3\n        /* \"task03/NftAction.sol\":2061:2072  aciton[_id] */\n      dup2\n      mstore\n      0x20\n      add\n      swap1\n      dup2\n      mstore\n      0x20\n      add\n      0x00\n      keccak256\n        /* \"task03/NftAction.sol\":2061:2081  aciton[_id].keeptime */\n      0x01\n      add\n      sload\n        /* \"task03/NftAction.sol\":2040:2046  aciton */\n      0x00\n        /* \"task03/NftAction.sol\":2040:2051  aciton[_id] */\n      0x00\n        /* \"task03/NftAction.sol\":2047:2050  _id */\n      dup4\n        /* \"task03/NftAction.sol\":2040:2051  aciton[_id] */\n      dup2\n      mstore\n      0x20\n      add\n      swap1\n      dup2\n      mstore\n      0x20\n      add\n      0x00\n      keccak256\n        /* \"task03/NftAction.sol\":2040:2060  aciton[_id].stratime */\n      0x00\n      add\n      sload\n        /* \"task03/NftAction.sol\":2040:2081  aciton[_id].stratime+aciton[_id].keeptime */\n      tag_36\n      swap2\n      swap1\n      tag_37\n      jump\t// in\n    tag_36:\n        /* \"task03/NftAction.sol\":2024:2039  block.timestamp */\n      timestamp\n        /* \"task03/NftAction.sol\":2024:2081  block.timestamp<aciton[_id].stratime+aciton[_id].keeptime */\n      lt\n        /* \"task03/NftAction.sol\":2016:2098  require(block.timestamp<aciton[_id].stratime+aciton[_id].keeptime,\"Aciton is end\") */\n      tag_38\n      jumpi\n      mload(0x40)\n      0x08c379a000000000000000000000000000000000000000000000000000000000\n      dup2\n      mstore\n      0x04\n      add\n      tag_39\n      swap1\n      tag_40\n      jump\t// in\n    tag_39:\n      mload(0x40)\n      dup1\n      swap2\n      sub\n      swap1\n      revert\n    tag_38:\n        /* \"task03/NftAction.sol\":2136:2141  false */\n      0x00\n        /* \"task03/NftAction.sol\":2117:2141  aciton[_id].isend==false */\n      iszero\n      iszero\n        /* \"task03/NftAction.sol\":2117:2123  aciton */\n      0x00\n        /* \"task03/NftAction.sol\":2117:2128  aciton[_id] */\n      0x00\n        /* \"task03/NftAction.sol\":2124:2127  _id */\n      dup4\n        /* \"task03/NftAction.sol\":2117:2128  aciton[_id] */\n      dup2\n      mstore\n      0x20\n      add\n      swap1\n      dup2\n      mstore\n      0x20\n      add\n      0x00\n      keccak256\n        /* \"task03/NftAction.sol\":2117:2134  aciton[_id].isend */\n      0x02\n      add\n      0x00\n      swap1\n      sload\n      swap1\n      0x0100\n      exp\n      swap1\n      div\n      0xff\n      and\n        /* \"task03/NftAction.sol\":2117:2141  aciton[_id].isend==false */\n      iszero\n      iszero\n      eq\n        /* \"task03/NftAction.sol\":2109:2158  require(aciton[_id].isend==false,\"Aciton is end\") */\n      tag_41\n      jumpi\n      mload(0x40)\n      0x08c379a000000000000000000000000000000000000000000000000000000000\n      dup2\n      mstore\n      0x04\n      add\n      tag_42\n      swap1\n      tag_40\n      jump\t// in\n    tag_42:\n      mload(0x40)\n      dup1\n      swap2\n      sub\n      swap1\n      revert\n    tag_41:\n        /* \"task03/NftAction.sol\":2187:2193  aciton */\n      0x00\n        /* \"task03/NftAction.sol\":2187:2198  aciton[_id] */\n      0x00\n        /* \"task03/NftAction.sol\":2194:2197  _id */\n      dup3\n        /* \"task03/NftAction.sol\":2187:2198  aciton[_id] */\n      dup2\n      mstore\n      0x20\n      add\n      swap1\n      dup2\n      mstore\n      0x20\n      add\n      0x00\n      keccak256\n        /* \"task03/NftAction.sol\":2187:2207  aciton[_id].maxprice */\n      0x04\n      add\n      sload\n        /* \"task03/NftAction.sol\":2177:2186  msg.value */\n      callvalue\n        /* \"task03/NftAction.sol\":2177:2207  msg.value>aciton[_id].maxprice */\n      gt\n        /* \"task03/NftAction.sol\":2169:2235  require(msg.value>aciton[_id].maxprice,\"price must pass maxprice\") */\n      tag_43\n      jumpi\n      mload(0x40)\n      0x08c379a000000000000000000000000000000000000000000000000000000000\n      dup2\n      mstore\n      0x04\n      add\n      tag_44\n      swap1\n      tag_45\n      jump\t// in\n    tag_44:\n      mload(0x40)\n      dup1\n      swap2\n      sub\n      swap1\n      revert\n    tag_43:\n        /* \"task03/NftAction.sol\":2281:2282  0 */\n      0x00\n        /* \"task03/NftAction.sol\":2249:2283  aciton[_id].maxaddress!=address(0) */\n      0xffffffffffffffffffffffffffffffffffffffff\n      and\n        /* \"task03/NftAction.sol\":2249:2255  aciton */\n      0x00\n        /* \"task03/NftAction.sol\":2249:2260  aciton[_id] */\n      0x00\n        /* \"task03/NftAction.sol\":2256:2259  _id */\n      dup4\n        /* \"task03/NftAction.sol\":2249:2260  aciton[_id] */\n      dup2\n      mstore\n      0x20\n      add\n      swap1\n      dup2\n      mstore\n      0x20\n      add\n      0x00\n      keccak256\n        /* \"task03/NftAction.sol\":2249:2271  aciton[_id].maxaddress */\n      0x05\n      add\n      0x00\n      swap1\n      sload\n      swap1\n      0x0100\n      exp\n      swap1\n      div\n      0xffffffffffffffffffffffffffffffffffffffff\n      and\n        /* \"task03/NftAction.sol\":2249:2283  aciton[_id].maxaddress!=address(0) */\n      0xffffffffffffffffffffffffffffffffffffffff\n      and\n      eq\n        /* \"task03/NftAction.sol\":2246:2373  if(aciton[_id].maxaddress!=address(0)){... */\n      tag_46\n      jumpi\n        /* \"task03/NftAction.sol\":2307:2313  aciton */\n      0x00\n        /* \"task03/NftAction.sol\":2307:2318  aciton[_id] */\n      0x00\n        /* \"task03/NftAction.sol\":2314:2317  _id */\n      dup3\n        /* \"task03/NftAction.sol\":2307:2318  aciton[_id] */\n      dup2\n      mstore\n      0x20\n      add\n      swap1\n      dup2\n      mstore\n      0x20\n      add\n      0x00\n      keccak256\n        /* \"task03/NftAction.sol\":2307:2329  aciton[_id].maxaddress */\n      0x05\n      add\n      0x00\n      swap1\n      sload\n      swap1\n      0x0100\n      exp\n      swap1\n      div\n      0xffffffffffffffffffffffffffffffffffffffff\n      and\n        /* \"task03/NftAction.sol\":2299:2339  payable(aciton[_id].maxaddress).transfer */\n      0xffffffffffffffffffffffffffffffffffffffff\n      and\n        /* \"task03/NftAction.sol\":2299:2361  payable(aciton[_id].maxaddress).transfer(aciton[_id].maxprice) */\n      0x08fc\n        /* \"task03/NftAction.sol\":2340:2346  aciton */\n      0x00\n        /* \"task03/NftAction.sol\":2340:2351  aciton[_id] */\n      0x00\n        /* \"task03/NftAction.sol\":2347:2350  _id */\n      dup5\n        /* \"task03/NftAction.sol\":2340:2351  aciton[_id] */\n      dup2\n      mstore\n      0x20\n      add\n      swap1\n      dup2\n      mstore\n      0x20\n      add\n      0x00\n      keccak256\n        /* \"task03/NftAction.sol\":2340:2360  aciton[_id].maxprice */\n      0x04\n      add\n      sload\n        /* \"task03/NftAction.sol\":2299:2361  payable(aciton[_id].maxaddress).transfer(aciton[_id].maxprice) */\n      swap1\n      dup2\n      iszero\n      mul\n      swap1\n      mload(0x40)\n      0x00\n      mload(0x40)\n      dup1\n      dup4\n      sub\n      dup2\n      dup6\n      dup9\n      dup9\n      call\n      swap4\n      pop\n      pop\n      pop\n      pop\n      iszero\n      dup1\n      iszero\n      tag_48\n      jumpi\n      returndatacopy(0x00, 0x00, returndatasize)\n      revert(0x00, returndatasize)\n    tag_48:\n      pop\n        /* \"task03/NftAction.sol\":2246:2373  if(aciton[_id].maxaddress!=address(0)){... */\n    tag_46:\n        /* \"task03/NftAction.sol\":2385:2407  NftInfo storage acinfo */\n      0x00\n        /* \"task03/NftAction.sol\":2408:2414  aciton */\n      0x00\n        /* \"task03/NftAction.sol\":2408:2419  aciton[_id] */\n      0x00\n        /* \"task03/NftAction.sol\":2415:2418  _id */\n      dup4\n        /* \"task03/NftAction.sol\":2408:2419  aciton[_id] */\n      dup2\n      mstore\n      0x20\n      add\n      swap1\n      dup2\n      mstore\n      0x20\n      add\n      0x00\n      keccak256\n        /* \"task03/NftAction.sol\":2385:2419  NftInfo storage acinfo=aciton[_id] */\n      swap1\n      pop\n        /* \"task03/NftAction.sol\":2446:2455  msg.value */\n      callvalue\n        /* \"task03/NftAction.sol\":2430:2436  acinfo */\n      dup2\n        /* \"task03/NftAction.sol\":2430:2445  acinfo.maxprice */\n      0x04\n      add\n        /* \"task03/NftAction.sol\":2430:2455  acinfo.maxprice=msg.value */\n      dup2\n      swap1\n      sstore\n      pop\n        /* \"task03/NftAction.sol\":1925:2471  {... */\n      pop\n        /* \"task03/NftAction.sol\":1878:2471  function  joinAciton(uint256 _id)public payable{... */\n      pop\n      jump\t// out\n        /* \"task03/NftAction.sol\":847:1850  function  createAciton(uint256 _statpirce,uint256 keeptime,uint256 _TokenId,address _nftaddress)public {... */\n    tag_20:\n        /* \"task03/NftAction.sol\":991:996  admin */\n      0x02\n      0x00\n      swap1\n      sload\n      swap1\n      0x0100\n      exp\n      swap1\n      div\n      0xffffffffffffffffffffffffffffffffffffffff\n      and\n        /* \"task03/NftAction.sol\":979:996  msg.sender==admin */\n      0xffffffffffffffffffffffffffffffffffffffff\n      and\n        /* \"task03/NftAction.sol\":979:989  msg.sender */\n      caller\n        /* \"task03/NftAction.sol\":979:996  msg.sender==admin */\n      0xffffffffffffffffffffffffffffffffffffffff\n      and\n      eq\n        /* \"task03/NftAction.sol\":971:1030  require(msg.sender==admin,\"Only admin can create auctions\") */\n      tag_50\n      jumpi\n      mload(0x40)\n      0x08c379a000000000000000000000000000000000000000000000000000000000\n      dup2\n      mstore\n      0x04\n      add\n      tag_51\n      swap1\n      tag_52\n      jump\t// in\n    tag_51:\n      mload(0x40)\n      dup1\n      swap2\n      sub\n      swap1\n      revert\n    tag_50:\n        /* \"task03/NftAction.sol\":1060:1061  0 */\n      0x00\n        /* \"task03/NftAction.sol\":1049:1059  _statpirce */\n      dup5\n        /* \"task03/NftAction.sol\":1049:1061  _statpirce>0 */\n      gt\n        /* \"task03/NftAction.sol\":1041:1082  require(_statpirce>0,\"price must pass 0\") */\n      tag_53\n      jumpi\n      mload(0x40)\n      0x08c379a000000000000000000000000000000000000000000000000000000000\n      dup2\n      mstore\n      0x04\n      add\n      tag_54\n      swap1\n      tag_55\n      jump\t// in\n    tag_54:\n      mload(0x40)\n      dup1\n      swap2\n      sub\n      swap1\n      revert\n    tag_53:\n        /* \"task03/NftAction.sol\":1110:1112  10 */\n      0x0a\n        /* \"task03/NftAction.sol\":1101:1109  keeptime */\n      dup4\n        /* \"task03/NftAction.sol\":1101:1112  keeptime>10 */\n      gt\n        /* \"task03/NftAction.sol\":1093:1138  require(keeptime>10,\"stratime must pass 10s\") */\n      tag_56\n      jumpi\n      mload(0x40)\n      0x08c379a000000000000000000000000000000000000000000000000000000000\n      dup2\n      mstore\n      0x04\n      add\n      tag_57\n      swap1\n      tag_58\n      jump\t// in\n    tag_57:\n      mload(0x40)\n      dup1\n      swap2\n      sub\n      swap1\n      revert\n    tag_56:\n        /* \"task03/NftAction.sol\":1172:1815  NftInfo({... */\n      mload(0x40)\n      dup1\n      0x0140\n      add\n      0x40\n      mstore\n      dup1\n        /* \"task03/NftAction.sol\":1233:1248  block.timestamp */\n      timestamp\n        /* \"task03/NftAction.sol\":1172:1815  NftInfo({... */\n      dup2\n      mstore\n      0x20\n      add\n        /* \"task03/NftAction.sol\":1309:1313  1000 */\n      0x03e8\n        /* \"task03/NftAction.sol\":1300:1308  keeptime */\n      dup6\n        /* \"task03/NftAction.sol\":1300:1313  keeptime*1000 */\n      tag_59\n      swap2\n      swap1\n      tag_60\n      jump\t// in\n    tag_59:\n        /* \"task03/NftAction.sol\":1172:1815  NftInfo({... */\n      dup2\n      mstore\n      0x20\n      add\n        /* \"task03/NftAction.sol\":1361:1366  false */\n      0x00\n        /* \"task03/NftAction.sol\":1172:1815  NftInfo({... */\n      iszero\n      iszero\n      dup2\n      mstore\n      0x20\n      add\n        /* \"task03/NftAction.sol\":1419:1429  _statpirce */\n      dup6\n        /* \"task03/NftAction.sol\":1172:1815  NftInfo({... */\n      dup2\n      mstore\n      0x20\n      add\n        /* \"task03/NftAction.sol\":1482:1483  0 */\n      0x00\n        /* \"task03/NftAction.sol\":1172:1815  NftInfo({... */\n      dup2\n      mstore\n      0x20\n      add\n        /* \"task03/NftAction.sol\":1548:1549  0 */\n      0x00\n        /* \"task03/NftAction.sol\":1172:1815  NftInfo({... */\n      0xffffffffffffffffffffffffffffffffffffffff\n      and\n      dup2\n      mstore\n      0x20\n      add\n        /* \"task03/NftAction.sol\":1596:1604  _TokenId */\n      dup4\n        /* \"task03/NftAction.sol\":1172:1815  NftInfo({... */\n      dup2\n      mstore\n      0x20\n      add\n        /* \"task03/NftAction.sol\":1668:1669  0 */\n      0x00\n        /* \"task03/NftAction.sol\":1172:1815  NftInfo({... */\n      0xffffffffffffffffffffffffffffffffffffffff\n      and\n      dup2\n      mstore\n      0x20\n      add\n        /* \"task03/NftAction.sol\":1728:1739  _nftaddress */\n      dup3\n        /* \"task03/NftAction.sol\":1172:1815  NftInfo({... */\n      0xffffffffffffffffffffffffffffffffffffffff\n      and\n      dup2\n      mstore\n      0x20\n      add\n        /* \"task03/NftAction.sol\":1793:1803  msg.sender */\n      caller\n        /* \"task03/NftAction.sol\":1172:1815  NftInfo({... */\n      0xffffffffffffffffffffffffffffffffffffffff\n      and\n      dup2\n      mstore\n      pop\n        /* \"task03/NftAction.sol\":1151:1157  aciton */\n      0x00\n        /* \"task03/NftAction.sol\":1151:1171  aciton[NextAciontId] */\n      0x00\n        /* \"task03/NftAction.sol\":1158:1170  NextAciontId */\n      sload(0x01)\n        /* \"task03/NftAction.sol\":1151:1171  aciton[NextAciontId] */\n      dup2\n      mstore\n      0x20\n      add\n      swap1\n      dup2\n      mstore\n      0x20\n      add\n      0x00\n      keccak256\n        /* \"task03/NftAction.sol\":1151:1815  aciton[NextAciontId]=NftInfo({... */\n      0x00\n      dup3\n      add\n      mload\n      dup2\n      0x00\n      add\n      sstore\n      0x20\n      dup3\n      add\n      mload\n      dup2\n      0x01\n      add\n      sstore\n      0x40\n      dup3\n      add\n      mload\n      dup2\n      0x02\n      add\n      exp(0x0100, 0x00)\n      dup2\n      sload\n      dup2\n      0xff\n      mul\n      not\n      and\n      swap1\n      dup4\n      iszero\n      iszero\n      mul\n      or\n      swap1\n      sstore\n      pop\n      0x60\n      dup3\n      add\n      mload\n      dup2\n      0x03\n      add\n      sstore\n      0x80\n      dup3\n      add\n      mload\n      dup2\n      0x04\n      add\n      sstore\n      0xa0\n      dup3\n      add\n      mload\n      dup2\n      0x05\n      add\n      exp(0x0100, 0x00)\n      dup2\n      sload\n      dup2\n      0xffffffffffffffffffffffffffffffffffffffff\n      mul\n      not\n      and\n      swap1\n      dup4\n      0xffffffffffffffffffffffffffffffffffffffff\n      and\n      mul\n      or\n      swap1\n      sstore\n      pop\n      0xc0\n      dup3\n      add\n      mload\n      dup2\n      0x06\n      add\n      sstore\n      0xe0\n      dup3\n      add\n      mload\n      dup2\n      0x07\n      add\n      exp(0x0100, 0x00)\n      dup2\n      sload\n      dup2\n      0xffffffffffffffffffffffffffffffffffffffff\n      mul\n      not\n      and\n      swap1\n      dup4\n      0xffffffffffffffffffffffffffffffffffffffff\n      and\n      mul\n      or\n      swap1\n      sstore\n      pop\n      0x0100\n      dup3\n      add\n      mload\n      dup2\n      0x08\n      add\n      exp(0x0100, 0x00)\n      dup2\n      sload\n      dup2\n      0xffffffffffffffffffffffffffffffffffffffff\n      mul\n      not\n      and\n      swap1\n      dup4\n      0xffffffffffffffffffffffffffffffffffffffff\n      and\n      mul\n      or\n      swap1\n      sstore\n      pop\n      0x0120\n      dup3\n      add\n      mload\n      dup2\n      0x09\n      add\n      exp(0x0100, 0x00)\n      dup2\n      sload\n      dup2\n      0xffffffffffffffffffffffffffffffffffffffff\n      mul\n      not\n      and\n      swap1\n      dup4\n      0xffffffffffffffffffffffffffffffffffffffff\n      and\n      mul\n      or\n      swap1\n      sstore\n      pop\n      swap1\n      pop\n      pop\n        /* \"task03/NftAction.sol\":1826:1838  NextAciontId */\n      0x01\n      0x00\n        /* \"task03/NftAction.sol\":1826:1840  NextAciontId++ */\n      dup2\n      sload\n      dup1\n      swap3\n      swap2\n      swap1\n      tag_61\n      swap1\n      tag_62\n      jump\t// in\n    tag_61:\n      swap2\n      swap1\n      pop\n      sstore\n      pop\n        /* \"task03/NftAction.sol\":847:1850  function  createAciton(uint256 _statpirce,uint256 keeptime,uint256 _TokenId,address _nftaddress)public {... */\n      pop\n      pop\n      pop\n      pop\n      jump\t// out\n        /* \"task03/NftAction.sol\":740:760  address public admin */\n    tag_23:\n      0x02\n      0x00\n      swap1\n      sload\n      swap1\n      0x0100\n      exp\n      swap1\n      div\n      0xffffffffffffffffffffffffffffffffffffffff\n      and\n      dup2\n      jump\t// out\n        /* \"task03/NftAction.sol\":653:694  mapping (uint256=>NftInfo) public  aciton */\n    tag_29:\n      mstore(0x20, 0x00)\n      dup1\n      0x00\n      mstore\n      keccak256(0x00, 0x40)\n      0x00\n      swap2\n      pop\n      swap1\n      pop\n      dup1\n      0x00\n      add\n      sload\n      swap1\n      dup1\n      0x01\n      add\n      sload\n      swap1\n      dup1\n      0x02\n      add\n      0x00\n      swap1\n      sload\n      swap1\n      0x0100\n      exp\n      swap1\n      div\n      0xff\n      and\n      swap1\n      dup1\n      0x03\n      add\n      sload\n      swap1\n      dup1\n      0x04\n      add\n      sload\n      swap1\n      dup1\n      0x05\n      add\n      0x00\n      swap1\n      sload\n      swap1\n      0x0100\n      exp\n      swap1\n      div\n      0xffffffffffffffffffffffffffffffffffffffff\n      and\n      swap1\n      dup1\n      0x06\n      add\n      sload\n      swap1\n      dup1\n      0x07\n      add\n      0x00\n      swap1\n      sload\n      swap1\n      0x0100\n      exp\n      swap1\n      div\n      0xffffffffffffffffffffffffffffffffffffffff\n      and\n      swap1\n      dup1\n      0x08\n      add\n      0x00\n      swap1\n      sload\n      swap1\n      0x0100\n      exp\n      swap1\n      div\n      0xffffffffffffffffffffffffffffffffffffffff\n      and\n      swap1\n      dup1\n      0x09\n      add\n      0x00\n      swap1\n      sload\n      swap1\n      0x0100\n      exp\n      swap1\n      div\n      0xffffffffffffffffffffffffffffffffffffffff\n      and\n      swap1\n      pop\n      dup11\n      jump\t// out\n        /* \"#utility.yul\":7:84   */\n    tag_63:\n        /* \"#utility.yul\":44:51   */\n      0x00\n        /* \"#utility.yul\":73:78   */\n      dup2\n        /* \"#utility.yul\":62:78   */\n      swap1\n      pop\n        /* \"#utility.yul\":7:84   */\n      swap2\n      swap1\n      pop\n      jump\t// out\n        /* \"#utility.yul\":90:208   */\n    tag_64:\n        /* \"#utility.yul\":177:201   */\n      tag_94\n        /* \"#utility.yul\":195:200   */\n      dup2\n        /* \"#utility.yul\":177:201   */\n      tag_63\n      jump\t// in\n    tag_94:\n        /* \"#utility.yul\":172:175   */\n      dup3\n        /* \"#utility.yul\":165:202   */\n      mstore\n        /* \"#utility.yul\":90:208   */\n      pop\n      pop\n      jump\t// out\n        /* \"#utility.yul\":214:436   */\n    tag_11:\n        /* \"#utility.yul\":307:311   */\n      0x00\n        /* \"#utility.yul\":345:347   */\n      0x20\n        /* \"#utility.yul\":334:343   */\n      dup3\n        /* \"#utility.yul\":330:348   */\n      add\n        /* \"#utility.yul\":322:348   */\n      swap1\n      pop\n        /* \"#utility.yul\":358:429   */\n      tag_96\n        /* \"#utility.yul\":426:427   */\n      0x00\n        /* \"#utility.yul\":415:424   */\n      dup4\n        /* \"#utility.yul\":411:428   */\n      add\n        /* \"#utility.yul\":402:408   */\n      dup5\n        /* \"#utility.yul\":358:429   */\n      tag_64\n      jump\t// in\n    tag_96:\n        /* \"#utility.yul\":214:436   */\n      swap3\n      swap2\n      pop\n      pop\n      jump\t// out\n        /* \"#utility.yul\":523:640   */\n    tag_66:\n        /* \"#utility.yul\":632:633   */\n      0x00\n        /* \"#utility.yul\":629:630   */\n      0x00\n        /* \"#utility.yul\":622:634   */\n      revert\n        /* \"#utility.yul\":769:891   */\n    tag_68:\n        /* \"#utility.yul\":842:866   */\n      tag_101\n        /* \"#utility.yul\":860:865   */\n      dup2\n        /* \"#utility.yul\":842:866   */\n      tag_63\n      jump\t// in\n    tag_101:\n        /* \"#utility.yul\":835:840   */\n      dup2\n        /* \"#utility.yul\":832:867   */\n      eq\n        /* \"#utility.yul\":822:885   */\n      tag_102\n      jumpi\n        /* \"#utility.yul\":881:882   */\n      0x00\n        /* \"#utility.yul\":878:879   */\n      0x00\n        /* \"#utility.yul\":871:883   */\n      revert\n        /* \"#utility.yul\":822:885   */\n    tag_102:\n        /* \"#utility.yul\":769:891   */\n      pop\n      jump\t// out\n        /* \"#utility.yul\":897:1036   */\n    tag_69:\n        /* \"#utility.yul\":943:948   */\n      0x00\n        /* \"#utility.yul\":981:987   */\n      dup2\n        /* \"#utility.yul\":968:988   */\n      calldataload\n        /* \"#utility.yul\":959:988   */\n      swap1\n      pop\n        /* \"#utility.yul\":997:1030   */\n      tag_104\n        /* \"#utility.yul\":1024:1029   */\n      dup2\n        /* \"#utility.yul\":997:1030   */\n      tag_68\n      jump\t// in\n    tag_104:\n        /* \"#utility.yul\":897:1036   */\n      swap3\n      swap2\n      pop\n      pop\n      jump\t// out\n        /* \"#utility.yul\":1042:1371   */\n    tag_14:\n        /* \"#utility.yul\":1101:1107   */\n      0x00\n        /* \"#utility.yul\":1150:1152   */\n      0x20\n        /* \"#utility.yul\":1138:1147   */\n      dup3\n        /* \"#utility.yul\":1129:1136   */\n      dup5\n        /* \"#utility.yul\":1125:1148   */\n      sub\n        /* \"#utility.yul\":1121:1153   */\n      slt\n        /* \"#utility.yul\":1118:1237   */\n      iszero\n      tag_106\n      jumpi\n        /* \"#utility.yul\":1156:1235   */\n      tag_107\n      tag_66\n      jump\t// in\n    tag_107:\n        /* \"#utility.yul\":1118:1237   */\n    tag_106:\n        /* \"#utility.yul\":1276:1277   */\n      0x00\n        /* \"#utility.yul\":1301:1354   */\n      tag_108\n        /* \"#utility.yul\":1346:1353   */\n      dup5\n        /* \"#utility.yul\":1337:1343   */\n      dup3\n        /* \"#utility.yul\":1326:1335   */\n      dup6\n        /* \"#utility.yul\":1322:1344   */\n      add\n        /* \"#utility.yul\":1301:1354   */\n      tag_69\n      jump\t// in\n    tag_108:\n        /* \"#utility.yul\":1291:1354   */\n      swap2\n      pop\n        /* \"#utility.yul\":1247:1364   */\n      pop\n        /* \"#utility.yul\":1042:1371   */\n      swap3\n      swap2\n      pop\n      pop\n      jump\t// out\n        /* \"#utility.yul\":1377:1503   */\n    tag_70:\n        /* \"#utility.yul\":1414:1421   */\n      0x00\n        /* \"#utility.yul\":1454:1496   */\n      0xffffffffffffffffffffffffffffffffffffffff\n        /* \"#utility.yul\":1447:1452   */\n      dup3\n        /* \"#utility.yul\":1443:1497   */\n      and\n        /* \"#utility.yul\":1432:1497   */\n      swap1\n      pop\n        /* \"#utility.yul\":1377:1503   */\n      swap2\n      swap1\n      pop\n      jump\t// out\n        /* \"#utility.yul\":1509:1605   */\n    tag_71:\n        /* \"#utility.yul\":1546:1553   */\n      0x00\n        /* \"#utility.yul\":1575:1599   */\n      tag_111\n        /* \"#utility.yul\":1593:1598   */\n      dup3\n        /* \"#utility.yul\":1575:1599   */\n      tag_70\n      jump\t// in\n    tag_111:\n        /* \"#utility.yul\":1564:1599   */\n      swap1\n      pop\n        /* \"#utility.yul\":1509:1605   */\n      swap2\n      swap1\n      pop\n      jump\t// out\n        /* \"#utility.yul\":1611:1733   */\n    tag_72:\n        /* \"#utility.yul\":1684:1708   */\n      tag_113\n        /* \"#utility.yul\":1702:1707   */\n      dup2\n        /* \"#utility.yul\":1684:1708   */\n      tag_71\n      jump\t// in\n    tag_113:\n        /* \"#utility.yul\":1677:1682   */\n      dup2\n        /* \"#utility.yul\":1674:1709   */\n      eq\n        /* \"#utility.yul\":1664:1727   */\n      tag_114\n      jumpi\n        /* \"#utility.yul\":1723:1724   */\n      0x00\n        /* \"#utility.yul\":1720:1721   */\n      0x00\n        /* \"#utility.yul\":1713:1725   */\n      revert\n        /* \"#utility.yul\":1664:1727   */\n    tag_114:\n        /* \"#utility.yul\":1611:1733   */\n      pop\n      jump\t// out\n        /* \"#utility.yul\":1739:1878   */\n    tag_73:\n        /* \"#utility.yul\":1785:1790   */\n      0x00\n        /* \"#utility.yul\":1823:1829   */\n      dup2\n        /* \"#utility.yul\":1810:1830   */\n      calldataload\n        /* \"#utility.yul\":1801:1830   */\n      swap1\n      pop\n        /* \"#utility.yul\":1839:1872   */\n      tag_116\n        /* \"#utility.yul\":1866:1871   */\n      dup2\n        /* \"#utility.yul\":1839:1872   */\n      tag_72\n      jump\t// in\n    tag_116:\n        /* \"#utility.yul\":1739:1878   */\n      swap3\n      swap2\n      pop\n      pop\n      jump\t// out\n        /* \"#utility.yul\":1884:2649   */\n    tag_19:\n        /* \"#utility.yul\":1970:1976   */\n      0x00\n        /* \"#utility.yul\":1978:1984   */\n      0x00\n        /* \"#utility.yul\":1986:1992   */\n      0x00\n        /* \"#utility.yul\":1994:2000   */\n      0x00\n        /* \"#utility.yul\":2043:2046   */\n      0x80\n        /* \"#utility.yul\":2031:2040   */\n      dup6\n        /* \"#utility.yul\":2022:2029   */\n      dup8\n        /* \"#utility.yul\":2018:2041   */\n      sub\n        /* \"#utility.yul\":2014:2047   */\n      slt\n        /* \"#utility.yul\":2011:2131   */\n      iszero\n      tag_118\n      jumpi\n        /* \"#utility.yul\":2050:2129   */\n      tag_119\n      tag_66\n      jump\t// in\n    tag_119:\n        /* \"#utility.yul\":2011:2131   */\n    tag_118:\n        /* \"#utility.yul\":2170:2171   */\n      0x00\n        /* \"#utility.yul\":2195:2248   */\n      tag_120\n        /* \"#utility.yul\":2240:2247   */\n      dup8\n        /* \"#utility.yul\":2231:2237   */\n      dup3\n        /* \"#utility.yul\":2220:2229   */\n      dup9\n        /* \"#utility.yul\":2216:2238   */\n      add\n        /* \"#utility.yul\":2195:2248   */\n      tag_69\n      jump\t// in\n    tag_120:\n        /* \"#utility.yul\":2185:2248   */\n      swap5\n      pop\n        /* \"#utility.yul\":2141:2258   */\n      pop\n        /* \"#utility.yul\":2297:2299   */\n      0x20\n        /* \"#utility.yul\":2323:2376   */\n      tag_121\n        /* \"#utility.yul\":2368:2375   */\n      dup8\n        /* \"#utility.yul\":2359:2365   */\n      dup3\n        /* \"#utility.yul\":2348:2357   */\n      dup9\n        /* \"#utility.yul\":2344:2366   */\n      add\n        /* \"#utility.yul\":2323:2376   */\n      tag_69\n      jump\t// in\n    tag_121:\n        /* \"#utility.yul\":2313:2376   */\n      swap4\n      pop\n        /* \"#utility.yul\":2268:2386   */\n      pop\n        /* \"#utility.yul\":2425:2427   */\n      0x40\n        /* \"#utility.yul\":2451:2504   */\n      tag_122\n        /* \"#utility.yul\":2496:2503   */\n      dup8\n        /* \"#utility.yul\":2487:2493   */\n      dup3\n        /* \"#utility.yul\":2476:2485   */\n      dup9\n        /* \"#utility.yul\":2472:2494   */\n      add\n        /* \"#utility.yul\":2451:2504   */\n      tag_69\n      jump\t// in\n    tag_122:\n        /* \"#utility.yul\":2441:2504   */\n      swap3\n      pop\n        /* \"#utility.yul\":2396:2514   */\n      pop\n        /* \"#utility.yul\":2553:2555   */\n      0x60\n        /* \"#utility.yul\":2579:2632   */\n      tag_123\n        /* \"#utility.yul\":2624:2631   */\n      dup8\n        /* \"#utility.yul\":2615:2621   */\n      dup3\n        /* \"#utility.yul\":2604:2613   */\n      dup9\n        /* \"#utility.yul\":2600:2622   */\n      add\n        /* \"#utility.yul\":2579:2632   */\n      tag_73\n      jump\t// in\n    tag_123:\n        /* \"#utility.yul\":2569:2632   */\n      swap2\n      pop\n        /* \"#utility.yul\":2524:2642   */\n      pop\n        /* \"#utility.yul\":1884:2649   */\n      swap3\n      swap6\n      swap2\n      swap5\n      pop\n      swap3\n      pop\n      jump\t// out\n        /* \"#utility.yul\":2655:2773   */\n    tag_74:\n        /* \"#utility.yul\":2742:2766   */\n      tag_125\n        /* \"#utility.yul\":2760:2765   */\n      dup2\n        /* \"#utility.yul\":2742:2766   */\n      tag_71\n      jump\t// in\n    tag_125:\n        /* \"#utility.yul\":2737:2740   */\n      dup3\n        /* \"#utility.yul\":2730:2767   */\n      mstore\n        /* \"#utility.yul\":2655:2773   */\n      pop\n      pop\n      jump\t// out\n        /* \"#utility.yul\":2779:3001   */\n    tag_25:\n        /* \"#utility.yul\":2872:2876   */\n      0x00\n        /* \"#utility.yul\":2910:2912   */\n      0x20\n        /* \"#utility.yul\":2899:2908   */\n      dup3\n        /* \"#utility.yul\":2895:2913   */\n      add\n        /* \"#utility.yul\":2887:2913   */\n      swap1\n      pop\n        /* \"#utility.yul\":2923:2994   */\n      tag_127\n        /* \"#utility.yul\":2991:2992   */\n      0x00\n        /* \"#utility.yul\":2980:2989   */\n      dup4\n        /* \"#utility.yul\":2976:2993   */\n      add\n        /* \"#utility.yul\":2967:2973   */\n      dup5\n        /* \"#utility.yul\":2923:2994   */\n      tag_74\n      jump\t// in\n    tag_127:\n        /* \"#utility.yul\":2779:3001   */\n      swap3\n      swap2\n      pop\n      pop\n      jump\t// out\n        /* \"#utility.yul\":3007:3097   */\n    tag_75:\n        /* \"#utility.yul\":3041:3048   */\n      0x00\n        /* \"#utility.yul\":3084:3089   */\n      dup2\n        /* \"#utility.yul\":3077:3090   */\n      iszero\n        /* \"#utility.yul\":3070:3091   */\n      iszero\n        /* \"#utility.yul\":3059:3091   */\n      swap1\n      pop\n        /* \"#utility.yul\":3007:3097   */\n      swap2\n      swap1\n      pop\n      jump\t// out\n        /* \"#utility.yul\":3103:3212   */\n    tag_76:\n        /* \"#utility.yul\":3184:3205   */\n      tag_130\n        /* \"#utility.yul\":3199:3204   */\n      dup2\n        /* \"#utility.yul\":3184:3205   */\n      tag_75\n      jump\t// in\n    tag_130:\n        /* \"#utility.yul\":3179:3182   */\n      dup3\n        /* \"#utility.yul\":3172:3206   */\n      mstore\n        /* \"#utility.yul\":3103:3212   */\n      pop\n      pop\n      jump\t// out\n        /* \"#utility.yul\":3218:4425   */\n    tag_31:\n        /* \"#utility.yul\":3557:3561   */\n      0x00\n        /* \"#utility.yul\":3595:3598   */\n      0x0140\n        /* \"#utility.yul\":3584:3593   */\n      dup3\n        /* \"#utility.yul\":3580:3599   */\n      add\n        /* \"#utility.yul\":3572:3599   */\n      swap1\n      pop\n        /* \"#utility.yul\":3609:3680   */\n      tag_132\n        /* \"#utility.yul\":3677:3678   */\n      0x00\n        /* \"#utility.yul\":3666:3675   */\n      dup4\n        /* \"#utility.yul\":3662:3679   */\n      add\n        /* \"#utility.yul\":3653:3659   */\n      dup14\n        /* \"#utility.yul\":3609:3680   */\n      tag_64\n      jump\t// in\n    tag_132:\n        /* \"#utility.yul\":3690:3762   */\n      tag_133\n        /* \"#utility.yul\":3758:3760   */\n      0x20\n        /* \"#utility.yul\":3747:3756   */\n      dup4\n        /* \"#utility.yul\":3743:3761   */\n      add\n        /* \"#utility.yul\":3734:3740   */\n      dup13\n        /* \"#utility.yul\":3690:3762   */\n      tag_64\n      jump\t// in\n    tag_133:\n        /* \"#utility.yul\":3772:3838   */\n      tag_134\n        /* \"#utility.yul\":3834:3836   */\n      0x40\n        /* \"#utility.yul\":3823:3832   */\n      dup4\n        /* \"#utility.yul\":3819:3837   */\n      add\n        /* \"#utility.yul\":3810:3816   */\n      dup12\n        /* \"#utility.yul\":3772:3838   */\n      tag_76\n      jump\t// in\n    tag_134:\n        /* \"#utility.yul\":3848:3920   */\n      tag_135\n        /* \"#utility.yul\":3916:3918   */\n      0x60\n        /* \"#utility.yul\":3905:3914   */\n      dup4\n        /* \"#utility.yul\":3901:3919   */\n      add\n        /* \"#utility.yul\":3892:3898   */\n      dup11\n        /* \"#utility.yul\":3848:3920   */\n      tag_64\n      jump\t// in\n    tag_135:\n        /* \"#utility.yul\":3930:4003   */\n      tag_136\n        /* \"#utility.yul\":3998:4001   */\n      0x80\n        /* \"#utility.yul\":3987:3996   */\n      dup4\n        /* \"#utility.yul\":3983:4002   */\n      add\n        /* \"#utility.yul\":3974:3980   */\n      dup10\n        /* \"#utility.yul\":3930:4003   */\n      tag_64\n      jump\t// in\n    tag_136:\n        /* \"#utility.yul\":4013:4086   */\n      tag_137\n        /* \"#utility.yul\":4081:4084   */\n      0xa0\n        /* \"#utility.yul\":4070:4079   */\n      dup4\n        /* \"#utility.yul\":4066:4085   */\n      add\n        /* \"#utility.yul\":4057:4063   */\n      dup9\n        /* \"#utility.yul\":4013:4086   */\n      tag_74\n      jump\t// in\n    tag_137:\n        /* \"#utility.yul\":4096:4169   */\n      tag_138\n        /* \"#utility.yul\":4164:4167   */\n      0xc0\n        /* \"#utility.yul\":4153:4162   */\n      dup4\n        /* \"#utility.yul\":4149:4168   */\n      add\n        /* \"#utility.yul\":4140:4146   */\n      dup8\n        /* \"#utility.yul\":4096:4169   */\n      tag_64\n      jump\t// in\n    tag_138:\n        /* \"#utility.yul\":4179:4252   */\n      tag_139\n        /* \"#utility.yul\":4247:4250   */\n      0xe0\n        /* \"#utility.yul\":4236:4245   */\n      dup4\n        /* \"#utility.yul\":4232:4251   */\n      add\n        /* \"#utility.yul\":4223:4229   */\n      dup7\n        /* \"#utility.yul\":4179:4252   */\n      tag_74\n      jump\t// in\n    tag_139:\n        /* \"#utility.yul\":4262:4335   */\n      tag_140\n        /* \"#utility.yul\":4330:4333   */\n      0x0100\n        /* \"#utility.yul\":4319:4328   */\n      dup4\n        /* \"#utility.yul\":4315:4334   */\n      add\n        /* \"#utility.yul\":4306:4312   */\n      dup6\n        /* \"#utility.yul\":4262:4335   */\n      tag_74\n      jump\t// in\n    tag_140:\n        /* \"#utility.yul\":4345:4418   */\n      tag_141\n        /* \"#utility.yul\":4413:4416   */\n      0x0120\n        /* \"#utility.yul\":4402:4411   */\n      dup4\n        /* \"#utility.yul\":4398:4417   */\n      add\n        /* \"#utility.yul\":4389:4395   */\n      dup5\n        /* \"#utility.yul\":4345:4418   */\n      tag_74\n      jump\t// in\n    tag_141:\n        /* \"#utility.yul\":3218:4425   */\n      swap12\n      swap11\n      pop\n      pop\n      pop\n      pop\n      pop\n      pop\n      pop\n      pop\n      pop\n      pop\n      pop\n      jump\t// out\n        /* \"#utility.yul\":4431:4600   */\n    tag_77:\n        /* \"#utility.yul\":4515:4526   */\n      0x00\n        /* \"#utility.yul\":4549:4555   */\n      dup3\n        /* \"#utility.yul\":4544:4547   */\n      dup3\n        /* \"#utility.yul\":4537:4556   */\n      mstore\n        /* \"#utility.yul\":4589:4593   */\n      0x20\n        /* \"#utility.yul\":4584:4587   */\n      dup3\n        /* \"#utility.yul\":4580:4594   */\n      add\n        /* \"#utility.yul\":4565:4594   */\n      swap1\n      pop\n        /* \"#utility.yul\":4431:4600   */\n      swap3\n      swap2\n      pop\n      pop\n      jump\t// out\n        /* \"#utility.yul\":4606:4781   */\n    tag_78:\n        /* \"#utility.yul\":4746:4773   */\n      0x7072696365206d75737420706173732073746174706972636500000000000000\n        /* \"#utility.yul\":4742:4743   */\n      0x00\n        /* \"#utility.yul\":4734:4740   */\n      dup3\n        /* \"#utility.yul\":4730:4744   */\n      add\n        /* \"#utility.yul\":4723:4774   */\n      mstore\n        /* \"#utility.yul\":4606:4781   */\n      pop\n      jump\t// out\n        /* \"#utility.yul\":4787:5153   */\n    tag_79:\n        /* \"#utility.yul\":4929:4932   */\n      0x00\n        /* \"#utility.yul\":4950:5017   */\n      tag_145\n        /* \"#utility.yul\":5014:5016   */\n      0x19\n        /* \"#utility.yul\":5009:5012   */\n      dup4\n        /* \"#utility.yul\":4950:5017   */\n      tag_77\n      jump\t// in\n    tag_145:\n        /* \"#utility.yul\":4943:5017   */\n      swap2\n      pop\n        /* \"#utility.yul\":5026:5119   */\n      tag_146\n        /* \"#utility.yul\":5115:5118   */\n      dup3\n        /* \"#utility.yul\":5026:5119   */\n      tag_78\n      jump\t// in\n    tag_146:\n        /* \"#utility.yul\":5144:5146   */\n      0x20\n        /* \"#utility.yul\":5139:5142   */\n      dup3\n        /* \"#utility.yul\":5135:5147   */\n      add\n        /* \"#utility.yul\":5128:5147   */\n      swap1\n      pop\n        /* \"#utility.yul\":4787:5153   */\n      swap2\n      swap1\n      pop\n      jump\t// out\n        /* \"#utility.yul\":5159:5578   */\n    tag_35:\n        /* \"#utility.yul\":5325:5329   */\n      0x00\n        /* \"#utility.yul\":5363:5365   */\n      0x20\n        /* \"#utility.yul\":5352:5361   */\n      dup3\n        /* \"#utility.yul\":5348:5366   */\n      add\n        /* \"#utility.yul\":5340:5366   */\n      swap1\n      pop\n        /* \"#utility.yul\":5412:5421   */\n      dup2\n        /* \"#utility.yul\":5406:5410   */\n      dup2\n        /* \"#utility.yul\":5402:5422   */\n      sub\n        /* \"#utility.yul\":5398:5399   */\n      0x00\n        /* \"#utility.yul\":5387:5396   */\n      dup4\n        /* \"#utility.yul\":5383:5400   */\n      add\n        /* \"#utility.yul\":5376:5423   */\n      mstore\n        /* \"#utility.yul\":5440:5571   */\n      tag_148\n        /* \"#utility.yul\":5566:5570   */\n      dup2\n        /* \"#utility.yul\":5440:5571   */\n      tag_79\n      jump\t// in\n    tag_148:\n        /* \"#utility.yul\":5432:5571   */\n      swap1\n      pop\n        /* \"#utility.yul\":5159:5578   */\n      swap2\n      swap1\n      pop\n      jump\t// out\n        /* \"#utility.yul\":5584:5764   */\n    tag_80:\n        /* \"#utility.yul\":5632:5709   */\n      0x4e487b7100000000000000000000000000000000000000000000000000000000\n        /* \"#utility.yul\":5629:5630   */\n      0x00\n        /* \"#utility.yul\":5622:5710   */\n      mstore\n        /* \"#utility.yul\":5729:5733   */\n      0x11\n        /* \"#utility.yul\":5726:5727   */\n      0x04\n        /* \"#utility.yul\":5719:5734   */\n      mstore\n        /* \"#utility.yul\":5753:5757   */\n      0x24\n        /* \"#utility.yul\":5750:5751   */\n      0x00\n        /* \"#utility.yul\":5743:5758   */\n      revert\n        /* \"#utility.yul\":5770:5961   */\n    tag_37:\n        /* \"#utility.yul\":5810:5813   */\n      0x00\n        /* \"#utility.yul\":5829:5849   */\n      tag_151\n        /* \"#utility.yul\":5847:5848   */\n      dup3\n        /* \"#utility.yul\":5829:5849   */\n      tag_63\n      jump\t// in\n    tag_151:\n        /* \"#utility.yul\":5824:5849   */\n      swap2\n      pop\n        /* \"#utility.yul\":5863:5883   */\n      tag_152\n        /* \"#utility.yul\":5881:5882   */\n      dup4\n        /* \"#utility.yul\":5863:5883   */\n      tag_63\n      jump\t// in\n    tag_152:\n        /* \"#utility.yul\":5858:5883   */\n      swap3\n      pop\n        /* \"#utility.yul\":5906:5907   */\n      dup3\n        /* \"#utility.yul\":5903:5904   */\n      dup3\n        /* \"#utility.yul\":5899:5908   */\n      add\n        /* \"#utility.yul\":5892:5908   */\n      swap1\n      pop\n        /* \"#utility.yul\":5927:5930   */\n      dup1\n        /* \"#utility.yul\":5924:5925   */\n      dup3\n        /* \"#utility.yul\":5921:5931   */\n      gt\n        /* \"#utility.yul\":5918:5954   */\n      iszero\n      tag_153\n      jumpi\n        /* \"#utility.yul\":5934:5952   */\n      tag_154\n      tag_80\n      jump\t// in\n    tag_154:\n        /* \"#utility.yul\":5918:5954   */\n    tag_153:\n        /* \"#utility.yul\":5770:5961   */\n      swap3\n      swap2\n      pop\n      pop\n      jump\t// out\n        /* \"#utility.yul\":5967:6130   */\n    tag_81:\n        /* \"#utility.yul\":6107:6122   */\n      0x416369746f6e20697320656e6400000000000000000000000000000000000000\n        /* \"#utility.yul\":6103:6104   */\n      0x00\n        /* \"#utility.yul\":6095:6101   */\n      dup3\n        /* \"#utility.yul\":6091:6105   */\n      add\n        /* \"#utility.yul\":6084:6123   */\n      mstore\n        /* \"#utility.yul\":5967:6130   */\n      pop\n      jump\t// out\n        /* \"#utility.yul\":6136:6502   */\n    tag_82:\n        /* \"#utility.yul\":6278:6281   */\n      0x00\n        /* \"#utility.yul\":6299:6366   */\n      tag_157\n        /* \"#utility.yul\":6363:6365   */\n      0x0d\n        /* \"#utility.yul\":6358:6361   */\n      dup4\n        /* \"#utility.yul\":6299:6366   */\n      tag_77\n      jump\t// in\n    tag_157:\n        /* \"#utility.yul\":6292:6366   */\n      swap2\n      pop\n        /* \"#utility.yul\":6375:6468   */\n      tag_158\n        /* \"#utility.yul\":6464:6467   */\n      dup3\n        /* \"#utility.yul\":6375:6468   */\n      tag_81\n      jump\t// in\n    tag_158:\n        /* \"#utility.yul\":6493:6495   */\n      0x20\n        /* \"#utility.yul\":6488:6491   */\n      dup3\n        /* \"#utility.yul\":6484:6496   */\n      add\n        /* \"#utility.yul\":6477:6496   */\n      swap1\n      pop\n        /* \"#utility.yul\":6136:6502   */\n      swap2\n      swap1\n      pop\n      jump\t// out\n        /* \"#utility.yul\":6508:6927   */\n    tag_40:\n        /* \"#utility.yul\":6674:6678   */\n      0x00\n        /* \"#utility.yul\":6712:6714   */\n      0x20\n        /* \"#utility.yul\":6701:6710   */\n      dup3\n        /* \"#utility.yul\":6697:6715   */\n      add\n        /* \"#utility.yul\":6689:6715   */\n      swap1\n      pop\n        /* \"#utility.yul\":6761:6770   */\n      dup2\n        /* \"#utility.yul\":6755:6759   */\n      dup2\n        /* \"#utility.yul\":6751:6771   */\n      sub\n        /* \"#utility.yul\":6747:6748   */\n      0x00\n        /* \"#utility.yul\":6736:6745   */\n      dup4\n        /* \"#utility.yul\":6732:6749   */\n      add\n        /* \"#utility.yul\":6725:6772   */\n      mstore\n        /* \"#utility.yul\":6789:6920   */\n      tag_160\n        /* \"#utility.yul\":6915:6919   */\n      dup2\n        /* \"#utility.yul\":6789:6920   */\n      tag_82\n      jump\t// in\n    tag_160:\n        /* \"#utility.yul\":6781:6920   */\n      swap1\n      pop\n        /* \"#utility.yul\":6508:6927   */\n      swap2\n      swap1\n      pop\n      jump\t// out\n        /* \"#utility.yul\":6933:7107   */\n    tag_83:\n        /* \"#utility.yul\":7073:7099   */\n      0x7072696365206d7573742070617373206d617870726963650000000000000000\n        /* \"#utility.yul\":7069:7070   */\n      0x00\n        /* \"#utility.yul\":7061:7067   */\n      dup3\n        /* \"#utility.yul\":7057:7071   */\n      add\n        /* \"#utility.yul\":7050:7100   */\n      mstore\n        /* \"#utility.yul\":6933:7107   */\n      pop\n      jump\t// out\n        /* \"#utility.yul\":7113:7479   */\n    tag_84:\n        /* \"#utility.yul\":7255:7258   */\n      0x00\n        /* \"#utility.yul\":7276:7343   */\n      tag_163\n        /* \"#utility.yul\":7340:7342   */\n      0x18\n        /* \"#utility.yul\":7335:7338   */\n      dup4\n        /* \"#utility.yul\":7276:7343   */\n      tag_77\n      jump\t// in\n    tag_163:\n        /* \"#utility.yul\":7269:7343   */\n      swap2\n      pop\n        /* \"#utility.yul\":7352:7445   */\n      tag_164\n        /* \"#utility.yul\":7441:7444   */\n      dup3\n        /* \"#utility.yul\":7352:7445   */\n      tag_83\n      jump\t// in\n    tag_164:\n        /* \"#utility.yul\":7470:7472   */\n      0x20\n        /* \"#utility.yul\":7465:7468   */\n      dup3\n        /* \"#utility.yul\":7461:7473   */\n      add\n        /* \"#utility.yul\":7454:7473   */\n      swap1\n      pop\n        /* \"#utility.yul\":7113:7479   */\n      swap2\n      swap1\n      pop\n      jump\t// out\n        /* \"#utility.yul\":7485:7904   */\n    tag_45:\n        /* \"#utility.yul\":7651:7655   */\n      0x00\n        /* \"#utility.yul\":7689:7691   */\n      0x20\n        /* \"#utility.yul\":7678:7687   */\n      dup3\n        /* \"#utility.yul\":7674:7692   */\n      add\n        /* \"#utility.yul\":7666:7692   */\n      swap1\n      pop\n        /* \"#utility.yul\":7738:7747   */\n      dup2\n        /* \"#utility.yul\":7732:7736   */\n      dup2\n        /* \"#utility.yul\":7728:7748   */\n      sub\n        /* \"#utility.yul\":7724:7725   */\n      0x00\n        /* \"#utility.yul\":7713:7722   */\n      dup4\n        /* \"#utility.yul\":7709:7726   */\n      add\n        /* \"#utility.yul\":7702:7749   */\n      mstore\n        /* \"#utility.yul\":7766:7897   */\n      tag_166\n        /* \"#utility.yul\":7892:7896   */\n      dup2\n        /* \"#utility.yul\":7766:7897   */\n      tag_84\n      jump\t// in\n    tag_166:\n        /* \"#utility.yul\":7758:7897   */\n      swap1\n      pop\n        /* \"#utility.yul\":7485:7904   */\n      swap2\n      swap1\n      pop\n      jump\t// out\n        /* \"#utility.yul\":7910:8090   */\n    tag_85:\n        /* \"#utility.yul\":8050:8082   */\n      0x4f6e6c792061646d696e2063616e206372656174652061756374696f6e730000\n        /* \"#utility.yul\":8046:8047   */\n      0x00\n        /* \"#utility.yul\":8038:8044   */\n      dup3\n        /* \"#utility.yul\":8034:8048   */\n      add\n        /* \"#utility.yul\":8027:8083   */\n      mstore\n        /* \"#utility.yul\":7910:8090   */\n      pop\n      jump\t// out\n        /* \"#utility.yul\":8096:8462   */\n    tag_86:\n        /* \"#utility.yul\":8238:8241   */\n      0x00\n        /* \"#utility.yul\":8259:8326   */\n      tag_169\n        /* \"#utility.yul\":8323:8325   */\n      0x1e\n        /* \"#utility.yul\":8318:8321   */\n      dup4\n        /* \"#utility.yul\":8259:8326   */\n      tag_77\n      jump\t// in\n    tag_169:\n        /* \"#utility.yul\":8252:8326   */\n      swap2\n      pop\n        /* \"#utility.yul\":8335:8428   */\n      tag_170\n        /* \"#utility.yul\":8424:8427   */\n      dup3\n        /* \"#utility.yul\":8335:8428   */\n      tag_85\n      jump\t// in\n    tag_170:\n        /* \"#utility.yul\":8453:8455   */\n      0x20\n        /* \"#utility.yul\":8448:8451   */\n      dup3\n        /* \"#utility.yul\":8444:8456   */\n      add\n        /* \"#utility.yul\":8437:8456   */\n      swap1\n      pop\n        /* \"#utility.yul\":8096:8462   */\n      swap2\n      swap1\n      pop\n      jump\t// out\n        /* \"#utility.yul\":8468:8887   */\n    tag_52:\n        /* \"#utility.yul\":8634:8638   */\n      0x00\n        /* \"#utility.yul\":8672:8674   */\n      0x20\n        /* \"#utility.yul\":8661:8670   */\n      dup3\n        /* \"#utility.yul\":8657:8675   */\n      add\n        /* \"#utility.yul\":8649:8675   */\n      swap1\n      pop\n        /* \"#utility.yul\":8721:8730   */\n      dup2\n        /* \"#utility.yul\":8715:8719   */\n      dup2\n        /* \"#utility.yul\":8711:8731   */\n      sub\n        /* \"#utility.yul\":8707:8708   */\n      0x00\n        /* \"#utility.yul\":8696:8705   */\n      dup4\n        /* \"#utility.yul\":8692:8709   */\n      add\n        /* \"#utility.yul\":8685:8732   */\n      mstore\n        /* \"#utility.yul\":8749:8880   */\n      tag_172\n        /* \"#utility.yul\":8875:8879   */\n      dup2\n        /* \"#utility.yul\":8749:8880   */\n      tag_86\n      jump\t// in\n    tag_172:\n        /* \"#utility.yul\":8741:8880   */\n      swap1\n      pop\n        /* \"#utility.yul\":8468:8887   */\n      swap2\n      swap1\n      pop\n      jump\t// out\n        /* \"#utility.yul\":8893:9060   */\n    tag_87:\n        /* \"#utility.yul\":9033:9052   */\n      0x7072696365206d75737420706173732030000000000000000000000000000000\n        /* \"#utility.yul\":9029:9030   */\n      0x00\n        /* \"#utility.yul\":9021:9027   */\n      dup3\n        /* \"#utility.yul\":9017:9031   */\n      add\n        /* \"#utility.yul\":9010:9053   */\n      mstore\n        /* \"#utility.yul\":8893:9060   */\n      pop\n      jump\t// out\n        /* \"#utility.yul\":9066:9432   */\n    tag_88:\n        /* \"#utility.yul\":9208:9211   */\n      0x00\n        /* \"#utility.yul\":9229:9296   */\n      tag_175\n        /* \"#utility.yul\":9293:9295   */\n      0x11\n        /* \"#utility.yul\":9288:9291   */\n      dup4\n        /* \"#utility.yul\":9229:9296   */\n      tag_77\n      jump\t// in\n    tag_175:\n        /* \"#utility.yul\":9222:9296   */\n      swap2\n      pop\n        /* \"#utility.yul\":9305:9398   */\n      tag_176\n        /* \"#utility.yul\":9394:9397   */\n      dup3\n        /* \"#utility.yul\":9305:9398   */\n      tag_87\n      jump\t// in\n    tag_176:\n        /* \"#utility.yul\":9423:9425   */\n      0x20\n        /* \"#utility.yul\":9418:9421   */\n      dup3\n        /* \"#utility.yul\":9414:9426   */\n      add\n        /* \"#utility.yul\":9407:9426   */\n      swap1\n      pop\n        /* \"#utility.yul\":9066:9432   */\n      swap2\n      swap1\n      pop\n      jump\t// out\n        /* \"#utility.yul\":9438:9857   */\n    tag_55:\n        /* \"#utility.yul\":9604:9608   */\n      0x00\n        /* \"#utility.yul\":9642:9644   */\n      0x20\n        /* \"#utility.yul\":9631:9640   */\n      dup3\n        /* \"#utility.yul\":9627:9645   */\n      add\n        /* \"#utility.yul\":9619:9645   */\n      swap1\n      pop\n        /* \"#utility.yul\":9691:9700   */\n      dup2\n        /* \"#utility.yul\":9685:9689   */\n      dup2\n        /* \"#utility.yul\":9681:9701   */\n      sub\n        /* \"#utility.yul\":9677:9678   */\n      0x00\n        /* \"#utility.yul\":9666:9675   */\n      dup4\n        /* \"#utility.yul\":9662:9679   */\n      add\n        /* \"#utility.yul\":9655:9702   */\n      mstore\n        /* \"#utility.yul\":9719:9850   */\n      tag_178\n        /* \"#utility.yul\":9845:9849   */\n      dup2\n        /* \"#utility.yul\":9719:9850   */\n      tag_88\n      jump\t// in\n    tag_178:\n        /* \"#utility.yul\":9711:9850   */\n      swap1\n      pop\n        /* \"#utility.yul\":9438:9857   */\n      swap2\n      swap1\n      pop\n      jump\t// out\n        /* \"#utility.yul\":9863:10035   */\n    tag_89:\n        /* \"#utility.yul\":10003:10027   */\n      0x7374726174696d65206d75737420706173732031307300000000000000000000\n        /* \"#utility.yul\":9999:10000   */\n      0x00\n        /* \"#utility.yul\":9991:9997   */\n      dup3\n        /* \"#utility.yul\":9987:10001   */\n      add\n        /* \"#utility.yul\":9980:10028   */\n      mstore\n        /* \"#utility.yul\":9863:10035   */\n      pop\n      jump\t// out\n        /* \"#utility.yul\":10041:10407   */\n    tag_90:\n        /* \"#utility.yul\":10183:10186   */\n      0x00\n        /* \"#utility.yul\":10204:10271   */\n      tag_181\n        /* \"#utility.yul\":10268:10270   */\n      0x16\n        /* \"#utility.yul\":10263:10266   */\n      dup4\n        /* \"#utility.yul\":10204:10271   */\n      tag_77\n      jump\t// in\n    tag_181:\n        /* \"#utility.yul\":10197:10271   */\n      swap2\n      pop\n        /* \"#utility.yul\":10280:10373   */\n      tag_182\n        /* \"#utility.yul\":10369:10372   */\n      dup3\n        /* \"#utility.yul\":10280:10373   */\n      tag_89\n      jump\t// in\n    tag_182:\n        /* \"#utility.yul\":10398:10400   */\n      0x20\n        /* \"#utility.yul\":10393:10396   */\n      dup3\n        /* \"#utility.yul\":10389:10401   */\n      add\n        /* \"#utility.yul\":10382:10401   */\n      swap1\n      pop\n        /* \"#utility.yul\":10041:10407   */\n      swap2\n      swap1\n      pop\n      jump\t// out\n        /* \"#utility.yul\":10413:10832   */\n    tag_58:\n        /* \"#utility.yul\":10579:10583   */\n      0x00\n        /* \"#utility.yul\":10617:10619   */\n      0x20\n        /* \"#utility.yul\":10606:10615   */\n      dup3\n        /* \"#utility.yul\":10602:10620   */\n      add\n        /* \"#utility.yul\":10594:10620   */\n      swap1\n      pop\n        /* \"#utility.yul\":10666:10675   */\n      dup2\n        /* \"#utility.yul\":10660:10664   */\n      dup2\n        /* \"#utility.yul\":10656:10676   */\n      sub\n        /* \"#utility.yul\":10652:10653   */\n      0x00\n        /* \"#utility.yul\":10641:10650   */\n      dup4\n        /* \"#utility.yul\":10637:10654   */\n      add\n        /* \"#utility.yul\":10630:10677   */\n      mstore\n        /* \"#utility.yul\":10694:10825   */\n      tag_184\n        /* \"#utility.yul\":10820:10824   */\n      dup2\n        /* \"#utility.yul\":10694:10825   */\n      tag_90\n      jump\t// in\n    tag_184:\n        /* \"#utility.yul\":10686:10825   */\n      swap1\n      pop\n        /* \"#utility.yul\":10413:10832   */\n      swap2\n      swap1\n      pop\n      jump\t// out\n        /* \"#utility.yul\":10838:11248   */\n    tag_60:\n        /* \"#utility.yul\":10878:10885   */\n      0x00\n        /* \"#utility.yul\":10901:10921   */\n      tag_186\n        /* \"#utility.yul\":10919:10920   */\n      dup3\n        /* \"#utility.yul\":10901:10921   */\n      tag_63\n      jump\t// in\n    tag_186:\n        /* \"#utility.yul\":10896:10921   */\n      swap2\n      pop\n        /* \"#utility.yul\":10935:10955   */\n      tag_187\n        /* \"#utility.yul\":10953:10954   */\n      dup4\n        /* \"#utility.yul\":10935:10955   */\n      tag_63\n      jump\t// in\n    tag_187:\n        /* \"#utility.yul\":10930:10955   */\n      swap3\n      pop\n        /* \"#utility.yul\":10990:10991   */\n      dup3\n        /* \"#utility.yul\":10987:10988   */\n      dup3\n        /* \"#utility.yul\":10983:10992   */\n      mul\n        /* \"#utility.yul\":11012:11042   */\n      tag_188\n        /* \"#utility.yul\":11030:11041   */\n      dup2\n        /* \"#utility.yul\":11012:11042   */\n      tag_63\n      jump\t// in\n    tag_188:\n        /* \"#utility.yul\":11001:11042   */\n      swap2\n      pop\n        /* \"#utility.yul\":11191:11192   */\n      dup3\n        /* \"#utility.yul\":11182:11189   */\n      dup3\n        /* \"#utility.yul\":11178:11193   */\n      div\n        /* \"#utility.yul\":11175:11176   */\n      dup5\n        /* \"#utility.yul\":11172:11194   */\n      eq\n        /* \"#utility.yul\":11152:11153   */\n      dup4\n        /* \"#utility.yul\":11145:11154   */\n      iszero\n        /* \"#utility.yul\":11125:11208   */\n      or\n        /* \"#utility.yul\":11102:11241   */\n      tag_189\n      jumpi\n        /* \"#utility.yul\":11221:11239   */\n      tag_190\n      tag_80\n      jump\t// in\n    tag_190:\n        /* \"#utility.yul\":11102:11241   */\n    tag_189:\n        /* \"#utility.yul\":10886:11248   */\n      pop\n        /* \"#utility.yul\":10838:11248   */\n      swap3\n      swap2\n      pop\n      pop\n      jump\t// out\n        /* \"#utility.yul\":11254:11487   */\n    tag_62:\n        /* \"#utility.yul\":11293:11296   */\n      0x00\n        /* \"#utility.yul\":11316:11340   */\n      tag_192\n        /* \"#utility.yul\":11334:11339   */\n      dup3\n        /* \"#utility.yul\":11316:11340   */\n      tag_63\n      jump\t// in\n    tag_192:\n        /* \"#utility.yul\":11307:11340   */\n      swap2\n      pop\n        /* \"#utility.yul\":11362:11428   */\n      0xffffffffffffffffffffffffffffffffffffffffffffffffffffffffffffffff\n        /* \"#utility.yul\":11355:11360   */\n      dup3\n        /* \"#utility.yul\":11352:11429   */\n      sub\n        /* \"#utility.yul\":11349:11452   */\n      tag_193\n      jumpi\n        /* \"#utility.yul\":11432:11450   */\n      tag_194\n      tag_80\n      jump\t// in\n    tag_194:\n        /* \"#utility.yul\":11349:11452   */\n    tag_193:\n        /* \"#utility.yul\":11479:11480   */\n      0x01\n        /* \"#utility.yul\":11472:11477   */\n      dup3\n        /* \"#utility.yul\":11468:11481   */\n      add\n        /* \"#utility.yul\":11461:11481   */\n      swap1\n      pop\n        /* \"#utility.yul\":11254:11487   */\n      swap2\n      swap1\n      pop\n      jump\t// out\n\n    auxdata: 0xa264697066735822122054f99017e20dd2fad76847d04e96c33b9fa069a71269e7d0d478cf8f5f5d8d9f64736f6c634300081e0033\n}\n",
				"bytecode": {
					"linkReferences": {},
					"object": "6080604052348015600e575f5ffd5b503360025f6101000a81548173ffffffffffffffffffffffffffffffffffffffff021916908373ffffffffffffffffffffffffffffffffffffffff160217905550610ddb8061005c5f395ff3fe608060405260043610610049575f3560e01c80633a27dcfc1461004d5780635dc3c1b514610077578063cf285b6814610093578063f851a440146100bb578063fd754f06146100e5575b5f5ffd5b348015610058575f5ffd5b5061006161012a565b60405161006e9190610831565b60405180910390f35b610091600480360381019061008c9190610878565b610130565b005b34801561009e575f5ffd5b506100b960048036038101906100b491906108fd565b6103c1565b005b3480156100c6575f5ffd5b506100cf61071d565b6040516100dc9190610970565b60405180910390f35b3480156100f0575f5ffd5b5061010b60048036038101906101069190610878565b610742565b6040516101219a999897969594939291906109a3565b60405180910390f35b60015481565b5f5f8281526020019081526020015f2060030154341015610186576040517f08c379a000000000000000000000000000000000000000000000000000000000815260040161017d90610a97565b60405180910390fd5b5f5f8281526020019081526020015f20600101545f5f8381526020019081526020015f205f01546101b79190610ae2565b42106101f8576040517f08c379a00000000000000000000000000000000000000000000000000000000081526004016101ef90610b5f565b60405180910390fd5b5f15155f5f8381526020019081526020015f206002015f9054906101000a900460ff1615151461025d576040517f08c379a000000000000000000000000000000000000000000000000000000000815260040161025490610b5f565b60405180910390fd5b5f5f8281526020019081526020015f206004015434116102b2576040517f08c379a00000000000000000000000000000000000000000000000000000000081526004016102a990610bc7565b60405180910390fd5b5f73ffffffffffffffffffffffffffffffffffffffff165f5f8381526020019081526020015f206005015f9054906101000a900473ffffffffffffffffffffffffffffffffffffffff1673ffffffffffffffffffffffffffffffffffffffff16146103a1575f5f8281526020019081526020015f206005015f9054906101000a900473ffffffffffffffffffffffffffffffffffffffff1673ffffffffffffffffffffffffffffffffffffffff166108fc5f5f8481526020019081526020015f206004015490811502906040515f60405180830381858888f1935050505015801561039f573d5f5f3e3d5ffd5b505b5f5f5f8381526020019081526020015f2090503481600401819055505050565b60025f9054906101000a900473ffffffffffffffffffffffffffffffffffffffff1673ffffffffffffffffffffffffffffffffffffffff163373ffffffffffffffffffffffffffffffffffffffff1614610450576040517f08c379a000000000000000000000000000000000000000000000000000000000815260040161044790610c2f565b60405180910390fd5b5f8411610492576040517f08c379a000000000000000000000000000000000000000000000000000000000815260040161048990610c97565b60405180910390fd5b600a83116104d5576040517f08c379a00000000000000000000000000000000000000000000000000000000081526004016104cc90610cff565b60405180910390fd5b6040518061014001604052804281526020016103e8856104f59190610d1d565b81526020015f151581526020018581526020015f81526020015f73ffffffffffffffffffffffffffffffffffffffff1681526020018381526020015f73ffffffffffffffffffffffffffffffffffffffff1681526020018273ffffffffffffffffffffffffffffffffffffffff1681526020013373ffffffffffffffffffffffffffffffffffffffff168152505f5f60015481526020019081526020015f205f820151815f0155602082015181600101556040820151816002015f6101000a81548160ff021916908315150217905550606082015181600301556080820151816004015560a0820151816005015f6101000a81548173ffffffffffffffffffffffffffffffffffffffff021916908373ffffffffffffffffffffffffffffffffffffffff16021790555060c0820151816006015560e0820151816007015f6101000a81548173ffffffffffffffffffffffffffffffffffffffff021916908373ffffffffffffffffffffffffffffffffffffffff160217905550610100820151816008015f6101000a81548173ffffffffffffffffffffffffffffffffffffffff021916908373ffffffffffffffffffffffffffffffffffffffff160217905550610120820151816009015f6101000a81548173ffffffffffffffffffffffffffffffffffffffff021916908373ffffffffffffffffffffffffffffffffffffffff16021790555090505060015f81548092919061071290610d5e565b919050555050505050565b60025f9054906101000a900473ffffffffffffffffffffffffffffffffffffffff1681565b5f602052805f5260405f205f91509050805f015490806001015490806002015f9054906101000a900460ff1690806003015490806004015490806005015f9054906101000a900473ffffffffffffffffffffffffffffffffffffffff1690806006015490806007015f9054906101000a900473ffffffffffffffffffffffffffffffffffffffff1690806008015f9054906101000a900473ffffffffffffffffffffffffffffffffffffffff1690806009015f9054906101000a900473ffffffffffffffffffffffffffffffffffffffff1690508a565b5f819050919050565b61082b81610819565b82525050565b5f6020820190506108445f830184610822565b92915050565b5f5ffd5b61085781610819565b8114610861575f5ffd5b50565b5f813590506108728161084e565b92915050565b5f6020828403121561088d5761088c61084a565b5b5f61089a84828501610864565b91505092915050565b5f73ffffffffffffffffffffffffffffffffffffffff82169050919050565b5f6108cc826108a3565b9050919050565b6108dc816108c2565b81146108e6575f5ffd5b50565b5f813590506108f7816108d3565b92915050565b5f5f5f5f608085870312156109155761091461084a565b5b5f61092287828801610864565b945050602061093387828801610864565b935050604061094487828801610864565b9250506060610955878288016108e9565b91505092959194509250565b61096a816108c2565b82525050565b5f6020820190506109835f830184610961565b92915050565b5f8115159050919050565b61099d81610989565b82525050565b5f610140820190506109b75f83018d610822565b6109c4602083018c610822565b6109d1604083018b610994565b6109de606083018a610822565b6109eb6080830189610822565b6109f860a0830188610961565b610a0560c0830187610822565b610a1260e0830186610961565b610a20610100830185610961565b610a2e610120830184610961565b9b9a5050505050505050505050565b5f82825260208201905092915050565b7f7072696365206d757374207061737320737461747069726365000000000000005f82015250565b5f610a81601983610a3d565b9150610a8c82610a4d565b602082019050919050565b5f6020820190508181035f830152610aae81610a75565b9050919050565b7f4e487b71000000000000000000000000000000000000000000000000000000005f52601160045260245ffd5b5f610aec82610819565b9150610af783610819565b9250828201905080821115610b0f57610b0e610ab5565b5b92915050565b7f416369746f6e20697320656e64000000000000000000000000000000000000005f82015250565b5f610b49600d83610a3d565b9150610b5482610b15565b602082019050919050565b5f6020820190508181035f830152610b7681610b3d565b9050919050565b7f7072696365206d7573742070617373206d6178707269636500000000000000005f82015250565b5f610bb1601883610a3d565b9150610bbc82610b7d565b602082019050919050565b5f6020820190508181035f830152610bde81610ba5565b9050919050565b7f4f6e6c792061646d696e2063616e206372656174652061756374696f6e7300005f82015250565b5f610c19601e83610a3d565b9150610c2482610be5565b602082019050919050565b5f6020820190508181035f830152610c4681610c0d565b9050919050565b7f7072696365206d757374207061737320300000000000000000000000000000005f82015250565b5f610c81601183610a3d565b9150610c8c82610c4d565b602082019050919050565b5f6020820190508181035f830152610cae81610c75565b9050919050565b7f7374726174696d65206d757374207061737320313073000000000000000000005f82015250565b5f610ce9601683610a3d565b9150610cf482610cb5565b602082019050919050565b5f6020820190508181035f830152610d1681610cdd565b9050919050565b5f610d2782610819565b9150610d3283610819565b9250828202610d4081610819565b91508282048414831517610d5757610d56610ab5565b5b5092915050565b5f610d6882610819565b91507fffffffffffffffffffffffffffffffffffffffffffffffffffffffffffffffff8203610d9a57610d99610ab5565b5b60018201905091905056fea264697066735822122054f99017e20dd2fad76847d04e96c33b9fa069a71269e7d0d478cf8f5f5d8d9f64736f6c634300081e0033",
					"opcodes": "PUSH1 0x80 PUSH1 0x40 MSTORE CALLVALUE DUP1 ISZERO PUSH1 0xE JUMPI PUSH0 PUSH0 REVERT JUMPDEST POP CALLER PUSH1 0x2 PUSH0 PUSH2 0x100 EXP DUP2 SLOAD DUP2 PUSH20 0xFFFFFFFFFFFFFFFFFFFFFFFFFFFFFFFFFFFFFFFF MUL NOT AND SWAP1 DUP4 PUSH20 0xFFFFFFFFFFFFFFFFFFFFFFFFFFFFFFFFFFFFFFFF AND MUL OR SWAP1 SSTORE POP PUSH2 0xDDB DUP1 PUSH2 0x5C PUSH0 CODECOPY PUSH0 RETURN INVALID PUSH1 0x80 PUSH1 0x40 MSTORE PUSH1 0x4 CALLDATASIZE LT PUSH2 0x49 JUMPI PUSH0 CALLDATALOAD PUSH1 0xE0 SHR DUP1 PUSH4 0x3A27DCFC EQ PUSH2 0x4D JUMPI DUP1 PUSH4 0x5DC3C1B5 EQ PUSH2 0x77 JUMPI DUP1 PUSH4 0xCF285B68 EQ PUSH2 0x93 JUMPI DUP1 PUSH4 0xF851A440 EQ PUSH2 0xBB JUMPI DUP1 PUSH4 0xFD754F06 EQ PUSH2 0xE5 JUMPI JUMPDEST PUSH0 PUSH0 REVERT JUMPDEST CALLVALUE DUP1 ISZERO PUSH2 0x58 JUMPI PUSH0 PUSH0 REVERT JUMPDEST POP PUSH2 0x61 PUSH2 0x12A JUMP JUMPDEST PUSH1 0x40 MLOAD PUSH2 0x6E SWAP2 SWAP1 PUSH2 0x831 JUMP JUMPDEST PUSH1 0x40 MLOAD DUP1 SWAP2 SUB SWAP1 RETURN JUMPDEST PUSH2 0x91 PUSH1 0x4 DUP1 CALLDATASIZE SUB DUP2 ADD SWAP1 PUSH2 0x8C SWAP2 SWAP1 PUSH2 0x878 JUMP JUMPDEST PUSH2 0x130 JUMP JUMPDEST STOP JUMPDEST CALLVALUE DUP1 ISZERO PUSH2 0x9E JUMPI PUSH0 PUSH0 REVERT JUMPDEST POP PUSH2 0xB9 PUSH1 0x4 DUP1 CALLDATASIZE SUB DUP2 ADD SWAP1 PUSH2 0xB4 SWAP2 SWAP1 PUSH2 0x8FD JUMP JUMPDEST PUSH2 0x3C1 JUMP JUMPDEST STOP JUMPDEST CALLVALUE DUP1 ISZERO PUSH2 0xC6 JUMPI PUSH0 PUSH0 REVERT JUMPDEST POP PUSH2 0xCF PUSH2 0x71D JUMP JUMPDEST PUSH1 0x40 MLOAD PUSH2 0xDC SWAP2 SWAP1 PUSH2 0x970 JUMP JUMPDEST PUSH1 0x40 MLOAD DUP1 SWAP2 SUB SWAP1 RETURN JUMPDEST CALLVALUE DUP1 ISZERO PUSH2 0xF0 JUMPI PUSH0 PUSH0 REVERT JUMPDEST POP PUSH2 0x10B PUSH1 0x4 DUP1 CALLDATASIZE SUB DUP2 ADD SWAP1 PUSH2 0x106 SWAP2 SWAP1 PUSH2 0x878 JUMP JUMPDEST PUSH2 0x742 JUMP JUMPDEST PUSH1 0x40 MLOAD PUSH2 0x121 SWAP11 SWAP10 SWAP9 SWAP8 SWAP7 SWAP6 SWAP5 SWAP4 SWAP3 SWAP2 SWAP1 PUSH2 0x9A3 JUMP JUMPDEST PUSH1 0x40 MLOAD DUP1 SWAP2 SUB SWAP1 RETURN JUMPDEST PUSH1 0x1 SLOAD DUP2 JUMP JUMPDEST PUSH0 PUSH0 DUP3 DUP2 MSTORE PUSH1 0x20 ADD SWAP1 DUP2 MSTORE PUSH1 0x20 ADD PUSH0 KECCAK256 PUSH1 0x3 ADD SLOAD CALLVALUE LT ISZERO PUSH2 0x186 JUMPI PUSH1 0x40 MLOAD PUSH32 0x8C379A000000000000000000000000000000000000000000000000000000000 DUP2 MSTORE PUSH1 0x4 ADD PUSH2 0x17D SWAP1 PUSH2 0xA97 JUMP JUMPDEST PUSH1 0x40 MLOAD DUP1 SWAP2 SUB SWAP1 REVERT JUMPDEST PUSH0 PUSH0 DUP3 DUP2 MSTORE PUSH1 0x20 ADD SWAP1 DUP2 MSTORE PUSH1 0x20 ADD PUSH0 KECCAK256 PUSH1 0x1 ADD SLOAD PUSH0 PUSH0 DUP4 DUP2 MSTORE PUSH1 0x20 ADD SWAP1 DUP2 MSTORE PUSH1 0x20 ADD PUSH0 KECCAK256 PUSH0 ADD SLOAD PUSH2 0x1B7 SWAP2 SWAP1 PUSH2 0xAE2 JUMP JUMPDEST TIMESTAMP LT PUSH2 0x1F8 JUMPI PUSH1 0x40 MLOAD PUSH32 0x8C379A000000000000000000000000000000000000000000000000000000000 DUP2 MSTORE PUSH1 0x4 ADD PUSH2 0x1EF SWAP1 PUSH2 0xB5F JUMP JUMPDEST PUSH1 0x40 MLOAD DUP1 SWAP2 SUB SWAP1 REVERT JUMPDEST PUSH0 ISZERO ISZERO PUSH0 PUSH0 DUP4 DUP2 MSTORE PUSH1 0x20 ADD SWAP1 DUP2 MSTORE PUSH1 0x20 ADD PUSH0 KECCAK256 PUSH1 0x2 ADD PUSH0 SWAP1 SLOAD SWAP1 PUSH2 0x100 EXP SWAP1 DIV PUSH1 0xFF AND ISZERO ISZERO EQ PUSH2 0x25D JUMPI PUSH1 0x40 MLOAD PUSH32 0x8C379A000000000000000000000000000000000000000000000000000000000 DUP2 MSTORE PUSH1 0x4 ADD PUSH2 0x254 SWAP1 PUSH2 0xB5F JUMP JUMPDEST PUSH1 0x40 MLOAD DUP1 SWAP2 SUB SWAP1 REVERT JUMPDEST PUSH0 PUSH0 DUP3 DUP2 MSTORE PUSH1 0x20 ADD SWAP1 DUP2 MSTORE PUSH1 0x20 ADD PUSH0 KECCAK256 PUSH1 0x4 ADD SLOAD CALLVALUE GT PUSH2 0x2B2 JUMPI PUSH1 0x40 MLOAD PUSH32 0x8C379A000000000000000000000000000000000000000000000000000000000 DUP2 MSTORE PUSH1 0x4 ADD PUSH2 0x2A9 SWAP1 PUSH2 0xBC7 JUMP JUMPDEST PUSH1 0x40 MLOAD DUP1 SWAP2 SUB SWAP1 REVERT JUMPDEST PUSH0 PUSH20 0xFFFFFFFFFFFFFFFFFFFFFFFFFFFFFFFFFFFFFFFF AND PUSH0 PUSH0 DUP4 DUP2 MSTORE PUSH1 0x20 ADD SWAP1 DUP2 MSTORE PUSH1 0x20 ADD PUSH0 KECCAK256 PUSH1 0x5 ADD PUSH0 SWAP1 SLOAD SWAP1 PUSH2 0x100 EXP SWAP1 DIV PUSH20 0xFFFFFFFFFFFFFFFFFFFFFFFFFFFFFFFFFFFFFFFF AND PUSH20 0xFFFFFFFFFFFFFFFFFFFFFFFFFFFFFFFFFFFFFFFF AND EQ PUSH2 0x3A1 JUMPI PUSH0 PUSH0 DUP3 DUP2 MSTORE PUSH1 0x20 ADD SWAP1 DUP2 MSTORE PUSH1 0x20 ADD PUSH0 KECCAK256 PUSH1 0x5 ADD PUSH0 SWAP1 SLOAD SWAP1 PUSH2 0x100 EXP SWAP1 DIV PUSH20 0xFFFFFFFFFFFFFFFFFFFFFFFFFFFFFFFFFFFFFFFF AND PUSH20 0xFFFFFFFFFFFFFFFFFFFFFFFFFFFFFFFFFFFFFFFF AND PUSH2 0x8FC PUSH0 PUSH0 DUP5 DUP2 MSTORE PUSH1 0x20 ADD SWAP1 DUP2 MSTORE PUSH1 0x20 ADD PUSH0 KECCAK256 PUSH1 0x4 ADD SLOAD SWAP1 DUP2 ISZERO MUL SWAP1 PUSH1 0x40 MLOAD PUSH0 PUSH1 0x40 MLOAD DUP1 DUP4 SUB DUP2 DUP6 DUP9 DUP9 CALL SWAP4 POP POP POP POP ISZERO DUP1 ISZERO PUSH2 0x39F JUMPI RETURNDATASIZE PUSH0 PUSH0 RETURNDATACOPY RETURNDATASIZE PUSH0 REVERT JUMPDEST POP JUMPDEST PUSH0 PUSH0 PUSH0 DUP4 DUP2 MSTORE PUSH1 0x20 ADD SWAP1 DUP2 MSTORE PUSH1 0x20 ADD PUSH0 KECCAK256 SWAP1 POP CALLVALUE DUP2 PUSH1 0x4 ADD DUP2 SWAP1 SSTORE POP POP POP JUMP JUMPDEST PUSH1 0x2 PUSH0 SWAP1 SLOAD SWAP1 PUSH2 0x100 EXP SWAP1 DIV PUSH20 0xFFFFFFFFFFFFFFFFFFFFFFFFFFFFFFFFFFFFFFFF AND PUSH20 0xFFFFFFFFFFFFFFFFFFFFFFFFFFFFFFFFFFFFFFFF AND CALLER PUSH20 0xFFFFFFFFFFFFFFFFFFFFFFFFFFFFFFFFFFFFFFFF AND EQ PUSH2 0x450 JUMPI PUSH1 0x40 MLOAD PUSH32 0x8C379A000000000000000000000000000000000000000000000000000000000 DUP2 MSTORE PUSH1 0x4 ADD PUSH2 0x447 SWAP1 PUSH2 0xC2F JUMP JUMPDEST PUSH1 0x40 MLOAD DUP1 SWAP2 SUB SWAP1 REVERT JUMPDEST PUSH0 DUP5 GT PUSH2 0x492 JUMPI PUSH1 0x40 MLOAD PUSH32 0x8C379A000000000000000000000000000000000000000000000000000000000 DUP2 MSTORE PUSH1 0x4 ADD PUSH2 0x489 SWAP1 PUSH2 0xC97 JUMP JUMPDEST PUSH1 0x40 MLOAD DUP1 SWAP2 SUB SWAP1 REVERT JUMPDEST PUSH1 0xA DUP4 GT PUSH2 0x4D5 JUMPI PUSH1 0x40 MLOAD PUSH32 0x8C379A000000000000000000000000000000000000000000000000000000000 DUP2 MSTORE PUSH1 0x4 ADD PUSH2 0x4CC SWAP1 PUSH2 0xCFF JUMP JUMPDEST PUSH1 0x40 MLOAD DUP1 SWAP2 SUB SWAP1 REVERT JUMPDEST PUSH1 0x40 MLOAD DUP1 PUSH2 0x140 ADD PUSH1 0x40 MSTORE DUP1 TIMESTAMP DUP2 MSTORE PUSH1 0x20 ADD PUSH2 0x3E8 DUP6 PUSH2 0x4F5 SWAP2 SWAP1 PUSH2 0xD1D JUMP JUMPDEST DUP2 MSTORE PUSH1 0x20 ADD PUSH0 ISZERO ISZERO DUP2 MSTORE PUSH1 0x20 ADD DUP6 DUP2 MSTORE PUSH1 0x20 ADD PUSH0 DUP2 MSTORE PUSH1 0x20 ADD PUSH0 PUSH20 0xFFFFFFFFFFFFFFFFFFFFFFFFFFFFFFFFFFFFFFFF AND DUP2 MSTORE PUSH1 0x20 ADD DUP4 DUP2 MSTORE PUSH1 0x20 ADD PUSH0 PUSH20 0xFFFFFFFFFFFFFFFFFFFFFFFFFFFFFFFFFFFFFFFF AND DUP2 MSTORE PUSH1 0x20 ADD DUP3 PUSH20 0xFFFFFFFFFFFFFFFFFFFFFFFFFFFFFFFFFFFFFFFF AND DUP2 MSTORE PUSH1 0x20 ADD CALLER PUSH20 0xFFFFFFFFFFFFFFFFFFFFFFFFFFFFFFFFFFFFFFFF AND DUP2 MSTORE POP PUSH0 PUSH0 PUSH1 0x1 SLOAD DUP2 MSTORE PUSH1 0x20 ADD SWAP1 DUP2 MSTORE PUSH1 0x20 ADD PUSH0 KECCAK256 PUSH0 DUP3 ADD MLOAD DUP2 PUSH0 ADD SSTORE PUSH1 0x20 DUP3 ADD MLOAD DUP2 PUSH1 0x1 ADD SSTORE PUSH1 0x40 DUP3 ADD MLOAD DUP2 PUSH1 0x2 ADD PUSH0 PUSH2 0x100 EXP DUP2 SLOAD DUP2 PUSH1 0xFF MUL NOT AND SWAP1 DUP4 ISZERO ISZERO MUL OR SWAP1 SSTORE POP PUSH1 0x60 DUP3 ADD MLOAD DUP2 PUSH1 0x3 ADD SSTORE PUSH1 0x80 DUP3 ADD MLOAD DUP2 PUSH1 0x4 ADD SSTORE PUSH1 0xA0 DUP3 ADD MLOAD DUP2 PUSH1 0x5 ADD PUSH0 PUSH2 0x100 EXP DUP2 SLOAD DUP2 PUSH20 0xFFFFFFFFFFFFFFFFFFFFFFFFFFFFFFFFFFFFFFFF MUL NOT AND SWAP1 DUP4 PUSH20 0xFFFFFFFFFFFFFFFFFFFFFFFFFFFFFFFFFFFFFFFF AND MUL OR SWAP1 SSTORE POP PUSH1 0xC0 DUP3 ADD MLOAD DUP2 PUSH1 0x6 ADD SSTORE PUSH1 0xE0 DUP3 ADD MLOAD DUP2 PUSH1 0x7 ADD PUSH0 PUSH2 0x100 EXP DUP2 SLOAD DUP2 PUSH20 0xFFFFFFFFFFFFFFFFFFFFFFFFFFFFFFFFFFFFFFFF MUL NOT AND SWAP1 DUP4 PUSH20 0xFFFFFFFFFFFFFFFFFFFFFFFFFFFFFFFFFFFFFFFF AND MUL OR SWAP1 SSTORE POP PUSH2 0x100 DUP3 ADD MLOAD DUP2 PUSH1 0x8 ADD PUSH0 PUSH2 0x100 EXP DUP2 SLOAD DUP2 PUSH20 0xFFFFFFFFFFFFFFFFFFFFFFFFFFFFFFFFFFFFFFFF MUL NOT AND SWAP1 DUP4 PUSH20 0xFFFFFFFFFFFFFFFFFFFFFFFFFFFFFFFFFFFFFFFF AND MUL OR SWAP1 SSTORE POP PUSH2 0x120 DUP3 ADD MLOAD DUP2 PUSH1 0x9 ADD PUSH0 PUSH2 0x100 EXP DUP2 SLOAD DUP2 PUSH20 0xFFFFFFFFFFFFFFFFFFFFFFFFFFFFFFFFFFFFFFFF MUL NOT AND SWAP1 DUP4 PUSH20 0xFFFFFFFFFFFFFFFFFFFFFFFFFFFFFFFFFFFFFFFF AND MUL OR SWAP1 SSTORE POP SWAP1 POP POP PUSH1 0x1 PUSH0 DUP2 SLOAD DUP1 SWAP3 SWAP2 SWAP1 PUSH2 0x712 SWAP1 PUSH2 0xD5E JUMP JUMPDEST SWAP2 SWAP1 POP SSTORE POP POP POP POP POP JUMP JUMPDEST PUSH1 0x2 PUSH0 SWAP1 SLOAD SWAP1 PUSH2 0x100 EXP SWAP1 DIV PUSH20 0xFFFFFFFFFFFFFFFFFFFFFFFFFFFFFFFFFFFFFFFF AND DUP2 JUMP JUMPDEST PUSH0 PUSH1 0x20 MSTORE DUP1 PUSH0 MSTORE PUSH1 0x40 PUSH0 KECCAK256 PUSH0 SWAP2 POP SWAP1 POP DUP1 PUSH0 ADD SLOAD SWAP1 DUP1 PUSH1 0x1 ADD SLOAD SWAP1 DUP1 PUSH1 0x2 ADD PUSH0 SWAP1 SLOAD SWAP1 PUSH2 0x100 EXP SWAP1 DIV PUSH1 0xFF AND SWAP1 DUP1 PUSH1 0x3 ADD SLOAD SWAP1 DUP1 PUSH1 0x4 ADD SLOAD SWAP1 DUP1 PUSH1 0x5 ADD PUSH0 SWAP1 SLOAD SWAP1 PUSH2 0x100 EXP SWAP1 DIV PUSH20 0xFFFFFFFFFFFFFFFFFFFFFFFFFFFFFFFFFFFFFFFF AND SWAP1 DUP1 PUSH1 0x6 ADD SLOAD SWAP1 DUP1 PUSH1 0x7 ADD PUSH0 SWAP1 SLOAD SWAP1 PUSH2 0x100 EXP SWAP1 DIV PUSH20 0xFFFFFFFFFFFFFFFFFFFFFFFFFFFFFFFFFFFFFFFF AND SWAP1 DUP1 PUSH1 0x8 ADD PUSH0 SWAP1 SLOAD SWAP1 PUSH2 0x100 EXP SWAP1 DIV PUSH20 0xFFFFFFFFFFFFFFFFFFFFFFFFFFFFFFFFFFFFFFFF AND SWAP1 DUP1 PUSH1 0x9 ADD PUSH0 SWAP1 SLOAD SWAP1 PUSH2 0x100 EXP SWAP1 DIV PUSH20 0xFFFFFFFFFFFFFFFFFFFFFFFFFFFFFFFFFFFFFFFF AND SWAP1 POP DUP11 JUMP JUMPDEST PUSH0 DUP2 SWAP1 POP SWAP2 SWAP1 POP JUMP JUMPDEST PUSH2 0x82B DUP2 PUSH2 0x819 JUMP JUMPDEST DUP3 MSTORE POP POP JUMP JUMPDEST PUSH0 PUSH1 0x20 DUP3 ADD SWAP1 POP PUSH2 0x844 PUSH0 DUP4 ADD DUP5 PUSH2 0x822 JUMP JUMPDEST SWAP3 SWAP2 POP POP JUMP JUMPDEST PUSH0 PUSH0 REVERT JUMPDEST PUSH2 0x857 DUP2 PUSH2 0x819 JUMP JUMPDEST DUP2 EQ PUSH2 0x861 JUMPI PUSH0 PUSH0 REVERT JUMPDEST POP JUMP JUMPDEST PUSH0 DUP2 CALLDATALOAD SWAP1 POP PUSH2 0x872 DUP2 PUSH2 0x84E JUMP JUMPDEST SWAP3 SWAP2 POP POP JUMP JUMPDEST PUSH0 PUSH1 0x20 DUP3 DUP5 SUB SLT ISZERO PUSH2 0x88D JUMPI PUSH2 0x88C PUSH2 0x84A JUMP JUMPDEST JUMPDEST PUSH0 PUSH2 0x89A DUP5 DUP3 DUP6 ADD PUSH2 0x864 JUMP JUMPDEST SWAP2 POP POP SWAP3 SWAP2 POP POP JUMP JUMPDEST PUSH0 PUSH20 0xFFFFFFFFFFFFFFFFFFFFFFFFFFFFFFFFFFFFFFFF DUP3 AND SWAP1 POP SWAP2 SWAP1 POP JUMP JUMPDEST PUSH0 PUSH2 0x8CC DUP3 PUSH2 0x8A3 JUMP JUMPDEST SWAP1 POP SWAP2 SWAP1 POP JUMP JUMPDEST PUSH2 0x8DC DUP2 PUSH2 0x8C2 JUMP JUMPDEST DUP2 EQ PUSH2 0x8E6 JUMPI PUSH0 PUSH0 REVERT JUMPDEST POP JUMP JUMPDEST PUSH0 DUP2 CALLDATALOAD SWAP1 POP PUSH2 0x8F7 DUP2 PUSH2 0x8D3 JUMP JUMPDEST SWAP3 SWAP2 POP POP JUMP JUMPDEST PUSH0 PUSH0 PUSH0 PUSH0 PUSH1 0x80 DUP6 DUP8 SUB SLT ISZERO PUSH2 0x915 JUMPI PUSH2 0x914 PUSH2 0x84A JUMP JUMPDEST JUMPDEST PUSH0 PUSH2 0x922 DUP8 DUP3 DUP9 ADD PUSH2 0x864 JUMP JUMPDEST SWAP5 POP POP PUSH1 0x20 PUSH2 0x933 DUP8 DUP3 DUP9 ADD PUSH2 0x864 JUMP JUMPDEST SWAP4 POP POP PUSH1 0x40 PUSH2 0x944 DUP8 DUP3 DUP9 ADD PUSH2 0x864 JUMP JUMPDEST SWAP3 POP POP PUSH1 0x60 PUSH2 0x955 DUP8 DUP3 DUP9 ADD PUSH2 0x8E9 JUMP JUMPDEST SWAP2 POP POP SWAP3 SWAP6 SWAP2 SWAP5 POP SWAP3 POP JUMP JUMPDEST PUSH2 0x96A DUP2 PUSH2 0x8C2 JUMP JUMPDEST DUP3 MSTORE POP POP JUMP JUMPDEST PUSH0 PUSH1 0x20 DUP3 ADD SWAP1 POP PUSH2 0x983 PUSH0 DUP4 ADD DUP5 PUSH2 0x961 JUMP JUMPDEST SWAP3 SWAP2 POP POP JUMP JUMPDEST PUSH0 DUP2 ISZERO ISZERO SWAP1 POP SWAP2 SWAP1 POP JUMP JUMPDEST PUSH2 0x99D DUP2 PUSH2 0x989 JUMP JUMPDEST DUP3 MSTORE POP POP JUMP JUMPDEST PUSH0 PUSH2 0x140 DUP3 ADD SWAP1 POP PUSH2 0x9B7 PUSH0 DUP4 ADD DUP14 PUSH2 0x822 JUMP JUMPDEST PUSH2 0x9C4 PUSH1 0x20 DUP4 ADD DUP13 PUSH2 0x822 JUMP JUMPDEST PUSH2 0x9D1 PUSH1 0x40 DUP4 ADD DUP12 PUSH2 0x994 JUMP JUMPDEST PUSH2 0x9DE PUSH1 0x60 DUP4 ADD DUP11 PUSH2 0x822 JUMP JUMPDEST PUSH2 0x9EB PUSH1 0x80 DUP4 ADD DUP10 PUSH2 0x822 JUMP JUMPDEST PUSH2 0x9F8 PUSH1 0xA0 DUP4 ADD DUP9 PUSH2 0x961 JUMP JUMPDEST PUSH2 0xA05 PUSH1 0xC0 DUP4 ADD DUP8 PUSH2 0x822 JUMP JUMPDEST PUSH2 0xA12 PUSH1 0xE0 DUP4 ADD DUP7 PUSH2 0x961 JUMP JUMPDEST PUSH2 0xA20 PUSH2 0x100 DUP4 ADD DUP6 PUSH2 0x961 JUMP JUMPDEST PUSH2 0xA2E PUSH2 0x120 DUP4 ADD DUP5 PUSH2 0x961 JUMP JUMPDEST SWAP12 SWAP11 POP POP POP POP POP POP POP POP POP POP POP JUMP JUMPDEST PUSH0 DUP3 DUP3 MSTORE PUSH1 0x20 DUP3 ADD SWAP1 POP SWAP3 SWAP2 POP POP JUMP JUMPDEST PUSH32 0x7072696365206D75737420706173732073746174706972636500000000000000 PUSH0 DUP3 ADD MSTORE POP JUMP JUMPDEST PUSH0 PUSH2 0xA81 PUSH1 0x19 DUP4 PUSH2 0xA3D JUMP JUMPDEST SWAP2 POP PUSH2 0xA8C DUP3 PUSH2 0xA4D JUMP JUMPDEST PUSH1 0x20 DUP3 ADD SWAP1 POP SWAP2 SWAP1 POP JUMP JUMPDEST PUSH0 PUSH1 0x20 DUP3 ADD SWAP1 POP DUP2 DUP2 SUB PUSH0 DUP4 ADD MSTORE PUSH2 0xAAE DUP2 PUSH2 0xA75 JUMP JUMPDEST SWAP1 POP SWAP2 SWAP1 POP JUMP JUMPDEST PUSH32 0x4E487B7100000000000000000000000000000000000000000000000000000000 PUSH0 MSTORE PUSH1 0x11 PUSH1 0x4 MSTORE PUSH1 0x24 PUSH0 REVERT JUMPDEST PUSH0 PUSH2 0xAEC DUP3 PUSH2 0x819 JUMP JUMPDEST SWAP2 POP PUSH2 0xAF7 DUP4 PUSH2 0x819 JUMP JUMPDEST SWAP3 POP DUP3 DUP3 ADD SWAP1 POP DUP1 DUP3 GT ISZERO PUSH2 0xB0F JUMPI PUSH2 0xB0E PUSH2 0xAB5 JUMP JUMPDEST JUMPDEST SWAP3 SWAP2 POP POP JUMP JUMPDEST PUSH32 0x416369746F6E20697320656E6400000000000000000000000000000000000000 PUSH0 DUP3 ADD MSTORE POP JUMP JUMPDEST PUSH0 PUSH2 0xB49 PUSH1 0xD DUP4 PUSH2 0xA3D JUMP JUMPDEST SWAP2 POP PUSH2 0xB54 DUP3 PUSH2 0xB15 JUMP JUMPDEST PUSH1 0x20 DUP3 ADD SWAP1 POP SWAP2 SWAP1 POP JUMP JUMPDEST PUSH0 PUSH1 0x20 DUP3 ADD SWAP1 POP DUP2 DUP2 SUB PUSH0 DUP4 ADD MSTORE PUSH2 0xB76 DUP2 PUSH2 0xB3D JUMP JUMPDEST SWAP1 POP SWAP2 SWAP1 POP JUMP JUMPDEST PUSH32 0x7072696365206D7573742070617373206D617870726963650000000000000000 PUSH0 DUP3 ADD MSTORE POP JUMP JUMPDEST PUSH0 PUSH2 0xBB1 PUSH1 0x18 DUP4 PUSH2 0xA3D JUMP JUMPDEST SWAP2 POP PUSH2 0xBBC DUP3 PUSH2 0xB7D JUMP JUMPDEST PUSH1 0x20 DUP3 ADD SWAP1 POP SWAP2 SWAP1 POP JUMP JUMPDEST PUSH0 PUSH1 0x20 DUP3 ADD SWAP1 POP DUP2 DUP2 SUB PUSH0 DUP4 ADD MSTORE PUSH2 0xBDE DUP2 PUSH2 0xBA5 JUMP JUMPDEST SWAP1 POP SWAP2 SWAP1 POP JUMP JUMPDEST PUSH32 0x4F6E6C792061646D696E2063616E206372656174652061756374696F6E730000 PUSH0 DUP3 ADD MSTORE POP JUMP JUMPDEST PUSH0 PUSH2 0xC19 PUSH1 0x1E DUP4 PUSH2 0xA3D JUMP JUMPDEST SWAP2 POP PUSH2 0xC24 DUP3 PUSH2 0xBE5 JUMP JUMPDEST PUSH1 0x20 DUP3 ADD SWAP1 POP SWAP2 SWAP1 POP JUMP JUMPDEST PUSH0 PUSH1 0x20 DUP3 ADD SWAP1 POP DUP2 DUP2 SUB PUSH0 DUP4 ADD MSTORE PUSH2 0xC46 DUP2 PUSH2 0xC0D JUMP JUMPDEST SWAP1 POP SWAP2 SWAP1 POP JUMP JUMPDEST PUSH32 0x7072696365206D75737420706173732030000000000000000000000000000000 PUSH0 DUP3 ADD MSTORE POP JUMP JUMPDEST PUSH0 PUSH2 0xC81 PUSH1 0x11 DUP4 PUSH2 0xA3D JUMP JUMPDEST SWAP2 POP PUSH2 0xC8C DUP3 PUSH2 0xC4D JUMP JUMPDEST PUSH1 0x20 DUP3 ADD SWAP1 POP SWAP2 SWAP1 POP JUMP JUMPDEST PUSH0 PUSH1 0x20 DUP3 ADD SWAP1 POP DUP2 DUP2 SUB PUSH0 DUP4 ADD MSTORE PUSH2 0xCAE DUP2 PUSH2 0xC75 JUMP JUMPDEST SWAP1 POP SWAP2 SWAP1 POP JUMP JUMPDEST PUSH32 0x7374726174696D65206D75737420706173732031307300000000000000000000 PUSH0 DUP3 ADD MSTORE POP JUMP JUMPDEST PUSH0 PUSH2 0xCE9 PUSH1 0x16 DUP4 PUSH2 0xA3D JUMP JUMPDEST SWAP2 POP PUSH2 0xCF4 DUP3 PUSH2 0xCB5 JUMP JUMPDEST PUSH1 0x20 DUP3 ADD SWAP1 POP SWAP2 SWAP1 POP JUMP JUMPDEST PUSH0 PUSH1 0x20 DUP3 ADD SWAP1 POP DUP2 DUP2 SUB PUSH0 DUP4 ADD MSTORE PUSH2 0xD16 DUP2 PUSH2 0xCDD JUMP JUMPDEST SWAP1 POP SWAP2 SWAP1 POP JUMP JUMPDEST PUSH0 PUSH2 0xD27 DUP3 PUSH2 0x819 JUMP JUMPDEST SWAP2 POP PUSH2 0xD32 DUP4 PUSH2 0x819 JUMP JUMPDEST SWAP3 POP DUP3 DUP3 MUL PUSH2 0xD40 DUP2 PUSH2 0x819 JUMP JUMPDEST SWAP2 POP DUP3 DUP3 DIV DUP5 EQ DUP4 ISZERO OR PUSH2 0xD57 JUMPI PUSH2 0xD56 PUSH2 0xAB5 JUMP JUMPDEST JUMPDEST POP SWAP3 SWAP2 POP POP JUMP JUMPDEST PUSH0 PUSH2 0xD68 DUP3 PUSH2 0x819 JUMP JUMPDEST SWAP2 POP PUSH32 0xFFFFFFFFFFFFFFFFFFFFFFFFFFFFFFFFFFFFFFFFFFFFFFFFFFFFFFFFFFFFFFFF DUP3 SUB PUSH2 0xD9A JUMPI PUSH2 0xD99 PUSH2 0xAB5 JUMP JUMPDEST JUMPDEST PUSH1 0x1 DUP3 ADD SWAP1 POP SWAP2 SWAP1 POP JUMP INVALID LOG2 PUSH5 0x6970667358 0x22 SLT KECCAK256 SLOAD EXTDELEGATECALL SWAP1 OR 0xE2 0xD 0xD2 STATICCALL 0xD7 PUSH9 0x47D04E96C33B9FA069 0xA7 SLT PUSH10 0xE7D0D478CF8F5F5D8D9F PUSH5 0x736F6C6343 STOP ADDMOD 0x1E STOP CALLER "
				},
				"gasEstimates": {
					"creation": {
						"codeDepositCost": "709400",
						"executionCost": "25004",
						"totalCost": "734404"
					},
					"external": {
						"NextAciontId()": "2403",
						"aciton(uint256)": "infinite",
						"admin()": "2552",
						"createAciton(uint256,uint256,uint256,address)": "infinite",
						"joinAciton(uint256)": "infinite"
					}
				},
				"methodIdentifiers": {
					"NextAciontId()": "3a27dcfc",
					"aciton(uint256)": "fd754f06",
					"admin()": "f851a440",
					"createAciton(uint256,uint256,uint256,address)": "cf285b68",
					"joinAciton(uint256)": "5dc3c1b5"
				}
			},
			"storageLayout": {
				"storage": [
					{
						"astId": 27,
						"contract": "task03/NftAction.sol:NftAction",
						"label": "aciton",
						"offset": 0,
						"slot": "0",
						"type": "t_mapping(t_uint256,t_struct(NftInfo)22_storage)"
					},
					{
						"astId": 29,
						"contract": "task03/NftAction.sol:NftAction",
						"label": "NextAciontId",
						"offset": 0,
						"slot": "1",
						"type": "t_uint256"
					},
					{
						"astId": 31,
						"contract": "task03/NftAction.sol:NftAction",
						"label": "admin",
						"offset": 0,
						"slot": "2",
						"type": "t_address"
					}
				],
				"types": {
					"t_address": {
						"encoding": "inplace",
						"label": "address",
						"numberOfBytes": "20"
					},
					"t_bool": {
						"encoding": "inplace",
						"label": "bool",
						"numberOfBytes": "1"
					},
					"t_mapping(t_uint256,t_struct(NftInfo)22_storage)": {
						"encoding": "mapping",
						"key": "t_uint256",
						"label": "mapping(uint256 => struct NftAction.NftInfo)",
						"numberOfBytes": "32",
						"value": "t_struct(NftInfo)22_storage"
					},
					"t_struct(NftInfo)22_storage": {
						"encoding": "inplace",
						"label": "struct NftAction.NftInfo",
						"members": [
							{
								"astId": 3,
								"contract": "task03/NftAction.sol:NftAction",
								"label": "stratime",
								"offset": 0,
								"slot": "0",
								"type": "t_uint256"
							},
							{
								"astId": 5,
								"contract": "task03/NftAction.sol:NftAction",
								"label": "keeptime",
								"offset": 0,
								"slot": "1",
								"type": "t_uint256"
							},
							{
								"astId": 7,
								"contract": "task03/NftAction.sol:NftAction",
								"label": "isend",
								"offset": 0,
								"slot": "2",
								"type": "t_bool"
							},
							{
								"astId": 9,
								"contract": "task03/NftAction.sol:NftAction",
								"label": "statpirce",
								"offset": 0,
								"slot": "3",
								"type": "t_uint256"
							},
							{
								"astId": 11,
								"contract": "task03/NftAction.sol:NftAction",
								"label": "maxprice",
								"offset": 0,
								"slot": "4",
								"type": "t_uint256"
							},
							{
								"astId": 13,
								"contract": "task03/NftAction.sol:NftAction",
								"label": "maxaddress",
								"offset": 0,
								"slot": "5",
								"type": "t_address"
							},
							{
								"astId": 15,
								"contract": "task03/NftAction.sol:NftAction",
								"label": "TokenId",
								"offset": 0,
								"slot": "6",
								"type": "t_uint256"
							},
							{
								"astId": 17,
								"contract": "task03/NftAction.sol:NftAction",
								"label": "Tokenaddress",
								"offset": 0,
								"slot": "7",
								"type": "t_address"
							},
							{
								"astId": 19,
								"contract": "task03/NftAction.sol:NftAction",
								"label": "nftaddress",
								"offset": 0,
								"slot": "8",
								"type": "t_address"
							},
							{
								"astId": 21,
								"contract": "task03/NftAction.sol:NftAction",
								"label": "seller",
								"offset": 0,
								"slot": "9",
								"type": "t_address"
							}
						],
						"numberOfBytes": "320"
					},
					"t_uint256": {
						"encoding": "inplace",
						"label": "uint256",
						"numberOfBytes": "32"
					}
				}
			},
			"userdoc": {
				"kind": "user",
				"methods": {},
				"version": 1
			}
		}
	}
}