{
	"erc20.sol": {
		"Bank": {
			"abi": [
				{
					"inputs": [
						{
							"internalType": "address",
							"name": "",
							"type": "address"
						}
					],
					"name": "balances",
					"outputs": [
						{
							"internalType": "uint256",
							"name": "",
							"type": "uint256"
						}
					],
					"stateMutability": "view",
					"type": "function"
				},
				{
					"inputs": [],
					"name": "deposit",
					"outputs": [],
					"stateMutability": "payable",
					"type": "function"
				},
				{
					"inputs": [],
					"name": "getblance",
					"outputs": [
						{
							"internalType": "uint256",
							"name": "",
							"type": "uint256"
						}
					],
					"stateMutability": "view",
					"type": "function"
				},
				{
					"inputs": [
						{
							"internalType": "uint256",
							"name": "_value",
							"type": "uint256"
						},
						{
							"internalType": "address",
							"name": "_to",
							"type": "address"
						}
					],
					"name": "withdraw",
					"outputs": [],
					"stateMutability": "nonpayable",
					"type": "function"
				}
			],
			"devdoc": {
				"kind": "dev",
				"methods": {},
				"version": 1
			},
			"evm": {
				"assembly": "    /* \"erc20.sol\":250:952  contract Bank is Ibank{    ... */\n  mstore(0x40, 0x80)\n  callvalue\n  dup1\n  iszero\n  tag_1\n  jumpi\n  revert(0x00, 0x00)\ntag_1:\n  pop\n  dataSize(sub_0)\n  dup1\n  dataOffset(sub_0)\n  0x00\n  codecopy\n  0x00\n  return\nstop\n\nsub_0: assembly {\n        /* \"erc20.sol\":250:952  contract Bank is Ibank{    ... */\n      mstore(0x40, 0x80)\n      jumpi(tag_1, lt(calldatasize, 0x04))\n      shr(0xe0, calldataload(0x00))\n      dup1\n      0xf714ce\n      eq\n      tag_2\n      jumpi\n      dup1\n      0x27e235e3\n      eq\n      tag_3\n      jumpi\n      dup1\n      0x34b467a4\n      eq\n      tag_4\n      jumpi\n      dup1\n      0xd0e30db0\n      eq\n      tag_5\n      jumpi\n    tag_1:\n      revert(0x00, 0x00)\n        /* \"erc20.sol\":603:949  function withdraw( uint256 _value, address   _to )external override{... */\n    tag_2:\n      callvalue\n      dup1\n      iszero\n      tag_6\n      jumpi\n      revert(0x00, 0x00)\n    tag_6:\n      pop\n      tag_7\n      0x04\n      dup1\n      calldatasize\n      sub\n      dup2\n      add\n      swap1\n      tag_8\n      swap2\n      swap1\n      tag_9\n      jump\t// in\n    tag_8:\n      tag_10\n      jump\t// in\n    tag_7:\n      stop\n        /* \"erc20.sol\":284:328  mapping (address => uint256) public balances */\n    tag_3:\n      callvalue\n      dup1\n      iszero\n      tag_11\n      jumpi\n      revert(0x00, 0x00)\n    tag_11:\n      pop\n      tag_12\n      0x04\n      dup1\n      calldatasize\n      sub\n      dup2\n      add\n      swap1\n      tag_13\n      swap2\n      swap1\n      tag_14\n      jump\t// in\n    tag_13:\n      tag_15\n      jump\t// in\n    tag_12:\n      mload(0x40)\n      tag_16\n      swap2\n      swap1\n      tag_17\n      jump\t// in\n    tag_16:\n      mload(0x40)\n      dup1\n      swap2\n      sub\n      swap1\n      return\n        /* \"erc20.sol\":334:436  function getblance() external view override returns (uint256){... */\n    tag_4:\n      callvalue\n      dup1\n      iszero\n      tag_18\n      jumpi\n      revert(0x00, 0x00)\n    tag_18:\n      pop\n      tag_19\n      tag_20\n      jump\t// in\n    tag_19:\n      mload(0x40)\n      tag_21\n      swap2\n      swap1\n      tag_17\n      jump\t// in\n    tag_21:\n      mload(0x40)\n      dup1\n      swap2\n      sub\n      swap1\n      return\n        /* \"erc20.sol\":443:596  function deposit() external  payable override{... */\n    tag_5:\n      tag_22\n      tag_23\n      jump\t// in\n    tag_22:\n      stop\n        /* \"erc20.sol\":603:949  function withdraw( uint256 _value, address   _to )external override{... */\n    tag_10:\n        /* \"erc20.sol\":694:702  balances */\n      0x00\n        /* \"erc20.sol\":694:707  balances[_to] */\n      0x00\n        /* \"erc20.sol\":703:706  _to */\n      dup3\n        /* \"erc20.sol\":694:707  balances[_to] */\n      0xffffffffffffffffffffffffffffffffffffffff\n      and\n      0xffffffffffffffffffffffffffffffffffffffff\n      and\n      dup2\n      mstore\n      0x20\n      add\n      swap1\n      dup2\n      mstore\n      0x20\n      add\n      0x00\n      keccak256\n      sload\n        /* \"erc20.sol\":687:693  _value */\n      dup3\n        /* \"erc20.sol\":687:707  _value<balances[_to] */\n      lt\n        /* \"erc20.sol\":679:759  require(_value<balances[_to], \"Withdraw amount must be lower than your balance\") */\n      tag_25\n      jumpi\n      mload(0x40)\n      0x08c379a000000000000000000000000000000000000000000000000000000000\n      dup2\n      mstore\n      0x04\n      add\n      tag_26\n      swap1\n      tag_27\n      jump\t// in\n    tag_26:\n      mload(0x40)\n      dup1\n      swap2\n      sub\n      swap1\n      revert\n    tag_25:\n        /* \"erc20.sol\":772:781  bool sent */\n      0x00\n        /* \"erc20.sol\":792:795  _to */\n      dup2\n        /* \"erc20.sol\":784:801  payable(_to).call */\n      0xffffffffffffffffffffffffffffffffffffffff\n      and\n        /* \"erc20.sol\":809:815  _value */\n      dup4\n        /* \"erc20.sol\":784:820  payable(_to).call{value: _value}(\"\") */\n      mload(0x40)\n      tag_28\n      swap1\n      tag_29\n      jump\t// in\n    tag_28:\n      0x00\n      mload(0x40)\n      dup1\n      dup4\n      sub\n      dup2\n      dup6\n      dup8\n      gas\n      call\n      swap3\n      pop\n      pop\n      pop\n      returndatasize\n      dup1\n      0x00\n      dup2\n      eq\n      tag_32\n      jumpi\n      mload(0x40)\n      swap2\n      pop\n      and(add(returndatasize, 0x3f), not(0x1f))\n      dup3\n      add\n      0x40\n      mstore\n      returndatasize\n      dup3\n      mstore\n      returndatasize\n      0x00\n      0x20\n      dup5\n      add\n      returndatacopy\n      jump(tag_31)\n    tag_32:\n      0x60\n      swap2\n      pop\n    tag_31:\n      pop\n        /* \"erc20.sol\":771:820  (bool sent,)=payable(_to).call{value: _value}(\"\") */\n      pop\n      swap1\n      pop\n        /* \"erc20.sol\":833:837  sent */\n      dup1\n        /* \"erc20.sol\":830:941  if(sent){... */\n      iszero\n      tag_33\n      jumpi\n        /* \"erc20.sol\":874:880  _value */\n      dup3\n        /* \"erc20.sol\":849:857  balances */\n      0x00\n        /* \"erc20.sol\":849:869  balances[msg.sender] */\n      0x00\n        /* \"erc20.sol\":858:868  msg.sender */\n      caller\n        /* \"erc20.sol\":849:869  balances[msg.sender] */\n      0xffffffffffffffffffffffffffffffffffffffff\n      and\n      0xffffffffffffffffffffffffffffffffffffffff\n      and\n      dup2\n      mstore\n      0x20\n      add\n      swap1\n      dup2\n      mstore\n      0x20\n      add\n      0x00\n      keccak256\n      0x00\n        /* \"erc20.sol\":849:880  balances[msg.sender] -=  _value */\n      dup3\n      dup3\n      sload\n      tag_34\n      swap2\n      swap1\n      tag_35\n      jump\t// in\n    tag_34:\n      swap3\n      pop\n      pop\n      dup2\n      swap1\n      sstore\n      pop\n        /* \"erc20.sol\":830:941  if(sent){... */\n      jump(tag_36)\n    tag_33:\n        /* \"erc20.sol\":907:930  revert(\"No Ether Sent\") */\n      mload(0x40)\n      0x08c379a000000000000000000000000000000000000000000000000000000000\n      dup2\n      mstore\n      0x04\n      add\n      tag_37\n      swap1\n      tag_38\n      jump\t// in\n    tag_37:\n      mload(0x40)\n      dup1\n      swap2\n      sub\n      swap1\n      revert\n        /* \"erc20.sol\":830:941  if(sent){... */\n    tag_36:\n        /* \"erc20.sol\":670:949  {... */\n      pop\n        /* \"erc20.sol\":603:949  function withdraw( uint256 _value, address   _to )external override{... */\n      pop\n      pop\n      jump\t// out\n        /* \"erc20.sol\":284:328  mapping (address => uint256) public balances */\n    tag_15:\n      mstore(0x20, 0x00)\n      dup1\n      0x00\n      mstore\n      keccak256(0x00, 0x40)\n      0x00\n      swap2\n      pop\n      swap1\n      pop\n      sload\n      dup2\n      jump\t// out\n        /* \"erc20.sol\":334:436  function getblance() external view override returns (uint256){... */\n    tag_20:\n        /* \"erc20.sol\":387:394  uint256 */\n      0x00\n        /* \"erc20.sol\":409:417  balances */\n      0x00\n        /* \"erc20.sol\":409:429  balances[msg.sender] */\n      0x00\n        /* \"erc20.sol\":418:428  msg.sender */\n      caller\n        /* \"erc20.sol\":409:429  balances[msg.sender] */\n      0xffffffffffffffffffffffffffffffffffffffff\n      and\n      0xffffffffffffffffffffffffffffffffffffffff\n      and\n      dup2\n      mstore\n      0x20\n      add\n      swap1\n      dup2\n      mstore\n      0x20\n      add\n      0x00\n      keccak256\n      sload\n        /* \"erc20.sol\":402:429  return balances[msg.sender] */\n      swap1\n      pop\n        /* \"erc20.sol\":334:436  function getblance() external view override returns (uint256){... */\n      swap1\n      jump\t// out\n        /* \"erc20.sol\":443:596  function deposit() external  payable override{... */\n    tag_23:\n        /* \"erc20.sol\":513:514  0 */\n      0x00\n        /* \"erc20.sol\":503:512  msg.value */\n      callvalue\n        /* \"erc20.sol\":503:514  msg.value>0 */\n      gt\n        /* \"erc20.sol\":495:550  require(msg.value>0,\"deposit amount must great than 0\") */\n      tag_41\n      jumpi\n      mload(0x40)\n      0x08c379a000000000000000000000000000000000000000000000000000000000\n      dup2\n      mstore\n      0x04\n      add\n      tag_42\n      swap1\n      tag_43\n      jump\t// in\n    tag_42:\n      mload(0x40)\n      dup1\n      swap2\n      sub\n      swap1\n      revert\n    tag_41:\n        /* \"erc20.sol\":580:589  msg.value */\n      callvalue\n        /* \"erc20.sol\":557:565  balances */\n      0x00\n        /* \"erc20.sol\":557:577  balances[msg.sender] */\n      0x00\n        /* \"erc20.sol\":566:576  msg.sender */\n      caller\n        /* \"erc20.sol\":557:577  balances[msg.sender] */\n      0xffffffffffffffffffffffffffffffffffffffff\n      and\n      0xffffffffffffffffffffffffffffffffffffffff\n      and\n      dup2\n      mstore\n      0x20\n      add\n      swap1\n      dup2\n      mstore\n      0x20\n      add\n      0x00\n      keccak256\n      0x00\n        /* \"erc20.sol\":557:589  balances[msg.sender]+= msg.value */\n      dup3\n      dup3\n      sload\n      tag_44\n      swap2\n      swap1\n      tag_45\n      jump\t// in\n    tag_44:\n      swap3\n      pop\n      pop\n      dup2\n      swap1\n      sstore\n      pop\n        /* \"erc20.sol\":443:596  function deposit() external  payable override{... */\n      jump\t// out\n        /* \"#utility.yul\":88:205   */\n    tag_47:\n        /* \"#utility.yul\":197:198   */\n      0x00\n        /* \"#utility.yul\":194:195   */\n      0x00\n        /* \"#utility.yul\":187:199   */\n      revert\n        /* \"#utility.yul\":334:411   */\n    tag_49:\n        /* \"#utility.yul\":371:378   */\n      0x00\n        /* \"#utility.yul\":400:405   */\n      dup2\n        /* \"#utility.yul\":389:405   */\n      swap1\n      pop\n        /* \"#utility.yul\":334:411   */\n      swap2\n      swap1\n      pop\n      jump\t// out\n        /* \"#utility.yul\":417:539   */\n    tag_50:\n        /* \"#utility.yul\":490:514   */\n      tag_74\n        /* \"#utility.yul\":508:513   */\n      dup2\n        /* \"#utility.yul\":490:514   */\n      tag_49\n      jump\t// in\n    tag_74:\n        /* \"#utility.yul\":483:488   */\n      dup2\n        /* \"#utility.yul\":480:515   */\n      eq\n        /* \"#utility.yul\":470:533   */\n      tag_75\n      jumpi\n        /* \"#utility.yul\":529:530   */\n      0x00\n        /* \"#utility.yul\":526:527   */\n      0x00\n        /* \"#utility.yul\":519:531   */\n      revert\n        /* \"#utility.yul\":470:533   */\n    tag_75:\n        /* \"#utility.yul\":417:539   */\n      pop\n      jump\t// out\n        /* \"#utility.yul\":545:684   */\n    tag_51:\n        /* \"#utility.yul\":591:596   */\n      0x00\n        /* \"#utility.yul\":629:635   */\n      dup2\n        /* \"#utility.yul\":616:636   */\n      calldataload\n        /* \"#utility.yul\":607:636   */\n      swap1\n      pop\n        /* \"#utility.yul\":645:678   */\n      tag_77\n        /* \"#utility.yul\":672:677   */\n      dup2\n        /* \"#utility.yul\":645:678   */\n      tag_50\n      jump\t// in\n    tag_77:\n        /* \"#utility.yul\":545:684   */\n      swap3\n      swap2\n      pop\n      pop\n      jump\t// out\n        /* \"#utility.yul\":690:816   */\n    tag_52:\n        /* \"#utility.yul\":727:734   */\n      0x00\n        /* \"#utility.yul\":767:809   */\n      0xffffffffffffffffffffffffffffffffffffffff\n        /* \"#utility.yul\":760:765   */\n      dup3\n        /* \"#utility.yul\":756:810   */\n      and\n        /* \"#utility.yul\":745:810   */\n      swap1\n      pop\n        /* \"#utility.yul\":690:816   */\n      swap2\n      swap1\n      pop\n      jump\t// out\n        /* \"#utility.yul\":822:918   */\n    tag_53:\n        /* \"#utility.yul\":859:866   */\n      0x00\n        /* \"#utility.yul\":888:912   */\n      tag_80\n        /* \"#utility.yul\":906:911   */\n      dup3\n        /* \"#utility.yul\":888:912   */\n      tag_52\n      jump\t// in\n    tag_80:\n        /* \"#utility.yul\":877:912   */\n      swap1\n      pop\n        /* \"#utility.yul\":822:918   */\n      swap2\n      swap1\n      pop\n      jump\t// out\n        /* \"#utility.yul\":924:1046   */\n    tag_54:\n        /* \"#utility.yul\":997:1021   */\n      tag_82\n        /* \"#utility.yul\":1015:1020   */\n      dup2\n        /* \"#utility.yul\":997:1021   */\n      tag_53\n      jump\t// in\n    tag_82:\n        /* \"#utility.yul\":990:995   */\n      dup2\n        /* \"#utility.yul\":987:1022   */\n      eq\n        /* \"#utility.yul\":977:1040   */\n      tag_83\n      jumpi\n        /* \"#utility.yul\":1036:1037   */\n      0x00\n        /* \"#utility.yul\":1033:1034   */\n      0x00\n        /* \"#utility.yul\":1026:1038   */\n      revert\n        /* \"#utility.yul\":977:1040   */\n    tag_83:\n        /* \"#utility.yul\":924:1046   */\n      pop\n      jump\t// out\n        /* \"#utility.yul\":1052:1191   */\n    tag_55:\n        /* \"#utility.yul\":1098:1103   */\n      0x00\n        /* \"#utility.yul\":1136:1142   */\n      dup2\n        /* \"#utility.yul\":1123:1143   */\n      calldataload\n        /* \"#utility.yul\":1114:1143   */\n      swap1\n      pop\n        /* \"#utility.yul\":1152:1185   */\n      tag_85\n        /* \"#utility.yul\":1179:1184   */\n      dup2\n        /* \"#utility.yul\":1152:1185   */\n      tag_54\n      jump\t// in\n    tag_85:\n        /* \"#utility.yul\":1052:1191   */\n      swap3\n      swap2\n      pop\n      pop\n      jump\t// out\n        /* \"#utility.yul\":1197:1671   */\n    tag_9:\n        /* \"#utility.yul\":1265:1271   */\n      0x00\n        /* \"#utility.yul\":1273:1279   */\n      0x00\n        /* \"#utility.yul\":1322:1324   */\n      0x40\n        /* \"#utility.yul\":1310:1319   */\n      dup4\n        /* \"#utility.yul\":1301:1308   */\n      dup6\n        /* \"#utility.yul\":1297:1320   */\n      sub\n        /* \"#utility.yul\":1293:1325   */\n      slt\n        /* \"#utility.yul\":1290:1409   */\n      iszero\n      tag_87\n      jumpi\n        /* \"#utility.yul\":1328:1407   */\n      tag_88\n      tag_47\n      jump\t// in\n    tag_88:\n        /* \"#utility.yul\":1290:1409   */\n    tag_87:\n        /* \"#utility.yul\":1448:1449   */\n      0x00\n        /* \"#utility.yul\":1473:1526   */\n      tag_89\n        /* \"#utility.yul\":1518:1525   */\n      dup6\n        /* \"#utility.yul\":1509:1515   */\n      dup3\n        /* \"#utility.yul\":1498:1507   */\n      dup7\n        /* \"#utility.yul\":1494:1516   */\n      add\n        /* \"#utility.yul\":1473:1526   */\n      tag_51\n      jump\t// in\n    tag_89:\n        /* \"#utility.yul\":1463:1526   */\n      swap3\n      pop\n        /* \"#utility.yul\":1419:1536   */\n      pop\n        /* \"#utility.yul\":1575:1577   */\n      0x20\n        /* \"#utility.yul\":1601:1654   */\n      tag_90\n        /* \"#utility.yul\":1646:1653   */\n      dup6\n        /* \"#utility.yul\":1637:1643   */\n      dup3\n        /* \"#utility.yul\":1626:1635   */\n      dup7\n        /* \"#utility.yul\":1622:1644   */\n      add\n        /* \"#utility.yul\":1601:1654   */\n      tag_55\n      jump\t// in\n    tag_90:\n        /* \"#utility.yul\":1591:1654   */\n      swap2\n      pop\n        /* \"#utility.yul\":1546:1664   */\n      pop\n        /* \"#utility.yul\":1197:1671   */\n      swap3\n      pop\n      swap3\n      swap1\n      pop\n      jump\t// out\n        /* \"#utility.yul\":1677:2006   */\n    tag_14:\n        /* \"#utility.yul\":1736:1742   */\n      0x00\n        /* \"#utility.yul\":1785:1787   */\n      0x20\n        /* \"#utility.yul\":1773:1782   */\n      dup3\n        /* \"#utility.yul\":1764:1771   */\n      dup5\n        /* \"#utility.yul\":1760:1783   */\n      sub\n        /* \"#utility.yul\":1756:1788   */\n      slt\n        /* \"#utility.yul\":1753:1872   */\n      iszero\n      tag_92\n      jumpi\n        /* \"#utility.yul\":1791:1870   */\n      tag_93\n      tag_47\n      jump\t// in\n    tag_93:\n        /* \"#utility.yul\":1753:1872   */\n    tag_92:\n        /* \"#utility.yul\":1911:1912   */\n      0x00\n        /* \"#utility.yul\":1936:1989   */\n      tag_94\n        /* \"#utility.yul\":1981:1988   */\n      dup5\n        /* \"#utility.yul\":1972:1978   */\n      dup3\n        /* \"#utility.yul\":1961:1970   */\n      dup6\n        /* \"#utility.yul\":1957:1979   */\n      add\n        /* \"#utility.yul\":1936:1989   */\n      tag_55\n      jump\t// in\n    tag_94:\n        /* \"#utility.yul\":1926:1989   */\n      swap2\n      pop\n        /* \"#utility.yul\":1882:1999   */\n      pop\n        /* \"#utility.yul\":1677:2006   */\n      swap3\n      swap2\n      pop\n      pop\n      jump\t// out\n        /* \"#utility.yul\":2012:2130   */\n    tag_56:\n        /* \"#utility.yul\":2099:2123   */\n      tag_96\n        /* \"#utility.yul\":2117:2122   */\n      dup2\n        /* \"#utility.yul\":2099:2123   */\n      tag_49\n      jump\t// in\n    tag_96:\n        /* \"#utility.yul\":2094:2097   */\n      dup3\n        /* \"#utility.yul\":2087:2124   */\n      mstore\n        /* \"#utility.yul\":2012:2130   */\n      pop\n      pop\n      jump\t// out\n        /* \"#utility.yul\":2136:2358   */\n    tag_17:\n        /* \"#utility.yul\":2229:2233   */\n      0x00\n        /* \"#utility.yul\":2267:2269   */\n      0x20\n        /* \"#utility.yul\":2256:2265   */\n      dup3\n        /* \"#utility.yul\":2252:2270   */\n      add\n        /* \"#utility.yul\":2244:2270   */\n      swap1\n      pop\n        /* \"#utility.yul\":2280:2351   */\n      tag_98\n        /* \"#utility.yul\":2348:2349   */\n      0x00\n        /* \"#utility.yul\":2337:2346   */\n      dup4\n        /* \"#utility.yul\":2333:2350   */\n      add\n        /* \"#utility.yul\":2324:2330   */\n      dup5\n        /* \"#utility.yul\":2280:2351   */\n      tag_56\n      jump\t// in\n    tag_98:\n        /* \"#utility.yul\":2136:2358   */\n      swap3\n      swap2\n      pop\n      pop\n      jump\t// out\n        /* \"#utility.yul\":2364:2533   */\n    tag_57:\n        /* \"#utility.yul\":2448:2459   */\n      0x00\n        /* \"#utility.yul\":2482:2488   */\n      dup3\n        /* \"#utility.yul\":2477:2480   */\n      dup3\n        /* \"#utility.yul\":2470:2489   */\n      mstore\n        /* \"#utility.yul\":2522:2526   */\n      0x20\n        /* \"#utility.yul\":2517:2520   */\n      dup3\n        /* \"#utility.yul\":2513:2527   */\n      add\n        /* \"#utility.yul\":2498:2527   */\n      swap1\n      pop\n        /* \"#utility.yul\":2364:2533   */\n      swap3\n      swap2\n      pop\n      pop\n      jump\t// out\n        /* \"#utility.yul\":2539:2773   */\n    tag_58:\n        /* \"#utility.yul\":2679:2713   */\n      0x576974686472617720616d6f756e74206d757374206265206c6f776572207468\n        /* \"#utility.yul\":2675:2676   */\n      0x00\n        /* \"#utility.yul\":2667:2673   */\n      dup3\n        /* \"#utility.yul\":2663:2677   */\n      add\n        /* \"#utility.yul\":2656:2714   */\n      mstore\n        /* \"#utility.yul\":2748:2765   */\n      0x616e20796f75722062616c616e63650000000000000000000000000000000000\n        /* \"#utility.yul\":2743:2745   */\n      0x20\n        /* \"#utility.yul\":2735:2741   */\n      dup3\n        /* \"#utility.yul\":2731:2746   */\n      add\n        /* \"#utility.yul\":2724:2766   */\n      mstore\n        /* \"#utility.yul\":2539:2773   */\n      pop\n      jump\t// out\n        /* \"#utility.yul\":2779:3145   */\n    tag_59:\n        /* \"#utility.yul\":2921:2924   */\n      0x00\n        /* \"#utility.yul\":2942:3009   */\n      tag_102\n        /* \"#utility.yul\":3006:3008   */\n      0x2f\n        /* \"#utility.yul\":3001:3004   */\n      dup4\n        /* \"#utility.yul\":2942:3009   */\n      tag_57\n      jump\t// in\n    tag_102:\n        /* \"#utility.yul\":2935:3009   */\n      swap2\n      pop\n        /* \"#utility.yul\":3018:3111   */\n      tag_103\n        /* \"#utility.yul\":3107:3110   */\n      dup3\n        /* \"#utility.yul\":3018:3111   */\n      tag_58\n      jump\t// in\n    tag_103:\n        /* \"#utility.yul\":3136:3138   */\n      0x40\n        /* \"#utility.yul\":3131:3134   */\n      dup3\n        /* \"#utility.yul\":3127:3139   */\n      add\n        /* \"#utility.yul\":3120:3139   */\n      swap1\n      pop\n        /* \"#utility.yul\":2779:3145   */\n      swap2\n      swap1\n      pop\n      jump\t// out\n        /* \"#utility.yul\":3151:3570   */\n    tag_27:\n        /* \"#utility.yul\":3317:3321   */\n      0x00\n        /* \"#utility.yul\":3355:3357   */\n      0x20\n        /* \"#utility.yul\":3344:3353   */\n      dup3\n        /* \"#utility.yul\":3340:3358   */\n      add\n        /* \"#utility.yul\":3332:3358   */\n      swap1\n      pop\n        /* \"#utility.yul\":3404:3413   */\n      dup2\n        /* \"#utility.yul\":3398:3402   */\n      dup2\n        /* \"#utility.yul\":3394:3414   */\n      sub\n        /* \"#utility.yul\":3390:3391   */\n      0x00\n        /* \"#utility.yul\":3379:3388   */\n      dup4\n        /* \"#utility.yul\":3375:3392   */\n      add\n        /* \"#utility.yul\":3368:3415   */\n      mstore\n        /* \"#utility.yul\":3432:3563   */\n      tag_105\n        /* \"#utility.yul\":3558:3562   */\n      dup2\n        /* \"#utility.yul\":3432:3563   */\n      tag_59\n      jump\t// in\n    tag_105:\n        /* \"#utility.yul\":3424:3563   */\n      swap1\n      pop\n        /* \"#utility.yul\":3151:3570   */\n      swap2\n      swap1\n      pop\n      jump\t// out\n        /* \"#utility.yul\":3576:3723   */\n    tag_60:\n        /* \"#utility.yul\":3677:3688   */\n      0x00\n        /* \"#utility.yul\":3714:3717   */\n      dup2\n        /* \"#utility.yul\":3699:3717   */\n      swap1\n      pop\n        /* \"#utility.yul\":3576:3723   */\n      swap3\n      swap2\n      pop\n      pop\n      jump\t// out\n        /* \"#utility.yul\":3729:3843   */\n    tag_61:\n      pop\n      jump\t// out\n        /* \"#utility.yul\":3849:4247   */\n    tag_62:\n        /* \"#utility.yul\":4008:4011   */\n      0x00\n        /* \"#utility.yul\":4029:4112   */\n      tag_109\n        /* \"#utility.yul\":4110:4111   */\n      0x00\n        /* \"#utility.yul\":4105:4108   */\n      dup4\n        /* \"#utility.yul\":4029:4112   */\n      tag_60\n      jump\t// in\n    tag_109:\n        /* \"#utility.yul\":4022:4112   */\n      swap2\n      pop\n        /* \"#utility.yul\":4121:4214   */\n      tag_110\n        /* \"#utility.yul\":4210:4213   */\n      dup3\n        /* \"#utility.yul\":4121:4214   */\n      tag_61\n      jump\t// in\n    tag_110:\n        /* \"#utility.yul\":4239:4240   */\n      0x00\n        /* \"#utility.yul\":4234:4237   */\n      dup3\n        /* \"#utility.yul\":4230:4241   */\n      add\n        /* \"#utility.yul\":4223:4241   */\n      swap1\n      pop\n        /* \"#utility.yul\":3849:4247   */\n      swap2\n      swap1\n      pop\n      jump\t// out\n        /* \"#utility.yul\":4253:4632   */\n    tag_29:\n        /* \"#utility.yul\":4437:4440   */\n      0x00\n        /* \"#utility.yul\":4459:4606   */\n      tag_112\n        /* \"#utility.yul\":4602:4605   */\n      dup3\n        /* \"#utility.yul\":4459:4606   */\n      tag_62\n      jump\t// in\n    tag_112:\n        /* \"#utility.yul\":4452:4606   */\n      swap2\n      pop\n        /* \"#utility.yul\":4623:4626   */\n      dup2\n        /* \"#utility.yul\":4616:4626   */\n      swap1\n      pop\n        /* \"#utility.yul\":4253:4632   */\n      swap2\n      swap1\n      pop\n      jump\t// out\n        /* \"#utility.yul\":4638:4818   */\n    tag_63:\n        /* \"#utility.yul\":4686:4763   */\n      0x4e487b7100000000000000000000000000000000000000000000000000000000\n        /* \"#utility.yul\":4683:4684   */\n      0x00\n        /* \"#utility.yul\":4676:4764   */\n      mstore\n        /* \"#utility.yul\":4783:4787   */\n      0x11\n        /* \"#utility.yul\":4780:4781   */\n      0x04\n        /* \"#utility.yul\":4773:4788   */\n      mstore\n        /* \"#utility.yul\":4807:4811   */\n      0x24\n        /* \"#utility.yul\":4804:4805   */\n      0x00\n        /* \"#utility.yul\":4797:4812   */\n      revert\n        /* \"#utility.yul\":4824:5018   */\n    tag_35:\n        /* \"#utility.yul\":4864:4868   */\n      0x00\n        /* \"#utility.yul\":4884:4904   */\n      tag_115\n        /* \"#utility.yul\":4902:4903   */\n      dup3\n        /* \"#utility.yul\":4884:4904   */\n      tag_49\n      jump\t// in\n    tag_115:\n        /* \"#utility.yul\":4879:4904   */\n      swap2\n      pop\n        /* \"#utility.yul\":4918:4938   */\n      tag_116\n        /* \"#utility.yul\":4936:4937   */\n      dup4\n        /* \"#utility.yul\":4918:4938   */\n      tag_49\n      jump\t// in\n    tag_116:\n        /* \"#utility.yul\":4913:4938   */\n      swap3\n      pop\n        /* \"#utility.yul\":4962:4963   */\n      dup3\n        /* \"#utility.yul\":4959:4960   */\n      dup3\n        /* \"#utility.yul\":4955:4964   */\n      sub\n        /* \"#utility.yul\":4947:4964   */\n      swap1\n      pop\n        /* \"#utility.yul\":4986:4987   */\n      dup2\n        /* \"#utility.yul\":4980:4984   */\n      dup2\n        /* \"#utility.yul\":4977:4988   */\n      gt\n        /* \"#utility.yul\":4974:5011   */\n      iszero\n      tag_117\n      jumpi\n        /* \"#utility.yul\":4991:5009   */\n      tag_118\n      tag_63\n      jump\t// in\n    tag_118:\n        /* \"#utility.yul\":4974:5011   */\n    tag_117:\n        /* \"#utility.yul\":4824:5018   */\n      swap3\n      swap2\n      pop\n      pop\n      jump\t// out\n        /* \"#utility.yul\":5024:5187   */\n    tag_64:\n        /* \"#utility.yul\":5164:5179   */\n      0x4e6f2045746865722053656e7400000000000000000000000000000000000000\n        /* \"#utility.yul\":5160:5161   */\n      0x00\n        /* \"#utility.yul\":5152:5158   */\n      dup3\n        /* \"#utility.yul\":5148:5162   */\n      add\n        /* \"#utility.yul\":5141:5180   */\n      mstore\n        /* \"#utility.yul\":5024:5187   */\n      pop\n      jump\t// out\n        /* \"#utility.yul\":5193:5559   */\n    tag_65:\n        /* \"#utility.yul\":5335:5338   */\n      0x00\n        /* \"#utility.yul\":5356:5423   */\n      tag_121\n        /* \"#utility.yul\":5420:5422   */\n      0x0d\n        /* \"#utility.yul\":5415:5418   */\n      dup4\n        /* \"#utility.yul\":5356:5423   */\n      tag_57\n      jump\t// in\n    tag_121:\n        /* \"#utility.yul\":5349:5423   */\n      swap2\n      pop\n        /* \"#utility.yul\":5432:5525   */\n      tag_122\n        /* \"#utility.yul\":5521:5524   */\n      dup3\n        /* \"#utility.yul\":5432:5525   */\n      tag_64\n      jump\t// in\n    tag_122:\n        /* \"#utility.yul\":5550:5552   */\n      0x20\n        /* \"#utility.yul\":5545:5548   */\n      dup3\n        /* \"#utility.yul\":5541:5553   */\n      add\n        /* \"#utility.yul\":5534:5553   */\n      swap1\n      pop\n        /* \"#utility.yul\":5193:5559   */\n      swap2\n      swap1\n      pop\n      jump\t// out\n        /* \"#utility.yul\":5565:5984   */\n    tag_38:\n        /* \"#utility.yul\":5731:5735   */\n      0x00\n        /* \"#utility.yul\":5769:5771   */\n      0x20\n        /* \"#utility.yul\":5758:5767   */\n      dup3\n        /* \"#utility.yul\":5754:5772   */\n      add\n        /* \"#utility.yul\":5746:5772   */\n      swap1\n      pop\n        /* \"#utility.yul\":5818:5827   */\n      dup2\n        /* \"#utility.yul\":5812:5816   */\n      dup2\n        /* \"#utility.yul\":5808:5828   */\n      sub\n        /* \"#utility.yul\":5804:5805   */\n      0x00\n        /* \"#utility.yul\":5793:5802   */\n      dup4\n        /* \"#utility.yul\":5789:5806   */\n      add\n        /* \"#utility.yul\":5782:5829   */\n      mstore\n        /* \"#utility.yul\":5846:5977   */\n      tag_124\n        /* \"#utility.yul\":5972:5976   */\n      dup2\n        /* \"#utility.yul\":5846:5977   */\n      tag_65\n      jump\t// in\n    tag_124:\n        /* \"#utility.yul\":5838:5977   */\n      swap1\n      pop\n        /* \"#utility.yul\":5565:5984   */\n      swap2\n      swap1\n      pop\n      jump\t// out\n        /* \"#utility.yul\":5990:6172   */\n    tag_66:\n        /* \"#utility.yul\":6130:6164   */\n      0x6465706f73697420616d6f756e74206d757374206772656174207468616e2030\n        /* \"#utility.yul\":6126:6127   */\n      0x00\n        /* \"#utility.yul\":6118:6124   */\n      dup3\n        /* \"#utility.yul\":6114:6128   */\n      add\n        /* \"#utility.yul\":6107:6165   */\n      mstore\n        /* \"#utility.yul\":5990:6172   */\n      pop\n      jump\t// out\n        /* \"#utility.yul\":6178:6544   */\n    tag_67:\n        /* \"#utility.yul\":6320:6323   */\n      0x00\n        /* \"#utility.yul\":6341:6408   */\n      tag_127\n        /* \"#utility.yul\":6405:6407   */\n      0x20\n        /* \"#utility.yul\":6400:6403   */\n      dup4\n        /* \"#utility.yul\":6341:6408   */\n      tag_57\n      jump\t// in\n    tag_127:\n        /* \"#utility.yul\":6334:6408   */\n      swap2\n      pop\n        /* \"#utility.yul\":6417:6510   */\n      tag_128\n        /* \"#utility.yul\":6506:6509   */\n      dup3\n        /* \"#utility.yul\":6417:6510   */\n      tag_66\n      jump\t// in\n    tag_128:\n        /* \"#utility.yul\":6535:6537   */\n      0x20\n        /* \"#utility.yul\":6530:6533   */\n      dup3\n        /* \"#utility.yul\":6526:6538   */\n      add\n        /* \"#utility.yul\":6519:6538   */\n      swap1\n      pop\n        /* \"#utility.yul\":6178:6544   */\n      swap2\n      swap1\n      pop\n      jump\t// out\n        /* \"#utility.yul\":6550:6969   */\n    tag_43:\n        /* \"#utility.yul\":6716:6720   */\n      0x00\n        /* \"#utility.yul\":6754:6756   */\n      0x20\n        /* \"#utility.yul\":6743:6752   */\n      dup3\n        /* \"#utility.yul\":6739:6757   */\n      add\n        /* \"#utility.yul\":6731:6757   */\n      swap1\n      pop\n        /* \"#utility.yul\":6803:6812   */\n      dup2\n        /* \"#utility.yul\":6797:6801   */\n      dup2\n        /* \"#utility.yul\":6793:6813   */\n      sub\n        /* \"#utility.yul\":6789:6790   */\n      0x00\n        /* \"#utility.yul\":6778:6787   */\n      dup4\n        /* \"#utility.yul\":6774:6791   */\n      add\n        /* \"#utility.yul\":6767:6814   */\n      mstore\n        /* \"#utility.yul\":6831:6962   */\n      tag_130\n        /* \"#utility.yul\":6957:6961   */\n      dup2\n        /* \"#utility.yul\":6831:6962   */\n      tag_67\n      jump\t// in\n    tag_130:\n        /* \"#utility.yul\":6823:6962   */\n      swap1\n      pop\n        /* \"#utility.yul\":6550:6969   */\n      swap2\n      swap1\n      pop\n      jump\t// out\n        /* \"#utility.yul\":6975:7166   */\n    tag_45:\n        /* \"#utility.yul\":7015:7018   */\n      0x00\n        /* \"#utility.yul\":7034:7054   */\n      tag_132\n        /* \"#utility.yul\":7052:7053   */\n      dup3\n        /* \"#utility.yul\":7034:7054   */\n      tag_49\n      jump\t// in\n    tag_132:\n        /* \"#utility.yul\":7029:7054   */\n      swap2\n      pop\n        /* \"#utility.yul\":7068:7088   */\n      tag_133\n        /* \"#utility.yul\":7086:7087   */\n      dup4\n        /* \"#utility.yul\":7068:7088   */\n      tag_49\n      jump\t// in\n    tag_133:\n        /* \"#utility.yul\":7063:7088   */\n      swap3\n      pop\n        /* \"#utility.yul\":7111:7112   */\n      dup3\n        /* \"#utility.yul\":7108:7109   */\n      dup3\n        /* \"#utility.yul\":7104:7113   */\n      add\n        /* \"#utility.yul\":7097:7113   */\n      swap1\n      pop\n        /* \"#utility.yul\":7132:7135   */\n      dup1\n        /* \"#utility.yul\":7129:7130   */\n      dup3\n        /* \"#utility.yul\":7126:7136   */\n      gt\n        /* \"#utility.yul\":7123:7159   */\n      iszero\n      tag_134\n      jumpi\n        /* \"#utility.yul\":7139:7157   */\n      tag_135\n      tag_63\n      jump\t// in\n    tag_135:\n        /* \"#utility.yul\":7123:7159   */\n    tag_134:\n        /* \"#utility.yul\":6975:7166   */\n      swap3\n      swap2\n      pop\n      pop\n      jump\t// out\n\n    auxdata: 0xa26469706673582212201edfbf26c335810f4fac0b2a9ed99d09f315dda0883441e2dc3ef9c1c46643f164736f6c634300081e0033\n}\n",
				"bytecode": {
					"linkReferences": {},
					"object": "6080604052348015600e575f5ffd5b506106e38061001c5f395ff3fe60806040526004361061003d575f3560e01c8062f714ce1461004157806327e235e31461006957806334b467a4146100a5578063d0e30db0146100cf575b5f5ffd5b34801561004c575f5ffd5b50610067600480360381019061006291906103da565b6100d9565b005b348015610074575f5ffd5b5061008f600480360381019061008a9190610418565b61025c565b60405161009c9190610452565b60405180910390f35b3480156100b0575f5ffd5b506100b9610270565b6040516100c69190610452565b60405180910390f35b6100d76102b3565b005b5f5f8273ffffffffffffffffffffffffffffffffffffffff1673ffffffffffffffffffffffffffffffffffffffff1681526020019081526020015f20548210610157576040517f08c379a000000000000000000000000000000000000000000000000000000000815260040161014e906104eb565b60405180910390fd5b5f8173ffffffffffffffffffffffffffffffffffffffff168360405161017c90610536565b5f6040518083038185875af1925050503d805f81146101b6576040519150601f19603f3d011682016040523d82523d5f602084013e6101bb565b606091505b50509050801561021c57825f5f3373ffffffffffffffffffffffffffffffffffffffff1673ffffffffffffffffffffffffffffffffffffffff1681526020019081526020015f205f8282546102109190610577565b92505081905550610257565b6040517f08c379a000000000000000000000000000000000000000000000000000000000815260040161024e906105f4565b60405180910390fd5b505050565b5f602052805f5260405f205f915090505481565b5f5f5f3373ffffffffffffffffffffffffffffffffffffffff1673ffffffffffffffffffffffffffffffffffffffff1681526020019081526020015f2054905090565b5f34116102f5576040517f08c379a00000000000000000000000000000000000000000000000000000000081526004016102ec9061065c565b60405180910390fd5b345f5f3373ffffffffffffffffffffffffffffffffffffffff1673ffffffffffffffffffffffffffffffffffffffff1681526020019081526020015f205f828254610340919061067a565b92505081905550565b5f5ffd5b5f819050919050565b61035f8161034d565b8114610369575f5ffd5b50565b5f8135905061037a81610356565b92915050565b5f73ffffffffffffffffffffffffffffffffffffffff82169050919050565b5f6103a982610380565b9050919050565b6103b98161039f565b81146103c3575f5ffd5b50565b5f813590506103d4816103b0565b92915050565b5f5f604083850312156103f0576103ef610349565b5b5f6103fd8582860161036c565b925050602061040e858286016103c6565b9150509250929050565b5f6020828403121561042d5761042c610349565b5b5f61043a848285016103c6565b91505092915050565b61044c8161034d565b82525050565b5f6020820190506104655f830184610443565b92915050565b5f82825260208201905092915050565b7f576974686472617720616d6f756e74206d757374206265206c6f7765722074685f8201527f616e20796f75722062616c616e63650000000000000000000000000000000000602082015250565b5f6104d5602f8361046b565b91506104e08261047b565b604082019050919050565b5f6020820190508181035f830152610502816104c9565b9050919050565b5f81905092915050565b50565b5f6105215f83610509565b915061052c82610513565b5f82019050919050565b5f61054082610516565b9150819050919050565b7f4e487b71000000000000000000000000000000000000000000000000000000005f52601160045260245ffd5b5f6105818261034d565b915061058c8361034d565b92508282039050818111156105a4576105a361054a565b5b92915050565b7f4e6f2045746865722053656e74000000000000000000000000000000000000005f82015250565b5f6105de600d8361046b565b91506105e9826105aa565b602082019050919050565b5f6020820190508181035f83015261060b816105d2565b9050919050565b7f6465706f73697420616d6f756e74206d757374206772656174207468616e20305f82015250565b5f61064660208361046b565b915061065182610612565b602082019050919050565b5f6020820190508181035f8301526106738161063a565b9050919050565b5f6106848261034d565b915061068f8361034d565b92508282019050808211156106a7576106a661054a565b5b9291505056fea26469706673582212201edfbf26c335810f4fac0b2a9ed99d09f315dda0883441e2dc3ef9c1c46643f164736f6c634300081e0033",
					"opcodes": "PUSH1 0x80 PUSH1 0x40 MSTORE CALLVALUE DUP1 ISZERO PUSH1 0xE JUMPI PUSH0 PUSH0 REVERT JUMPDEST POP PUSH2 0x6E3 DUP1 PUSH2 0x1C PUSH0 CODECOPY PUSH0 RETURN INVALID PUSH1 0x80 PUSH1 0x40 MSTORE PUSH1 0x4 CALLDATASIZE LT PUSH2 0x3D JUMPI PUSH0 CALLDATALOAD PUSH1 0xE0 SHR DUP1 PUSH3 0xF714CE EQ PUSH2 0x41 JUMPI DUP1 PUSH4 0x27E235E3 EQ PUSH2 0x69 JUMPI DUP1 PUSH4 0x34B467A4 EQ PUSH2 0xA5 JUMPI DUP1 PUSH4 0xD0E30DB0 EQ PUSH2 0xCF JUMPI JUMPDEST PUSH0 PUSH0 REVERT JUMPDEST CALLVALUE DUP1 ISZERO PUSH2 0x4C JUMPI PUSH0 PUSH0 REVERT JUMPDEST POP PUSH2 0x67 PUSH1 0x4 DUP1 CALLDATASIZE SUB DUP2 ADD SWAP1 PUSH2 0x62 SWAP2 SWAP1 PUSH2 0x3DA JUMP JUMPDEST PUSH2 0xD9 JUMP JUMPDEST STOP JUMPDEST CALLVALUE DUP1 ISZERO PUSH2 0x74 JUMPI PUSH0 PUSH0 REVERT JUMPDEST POP PUSH2 0x8F PUSH1 0x4 DUP1 CALLDATASIZE SUB DUP2 ADD SWAP1 PUSH2 0x8A SWAP2 SWAP1 PUSH2 0x418 JUMP JUMPDEST PUSH2 0x25C JUMP JUMPDEST PUSH1 0x40 MLOAD PUSH2 0x9C SWAP2 SWAP1 PUSH2 0x452 JUMP JUMPDEST PUSH1 0x40 MLOAD DUP1 SWAP2 SUB SWAP1 RETURN JUMPDEST CALLVALUE DUP1 ISZERO PUSH2 0xB0 JUMPI PUSH0 PUSH0 REVERT JUMPDEST POP PUSH2 0xB9 PUSH2 0x270 JUMP JUMPDEST PUSH1 0x40 MLOAD PUSH2 0xC6 SWAP2 SWAP1 PUSH2 0x452 JUMP JUMPDEST PUSH1 0x40 MLOAD DUP1 SWAP2 SUB SWAP1 RETURN JUMPDEST PUSH2 0xD7 PUSH2 0x2B3 JUMP JUMPDEST STOP JUMPDEST PUSH0 PUSH0 DUP3 PUSH20 0xFFFFFFFFFFFFFFFFFFFFFFFFFFFFFFFFFFFFFFFF AND PUSH20 0xFFFFFFFFFFFFFFFFFFFFFFFFFFFFFFFFFFFFFFFF AND DUP2 MSTORE PUSH1 0x20 ADD SWAP1 DUP2 MSTORE PUSH1 0x20 ADD PUSH0 KECCAK256 SLOAD DUP3 LT PUSH2 0x157 JUMPI PUSH1 0x40 MLOAD PUSH32 0x8C379A000000000000000000000000000000000000000000000000000000000 DUP2 MSTORE PUSH1 0x4 ADD PUSH2 0x14E SWAP1 PUSH2 0x4EB JUMP JUMPDEST PUSH1 0x40 MLOAD DUP1 SWAP2 SUB SWAP1 REVERT JUMPDEST PUSH0 DUP2 PUSH20 0xFFFFFFFFFFFFFFFFFFFFFFFFFFFFFFFFFFFFFFFF AND DUP4 PUSH1 0x40 MLOAD PUSH2 0x17C SWAP1 PUSH2 0x536 JUMP JUMPDEST PUSH0 PUSH1 0x40 MLOAD DUP1 DUP4 SUB DUP2 DUP6 DUP8 GAS CALL SWAP3 POP POP POP RETURNDATASIZE DUP1 PUSH0 DUP2 EQ PUSH2 0x1B6 JUMPI PUSH1 0x40 MLOAD SWAP2 POP PUSH1 0x1F NOT PUSH1 0x3F RETURNDATASIZE ADD AND DUP3 ADD PUSH1 0x40 MSTORE RETURNDATASIZE DUP3 MSTORE RETURNDATASIZE PUSH0 PUSH1 0x20 DUP5 ADD RETURNDATACOPY PUSH2 0x1BB JUMP JUMPDEST PUSH1 0x60 SWAP2 POP JUMPDEST POP POP SWAP1 POP DUP1 ISZERO PUSH2 0x21C JUMPI DUP3 PUSH0 PUSH0 CALLER PUSH20 0xFFFFFFFFFFFFFFFFFFFFFFFFFFFFFFFFFFFFFFFF AND PUSH20 0xFFFFFFFFFFFFFFFFFFFFFFFFFFFFFFFFFFFFFFFF AND DUP2 MSTORE PUSH1 0x20 ADD SWAP1 DUP2 MSTORE PUSH1 0x20 ADD PUSH0 KECCAK256 PUSH0 DUP3 DUP3 SLOAD PUSH2 0x210 SWAP2 SWAP1 PUSH2 0x577 JUMP JUMPDEST SWAP3 POP POP DUP2 SWAP1 SSTORE POP PUSH2 0x257 JUMP JUMPDEST PUSH1 0x40 MLOAD PUSH32 0x8C379A000000000000000000000000000000000000000000000000000000000 DUP2 MSTORE PUSH1 0x4 ADD PUSH2 0x24E SWAP1 PUSH2 0x5F4 JUMP JUMPDEST PUSH1 0x40 MLOAD DUP1 SWAP2 SUB SWAP1 REVERT JUMPDEST POP POP POP JUMP JUMPDEST PUSH0 PUSH1 0x20 MSTORE DUP1 PUSH0 MSTORE PUSH1 0x40 PUSH0 KECCAK256 PUSH0 SWAP2 POP SWAP1 POP SLOAD DUP2 JUMP JUMPDEST PUSH0 PUSH0 PUSH0 CALLER PUSH20 0xFFFFFFFFFFFFFFFFFFFFFFFFFFFFFFFFFFFFFFFF AND PUSH20 0xFFFFFFFFFFFFFFFFFFFFFFFFFFFFFFFFFFFFFFFF AND DUP2 MSTORE PUSH1 0x20 ADD SWAP1 DUP2 MSTORE PUSH1 0x20 ADD PUSH0 KECCAK256 SLOAD SWAP1 POP SWAP1 JUMP JUMPDEST PUSH0 CALLVALUE GT PUSH2 0x2F5 JUMPI PUSH1 0x40 MLOAD PUSH32 0x8C379A000000000000000000000000000000000000000000000000000000000 DUP2 MSTORE PUSH1 0x4 ADD PUSH2 0x2EC SWAP1 PUSH2 0x65C JUMP JUMPDEST PUSH1 0x40 MLOAD DUP1 SWAP2 SUB SWAP1 REVERT JUMPDEST CALLVALUE PUSH0 PUSH0 CALLER PUSH20 0xFFFFFFFFFFFFFFFFFFFFFFFFFFFFFFFFFFFFFFFF AND PUSH20 0xFFFFFFFFFFFFFFFFFFFFFFFFFFFFFFFFFFFFFFFF AND DUP2 MSTORE PUSH1 0x20 ADD SWAP1 DUP2 MSTORE PUSH1 0x20 ADD PUSH0 KECCAK256 PUSH0 DUP3 DUP3 SLOAD PUSH2 0x340 SWAP2 SWAP1 PUSH2 0x67A JUMP JUMPDEST SWAP3 POP POP DUP2 SWAP1 SSTORE POP JUMP JUMPDEST PUSH0 PUSH0 REVERT JUMPDEST PUSH0 DUP2 SWAP1 POP SWAP2 SWAP1 POP JUMP JUMPDEST PUSH2 0x35F DUP2 PUSH2 0x34D JUMP JUMPDEST DUP2 EQ PUSH2 0x369 JUMPI PUSH0 PUSH0 REVERT JUMPDEST POP JUMP JUMPDEST PUSH0 DUP2 CALLDATALOAD SWAP1 POP PUSH2 0x37A DUP2 PUSH2 0x356 JUMP JUMPDEST SWAP3 SWAP2 POP POP JUMP JUMPDEST PUSH0 PUSH20 0xFFFFFFFFFFFFFFFFFFFFFFFFFFFFFFFFFFFFFFFF DUP3 AND SWAP1 POP SWAP2 SWAP1 POP JUMP JUMPDEST PUSH0 PUSH2 0x3A9 DUP3 PUSH2 0x380 JUMP JUMPDEST SWAP1 POP SWAP2 SWAP1 POP JUMP JUMPDEST PUSH2 0x3B9 DUP2 PUSH2 0x39F JUMP JUMPDEST DUP2 EQ PUSH2 0x3C3 JUMPI PUSH0 PUSH0 REVERT JUMPDEST POP JUMP JUMPDEST PUSH0 DUP2 CALLDATALOAD SWAP1 POP PUSH2 0x3D4 DUP2 PUSH2 0x3B0 JUMP JUMPDEST SWAP3 SWAP2 POP POP JUMP JUMPDEST PUSH0 PUSH0 PUSH1 0x40 DUP4 DUP6 SUB SLT ISZERO PUSH2 0x3F0 JUMPI PUSH2 0x3EF PUSH2 0x349 JUMP JUMPDEST JUMPDEST PUSH0 PUSH2 0x3FD DUP6 DUP3 DUP7 ADD PUSH2 0x36C JUMP JUMPDEST SWAP3 POP POP PUSH1 0x20 PUSH2 0x40E DUP6 DUP3 DUP7 ADD PUSH2 0x3C6 JUMP JUMPDEST SWAP2 POP POP SWAP3 POP SWAP3 SWAP1 POP JUMP JUMPDEST PUSH0 PUSH1 0x20 DUP3 DUP5 SUB SLT ISZERO PUSH2 0x42D JUMPI PUSH2 0x42C PUSH2 0x349 JUMP JUMPDEST JUMPDEST PUSH0 PUSH2 0x43A DUP5 DUP3 DUP6 ADD PUSH2 0x3C6 JUMP JUMPDEST SWAP2 POP POP SWAP3 SWAP2 POP POP JUMP JUMPDEST PUSH2 0x44C DUP2 PUSH2 0x34D JUMP JUMPDEST DUP3 MSTORE POP POP JUMP JUMPDEST PUSH0 PUSH1 0x20 DUP3 ADD SWAP1 POP PUSH2 0x465 PUSH0 DUP4 ADD DUP5 PUSH2 0x443 JUMP JUMPDEST SWAP3 SWAP2 POP POP JUMP JUMPDEST PUSH0 DUP3 DUP3 MSTORE PUSH1 0x20 DUP3 ADD SWAP1 POP SWAP3 SWAP2 POP POP JUMP JUMPDEST PUSH32 0x576974686472617720616D6F756E74206D757374206265206C6F776572207468 PUSH0 DUP3 ADD MSTORE PUSH32 0x616E20796F75722062616C616E63650000000000000000000000000000000000 PUSH1 0x20 DUP3 ADD MSTORE POP JUMP JUMPDEST PUSH0 PUSH2 0x4D5 PUSH1 0x2F DUP4 PUSH2 0x46B JUMP JUMPDEST SWAP2 POP PUSH2 0x4E0 DUP3 PUSH2 0x47B JUMP JUMPDEST PUSH1 0x40 DUP3 ADD SWAP1 POP SWAP2 SWAP1 POP JUMP JUMPDEST PUSH0 PUSH1 0x20 DUP3 ADD SWAP1 POP DUP2 DUP2 SUB PUSH0 DUP4 ADD MSTORE PUSH2 0x502 DUP2 PUSH2 0x4C9 JUMP JUMPDEST SWAP1 POP SWAP2 SWAP1 POP JUMP JUMPDEST PUSH0 DUP2 SWAP1 POP SWAP3 SWAP2 POP POP JUMP JUMPDEST POP JUMP JUMPDEST PUSH0 PUSH2 0x521 PUSH0 DUP4 PUSH2 0x509 JUMP JUMPDEST SWAP2 POP PUSH2 0x52C DUP3 PUSH2 0x513 JUMP JUMPDEST PUSH0 DUP3 ADD SWAP1 POP SWAP2 SWAP1 POP JUMP JUMPDEST PUSH0 PUSH2 0x540 DUP3 PUSH2 0x516 JUMP JUMPDEST SWAP2 POP DUP2 SWAP1 POP SWAP2 SWAP1 POP JUMP JUMPDEST PUSH32 0x4E487B7100000000000000000000000000000000000000000000000000000000 PUSH0 MSTORE PUSH1 0x11 PUSH1 0x4 MSTORE PUSH1 0x24 PUSH0 REVERT JUMPDEST PUSH0 PUSH2 0x581 DUP3 PUSH2 0x34D JUMP JUMPDEST SWAP2 POP PUSH2 0x58C DUP4 PUSH2 0x34D JUMP JUMPDEST SWAP3 POP DUP3 DUP3 SUB SWAP1 POP DUP2 DUP2 GT ISZERO PUSH2 0x5A4 JUMPI PUSH2 0x5A3 PUSH2 0x54A JUMP JUMPDEST JUMPDEST SWAP3 SWAP2 POP POP JUMP JUMPDEST PUSH32 0x4E6F2045746865722053656E7400000000000000000000000000000000000000 PUSH0 DUP3 ADD MSTORE POP JUMP JUMPDEST PUSH0 PUSH2 0x5DE PUSH1 0xD DUP4 PUSH2 0x46B JUMP JUMPDEST SWAP2 POP PUSH2 0x5E9 DUP3 PUSH2 0x5AA JUMP JUMPDEST PUSH1 0x20 DUP3 ADD SWAP1 POP SWAP2 SWAP1 POP JUMP JUMPDEST PUSH0 PUSH1 0x20 DUP3 ADD SWAP1 POP DUP2 DUP2 SUB PUSH0 DUP4 ADD MSTORE PUSH2 0x60B DUP2 PUSH2 0x5D2 JUMP JUMPDEST SWAP1 POP SWAP2 SWAP1 POP JUMP JUMPDEST PUSH32 0x6465706F73697420616D6F756E74206D757374206772656174207468616E2030 PUSH0 DUP3 ADD MSTORE POP JUMP JUMPDEST PUSH0 PUSH2 0x646 PUSH1 0x20 DUP4 PUSH2 0x46B JUMP JUMPDEST SWAP2 POP PUSH2 0x651 DUP3 PUSH2 0x612 JUMP JUMPDEST PUSH1 0x20 DUP3 ADD SWAP1 POP SWAP2 SWAP1 POP JUMP JUMPDEST PUSH0 PUSH1 0x20 DUP3 ADD SWAP1 POP DUP2 DUP2 SUB PUSH0 DUP4 ADD MSTORE PUSH2 0x673 DUP2 PUSH2 0x63A JUMP JUMPDEST SWAP1 POP SWAP2 SWAP1 POP JUMP JUMPDEST PUSH0 PUSH2 0x684 DUP3 PUSH2 0x34D JUMP JUMPDEST SWAP2 POP PUSH2 0x68F DUP4 PUSH2 0x34D JUMP JUMPDEST SWAP3 POP DUP3 DUP3 ADD SWAP1 POP DUP1 DUP3 GT ISZERO PUSH2 0x6A7 JUMPI PUSH2 0x6A6 PUSH2 0x54A JUMP JUMPDEST JUMPDEST SWAP3 SWAP2 POP POP JUMP INVALID LOG2 PUSH5 0x6970667358 0x22 SLT KECCAK256 0x1E 0xDF 0xBF 0x26 0xC3 CALLDATALOAD DUP2 0xF 0x4F 0xAC SIGNEXTEND 0x2A SWAP15 0xD9 SWAP14 MULMOD RETURN ISZERO 0xDD LOG0 DUP9 CALLVALUE COINBASE 0xE2 0xDC RETURNDATACOPY EXTDELEGATECALL 0xC1 0xC4 PUSH7 0x43F164736F6C63 NUMBER STOP ADDMOD 0x1E STOP CALLER "
				},
				"gasEstimates": {
					"creation": {
						"codeDepositCost": "352600",
						"executionCost": "391",
						"totalCost": "352991"
					},
					"external": {
						"balances(address)": "2801",
						"deposit()": "infinite",
						"getblance()": "2540",
						"withdraw(uint256,address)": "infinite"
					}
				},
				"methodIdentifiers": {
					"balances(address)": "27e235e3",
					"deposit()": "d0e30db0",
					"getblance()": "34b467a4",
					"withdraw(uint256,address)": "00f714ce"
				}
			},
			"storageLayout": {
				"storage": [
					{
						"astId": 23,
						"contract": "erc20.sol:Bank",
						"label": "balances",
						"offset": 0,
						"slot": "0",
						"type": "t_mapping(t_address,t_uint256)"
					}
				],
				"types": {
					"t_address": {
						"encoding": "inplace",
						"label": "address",
						"numberOfBytes": "20"
					},
					"t_mapping(t_address,t_uint256)": {
						"encoding": "mapping",
						"key": "t_address",
						"label": "mapping(address => uint256)",
						"numberOfBytes": "32",
						"value": "t_uint256"
					},
					"t_uint256": {
						"encoding": "inplace",
						"label": "uint256",
						"numberOfBytes": "32"
					}
				}
			},
			"userdoc": {
				"kind": "user",
				"methods": {},
				"version": 1
			}
		}
	}
}