{
	"hello.sol": {
		"Hello": {
			"abi": [
				{
					"inputs": [
						{
							"internalType": "address",
							"name": "x",
							"type": "address"
						}
					],
					"name": "addressTypes",
					"outputs": [
						{
							"internalType": "address",
							"name": "a",
							"type": "address"
						}
					],
					"stateMutability": "pure",
					"type": "function"
				},
				{
					"inputs": [],
					"name": "ads",
					"outputs": [
						{
							"internalType": "address",
							"name": "",
							"type": "address"
						}
					],
					"stateMutability": "view",
					"type": "function"
				},
				{
					"inputs": [
						{
							"internalType": "address",
							"name": "",
							"type": "address"
						}
					],
					"name": "balances",
					"outputs": [
						{
							"internalType": "uint256",
							"name": "",
							"type": "uint256"
						}
					],
					"stateMutability": "view",
					"type": "function"
				},
				{
					"inputs": [
						{
							"internalType": "string",
							"name": "",
							"type": "string"
						}
					],
					"name": "counts",
					"outputs": [
						{
							"internalType": "uint256",
							"name": "",
							"type": "uint256"
						}
					],
					"stateMutability": "view",
					"type": "function"
				},
				{
					"inputs": [
						{
							"internalType": "uint256",
							"name": "account",
							"type": "uint256"
						}
					],
					"name": "numbertype",
					"outputs": [],
					"stateMutability": "nonpayable",
					"type": "function"
				},
				{
					"inputs": [],
					"name": "sayHello",
					"outputs": [
						{
							"internalType": "string",
							"name": "",
							"type": "string"
						}
					],
					"stateMutability": "pure",
					"type": "function"
				},
				{
					"inputs": [
						{
							"internalType": "uint256",
							"name": "_a",
							"type": "uint256"
						},
						{
							"internalType": "uint256",
							"name": "_b",
							"type": "uint256"
						}
					],
					"name": "taker",
					"outputs": [],
					"stateMutability": "pure",
					"type": "function"
				},
				{
					"inputs": [
						{
							"internalType": "address",
							"name": "",
							"type": "address"
						}
					],
					"name": "users",
					"outputs": [
						{
							"internalType": "string",
							"name": "name",
							"type": "string"
						},
						{
							"internalType": "uint256",
							"name": "age",
							"type": "uint256"
						},
						{
							"internalType": "address",
							"name": "wallet",
							"type": "address"
						}
					],
					"stateMutability": "view",
					"type": "function"
				}
			],
			"devdoc": {
				"kind": "dev",
				"methods": {},
				"version": 1
			},
			"evm": {
				"assembly": "    /* \"hello.sol\":61:1331  contract Hello{... */\n  mstore(0x40, 0x80)\n    /* \"hello.sol\":111:121  msg.sender */\n  caller\n    /* \"hello.sol\":91:121  address public  ads=msg.sender */\n  0x00\n  dup1\n  0x0100\n  exp\n  dup2\n  sload\n  dup2\n  0xffffffffffffffffffffffffffffffffffffffff\n  mul\n  not\n  and\n  swap1\n  dup4\n  0xffffffffffffffffffffffffffffffffffffffff\n  and\n  mul\n  or\n  swap1\n  sstore\n  pop\n    /* \"hello.sol\":61:1331  contract Hello{... */\n  callvalue\n  dup1\n  iszero\n  tag_1\n  jumpi\n  0x00\n  dup1\n  revert\ntag_1:\n  pop\n  dataSize(sub_0)\n  dup1\n  dataOffset(sub_0)\n  0x00\n  codecopy\n  0x00\n  return\nstop\n\nsub_0: assembly {\n        /* \"hello.sol\":61:1331  contract Hello{... */\n      mstore(0x40, 0x80)\n      callvalue\n      dup1\n      iszero\n      tag_1\n      jumpi\n      0x00\n      dup1\n      revert\n    tag_1:\n      pop\n      jumpi(tag_2, lt(calldatasize, 0x04))\n      shr(0xe0, calldataload(0x00))\n      dup1\n      0xb6eda884\n      gt\n      tag_11\n      jumpi\n      dup1\n      0xb6eda884\n      eq\n      tag_7\n      jumpi\n      dup1\n      0xd92bd25c\n      eq\n      tag_8\n      jumpi\n      dup1\n      0xef5fb05b\n      eq\n      tag_9\n      jumpi\n      dup1\n      0xfb13a2be\n      eq\n      tag_10\n      jumpi\n      jump(tag_2)\n    tag_11:\n      dup1\n      0x0704893f\n      eq\n      tag_3\n      jumpi\n      dup1\n      0x27e235e3\n      eq\n      tag_4\n      jumpi\n      dup1\n      0xa71d3830\n      eq\n      tag_5\n      jumpi\n      dup1\n      0xa87430ba\n      eq\n      tag_6\n      jumpi\n    tag_2:\n      0x00\n      dup1\n      revert\n        /* \"hello.sol\":496:575  function taker(uint _a, uint _b) public pure {... */\n    tag_3:\n      tag_12\n      0x04\n      dup1\n      calldatasize\n      sub\n      dup2\n      add\n      swap1\n      tag_13\n      swap2\n      swap1\n      tag_14\n      jump\t// in\n    tag_13:\n      tag_15\n      jump\t// in\n    tag_12:\n      stop\n        /* \"hello.sol\":129:172  mapping (address=>uint256) public  balances */\n    tag_4:\n      tag_16\n      0x04\n      dup1\n      calldatasize\n      sub\n      dup2\n      add\n      swap1\n      tag_17\n      swap2\n      swap1\n      tag_18\n      jump\t// in\n    tag_17:\n      tag_19\n      jump\t// in\n    tag_16:\n      mload(0x40)\n      tag_20\n      swap2\n      swap1\n      tag_21\n      jump\t// in\n    tag_20:\n      mload(0x40)\n      dup1\n      swap2\n      sub\n      swap1\n      return\n        /* \"hello.sol\":583:728  function addressTypes (address x) public  pure returns  (address a){... */\n    tag_5:\n      tag_22\n      0x04\n      dup1\n      calldatasize\n      sub\n      dup2\n      add\n      swap1\n      tag_23\n      swap2\n      swap1\n      tag_18\n      jump\t// in\n    tag_23:\n      tag_24\n      jump\t// in\n    tag_22:\n      mload(0x40)\n      tag_25\n      swap2\n      swap1\n      tag_26\n      jump\t// in\n    tag_25:\n      mload(0x40)\n      dup1\n      swap2\n      sub\n      swap1\n      return\n        /* \"hello.sol\":340:376  mapping (address=>user) public users */\n    tag_6:\n      tag_27\n      0x04\n      dup1\n      calldatasize\n      sub\n      dup2\n      add\n      swap1\n      tag_28\n      swap2\n      swap1\n      tag_18\n      jump\t// in\n    tag_28:\n      tag_29\n      jump\t// in\n    tag_27:\n      mload(0x40)\n      tag_30\n      swap4\n      swap3\n      swap2\n      swap1\n      tag_31\n      jump\t// in\n    tag_30:\n      mload(0x40)\n      dup1\n      swap2\n      sub\n      swap1\n      return\n        /* \"hello.sol\":91:121  address public  ads=msg.sender */\n    tag_7:\n      tag_32\n      tag_33\n      jump\t// in\n    tag_32:\n      mload(0x40)\n      tag_34\n      swap2\n      swap1\n      tag_26\n      jump\t// in\n    tag_34:\n      mload(0x40)\n      dup1\n      swap2\n      sub\n      swap1\n      return\n        /* \"hello.sol\":180:216  mapping(string=>uint) public  counts */\n    tag_8:\n      tag_35\n      0x04\n      dup1\n      calldatasize\n      sub\n      dup2\n      add\n      swap1\n      tag_36\n      swap2\n      swap1\n      tag_37\n      jump\t// in\n    tag_36:\n      tag_38\n      jump\t// in\n    tag_35:\n      mload(0x40)\n      tag_39\n      swap2\n      swap1\n      tag_21\n      jump\t// in\n    tag_39:\n      mload(0x40)\n      dup1\n      swap2\n      sub\n      swap1\n      return\n        /* \"hello.sol\":391:486  function sayHello() public pure  returns(string memory){... */\n    tag_9:\n      tag_40\n      tag_41\n      jump\t// in\n    tag_40:\n      mload(0x40)\n      tag_42\n      swap2\n      swap1\n      tag_43\n      jump\t// in\n    tag_42:\n      mload(0x40)\n      dup1\n      swap2\n      sub\n      swap1\n      return\n        /* \"hello.sol\":742:1320  function numbertype(uint256 account) public  {... */\n    tag_10:\n      tag_44\n      0x04\n      dup1\n      calldatasize\n      sub\n      dup2\n      add\n      swap1\n      tag_45\n      swap2\n      swap1\n      tag_46\n      jump\t// in\n    tag_45:\n      tag_47\n      jump\t// in\n    tag_44:\n      stop\n        /* \"hello.sol\":496:575  function taker(uint _a, uint _b) public pure {... */\n    tag_15:\n        /* \"hello.sol\":555:557  _b */\n      dup1\n        /* \"hello.sol\":552:554  _a */\n      dup3\n        /* \"hello.sol\":552:557  _a+_b */\n      tag_49\n      swap2\n      swap1\n      tag_50\n      jump\t// in\n    tag_49:\n      pop\n        /* \"hello.sol\":496:575  function taker(uint _a, uint _b) public pure {... */\n      pop\n      pop\n      jump\t// out\n        /* \"hello.sol\":129:172  mapping (address=>uint256) public  balances */\n    tag_19:\n      mstore(0x20, 0x01)\n      dup1\n      0x00\n      mstore\n      keccak256(0x00, 0x40)\n      0x00\n      swap2\n      pop\n      swap1\n      pop\n      sload\n      dup2\n      jump\t// out\n        /* \"hello.sol\":583:728  function addressTypes (address x) public  pure returns  (address a){... */\n    tag_24:\n        /* \"hello.sol\":640:649  address a */\n      0x00\n        /* \"hello.sol\":663:672  address z */\n      dup1\n        /* \"hello.sol\":675:676  x */\n      dup3\n        /* \"hello.sol\":663:676  address z = x */\n      swap1\n      pop\n        /* \"hello.sol\":700:701  z */\n      dup1\n        /* \"hello.sol\":693:701  return z */\n      swap2\n      pop\n      pop\n        /* \"hello.sol\":583:728  function addressTypes (address x) public  pure returns  (address a){... */\n      swap2\n      swap1\n      pop\n      jump\t// out\n        /* \"hello.sol\":340:376  mapping (address=>user) public users */\n    tag_29:\n      mstore(0x20, 0x03)\n      dup1\n      0x00\n      mstore\n      keccak256(0x00, 0x40)\n      0x00\n      swap2\n      pop\n      swap1\n      pop\n      dup1\n      0x00\n      add\n      dup1\n      sload\n      tag_52\n      swap1\n      tag_53\n      jump\t// in\n    tag_52:\n      dup1\n      0x1f\n      add\n      0x20\n      dup1\n      swap2\n      div\n      mul\n      0x20\n      add\n      mload(0x40)\n      swap1\n      dup2\n      add\n      0x40\n      mstore\n      dup1\n      swap3\n      swap2\n      swap1\n      dup2\n      dup2\n      mstore\n      0x20\n      add\n      dup3\n      dup1\n      sload\n      tag_54\n      swap1\n      tag_53\n      jump\t// in\n    tag_54:\n      dup1\n      iszero\n      tag_55\n      jumpi\n      dup1\n      0x1f\n      lt\n      tag_56\n      jumpi\n      0x0100\n      dup1\n      dup4\n      sload\n      div\n      mul\n      dup4\n      mstore\n      swap2\n      0x20\n      add\n      swap2\n      jump(tag_55)\n    tag_56:\n      dup3\n      add\n      swap2\n      swap1\n      0x00\n      mstore\n      keccak256(0x00, 0x20)\n      swap1\n    tag_57:\n      dup2\n      sload\n      dup2\n      mstore\n      swap1\n      0x01\n      add\n      swap1\n      0x20\n      add\n      dup1\n      dup4\n      gt\n      tag_57\n      jumpi\n      dup3\n      swap1\n      sub\n      0x1f\n      and\n      dup3\n      add\n      swap2\n    tag_55:\n      pop\n      pop\n      pop\n      pop\n      pop\n      swap1\n      dup1\n      0x01\n      add\n      sload\n      swap1\n      dup1\n      0x02\n      add\n      0x00\n      swap1\n      sload\n      swap1\n      0x0100\n      exp\n      swap1\n      div\n      0xffffffffffffffffffffffffffffffffffffffff\n      and\n      swap1\n      pop\n      dup4\n      jump\t// out\n        /* \"hello.sol\":91:121  address public  ads=msg.sender */\n    tag_33:\n      0x00\n      dup1\n      sload\n      swap1\n      0x0100\n      exp\n      swap1\n      div\n      0xffffffffffffffffffffffffffffffffffffffff\n      and\n      dup2\n      jump\t// out\n        /* \"hello.sol\":180:216  mapping(string=>uint) public  counts */\n    tag_38:\n      0x02\n      dup2\n      dup1\n      mload\n      0x20\n      dup2\n      add\n      dup3\n      add\n      dup1\n      mload\n      dup5\n      dup3\n      mstore\n      0x20\n      dup4\n      add\n      0x20\n      dup6\n      add\n      keccak256\n      dup2\n      dup4\n      mstore\n      dup1\n      swap6\n      pop\n      pop\n      pop\n      pop\n      pop\n      pop\n      0x00\n      swap2\n      pop\n      swap1\n      pop\n      sload\n      dup2\n      jump\t// out\n        /* \"hello.sol\":391:486  function sayHello() public pure  returns(string memory){... */\n    tag_41:\n        /* \"hello.sol\":432:445  string memory */\n      0x60\n        /* \"hello.sol\":457:478  return \"hello, world\" */\n      mload(0x40)\n      dup1\n      0x40\n      add\n      0x40\n      mstore\n      dup1\n      0x0c\n      dup2\n      mstore\n      0x20\n      add\n      0x68656c6c6f2c20776f726c640000000000000000000000000000000000000000\n      dup2\n      mstore\n      pop\n      swap1\n      pop\n        /* \"hello.sol\":391:486  function sayHello() public pure  returns(string memory){... */\n      swap1\n      jump\t// out\n        /* \"hello.sol\":742:1320  function numbertype(uint256 account) public  {... */\n    tag_47:\n        /* \"hello.sol\":798:805  uint8 a */\n      0x00\n        /* \"hello.sol\":806:809  254 */\n      0xfe\n        /* \"hello.sol\":798:809  uint8 a=254 */\n      swap1\n      pop\n        /* \"hello.sol\":820:831  bytes4 abbb */\n      0x00\n        /* \"hello.sol\":820:838  bytes4 abbb=\"a84b\" */\n      0x6138346200000000000000000000000000000000000000000000000000000000\n      swap1\n      pop\n        /* \"hello.sol\":849:864  bytes memory a1 */\n      0x00\n        /* \"hello.sol\":849:892  bytes memory a1 = \"75048074384425574039e8f\" */\n      mload(0x40)\n      dup1\n      0x40\n      add\n      0x40\n      mstore\n      dup1\n      0x17\n      dup2\n      mstore\n      0x20\n      add\n      0x3735303438303734333834343235353734303339653866000000000000000000\n      dup2\n      mstore\n      pop\n      swap1\n      pop\n        /* \"hello.sol\":903:909  bool c */\n      0x00\n        /* \"hello.sol\":911:915  true */\n      0x01\n        /* \"hello.sol\":903:915  bool c =true */\n      swap1\n      pop\n        /* \"hello.sol\":926:935  bytes32 d */\n      0x00\n        /* \"hello.sol\":926:970  bytes32 d=\"124568f5d55d5d5d5d5d5d55dd5d5d5d\" */\n      0x3132343536386635643535643564356435643564356435356464356435643564\n      swap1\n      pop\n        /* \"hello.sol\":981:998  string memory str */\n      0x00\n        /* \"hello.sol\":981:1004  string memory str=\"sss\" */\n      mload(0x40)\n      dup1\n      0x40\n      add\n      0x40\n      mstore\n      dup1\n      0x03\n      dup2\n      mstore\n      0x20\n      add\n      0x7373730000000000000000000000000000000000000000000000000000000000\n      dup2\n      mstore\n      pop\n      swap1\n      pop\n        /* \"hello.sol\":1015:1042  uint[] memory  storageArray */\n      0x00\n        /* \"hello.sol\":1054:1055  5 */\n      0x05\n        /* \"hello.sol\":1043:1056  new uint[](5) */\n      0xffffffffffffffff\n      dup2\n      gt\n      iszero\n      tag_60\n      jumpi\n      tag_61\n      tag_62\n      jump\t// in\n    tag_61:\n    tag_60:\n      mload(0x40)\n      swap1\n      dup1\n      dup3\n      mstore\n      dup1\n      0x20\n      mul\n      0x20\n      add\n      dup3\n      add\n      0x40\n      mstore\n      dup1\n      iszero\n      tag_63\n      jumpi\n      dup2\n      0x20\n      add\n      0x20\n      dup3\n      mul\n      dup1\n      calldatasize\n      dup4\n      calldatacopy\n      dup1\n      dup3\n      add\n      swap2\n      pop\n      pop\n      swap1\n      pop\n    tag_63:\n      pop\n        /* \"hello.sol\":1015:1056  uint[] memory  storageArray=new uint[](5) */\n      swap1\n      pop\n        /* \"hello.sol\":1083:1084  1 */\n      0x01\n        /* \"hello.sol\":1067:1079  storageArray */\n      dup2\n        /* \"hello.sol\":1080:1081  0 */\n      0x00\n        /* \"hello.sol\":1067:1082  storageArray[0] */\n      dup2\n      mload\n      dup2\n      lt\n      tag_64\n      jumpi\n      tag_65\n      tag_66\n      jump\t// in\n    tag_65:\n    tag_64:\n      0x20\n      mul\n      0x20\n      add\n      add\n        /* \"hello.sol\":1067:1084  storageArray[0]=1 */\n      dup2\n      dup2\n      mstore\n      pop\n      pop\n        /* \"hello.sol\":1111:1112  1 */\n      0x01\n        /* \"hello.sol\":1095:1107  storageArray */\n      dup2\n        /* \"hello.sol\":1108:1109  1 */\n      0x01\n        /* \"hello.sol\":1095:1110  storageArray[1] */\n      dup2\n      mload\n      dup2\n      lt\n      tag_67\n      jumpi\n      tag_68\n      tag_66\n      jump\t// in\n    tag_68:\n    tag_67:\n      0x20\n      mul\n      0x20\n      add\n      add\n        /* \"hello.sol\":1095:1112  storageArray[1]=1 */\n      dup2\n      dup2\n      mstore\n      pop\n      pop\n        /* \"hello.sol\":1139:1140  1 */\n      0x01\n        /* \"hello.sol\":1123:1135  storageArray */\n      dup2\n        /* \"hello.sol\":1136:1137  2 */\n      0x02\n        /* \"hello.sol\":1123:1138  storageArray[2] */\n      dup2\n      mload\n      dup2\n      lt\n      tag_69\n      jumpi\n      tag_70\n      tag_66\n      jump\t// in\n    tag_70:\n    tag_69:\n      0x20\n      mul\n      0x20\n      add\n      add\n        /* \"hello.sol\":1123:1140  storageArray[2]=1 */\n      dup2\n      dup2\n      mstore\n      pop\n      pop\n        /* \"hello.sol\":1167:1168  1 */\n      0x01\n        /* \"hello.sol\":1151:1163  storageArray */\n      dup2\n        /* \"hello.sol\":1164:1165  3 */\n      0x03\n        /* \"hello.sol\":1151:1166  storageArray[3] */\n      dup2\n      mload\n      dup2\n      lt\n      tag_71\n      jumpi\n      tag_72\n      tag_66\n      jump\t// in\n    tag_72:\n    tag_71:\n      0x20\n      mul\n      0x20\n      add\n      add\n        /* \"hello.sol\":1151:1168  storageArray[3]=1 */\n      dup2\n      dup2\n      mstore\n      pop\n      pop\n        /* \"hello.sol\":1179:1196  int[] memory iarr */\n      0x60\n        /* \"hello.sol\":1215:1216  1 */\n      0x01\n        /* \"hello.sol\":1207:1211  iarr */\n      dup2\n        /* \"hello.sol\":1212:1213  0 */\n      0x00\n        /* \"hello.sol\":1207:1214  iarr[0] */\n      dup2\n      mload\n      dup2\n      lt\n      tag_73\n      jumpi\n      tag_74\n      tag_66\n      jump\t// in\n    tag_74:\n    tag_73:\n      0x20\n      mul\n      0x20\n      add\n      add\n        /* \"hello.sol\":1207:1216  iarr[0]=1 */\n      dup2\n      dup2\n      mstore\n      pop\n      pop\n        /* \"hello.sol\":1247:1254  account */\n      dup9\n        /* \"hello.sol\":1226:1234  balances */\n      0x01\n        /* \"hello.sol\":1226:1246  balances[msg.sender] */\n      0x00\n        /* \"hello.sol\":1235:1245  msg.sender */\n      caller\n        /* \"hello.sol\":1226:1246  balances[msg.sender] */\n      0xffffffffffffffffffffffffffffffffffffffff\n      and\n      0xffffffffffffffffffffffffffffffffffffffff\n      and\n      dup2\n      mstore\n      0x20\n      add\n      swap1\n      dup2\n      mstore\n      0x20\n      add\n      0x00\n      keccak256\n        /* \"hello.sol\":1226:1254  balances[msg.sender]=account */\n      dup2\n      swap1\n      sstore\n      pop\n        /* \"hello.sol\":1283:1310  user(\"jesus\",25,msg.sender) */\n      mload(0x40)\n      dup1\n      0x60\n      add\n      0x40\n      mstore\n      dup1\n      mload(0x40)\n      dup1\n      0x40\n      add\n      0x40\n      mstore\n      dup1\n      0x05\n      dup2\n      mstore\n      0x20\n      add\n      0x6a65737573000000000000000000000000000000000000000000000000000000\n      dup2\n      mstore\n      pop\n      dup2\n      mstore\n      0x20\n      add\n        /* \"hello.sol\":1296:1298  25 */\n      0x19\n        /* \"hello.sol\":1283:1310  user(\"jesus\",25,msg.sender) */\n      dup2\n      mstore\n      0x20\n      add\n        /* \"hello.sol\":1299:1309  msg.sender */\n      caller\n        /* \"hello.sol\":1283:1310  user(\"jesus\",25,msg.sender) */\n      0xffffffffffffffffffffffffffffffffffffffff\n      and\n      dup2\n      mstore\n      pop\n        /* \"hello.sol\":1264:1269  users */\n      0x03\n        /* \"hello.sol\":1264:1281  users[msg.sender] */\n      0x00\n        /* \"hello.sol\":1270:1280  msg.sender */\n      caller\n        /* \"hello.sol\":1264:1281  users[msg.sender] */\n      0xffffffffffffffffffffffffffffffffffffffff\n      and\n      0xffffffffffffffffffffffffffffffffffffffff\n      and\n      dup2\n      mstore\n      0x20\n      add\n      swap1\n      dup2\n      mstore\n      0x20\n      add\n      0x00\n      keccak256\n        /* \"hello.sol\":1264:1310  users[msg.sender]= user(\"jesus\",25,msg.sender) */\n      0x00\n      dup3\n      add\n      mload\n      dup2\n      0x00\n      add\n      swap1\n      dup2\n      tag_75\n      swap2\n      swap1\n      tag_76\n      jump\t// in\n    tag_75:\n      pop\n      0x20\n      dup3\n      add\n      mload\n      dup2\n      0x01\n      add\n      sstore\n      0x40\n      dup3\n      add\n      mload\n      dup2\n      0x02\n      add\n      exp(0x0100, 0x00)\n      dup2\n      sload\n      dup2\n      0xffffffffffffffffffffffffffffffffffffffff\n      mul\n      not\n      and\n      swap1\n      dup4\n      0xffffffffffffffffffffffffffffffffffffffff\n      and\n      mul\n      or\n      swap1\n      sstore\n      pop\n      swap1\n      pop\n      pop\n        /* \"hello.sol\":787:1320  {... */\n      pop\n      pop\n      pop\n      pop\n      pop\n      pop\n      pop\n      pop\n        /* \"hello.sol\":742:1320  function numbertype(uint256 account) public  {... */\n      pop\n      jump\t// out\n        /* \"#utility.yul\":7:82   */\n    tag_77:\n        /* \"#utility.yul\":40:46   */\n      0x00\n        /* \"#utility.yul\":73:75   */\n      0x40\n        /* \"#utility.yul\":67:76   */\n      mload\n        /* \"#utility.yul\":57:76   */\n      swap1\n      pop\n        /* \"#utility.yul\":7:82   */\n      swap1\n      jump\t// out\n        /* \"#utility.yul\":88:205   */\n    tag_78:\n        /* \"#utility.yul\":197:198   */\n      0x00\n        /* \"#utility.yul\":194:195   */\n      dup1\n        /* \"#utility.yul\":187:199   */\n      revert\n        /* \"#utility.yul\":211:328   */\n    tag_79:\n        /* \"#utility.yul\":320:321   */\n      0x00\n        /* \"#utility.yul\":317:318   */\n      dup1\n        /* \"#utility.yul\":310:322   */\n      revert\n        /* \"#utility.yul\":334:411   */\n    tag_80:\n        /* \"#utility.yul\":371:378   */\n      0x00\n        /* \"#utility.yul\":400:405   */\n      dup2\n        /* \"#utility.yul\":389:405   */\n      swap1\n      pop\n        /* \"#utility.yul\":334:411   */\n      swap2\n      swap1\n      pop\n      jump\t// out\n        /* \"#utility.yul\":417:539   */\n    tag_81:\n        /* \"#utility.yul\":490:514   */\n      tag_125\n        /* \"#utility.yul\":508:513   */\n      dup2\n        /* \"#utility.yul\":490:514   */\n      tag_80\n      jump\t// in\n    tag_125:\n        /* \"#utility.yul\":483:488   */\n      dup2\n        /* \"#utility.yul\":480:515   */\n      eq\n        /* \"#utility.yul\":470:533   */\n      tag_126\n      jumpi\n        /* \"#utility.yul\":529:530   */\n      0x00\n        /* \"#utility.yul\":526:527   */\n      dup1\n        /* \"#utility.yul\":519:531   */\n      revert\n        /* \"#utility.yul\":470:533   */\n    tag_126:\n        /* \"#utility.yul\":417:539   */\n      pop\n      jump\t// out\n        /* \"#utility.yul\":545:684   */\n    tag_82:\n        /* \"#utility.yul\":591:596   */\n      0x00\n        /* \"#utility.yul\":629:635   */\n      dup2\n        /* \"#utility.yul\":616:636   */\n      calldataload\n        /* \"#utility.yul\":607:636   */\n      swap1\n      pop\n        /* \"#utility.yul\":645:678   */\n      tag_128\n        /* \"#utility.yul\":672:677   */\n      dup2\n        /* \"#utility.yul\":645:678   */\n      tag_81\n      jump\t// in\n    tag_128:\n        /* \"#utility.yul\":545:684   */\n      swap3\n      swap2\n      pop\n      pop\n      jump\t// out\n        /* \"#utility.yul\":690:1164   */\n    tag_14:\n        /* \"#utility.yul\":758:764   */\n      0x00\n        /* \"#utility.yul\":766:772   */\n      dup1\n        /* \"#utility.yul\":815:817   */\n      0x40\n        /* \"#utility.yul\":803:812   */\n      dup4\n        /* \"#utility.yul\":794:801   */\n      dup6\n        /* \"#utility.yul\":790:813   */\n      sub\n        /* \"#utility.yul\":786:818   */\n      slt\n        /* \"#utility.yul\":783:902   */\n      iszero\n      tag_130\n      jumpi\n        /* \"#utility.yul\":821:900   */\n      tag_131\n      tag_78\n      jump\t// in\n    tag_131:\n        /* \"#utility.yul\":783:902   */\n    tag_130:\n        /* \"#utility.yul\":941:942   */\n      0x00\n        /* \"#utility.yul\":966:1019   */\n      tag_132\n        /* \"#utility.yul\":1011:1018   */\n      dup6\n        /* \"#utility.yul\":1002:1008   */\n      dup3\n        /* \"#utility.yul\":991:1000   */\n      dup7\n        /* \"#utility.yul\":987:1009   */\n      add\n        /* \"#utility.yul\":966:1019   */\n      tag_82\n      jump\t// in\n    tag_132:\n        /* \"#utility.yul\":956:1019   */\n      swap3\n      pop\n        /* \"#utility.yul\":912:1029   */\n      pop\n        /* \"#utility.yul\":1068:1070   */\n      0x20\n        /* \"#utility.yul\":1094:1147   */\n      tag_133\n        /* \"#utility.yul\":1139:1146   */\n      dup6\n        /* \"#utility.yul\":1130:1136   */\n      dup3\n        /* \"#utility.yul\":1119:1128   */\n      dup7\n        /* \"#utility.yul\":1115:1137   */\n      add\n        /* \"#utility.yul\":1094:1147   */\n      tag_82\n      jump\t// in\n    tag_133:\n        /* \"#utility.yul\":1084:1147   */\n      swap2\n      pop\n        /* \"#utility.yul\":1039:1157   */\n      pop\n        /* \"#utility.yul\":690:1164   */\n      swap3\n      pop\n      swap3\n      swap1\n      pop\n      jump\t// out\n        /* \"#utility.yul\":1170:1296   */\n    tag_83:\n        /* \"#utility.yul\":1207:1214   */\n      0x00\n        /* \"#utility.yul\":1247:1289   */\n      0xffffffffffffffffffffffffffffffffffffffff\n        /* \"#utility.yul\":1240:1245   */\n      dup3\n        /* \"#utility.yul\":1236:1290   */\n      and\n        /* \"#utility.yul\":1225:1290   */\n      swap1\n      pop\n        /* \"#utility.yul\":1170:1296   */\n      swap2\n      swap1\n      pop\n      jump\t// out\n        /* \"#utility.yul\":1302:1398   */\n    tag_84:\n        /* \"#utility.yul\":1339:1346   */\n      0x00\n        /* \"#utility.yul\":1368:1392   */\n      tag_136\n        /* \"#utility.yul\":1386:1391   */\n      dup3\n        /* \"#utility.yul\":1368:1392   */\n      tag_83\n      jump\t// in\n    tag_136:\n        /* \"#utility.yul\":1357:1392   */\n      swap1\n      pop\n        /* \"#utility.yul\":1302:1398   */\n      swap2\n      swap1\n      pop\n      jump\t// out\n        /* \"#utility.yul\":1404:1526   */\n    tag_85:\n        /* \"#utility.yul\":1477:1501   */\n      tag_138\n        /* \"#utility.yul\":1495:1500   */\n      dup2\n        /* \"#utility.yul\":1477:1501   */\n      tag_84\n      jump\t// in\n    tag_138:\n        /* \"#utility.yul\":1470:1475   */\n      dup2\n        /* \"#utility.yul\":1467:1502   */\n      eq\n        /* \"#utility.yul\":1457:1520   */\n      tag_139\n      jumpi\n        /* \"#utility.yul\":1516:1517   */\n      0x00\n        /* \"#utility.yul\":1513:1514   */\n      dup1\n        /* \"#utility.yul\":1506:1518   */\n      revert\n        /* \"#utility.yul\":1457:1520   */\n    tag_139:\n        /* \"#utility.yul\":1404:1526   */\n      pop\n      jump\t// out\n        /* \"#utility.yul\":1532:1671   */\n    tag_86:\n        /* \"#utility.yul\":1578:1583   */\n      0x00\n        /* \"#utility.yul\":1616:1622   */\n      dup2\n        /* \"#utility.yul\":1603:1623   */\n      calldataload\n        /* \"#utility.yul\":1594:1623   */\n      swap1\n      pop\n        /* \"#utility.yul\":1632:1665   */\n      tag_141\n        /* \"#utility.yul\":1659:1664   */\n      dup2\n        /* \"#utility.yul\":1632:1665   */\n      tag_85\n      jump\t// in\n    tag_141:\n        /* \"#utility.yul\":1532:1671   */\n      swap3\n      swap2\n      pop\n      pop\n      jump\t// out\n        /* \"#utility.yul\":1677:2006   */\n    tag_18:\n        /* \"#utility.yul\":1736:1742   */\n      0x00\n        /* \"#utility.yul\":1785:1787   */\n      0x20\n        /* \"#utility.yul\":1773:1782   */\n      dup3\n        /* \"#utility.yul\":1764:1771   */\n      dup5\n        /* \"#utility.yul\":1760:1783   */\n      sub\n        /* \"#utility.yul\":1756:1788   */\n      slt\n        /* \"#utility.yul\":1753:1872   */\n      iszero\n      tag_143\n      jumpi\n        /* \"#utility.yul\":1791:1870   */\n      tag_144\n      tag_78\n      jump\t// in\n    tag_144:\n        /* \"#utility.yul\":1753:1872   */\n    tag_143:\n        /* \"#utility.yul\":1911:1912   */\n      0x00\n        /* \"#utility.yul\":1936:1989   */\n      tag_145\n        /* \"#utility.yul\":1981:1988   */\n      dup5\n        /* \"#utility.yul\":1972:1978   */\n      dup3\n        /* \"#utility.yul\":1961:1970   */\n      dup6\n        /* \"#utility.yul\":1957:1979   */\n      add\n        /* \"#utility.yul\":1936:1989   */\n      tag_86\n      jump\t// in\n    tag_145:\n        /* \"#utility.yul\":1926:1989   */\n      swap2\n      pop\n        /* \"#utility.yul\":1882:1999   */\n      pop\n        /* \"#utility.yul\":1677:2006   */\n      swap3\n      swap2\n      pop\n      pop\n      jump\t// out\n        /* \"#utility.yul\":2012:2130   */\n    tag_87:\n        /* \"#utility.yul\":2099:2123   */\n      tag_147\n        /* \"#utility.yul\":2117:2122   */\n      dup2\n        /* \"#utility.yul\":2099:2123   */\n      tag_80\n      jump\t// in\n    tag_147:\n        /* \"#utility.yul\":2094:2097   */\n      dup3\n        /* \"#utility.yul\":2087:2124   */\n      mstore\n        /* \"#utility.yul\":2012:2130   */\n      pop\n      pop\n      jump\t// out\n        /* \"#utility.yul\":2136:2358   */\n    tag_21:\n        /* \"#utility.yul\":2229:2233   */\n      0x00\n        /* \"#utility.yul\":2267:2269   */\n      0x20\n        /* \"#utility.yul\":2256:2265   */\n      dup3\n        /* \"#utility.yul\":2252:2270   */\n      add\n        /* \"#utility.yul\":2244:2270   */\n      swap1\n      pop\n        /* \"#utility.yul\":2280:2351   */\n      tag_149\n        /* \"#utility.yul\":2348:2349   */\n      0x00\n        /* \"#utility.yul\":2337:2346   */\n      dup4\n        /* \"#utility.yul\":2333:2350   */\n      add\n        /* \"#utility.yul\":2324:2330   */\n      dup5\n        /* \"#utility.yul\":2280:2351   */\n      tag_87\n      jump\t// in\n    tag_149:\n        /* \"#utility.yul\":2136:2358   */\n      swap3\n      swap2\n      pop\n      pop\n      jump\t// out\n        /* \"#utility.yul\":2364:2482   */\n    tag_88:\n        /* \"#utility.yul\":2451:2475   */\n      tag_151\n        /* \"#utility.yul\":2469:2474   */\n      dup2\n        /* \"#utility.yul\":2451:2475   */\n      tag_84\n      jump\t// in\n    tag_151:\n        /* \"#utility.yul\":2446:2449   */\n      dup3\n        /* \"#utility.yul\":2439:2476   */\n      mstore\n        /* \"#utility.yul\":2364:2482   */\n      pop\n      pop\n      jump\t// out\n        /* \"#utility.yul\":2488:2710   */\n    tag_26:\n        /* \"#utility.yul\":2581:2585   */\n      0x00\n        /* \"#utility.yul\":2619:2621   */\n      0x20\n        /* \"#utility.yul\":2608:2617   */\n      dup3\n        /* \"#utility.yul\":2604:2622   */\n      add\n        /* \"#utility.yul\":2596:2622   */\n      swap1\n      pop\n        /* \"#utility.yul\":2632:2703   */\n      tag_153\n        /* \"#utility.yul\":2700:2701   */\n      0x00\n        /* \"#utility.yul\":2689:2698   */\n      dup4\n        /* \"#utility.yul\":2685:2702   */\n      add\n        /* \"#utility.yul\":2676:2682   */\n      dup5\n        /* \"#utility.yul\":2632:2703   */\n      tag_88\n      jump\t// in\n    tag_153:\n        /* \"#utility.yul\":2488:2710   */\n      swap3\n      swap2\n      pop\n      pop\n      jump\t// out\n        /* \"#utility.yul\":2716:2815   */\n    tag_89:\n        /* \"#utility.yul\":2768:2774   */\n      0x00\n        /* \"#utility.yul\":2802:2807   */\n      dup2\n        /* \"#utility.yul\":2796:2808   */\n      mload\n        /* \"#utility.yul\":2786:2808   */\n      swap1\n      pop\n        /* \"#utility.yul\":2716:2815   */\n      swap2\n      swap1\n      pop\n      jump\t// out\n        /* \"#utility.yul\":2821:2990   */\n    tag_90:\n        /* \"#utility.yul\":2905:2916   */\n      0x00\n        /* \"#utility.yul\":2939:2945   */\n      dup3\n        /* \"#utility.yul\":2934:2937   */\n      dup3\n        /* \"#utility.yul\":2927:2946   */\n      mstore\n        /* \"#utility.yul\":2979:2983   */\n      0x20\n        /* \"#utility.yul\":2974:2977   */\n      dup3\n        /* \"#utility.yul\":2970:2984   */\n      add\n        /* \"#utility.yul\":2955:2984   */\n      swap1\n      pop\n        /* \"#utility.yul\":2821:2990   */\n      swap3\n      swap2\n      pop\n      pop\n      jump\t// out\n        /* \"#utility.yul\":2996:3242   */\n    tag_91:\n        /* \"#utility.yul\":3077:3078   */\n      0x00\n        /* \"#utility.yul\":3087:3200   */\n    tag_157:\n        /* \"#utility.yul\":3101:3107   */\n      dup4\n        /* \"#utility.yul\":3098:3099   */\n      dup2\n        /* \"#utility.yul\":3095:3108   */\n      lt\n        /* \"#utility.yul\":3087:3200   */\n      iszero\n      tag_159\n      jumpi\n        /* \"#utility.yul\":3186:3187   */\n      dup1\n        /* \"#utility.yul\":3181:3184   */\n      dup3\n        /* \"#utility.yul\":3177:3188   */\n      add\n        /* \"#utility.yul\":3171:3189   */\n      mload\n        /* \"#utility.yul\":3167:3168   */\n      dup2\n        /* \"#utility.yul\":3162:3165   */\n      dup5\n        /* \"#utility.yul\":3158:3169   */\n      add\n        /* \"#utility.yul\":3151:3190   */\n      mstore\n        /* \"#utility.yul\":3123:3125   */\n      0x20\n        /* \"#utility.yul\":3120:3121   */\n      dup2\n        /* \"#utility.yul\":3116:3126   */\n      add\n        /* \"#utility.yul\":3111:3126   */\n      swap1\n      pop\n        /* \"#utility.yul\":3087:3200   */\n      jump(tag_157)\n    tag_159:\n        /* \"#utility.yul\":3234:3235   */\n      0x00\n        /* \"#utility.yul\":3225:3231   */\n      dup5\n        /* \"#utility.yul\":3220:3223   */\n      dup5\n        /* \"#utility.yul\":3216:3232   */\n      add\n        /* \"#utility.yul\":3209:3236   */\n      mstore\n        /* \"#utility.yul\":3058:3242   */\n      pop\n        /* \"#utility.yul\":2996:3242   */\n      pop\n      pop\n      pop\n      jump\t// out\n        /* \"#utility.yul\":3248:3350   */\n    tag_92:\n        /* \"#utility.yul\":3289:3295   */\n      0x00\n        /* \"#utility.yul\":3340:3342   */\n      0x1f\n        /* \"#utility.yul\":3336:3343   */\n      not\n        /* \"#utility.yul\":3331:3333   */\n      0x1f\n        /* \"#utility.yul\":3324:3329   */\n      dup4\n        /* \"#utility.yul\":3320:3334   */\n      add\n        /* \"#utility.yul\":3316:3344   */\n      and\n        /* \"#utility.yul\":3306:3344   */\n      swap1\n      pop\n        /* \"#utility.yul\":3248:3350   */\n      swap2\n      swap1\n      pop\n      jump\t// out\n        /* \"#utility.yul\":3356:3733   */\n    tag_93:\n        /* \"#utility.yul\":3444:3447   */\n      0x00\n        /* \"#utility.yul\":3472:3511   */\n      tag_162\n        /* \"#utility.yul\":3505:3510   */\n      dup3\n        /* \"#utility.yul\":3472:3511   */\n      tag_89\n      jump\t// in\n    tag_162:\n        /* \"#utility.yul\":3527:3598   */\n      tag_163\n        /* \"#utility.yul\":3591:3597   */\n      dup2\n        /* \"#utility.yul\":3586:3589   */\n      dup6\n        /* \"#utility.yul\":3527:3598   */\n      tag_90\n      jump\t// in\n    tag_163:\n        /* \"#utility.yul\":3520:3598   */\n      swap4\n      pop\n        /* \"#utility.yul\":3607:3672   */\n      tag_164\n        /* \"#utility.yul\":3665:3671   */\n      dup2\n        /* \"#utility.yul\":3660:3663   */\n      dup6\n        /* \"#utility.yul\":3653:3657   */\n      0x20\n        /* \"#utility.yul\":3646:3651   */\n      dup7\n        /* \"#utility.yul\":3642:3658   */\n      add\n        /* \"#utility.yul\":3607:3672   */\n      tag_91\n      jump\t// in\n    tag_164:\n        /* \"#utility.yul\":3697:3726   */\n      tag_165\n        /* \"#utility.yul\":3719:3725   */\n      dup2\n        /* \"#utility.yul\":3697:3726   */\n      tag_92\n      jump\t// in\n    tag_165:\n        /* \"#utility.yul\":3692:3695   */\n      dup5\n        /* \"#utility.yul\":3688:3727   */\n      add\n        /* \"#utility.yul\":3681:3727   */\n      swap2\n      pop\n        /* \"#utility.yul\":3448:3733   */\n      pop\n        /* \"#utility.yul\":3356:3733   */\n      swap3\n      swap2\n      pop\n      pop\n      jump\t// out\n        /* \"#utility.yul\":3739:4272   */\n    tag_31:\n        /* \"#utility.yul\":3908:3912   */\n      0x00\n        /* \"#utility.yul\":3946:3948   */\n      0x60\n        /* \"#utility.yul\":3935:3944   */\n      dup3\n        /* \"#utility.yul\":3931:3949   */\n      add\n        /* \"#utility.yul\":3923:3949   */\n      swap1\n      pop\n        /* \"#utility.yul\":3995:4004   */\n      dup2\n        /* \"#utility.yul\":3989:3993   */\n      dup2\n        /* \"#utility.yul\":3985:4005   */\n      sub\n        /* \"#utility.yul\":3981:3982   */\n      0x00\n        /* \"#utility.yul\":3970:3979   */\n      dup4\n        /* \"#utility.yul\":3966:3983   */\n      add\n        /* \"#utility.yul\":3959:4006   */\n      mstore\n        /* \"#utility.yul\":4023:4101   */\n      tag_167\n        /* \"#utility.yul\":4096:4100   */\n      dup2\n        /* \"#utility.yul\":4087:4093   */\n      dup7\n        /* \"#utility.yul\":4023:4101   */\n      tag_93\n      jump\t// in\n    tag_167:\n        /* \"#utility.yul\":4015:4101   */\n      swap1\n      pop\n        /* \"#utility.yul\":4111:4183   */\n      tag_168\n        /* \"#utility.yul\":4179:4181   */\n      0x20\n        /* \"#utility.yul\":4168:4177   */\n      dup4\n        /* \"#utility.yul\":4164:4182   */\n      add\n        /* \"#utility.yul\":4155:4161   */\n      dup6\n        /* \"#utility.yul\":4111:4183   */\n      tag_87\n      jump\t// in\n    tag_168:\n        /* \"#utility.yul\":4193:4265   */\n      tag_169\n        /* \"#utility.yul\":4261:4263   */\n      0x40\n        /* \"#utility.yul\":4250:4259   */\n      dup4\n        /* \"#utility.yul\":4246:4264   */\n      add\n        /* \"#utility.yul\":4237:4243   */\n      dup5\n        /* \"#utility.yul\":4193:4265   */\n      tag_88\n      jump\t// in\n    tag_169:\n        /* \"#utility.yul\":3739:4272   */\n      swap5\n      swap4\n      pop\n      pop\n      pop\n      pop\n      jump\t// out\n        /* \"#utility.yul\":4278:4395   */\n    tag_94:\n        /* \"#utility.yul\":4387:4388   */\n      0x00\n        /* \"#utility.yul\":4384:4385   */\n      dup1\n        /* \"#utility.yul\":4377:4389   */\n      revert\n        /* \"#utility.yul\":4401:4518   */\n    tag_95:\n        /* \"#utility.yul\":4510:4511   */\n      0x00\n        /* \"#utility.yul\":4507:4508   */\n      dup1\n        /* \"#utility.yul\":4500:4512   */\n      revert\n        /* \"#utility.yul\":4524:4704   */\n    tag_62:\n        /* \"#utility.yul\":4572:4649   */\n      0x4e487b7100000000000000000000000000000000000000000000000000000000\n        /* \"#utility.yul\":4569:4570   */\n      0x00\n        /* \"#utility.yul\":4562:4650   */\n      mstore\n        /* \"#utility.yul\":4669:4673   */\n      0x41\n        /* \"#utility.yul\":4666:4667   */\n      0x04\n        /* \"#utility.yul\":4659:4674   */\n      mstore\n        /* \"#utility.yul\":4693:4697   */\n      0x24\n        /* \"#utility.yul\":4690:4691   */\n      0x00\n        /* \"#utility.yul\":4683:4698   */\n      revert\n        /* \"#utility.yul\":4710:4991   */\n    tag_96:\n        /* \"#utility.yul\":4793:4820   */\n      tag_174\n        /* \"#utility.yul\":4815:4819   */\n      dup3\n        /* \"#utility.yul\":4793:4820   */\n      tag_92\n      jump\t// in\n    tag_174:\n        /* \"#utility.yul\":4785:4791   */\n      dup2\n        /* \"#utility.yul\":4781:4821   */\n      add\n        /* \"#utility.yul\":4923:4929   */\n      dup2\n        /* \"#utility.yul\":4911:4921   */\n      dup2\n        /* \"#utility.yul\":4908:4930   */\n      lt\n        /* \"#utility.yul\":4887:4905   */\n      0xffffffffffffffff\n        /* \"#utility.yul\":4875:4885   */\n      dup3\n        /* \"#utility.yul\":4872:4906   */\n      gt\n        /* \"#utility.yul\":4869:4931   */\n      or\n        /* \"#utility.yul\":4866:4954   */\n      iszero\n      tag_175\n      jumpi\n        /* \"#utility.yul\":4934:4952   */\n      tag_176\n      tag_62\n      jump\t// in\n    tag_176:\n        /* \"#utility.yul\":4866:4954   */\n    tag_175:\n        /* \"#utility.yul\":4974:4984   */\n      dup1\n        /* \"#utility.yul\":4970:4972   */\n      0x40\n        /* \"#utility.yul\":4963:4985   */\n      mstore\n        /* \"#utility.yul\":4753:4991   */\n      pop\n        /* \"#utility.yul\":4710:4991   */\n      pop\n      pop\n      jump\t// out\n        /* \"#utility.yul\":4997:5126   */\n    tag_97:\n        /* \"#utility.yul\":5031:5037   */\n      0x00\n        /* \"#utility.yul\":5058:5078   */\n      tag_178\n      tag_77\n      jump\t// in\n    tag_178:\n        /* \"#utility.yul\":5048:5078   */\n      swap1\n      pop\n        /* \"#utility.yul\":5087:5120   */\n      tag_179\n        /* \"#utility.yul\":5115:5119   */\n      dup3\n        /* \"#utility.yul\":5107:5113   */\n      dup3\n        /* \"#utility.yul\":5087:5120   */\n      tag_96\n      jump\t// in\n    tag_179:\n        /* \"#utility.yul\":4997:5126   */\n      swap2\n      swap1\n      pop\n      jump\t// out\n        /* \"#utility.yul\":5132:5440   */\n    tag_98:\n        /* \"#utility.yul\":5194:5198   */\n      0x00\n        /* \"#utility.yul\":5284:5302   */\n      0xffffffffffffffff\n        /* \"#utility.yul\":5276:5282   */\n      dup3\n        /* \"#utility.yul\":5273:5303   */\n      gt\n        /* \"#utility.yul\":5270:5326   */\n      iszero\n      tag_181\n      jumpi\n        /* \"#utility.yul\":5306:5324   */\n      tag_182\n      tag_62\n      jump\t// in\n    tag_182:\n        /* \"#utility.yul\":5270:5326   */\n    tag_181:\n        /* \"#utility.yul\":5344:5373   */\n      tag_183\n        /* \"#utility.yul\":5366:5372   */\n      dup3\n        /* \"#utility.yul\":5344:5373   */\n      tag_92\n      jump\t// in\n    tag_183:\n        /* \"#utility.yul\":5336:5373   */\n      swap1\n      pop\n        /* \"#utility.yul\":5428:5432   */\n      0x20\n        /* \"#utility.yul\":5422:5426   */\n      dup2\n        /* \"#utility.yul\":5418:5433   */\n      add\n        /* \"#utility.yul\":5410:5433   */\n      swap1\n      pop\n        /* \"#utility.yul\":5132:5440   */\n      swap2\n      swap1\n      pop\n      jump\t// out\n        /* \"#utility.yul\":5446:5592   */\n    tag_99:\n        /* \"#utility.yul\":5543:5549   */\n      dup3\n        /* \"#utility.yul\":5538:5541   */\n      dup2\n        /* \"#utility.yul\":5533:5536   */\n      dup4\n        /* \"#utility.yul\":5520:5550   */\n      calldatacopy\n        /* \"#utility.yul\":5584:5585   */\n      0x00\n        /* \"#utility.yul\":5575:5581   */\n      dup4\n        /* \"#utility.yul\":5570:5573   */\n      dup4\n        /* \"#utility.yul\":5566:5582   */\n      add\n        /* \"#utility.yul\":5559:5586   */\n      mstore\n        /* \"#utility.yul\":5446:5592   */\n      pop\n      pop\n      pop\n      jump\t// out\n        /* \"#utility.yul\":5598:6023   */\n    tag_100:\n        /* \"#utility.yul\":5676:5681   */\n      0x00\n        /* \"#utility.yul\":5701:5767   */\n      tag_186\n        /* \"#utility.yul\":5717:5766   */\n      tag_187\n        /* \"#utility.yul\":5759:5765   */\n      dup5\n        /* \"#utility.yul\":5717:5766   */\n      tag_98\n      jump\t// in\n    tag_187:\n        /* \"#utility.yul\":5701:5767   */\n      tag_97\n      jump\t// in\n    tag_186:\n        /* \"#utility.yul\":5692:5767   */\n      swap1\n      pop\n        /* \"#utility.yul\":5790:5796   */\n      dup3\n        /* \"#utility.yul\":5783:5788   */\n      dup2\n        /* \"#utility.yul\":5776:5797   */\n      mstore\n        /* \"#utility.yul\":5828:5832   */\n      0x20\n        /* \"#utility.yul\":5821:5826   */\n      dup2\n        /* \"#utility.yul\":5817:5833   */\n      add\n        /* \"#utility.yul\":5866:5869   */\n      dup5\n        /* \"#utility.yul\":5857:5863   */\n      dup5\n        /* \"#utility.yul\":5852:5855   */\n      dup5\n        /* \"#utility.yul\":5848:5864   */\n      add\n        /* \"#utility.yul\":5845:5870   */\n      gt\n        /* \"#utility.yul\":5842:5954   */\n      iszero\n      tag_188\n      jumpi\n        /* \"#utility.yul\":5873:5952   */\n      tag_189\n      tag_95\n      jump\t// in\n    tag_189:\n        /* \"#utility.yul\":5842:5954   */\n    tag_188:\n        /* \"#utility.yul\":5963:6017   */\n      tag_190\n        /* \"#utility.yul\":6010:6016   */\n      dup5\n        /* \"#utility.yul\":6005:6008   */\n      dup3\n        /* \"#utility.yul\":6000:6003   */\n      dup6\n        /* \"#utility.yul\":5963:6017   */\n      tag_99\n      jump\t// in\n    tag_190:\n        /* \"#utility.yul\":5682:6023   */\n      pop\n        /* \"#utility.yul\":5598:6023   */\n      swap4\n      swap3\n      pop\n      pop\n      pop\n      jump\t// out\n        /* \"#utility.yul\":6043:6383   */\n    tag_101:\n        /* \"#utility.yul\":6099:6104   */\n      0x00\n        /* \"#utility.yul\":6148:6151   */\n      dup3\n        /* \"#utility.yul\":6141:6145   */\n      0x1f\n        /* \"#utility.yul\":6133:6139   */\n      dup4\n        /* \"#utility.yul\":6129:6146   */\n      add\n        /* \"#utility.yul\":6125:6152   */\n      slt\n        /* \"#utility.yul\":6115:6237   */\n      tag_192\n      jumpi\n        /* \"#utility.yul\":6156:6235   */\n      tag_193\n      tag_94\n      jump\t// in\n    tag_193:\n        /* \"#utility.yul\":6115:6237   */\n    tag_192:\n        /* \"#utility.yul\":6273:6279   */\n      dup2\n        /* \"#utility.yul\":6260:6280   */\n      calldataload\n        /* \"#utility.yul\":6298:6377   */\n      tag_194\n        /* \"#utility.yul\":6373:6376   */\n      dup5\n        /* \"#utility.yul\":6365:6371   */\n      dup3\n        /* \"#utility.yul\":6358:6362   */\n      0x20\n        /* \"#utility.yul\":6350:6356   */\n      dup7\n        /* \"#utility.yul\":6346:6363   */\n      add\n        /* \"#utility.yul\":6298:6377   */\n      tag_100\n      jump\t// in\n    tag_194:\n        /* \"#utility.yul\":6289:6377   */\n      swap2\n      pop\n        /* \"#utility.yul\":6105:6383   */\n      pop\n        /* \"#utility.yul\":6043:6383   */\n      swap3\n      swap2\n      pop\n      pop\n      jump\t// out\n        /* \"#utility.yul\":6389:6898   */\n    tag_37:\n        /* \"#utility.yul\":6458:6464   */\n      0x00\n        /* \"#utility.yul\":6507:6509   */\n      0x20\n        /* \"#utility.yul\":6495:6504   */\n      dup3\n        /* \"#utility.yul\":6486:6493   */\n      dup5\n        /* \"#utility.yul\":6482:6505   */\n      sub\n        /* \"#utility.yul\":6478:6510   */\n      slt\n        /* \"#utility.yul\":6475:6594   */\n      iszero\n      tag_196\n      jumpi\n        /* \"#utility.yul\":6513:6592   */\n      tag_197\n      tag_78\n      jump\t// in\n    tag_197:\n        /* \"#utility.yul\":6475:6594   */\n    tag_196:\n        /* \"#utility.yul\":6661:6662   */\n      0x00\n        /* \"#utility.yul\":6650:6659   */\n      dup3\n        /* \"#utility.yul\":6646:6663   */\n      add\n        /* \"#utility.yul\":6633:6664   */\n      calldataload\n        /* \"#utility.yul\":6691:6709   */\n      0xffffffffffffffff\n        /* \"#utility.yul\":6683:6689   */\n      dup2\n        /* \"#utility.yul\":6680:6710   */\n      gt\n        /* \"#utility.yul\":6677:6794   */\n      iszero\n      tag_198\n      jumpi\n        /* \"#utility.yul\":6713:6792   */\n      tag_199\n      tag_79\n      jump\t// in\n    tag_199:\n        /* \"#utility.yul\":6677:6794   */\n    tag_198:\n        /* \"#utility.yul\":6818:6881   */\n      tag_200\n        /* \"#utility.yul\":6873:6880   */\n      dup5\n        /* \"#utility.yul\":6864:6870   */\n      dup3\n        /* \"#utility.yul\":6853:6862   */\n      dup6\n        /* \"#utility.yul\":6849:6871   */\n      add\n        /* \"#utility.yul\":6818:6881   */\n      tag_101\n      jump\t// in\n    tag_200:\n        /* \"#utility.yul\":6808:6881   */\n      swap2\n      pop\n        /* \"#utility.yul\":6604:6891   */\n      pop\n        /* \"#utility.yul\":6389:6898   */\n      swap3\n      swap2\n      pop\n      pop\n      jump\t// out\n        /* \"#utility.yul\":6904:7217   */\n    tag_43:\n        /* \"#utility.yul\":7017:7021   */\n      0x00\n        /* \"#utility.yul\":7055:7057   */\n      0x20\n        /* \"#utility.yul\":7044:7053   */\n      dup3\n        /* \"#utility.yul\":7040:7058   */\n      add\n        /* \"#utility.yul\":7032:7058   */\n      swap1\n      pop\n        /* \"#utility.yul\":7104:7113   */\n      dup2\n        /* \"#utility.yul\":7098:7102   */\n      dup2\n        /* \"#utility.yul\":7094:7114   */\n      sub\n        /* \"#utility.yul\":7090:7091   */\n      0x00\n        /* \"#utility.yul\":7079:7088   */\n      dup4\n        /* \"#utility.yul\":7075:7092   */\n      add\n        /* \"#utility.yul\":7068:7115   */\n      mstore\n        /* \"#utility.yul\":7132:7210   */\n      tag_202\n        /* \"#utility.yul\":7205:7209   */\n      dup2\n        /* \"#utility.yul\":7196:7202   */\n      dup5\n        /* \"#utility.yul\":7132:7210   */\n      tag_93\n      jump\t// in\n    tag_202:\n        /* \"#utility.yul\":7124:7210   */\n      swap1\n      pop\n        /* \"#utility.yul\":6904:7217   */\n      swap3\n      swap2\n      pop\n      pop\n      jump\t// out\n        /* \"#utility.yul\":7223:7552   */\n    tag_46:\n        /* \"#utility.yul\":7282:7288   */\n      0x00\n        /* \"#utility.yul\":7331:7333   */\n      0x20\n        /* \"#utility.yul\":7319:7328   */\n      dup3\n        /* \"#utility.yul\":7310:7317   */\n      dup5\n        /* \"#utility.yul\":7306:7329   */\n      sub\n        /* \"#utility.yul\":7302:7334   */\n      slt\n        /* \"#utility.yul\":7299:7418   */\n      iszero\n      tag_204\n      jumpi\n        /* \"#utility.yul\":7337:7416   */\n      tag_205\n      tag_78\n      jump\t// in\n    tag_205:\n        /* \"#utility.yul\":7299:7418   */\n    tag_204:\n        /* \"#utility.yul\":7457:7458   */\n      0x00\n        /* \"#utility.yul\":7482:7535   */\n      tag_206\n        /* \"#utility.yul\":7527:7534   */\n      dup5\n        /* \"#utility.yul\":7518:7524   */\n      dup3\n        /* \"#utility.yul\":7507:7516   */\n      dup6\n        /* \"#utility.yul\":7503:7525   */\n      add\n        /* \"#utility.yul\":7482:7535   */\n      tag_82\n      jump\t// in\n    tag_206:\n        /* \"#utility.yul\":7472:7535   */\n      swap2\n      pop\n        /* \"#utility.yul\":7428:7545   */\n      pop\n        /* \"#utility.yul\":7223:7552   */\n      swap3\n      swap2\n      pop\n      pop\n      jump\t// out\n        /* \"#utility.yul\":7558:7738   */\n    tag_102:\n        /* \"#utility.yul\":7606:7683   */\n      0x4e487b7100000000000000000000000000000000000000000000000000000000\n        /* \"#utility.yul\":7603:7604   */\n      0x00\n        /* \"#utility.yul\":7596:7684   */\n      mstore\n        /* \"#utility.yul\":7703:7707   */\n      0x11\n        /* \"#utility.yul\":7700:7701   */\n      0x04\n        /* \"#utility.yul\":7693:7708   */\n      mstore\n        /* \"#utility.yul\":7727:7731   */\n      0x24\n        /* \"#utility.yul\":7724:7725   */\n      0x00\n        /* \"#utility.yul\":7717:7732   */\n      revert\n        /* \"#utility.yul\":7744:7935   */\n    tag_50:\n        /* \"#utility.yul\":7784:7787   */\n      0x00\n        /* \"#utility.yul\":7803:7823   */\n      tag_209\n        /* \"#utility.yul\":7821:7822   */\n      dup3\n        /* \"#utility.yul\":7803:7823   */\n      tag_80\n      jump\t// in\n    tag_209:\n        /* \"#utility.yul\":7798:7823   */\n      swap2\n      pop\n        /* \"#utility.yul\":7837:7857   */\n      tag_210\n        /* \"#utility.yul\":7855:7856   */\n      dup4\n        /* \"#utility.yul\":7837:7857   */\n      tag_80\n      jump\t// in\n    tag_210:\n        /* \"#utility.yul\":7832:7857   */\n      swap3\n      pop\n        /* \"#utility.yul\":7880:7881   */\n      dup3\n        /* \"#utility.yul\":7877:7878   */\n      dup3\n        /* \"#utility.yul\":7873:7882   */\n      add\n        /* \"#utility.yul\":7866:7882   */\n      swap1\n      pop\n        /* \"#utility.yul\":7901:7904   */\n      dup1\n        /* \"#utility.yul\":7898:7899   */\n      dup3\n        /* \"#utility.yul\":7895:7905   */\n      gt\n        /* \"#utility.yul\":7892:7928   */\n      iszero\n      tag_211\n      jumpi\n        /* \"#utility.yul\":7908:7926   */\n      tag_212\n      tag_102\n      jump\t// in\n    tag_212:\n        /* \"#utility.yul\":7892:7928   */\n    tag_211:\n        /* \"#utility.yul\":7744:7935   */\n      swap3\n      swap2\n      pop\n      pop\n      jump\t// out\n        /* \"#utility.yul\":7941:8121   */\n    tag_103:\n        /* \"#utility.yul\":7989:8066   */\n      0x4e487b7100000000000000000000000000000000000000000000000000000000\n        /* \"#utility.yul\":7986:7987   */\n      0x00\n        /* \"#utility.yul\":7979:8067   */\n      mstore\n        /* \"#utility.yul\":8086:8090   */\n      0x22\n        /* \"#utility.yul\":8083:8084   */\n      0x04\n        /* \"#utility.yul\":8076:8091   */\n      mstore\n        /* \"#utility.yul\":8110:8114   */\n      0x24\n        /* \"#utility.yul\":8107:8108   */\n      0x00\n        /* \"#utility.yul\":8100:8115   */\n      revert\n        /* \"#utility.yul\":8127:8447   */\n    tag_53:\n        /* \"#utility.yul\":8171:8177   */\n      0x00\n        /* \"#utility.yul\":8208:8209   */\n      0x02\n        /* \"#utility.yul\":8202:8206   */\n      dup3\n        /* \"#utility.yul\":8198:8210   */\n      div\n        /* \"#utility.yul\":8188:8210   */\n      swap1\n      pop\n        /* \"#utility.yul\":8255:8256   */\n      0x01\n        /* \"#utility.yul\":8249:8253   */\n      dup3\n        /* \"#utility.yul\":8245:8257   */\n      and\n        /* \"#utility.yul\":8276:8294   */\n      dup1\n        /* \"#utility.yul\":8266:8347   */\n      tag_215\n      jumpi\n        /* \"#utility.yul\":8332:8336   */\n      0x7f\n        /* \"#utility.yul\":8324:8330   */\n      dup3\n        /* \"#utility.yul\":8320:8337   */\n      and\n        /* \"#utility.yul\":8310:8337   */\n      swap2\n      pop\n        /* \"#utility.yul\":8266:8347   */\n    tag_215:\n        /* \"#utility.yul\":8394:8396   */\n      0x20\n        /* \"#utility.yul\":8386:8392   */\n      dup3\n        /* \"#utility.yul\":8383:8397   */\n      lt\n        /* \"#utility.yul\":8363:8381   */\n      dup2\n        /* \"#utility.yul\":8360:8398   */\n      sub\n        /* \"#utility.yul\":8357:8441   */\n      tag_216\n      jumpi\n        /* \"#utility.yul\":8413:8431   */\n      tag_217\n      tag_103\n      jump\t// in\n    tag_217:\n        /* \"#utility.yul\":8357:8441   */\n    tag_216:\n        /* \"#utility.yul\":8178:8447   */\n      pop\n        /* \"#utility.yul\":8127:8447   */\n      swap2\n      swap1\n      pop\n      jump\t// out\n        /* \"#utility.yul\":8453:8633   */\n    tag_66:\n        /* \"#utility.yul\":8501:8578   */\n      0x4e487b7100000000000000000000000000000000000000000000000000000000\n        /* \"#utility.yul\":8498:8499   */\n      0x00\n        /* \"#utility.yul\":8491:8579   */\n      mstore\n        /* \"#utility.yul\":8598:8602   */\n      0x32\n        /* \"#utility.yul\":8595:8596   */\n      0x04\n        /* \"#utility.yul\":8588:8603   */\n      mstore\n        /* \"#utility.yul\":8622:8626   */\n      0x24\n        /* \"#utility.yul\":8619:8620   */\n      0x00\n        /* \"#utility.yul\":8612:8627   */\n      revert\n        /* \"#utility.yul\":8639:8780   */\n    tag_104:\n        /* \"#utility.yul\":8688:8692   */\n      0x00\n        /* \"#utility.yul\":8711:8714   */\n      dup2\n        /* \"#utility.yul\":8703:8714   */\n      swap1\n      pop\n        /* \"#utility.yul\":8734:8737   */\n      dup2\n        /* \"#utility.yul\":8731:8732   */\n      0x00\n        /* \"#utility.yul\":8724:8738   */\n      mstore\n        /* \"#utility.yul\":8768:8772   */\n      0x20\n        /* \"#utility.yul\":8765:8766   */\n      0x00\n        /* \"#utility.yul\":8755:8773   */\n      keccak256\n        /* \"#utility.yul\":8747:8773   */\n      swap1\n      pop\n        /* \"#utility.yul\":8639:8780   */\n      swap2\n      swap1\n      pop\n      jump\t// out\n        /* \"#utility.yul\":8786:8879   */\n    tag_105:\n        /* \"#utility.yul\":8823:8829   */\n      0x00\n        /* \"#utility.yul\":8870:8872   */\n      0x20\n        /* \"#utility.yul\":8865:8867   */\n      0x1f\n        /* \"#utility.yul\":8858:8863   */\n      dup4\n        /* \"#utility.yul\":8854:8868   */\n      add\n        /* \"#utility.yul\":8850:8873   */\n      div\n        /* \"#utility.yul\":8840:8873   */\n      swap1\n      pop\n        /* \"#utility.yul\":8786:8879   */\n      swap2\n      swap1\n      pop\n      jump\t// out\n        /* \"#utility.yul\":8885:8992   */\n    tag_106:\n        /* \"#utility.yul\":8929:8937   */\n      0x00\n        /* \"#utility.yul\":8979:8984   */\n      dup3\n        /* \"#utility.yul\":8973:8977   */\n      dup3\n        /* \"#utility.yul\":8969:8985   */\n      shl\n        /* \"#utility.yul\":8948:8985   */\n      swap1\n      pop\n        /* \"#utility.yul\":8885:8992   */\n      swap3\n      swap2\n      pop\n      pop\n      jump\t// out\n        /* \"#utility.yul\":8998:9391   */\n    tag_107:\n        /* \"#utility.yul\":9067:9073   */\n      0x00\n        /* \"#utility.yul\":9117:9118   */\n      0x08\n        /* \"#utility.yul\":9105:9115   */\n      dup4\n        /* \"#utility.yul\":9101:9119   */\n      mul\n        /* \"#utility.yul\":9140:9237   */\n      tag_223\n        /* \"#utility.yul\":9170:9236   */\n      0xffffffffffffffffffffffffffffffffffffffffffffffffffffffffffffffff\n        /* \"#utility.yul\":9159:9168   */\n      dup3\n        /* \"#utility.yul\":9140:9237   */\n      tag_106\n      jump\t// in\n    tag_223:\n        /* \"#utility.yul\":9258:9297   */\n      tag_224\n        /* \"#utility.yul\":9288:9296   */\n      dup7\n        /* \"#utility.yul\":9277:9286   */\n      dup4\n        /* \"#utility.yul\":9258:9297   */\n      tag_106\n      jump\t// in\n    tag_224:\n        /* \"#utility.yul\":9246:9297   */\n      swap6\n      pop\n        /* \"#utility.yul\":9330:9334   */\n      dup1\n        /* \"#utility.yul\":9326:9335   */\n      not\n        /* \"#utility.yul\":9319:9324   */\n      dup5\n        /* \"#utility.yul\":9315:9336   */\n      and\n        /* \"#utility.yul\":9306:9336   */\n      swap4\n      pop\n        /* \"#utility.yul\":9379:9383   */\n      dup1\n        /* \"#utility.yul\":9369:9377   */\n      dup7\n        /* \"#utility.yul\":9365:9384   */\n      and\n        /* \"#utility.yul\":9358:9363   */\n      dup5\n        /* \"#utility.yul\":9355:9385   */\n      or\n        /* \"#utility.yul\":9345:9385   */\n      swap3\n      pop\n        /* \"#utility.yul\":9074:9391   */\n      pop\n      pop\n        /* \"#utility.yul\":8998:9391   */\n      swap4\n      swap3\n      pop\n      pop\n      pop\n      jump\t// out\n        /* \"#utility.yul\":9397:9457   */\n    tag_108:\n        /* \"#utility.yul\":9425:9428   */\n      0x00\n        /* \"#utility.yul\":9446:9451   */\n      dup2\n        /* \"#utility.yul\":9439:9451   */\n      swap1\n      pop\n        /* \"#utility.yul\":9397:9457   */\n      swap2\n      swap1\n      pop\n      jump\t// out\n        /* \"#utility.yul\":9463:9605   */\n    tag_109:\n        /* \"#utility.yul\":9513:9522   */\n      0x00\n        /* \"#utility.yul\":9546:9599   */\n      tag_227\n        /* \"#utility.yul\":9564:9598   */\n      tag_228\n        /* \"#utility.yul\":9573:9597   */\n      tag_229\n        /* \"#utility.yul\":9591:9596   */\n      dup5\n        /* \"#utility.yul\":9573:9597   */\n      tag_80\n      jump\t// in\n    tag_229:\n        /* \"#utility.yul\":9564:9598   */\n      tag_108\n      jump\t// in\n    tag_228:\n        /* \"#utility.yul\":9546:9599   */\n      tag_80\n      jump\t// in\n    tag_227:\n        /* \"#utility.yul\":9533:9599   */\n      swap1\n      pop\n        /* \"#utility.yul\":9463:9605   */\n      swap2\n      swap1\n      pop\n      jump\t// out\n        /* \"#utility.yul\":9611:9686   */\n    tag_110:\n        /* \"#utility.yul\":9654:9657   */\n      0x00\n        /* \"#utility.yul\":9675:9680   */\n      dup2\n        /* \"#utility.yul\":9668:9680   */\n      swap1\n      pop\n        /* \"#utility.yul\":9611:9686   */\n      swap2\n      swap1\n      pop\n      jump\t// out\n        /* \"#utility.yul\":9692:9961   */\n    tag_111:\n        /* \"#utility.yul\":9802:9841   */\n      tag_232\n        /* \"#utility.yul\":9833:9840   */\n      dup4\n        /* \"#utility.yul\":9802:9841   */\n      tag_109\n      jump\t// in\n    tag_232:\n        /* \"#utility.yul\":9863:9954   */\n      tag_233\n        /* \"#utility.yul\":9912:9953   */\n      tag_234\n        /* \"#utility.yul\":9936:9952   */\n      dup3\n        /* \"#utility.yul\":9912:9953   */\n      tag_110\n      jump\t// in\n    tag_234:\n        /* \"#utility.yul\":9904:9910   */\n      dup5\n        /* \"#utility.yul\":9897:9901   */\n      dup5\n        /* \"#utility.yul\":9891:9902   */\n      sload\n        /* \"#utility.yul\":9863:9954   */\n      tag_107\n      jump\t// in\n    tag_233:\n        /* \"#utility.yul\":9857:9861   */\n      dup3\n        /* \"#utility.yul\":9850:9955   */\n      sstore\n        /* \"#utility.yul\":9768:9961   */\n      pop\n        /* \"#utility.yul\":9692:9961   */\n      pop\n      pop\n      pop\n      jump\t// out\n        /* \"#utility.yul\":9967:10040   */\n    tag_112:\n        /* \"#utility.yul\":10012:10015   */\n      0x00\n        /* \"#utility.yul\":9967:10040   */\n      swap1\n      jump\t// out\n        /* \"#utility.yul\":10046:10235   */\n    tag_113:\n        /* \"#utility.yul\":10123:10155   */\n      tag_237\n      tag_112\n      jump\t// in\n    tag_237:\n        /* \"#utility.yul\":10164:10229   */\n      tag_238\n        /* \"#utility.yul\":10222:10228   */\n      dup2\n        /* \"#utility.yul\":10214:10220   */\n      dup5\n        /* \"#utility.yul\":10208:10212   */\n      dup5\n        /* \"#utility.yul\":10164:10229   */\n      tag_111\n      jump\t// in\n    tag_238:\n        /* \"#utility.yul\":10099:10235   */\n      pop\n        /* \"#utility.yul\":10046:10235   */\n      pop\n      pop\n      jump\t// out\n        /* \"#utility.yul\":10241:10427   */\n    tag_114:\n        /* \"#utility.yul\":10301:10421   */\n    tag_240:\n        /* \"#utility.yul\":10318:10321   */\n      dup2\n        /* \"#utility.yul\":10311:10316   */\n      dup2\n        /* \"#utility.yul\":10308:10322   */\n      lt\n        /* \"#utility.yul\":10301:10421   */\n      iszero\n      tag_242\n      jumpi\n        /* \"#utility.yul\":10372:10411   */\n      tag_243\n        /* \"#utility.yul\":10409:10410   */\n      0x00\n        /* \"#utility.yul\":10402:10407   */\n      dup3\n        /* \"#utility.yul\":10372:10411   */\n      tag_113\n      jump\t// in\n    tag_243:\n        /* \"#utility.yul\":10345:10346   */\n      0x01\n        /* \"#utility.yul\":10338:10343   */\n      dup2\n        /* \"#utility.yul\":10334:10347   */\n      add\n        /* \"#utility.yul\":10325:10347   */\n      swap1\n      pop\n        /* \"#utility.yul\":10301:10421   */\n      jump(tag_240)\n    tag_242:\n        /* \"#utility.yul\":10241:10427   */\n      pop\n      pop\n      jump\t// out\n        /* \"#utility.yul\":10433:10976   */\n    tag_115:\n        /* \"#utility.yul\":10534:10536   */\n      0x1f\n        /* \"#utility.yul\":10529:10532   */\n      dup3\n        /* \"#utility.yul\":10526:10537   */\n      gt\n        /* \"#utility.yul\":10523:10969   */\n      iszero\n      tag_245\n      jumpi\n        /* \"#utility.yul\":10568:10606   */\n      tag_246\n        /* \"#utility.yul\":10600:10605   */\n      dup2\n        /* \"#utility.yul\":10568:10606   */\n      tag_104\n      jump\t// in\n    tag_246:\n        /* \"#utility.yul\":10652:10681   */\n      tag_247\n        /* \"#utility.yul\":10670:10680   */\n      dup5\n        /* \"#utility.yul\":10652:10681   */\n      tag_105\n      jump\t// in\n    tag_247:\n        /* \"#utility.yul\":10642:10650   */\n      dup2\n        /* \"#utility.yul\":10638:10682   */\n      add\n        /* \"#utility.yul\":10835:10837   */\n      0x20\n        /* \"#utility.yul\":10823:10833   */\n      dup6\n        /* \"#utility.yul\":10820:10838   */\n      lt\n        /* \"#utility.yul\":10817:10866   */\n      iszero\n      tag_248\n      jumpi\n        /* \"#utility.yul\":10856:10864   */\n      dup2\n        /* \"#utility.yul\":10841:10864   */\n      swap1\n      pop\n        /* \"#utility.yul\":10817:10866   */\n    tag_248:\n        /* \"#utility.yul\":10879:10959   */\n      tag_249\n        /* \"#utility.yul\":10935:10957   */\n      tag_250\n        /* \"#utility.yul\":10953:10956   */\n      dup6\n        /* \"#utility.yul\":10935:10957   */\n      tag_105\n      jump\t// in\n    tag_250:\n        /* \"#utility.yul\":10925:10933   */\n      dup4\n        /* \"#utility.yul\":10921:10958   */\n      add\n        /* \"#utility.yul\":10908:10919   */\n      dup3\n        /* \"#utility.yul\":10879:10959   */\n      tag_114\n      jump\t// in\n    tag_249:\n        /* \"#utility.yul\":10538:10969   */\n      pop\n      pop\n        /* \"#utility.yul\":10523:10969   */\n    tag_245:\n        /* \"#utility.yul\":10433:10976   */\n      pop\n      pop\n      pop\n      jump\t// out\n        /* \"#utility.yul\":10982:11099   */\n    tag_116:\n        /* \"#utility.yul\":11036:11044   */\n      0x00\n        /* \"#utility.yul\":11086:11091   */\n      dup3\n        /* \"#utility.yul\":11080:11084   */\n      dup3\n        /* \"#utility.yul\":11076:11092   */\n      shr\n        /* \"#utility.yul\":11055:11092   */\n      swap1\n      pop\n        /* \"#utility.yul\":10982:11099   */\n      swap3\n      swap2\n      pop\n      pop\n      jump\t// out\n        /* \"#utility.yul\":11105:11274   */\n    tag_117:\n        /* \"#utility.yul\":11149:11155   */\n      0x00\n        /* \"#utility.yul\":11182:11233   */\n      tag_253\n        /* \"#utility.yul\":11230:11231   */\n      0x00\n        /* \"#utility.yul\":11226:11232   */\n      not\n        /* \"#utility.yul\":11218:11223   */\n      dup5\n        /* \"#utility.yul\":11215:11216   */\n      0x08\n        /* \"#utility.yul\":11211:11224   */\n      mul\n        /* \"#utility.yul\":11182:11233   */\n      tag_116\n      jump\t// in\n    tag_253:\n        /* \"#utility.yul\":11178:11234   */\n      not\n        /* \"#utility.yul\":11263:11267   */\n      dup1\n        /* \"#utility.yul\":11257:11261   */\n      dup4\n        /* \"#utility.yul\":11253:11268   */\n      and\n        /* \"#utility.yul\":11243:11268   */\n      swap2\n      pop\n        /* \"#utility.yul\":11156:11274   */\n      pop\n        /* \"#utility.yul\":11105:11274   */\n      swap3\n      swap2\n      pop\n      pop\n      jump\t// out\n        /* \"#utility.yul\":11279:11574   */\n    tag_118:\n        /* \"#utility.yul\":11355:11359   */\n      0x00\n        /* \"#utility.yul\":11501:11530   */\n      tag_255\n        /* \"#utility.yul\":11526:11529   */\n      dup4\n        /* \"#utility.yul\":11520:11524   */\n      dup4\n        /* \"#utility.yul\":11501:11530   */\n      tag_117\n      jump\t// in\n    tag_255:\n        /* \"#utility.yul\":11493:11530   */\n      swap2\n      pop\n        /* \"#utility.yul\":11563:11566   */\n      dup3\n        /* \"#utility.yul\":11560:11561   */\n      0x02\n        /* \"#utility.yul\":11556:11567   */\n      mul\n        /* \"#utility.yul\":11550:11554   */\n      dup3\n        /* \"#utility.yul\":11547:11568   */\n      or\n        /* \"#utility.yul\":11539:11568   */\n      swap1\n      pop\n        /* \"#utility.yul\":11279:11574   */\n      swap3\n      swap2\n      pop\n      pop\n      jump\t// out\n        /* \"#utility.yul\":11579:12974   */\n    tag_76:\n        /* \"#utility.yul\":11696:11733   */\n      tag_257\n        /* \"#utility.yul\":11729:11732   */\n      dup3\n        /* \"#utility.yul\":11696:11733   */\n      tag_89\n      jump\t// in\n    tag_257:\n        /* \"#utility.yul\":11798:11816   */\n      0xffffffffffffffff\n        /* \"#utility.yul\":11790:11796   */\n      dup2\n        /* \"#utility.yul\":11787:11817   */\n      gt\n        /* \"#utility.yul\":11784:11840   */\n      iszero\n      tag_258\n      jumpi\n        /* \"#utility.yul\":11820:11838   */\n      tag_259\n      tag_62\n      jump\t// in\n    tag_259:\n        /* \"#utility.yul\":11784:11840   */\n    tag_258:\n        /* \"#utility.yul\":11864:11902   */\n      tag_260\n        /* \"#utility.yul\":11896:11900   */\n      dup3\n        /* \"#utility.yul\":11890:11901   */\n      sload\n        /* \"#utility.yul\":11864:11902   */\n      tag_53\n      jump\t// in\n    tag_260:\n        /* \"#utility.yul\":11949:12016   */\n      tag_261\n        /* \"#utility.yul\":12009:12015   */\n      dup3\n        /* \"#utility.yul\":12001:12007   */\n      dup3\n        /* \"#utility.yul\":11995:11999   */\n      dup6\n        /* \"#utility.yul\":11949:12016   */\n      tag_115\n      jump\t// in\n    tag_261:\n        /* \"#utility.yul\":12043:12044   */\n      0x00\n        /* \"#utility.yul\":12067:12071   */\n      0x20\n        /* \"#utility.yul\":12054:12071   */\n      swap1\n      pop\n        /* \"#utility.yul\":12099:12101   */\n      0x1f\n        /* \"#utility.yul\":12091:12097   */\n      dup4\n        /* \"#utility.yul\":12088:12102   */\n      gt\n        /* \"#utility.yul\":12116:12117   */\n      0x01\n        /* \"#utility.yul\":12111:12729   */\n      dup2\n      eq\n      tag_263\n      jumpi\n        /* \"#utility.yul\":12773:12774   */\n      0x00\n        /* \"#utility.yul\":12790:12796   */\n      dup5\n        /* \"#utility.yul\":12787:12864   */\n      iszero\n      tag_264\n      jumpi\n        /* \"#utility.yul\":12839:12848   */\n      dup3\n        /* \"#utility.yul\":12834:12837   */\n      dup8\n        /* \"#utility.yul\":12830:12849   */\n      add\n        /* \"#utility.yul\":12824:12850   */\n      mload\n        /* \"#utility.yul\":12815:12850   */\n      swap1\n      pop\n        /* \"#utility.yul\":12787:12864   */\n    tag_264:\n        /* \"#utility.yul\":12890:12957   */\n      tag_265\n        /* \"#utility.yul\":12950:12956   */\n      dup6\n        /* \"#utility.yul\":12943:12948   */\n      dup3\n        /* \"#utility.yul\":12890:12957   */\n      tag_118\n      jump\t// in\n    tag_265:\n        /* \"#utility.yul\":12884:12888   */\n      dup7\n        /* \"#utility.yul\":12877:12958   */\n      sstore\n        /* \"#utility.yul\":12746:12968   */\n      pop\n        /* \"#utility.yul\":12081:12968   */\n      jump(tag_262)\n        /* \"#utility.yul\":12111:12729   */\n    tag_263:\n        /* \"#utility.yul\":12163:12167   */\n      0x1f\n        /* \"#utility.yul\":12159:12168   */\n      not\n        /* \"#utility.yul\":12151:12157   */\n      dup5\n        /* \"#utility.yul\":12147:12169   */\n      and\n        /* \"#utility.yul\":12197:12234   */\n      tag_266\n        /* \"#utility.yul\":12229:12233   */\n      dup7\n        /* \"#utility.yul\":12197:12234   */\n      tag_104\n      jump\t// in\n    tag_266:\n        /* \"#utility.yul\":12256:12257   */\n      0x00\n        /* \"#utility.yul\":12270:12478   */\n    tag_267:\n        /* \"#utility.yul\":12284:12291   */\n      dup3\n        /* \"#utility.yul\":12281:12282   */\n      dup2\n        /* \"#utility.yul\":12278:12292   */\n      lt\n        /* \"#utility.yul\":12270:12478   */\n      iszero\n      tag_269\n      jumpi\n        /* \"#utility.yul\":12363:12372   */\n      dup5\n        /* \"#utility.yul\":12358:12361   */\n      dup10\n        /* \"#utility.yul\":12354:12373   */\n      add\n        /* \"#utility.yul\":12348:12374   */\n      mload\n        /* \"#utility.yul\":12340:12346   */\n      dup3\n        /* \"#utility.yul\":12333:12375   */\n      sstore\n        /* \"#utility.yul\":12414:12415   */\n      0x01\n        /* \"#utility.yul\":12406:12412   */\n      dup3\n        /* \"#utility.yul\":12402:12416   */\n      add\n        /* \"#utility.yul\":12392:12416   */\n      swap2\n      pop\n        /* \"#utility.yul\":12461:12463   */\n      0x20\n        /* \"#utility.yul\":12450:12459   */\n      dup6\n        /* \"#utility.yul\":12446:12464   */\n      add\n        /* \"#utility.yul\":12433:12464   */\n      swap5\n      pop\n        /* \"#utility.yul\":12307:12311   */\n      0x20\n        /* \"#utility.yul\":12304:12305   */\n      dup2\n        /* \"#utility.yul\":12300:12312   */\n      add\n        /* \"#utility.yul\":12295:12312   */\n      swap1\n      pop\n        /* \"#utility.yul\":12270:12478   */\n      jump(tag_267)\n    tag_269:\n        /* \"#utility.yul\":12506:12512   */\n      dup7\n        /* \"#utility.yul\":12497:12504   */\n      dup4\n        /* \"#utility.yul\":12494:12513   */\n      lt\n        /* \"#utility.yul\":12491:12670   */\n      iszero\n      tag_270\n      jumpi\n        /* \"#utility.yul\":12564:12573   */\n      dup5\n        /* \"#utility.yul\":12559:12562   */\n      dup10\n        /* \"#utility.yul\":12555:12574   */\n      add\n        /* \"#utility.yul\":12549:12575   */\n      mload\n        /* \"#utility.yul\":12607:12655   */\n      tag_271\n        /* \"#utility.yul\":12649:12653   */\n      0x1f\n        /* \"#utility.yul\":12641:12647   */\n      dup10\n        /* \"#utility.yul\":12637:12654   */\n      and\n        /* \"#utility.yul\":12626:12635   */\n      dup3\n        /* \"#utility.yul\":12607:12655   */\n      tag_117\n      jump\t// in\n    tag_271:\n        /* \"#utility.yul\":12599:12605   */\n      dup4\n        /* \"#utility.yul\":12592:12656   */\n      sstore\n        /* \"#utility.yul\":12514:12670   */\n      pop\n        /* \"#utility.yul\":12491:12670   */\n    tag_270:\n        /* \"#utility.yul\":12716:12717   */\n      0x01\n        /* \"#utility.yul\":12712:12713   */\n      0x02\n        /* \"#utility.yul\":12704:12710   */\n      dup9\n        /* \"#utility.yul\":12700:12714   */\n      mul\n        /* \"#utility.yul\":12696:12718   */\n      add\n        /* \"#utility.yul\":12690:12694   */\n      dup9\n        /* \"#utility.yul\":12683:12719   */\n      sstore\n        /* \"#utility.yul\":12118:12729   */\n      pop\n      pop\n      pop\n        /* \"#utility.yul\":12081:12968   */\n    tag_262:\n      pop\n        /* \"#utility.yul\":11671:12974   */\n      pop\n      pop\n      pop\n        /* \"#utility.yul\":11579:12974   */\n      pop\n      pop\n      jump\t// out\n\n    auxdata: 0xa2646970667358221220a3695d4cf509622130750fc639d86af3aa28d1311d2e5f58e3af8436359ee37e64736f6c63430008180033\n}\n",
				"bytecode": {
					"linkReferences": {},
					"object": "6080604052335f806101000a81548173ffffffffffffffffffffffffffffffffffffffff021916908373ffffffffffffffffffffffffffffffffffffffff16021790555034801561004e575f80fd5b50610dc68061005c5f395ff3fe608060405234801561000f575f80fd5b5060043610610086575f3560e01c8063b6eda88411610059578063b6eda88414610138578063d92bd25c14610156578063ef5fb05b14610186578063fb13a2be146101a457610086565b80630704893f1461008a57806327e235e3146100a6578063a71d3830146100d6578063a87430ba14610106575b5f80fd5b6100a4600480360381019061009f91906106a3565b6101c0565b005b6100c060048036038101906100bb919061073b565b6101d1565b6040516100cd9190610775565b60405180910390f35b6100f060048036038101906100eb919061073b565b6101e6565b6040516100fd919061079d565b60405180910390f35b610120600480360381019061011b919061073b565b6101f4565b60405161012f93929190610840565b60405180910390f35b6101406102bf565b60405161014d919061079d565b60405180910390f35b610170600480360381019061016b91906109a8565b6102e2565b60405161017d9190610775565b60405180910390f35b61018e61030f565b60405161019b91906109ef565b60405180910390f35b6101be60048036038101906101b99190610a0f565b61034c565b005b80826101cc9190610a67565b505050565b6001602052805f5260405f205f915090505481565b5f8082905080915050919050565b6003602052805f5260405f205f91509050805f01805461021390610ac7565b80601f016020809104026020016040519081016040528092919081815260200182805461023f90610ac7565b801561028a5780601f106102615761010080835404028352916020019161028a565b820191905f5260205f20905b81548152906001019060200180831161026d57829003601f168201915b505050505090806001015490806002015f9054906101000a900473ffffffffffffffffffffffffffffffffffffffff16905083565b5f8054906101000a900473ffffffffffffffffffffffffffffffffffffffff1681565b6002818051602081018201805184825260208301602085012081835280955050505050505f915090505481565b60606040518060400160405280600c81526020017f68656c6c6f2c20776f726c640000000000000000000000000000000000000000815250905090565b5f60fe90505f7f613834620000000000000000000000000000000000000000000000000000000090505f6040518060400160405280601781526020017f373530343830373433383434323535373430333965386600000000000000000081525090505f600190505f7f313234353638663564353564356435643564356435643535646435643564356490505f6040518060400160405280600381526020017f737373000000000000000000000000000000000000000000000000000000000081525090505f600567ffffffffffffffff81111561042c5761042b610884565b5b60405190808252806020026020018201604052801561045a5781602001602082028036833780820191505090505b5090506001815f8151811061047257610471610af7565b5b60200260200101818152505060018160018151811061049457610493610af7565b5b6020026020010181815250506001816002815181106104b6576104b5610af7565b5b6020026020010181815250506001816003815181106104d8576104d7610af7565b5b60200260200101818152505060606001815f815181106104fb576104fa610af7565b5b6020026020010181815250508860015f3373ffffffffffffffffffffffffffffffffffffffff1673ffffffffffffffffffffffffffffffffffffffff1681526020019081526020015f208190555060405180606001604052806040518060400160405280600581526020017f6a657375730000000000000000000000000000000000000000000000000000008152508152602001601981526020013373ffffffffffffffffffffffffffffffffffffffff1681525060035f3373ffffffffffffffffffffffffffffffffffffffff1673ffffffffffffffffffffffffffffffffffffffff1681526020019081526020015f205f820151815f0190816106009190610cc1565b50602082015181600101556040820151816002015f6101000a81548173ffffffffffffffffffffffffffffffffffffffff021916908373ffffffffffffffffffffffffffffffffffffffff160217905550905050505050505050505050565b5f604051905090565b5f80fd5b5f80fd5b5f819050919050565b61068281610670565b811461068c575f80fd5b50565b5f8135905061069d81610679565b92915050565b5f80604083850312156106b9576106b8610668565b5b5f6106c68582860161068f565b92505060206106d78582860161068f565b9150509250929050565b5f73ffffffffffffffffffffffffffffffffffffffff82169050919050565b5f61070a826106e1565b9050919050565b61071a81610700565b8114610724575f80fd5b50565b5f8135905061073581610711565b92915050565b5f602082840312156107505761074f610668565b5b5f61075d84828501610727565b91505092915050565b61076f81610670565b82525050565b5f6020820190506107885f830184610766565b92915050565b61079781610700565b82525050565b5f6020820190506107b05f83018461078e565b92915050565b5f81519050919050565b5f82825260208201905092915050565b5f5b838110156107ed5780820151818401526020810190506107d2565b5f8484015250505050565b5f601f19601f8301169050919050565b5f610812826107b6565b61081c81856107c0565b935061082c8185602086016107d0565b610835816107f8565b840191505092915050565b5f6060820190508181035f8301526108588186610808565b90506108676020830185610766565b610874604083018461078e565b949350505050565b5f80fd5b5f80fd5b7f4e487b71000000000000000000000000000000000000000000000000000000005f52604160045260245ffd5b6108ba826107f8565b810181811067ffffffffffffffff821117156108d9576108d8610884565b5b80604052505050565b5f6108eb61065f565b90506108f782826108b1565b919050565b5f67ffffffffffffffff82111561091657610915610884565b5b61091f826107f8565b9050602081019050919050565b828183375f83830152505050565b5f61094c610947846108fc565b6108e2565b90508281526020810184848401111561096857610967610880565b5b61097384828561092c565b509392505050565b5f82601f83011261098f5761098e61087c565b5b813561099f84826020860161093a565b91505092915050565b5f602082840312156109bd576109bc610668565b5b5f82013567ffffffffffffffff8111156109da576109d961066c565b5b6109e68482850161097b565b91505092915050565b5f6020820190508181035f830152610a078184610808565b905092915050565b5f60208284031215610a2457610a23610668565b5b5f610a318482850161068f565b91505092915050565b7f4e487b71000000000000000000000000000000000000000000000000000000005f52601160045260245ffd5b5f610a7182610670565b9150610a7c83610670565b9250828201905080821115610a9457610a93610a3a565b5b92915050565b7f4e487b71000000000000000000000000000000000000000000000000000000005f52602260045260245ffd5b5f6002820490506001821680610ade57607f821691505b602082108103610af157610af0610a9a565b5b50919050565b7f4e487b71000000000000000000000000000000000000000000000000000000005f52603260045260245ffd5b5f819050815f5260205f209050919050565b5f6020601f8301049050919050565b5f82821b905092915050565b5f60088302610b807fffffffffffffffffffffffffffffffffffffffffffffffffffffffffffffffff82610b45565b610b8a8683610b45565b95508019841693508086168417925050509392505050565b5f819050919050565b5f610bc5610bc0610bbb84610670565b610ba2565b610670565b9050919050565b5f819050919050565b610bde83610bab565b610bf2610bea82610bcc565b848454610b51565b825550505050565b5f90565b610c06610bfa565b610c11818484610bd5565b505050565b5b81811015610c3457610c295f82610bfe565b600181019050610c17565b5050565b601f821115610c7957610c4a81610b24565b610c5384610b36565b81016020851015610c62578190505b610c76610c6e85610b36565b830182610c16565b50505b505050565b5f82821c905092915050565b5f610c995f1984600802610c7e565b1980831691505092915050565b5f610cb18383610c8a565b9150826002028217905092915050565b610cca826107b6565b67ffffffffffffffff811115610ce357610ce2610884565b5b610ced8254610ac7565b610cf8828285610c38565b5f60209050601f831160018114610d29575f8415610d17578287015190505b610d218582610ca6565b865550610d88565b601f198416610d3786610b24565b5f5b82811015610d5e57848901518255600182019150602085019450602081019050610d39565b86831015610d7b5784890151610d77601f891682610c8a565b8355505b6001600288020188555050505b50505050505056fea2646970667358221220a3695d4cf509622130750fc639d86af3aa28d1311d2e5f58e3af8436359ee37e64736f6c63430008180033",
					"opcodes": "PUSH1 0x80 PUSH1 0x40 MSTORE CALLER PUSH0 DUP1 PUSH2 0x100 EXP DUP2 SLOAD DUP2 PUSH20 0xFFFFFFFFFFFFFFFFFFFFFFFFFFFFFFFFFFFFFFFF MUL NOT AND SWAP1 DUP4 PUSH20 0xFFFFFFFFFFFFFFFFFFFFFFFFFFFFFFFFFFFFFFFF AND MUL OR SWAP1 SSTORE POP CALLVALUE DUP1 ISZERO PUSH2 0x4E JUMPI PUSH0 DUP1 REVERT JUMPDEST POP PUSH2 0xDC6 DUP1 PUSH2 0x5C PUSH0 CODECOPY PUSH0 RETURN INVALID PUSH1 0x80 PUSH1 0x40 MSTORE CALLVALUE DUP1 ISZERO PUSH2 0xF JUMPI PUSH0 DUP1 REVERT JUMPDEST POP PUSH1 0x4 CALLDATASIZE LT PUSH2 0x86 JUMPI PUSH0 CALLDATALOAD PUSH1 0xE0 SHR DUP1 PUSH4 0xB6EDA884 GT PUSH2 0x59 JUMPI DUP1 PUSH4 0xB6EDA884 EQ PUSH2 0x138 JUMPI DUP1 PUSH4 0xD92BD25C EQ PUSH2 0x156 JUMPI DUP1 PUSH4 0xEF5FB05B EQ PUSH2 0x186 JUMPI DUP1 PUSH4 0xFB13A2BE EQ PUSH2 0x1A4 JUMPI PUSH2 0x86 JUMP JUMPDEST DUP1 PUSH4 0x704893F EQ PUSH2 0x8A JUMPI DUP1 PUSH4 0x27E235E3 EQ PUSH2 0xA6 JUMPI DUP1 PUSH4 0xA71D3830 EQ PUSH2 0xD6 JUMPI DUP1 PUSH4 0xA87430BA EQ PUSH2 0x106 JUMPI JUMPDEST PUSH0 DUP1 REVERT JUMPDEST PUSH2 0xA4 PUSH1 0x4 DUP1 CALLDATASIZE SUB DUP2 ADD SWAP1 PUSH2 0x9F SWAP2 SWAP1 PUSH2 0x6A3 JUMP JUMPDEST PUSH2 0x1C0 JUMP JUMPDEST STOP JUMPDEST PUSH2 0xC0 PUSH1 0x4 DUP1 CALLDATASIZE SUB DUP2 ADD SWAP1 PUSH2 0xBB SWAP2 SWAP1 PUSH2 0x73B JUMP JUMPDEST PUSH2 0x1D1 JUMP JUMPDEST PUSH1 0x40 MLOAD PUSH2 0xCD SWAP2 SWAP1 PUSH2 0x775 JUMP JUMPDEST PUSH1 0x40 MLOAD DUP1 SWAP2 SUB SWAP1 RETURN JUMPDEST PUSH2 0xF0 PUSH1 0x4 DUP1 CALLDATASIZE SUB DUP2 ADD SWAP1 PUSH2 0xEB SWAP2 SWAP1 PUSH2 0x73B JUMP JUMPDEST PUSH2 0x1E6 JUMP JUMPDEST PUSH1 0x40 MLOAD PUSH2 0xFD SWAP2 SWAP1 PUSH2 0x79D JUMP JUMPDEST PUSH1 0x40 MLOAD DUP1 SWAP2 SUB SWAP1 RETURN JUMPDEST PUSH2 0x120 PUSH1 0x4 DUP1 CALLDATASIZE SUB DUP2 ADD SWAP1 PUSH2 0x11B SWAP2 SWAP1 PUSH2 0x73B JUMP JUMPDEST PUSH2 0x1F4 JUMP JUMPDEST PUSH1 0x40 MLOAD PUSH2 0x12F SWAP4 SWAP3 SWAP2 SWAP1 PUSH2 0x840 JUMP JUMPDEST PUSH1 0x40 MLOAD DUP1 SWAP2 SUB SWAP1 RETURN JUMPDEST PUSH2 0x140 PUSH2 0x2BF JUMP JUMPDEST PUSH1 0x40 MLOAD PUSH2 0x14D SWAP2 SWAP1 PUSH2 0x79D JUMP JUMPDEST PUSH1 0x40 MLOAD DUP1 SWAP2 SUB SWAP1 RETURN JUMPDEST PUSH2 0x170 PUSH1 0x4 DUP1 CALLDATASIZE SUB DUP2 ADD SWAP1 PUSH2 0x16B SWAP2 SWAP1 PUSH2 0x9A8 JUMP JUMPDEST PUSH2 0x2E2 JUMP JUMPDEST PUSH1 0x40 MLOAD PUSH2 0x17D SWAP2 SWAP1 PUSH2 0x775 JUMP JUMPDEST PUSH1 0x40 MLOAD DUP1 SWAP2 SUB SWAP1 RETURN JUMPDEST PUSH2 0x18E PUSH2 0x30F JUMP JUMPDEST PUSH1 0x40 MLOAD PUSH2 0x19B SWAP2 SWAP1 PUSH2 0x9EF JUMP JUMPDEST PUSH1 0x40 MLOAD DUP1 SWAP2 SUB SWAP1 RETURN JUMPDEST PUSH2 0x1BE PUSH1 0x4 DUP1 CALLDATASIZE SUB DUP2 ADD SWAP1 PUSH2 0x1B9 SWAP2 SWAP1 PUSH2 0xA0F JUMP JUMPDEST PUSH2 0x34C JUMP JUMPDEST STOP JUMPDEST DUP1 DUP3 PUSH2 0x1CC SWAP2 SWAP1 PUSH2 0xA67 JUMP JUMPDEST POP POP POP JUMP JUMPDEST PUSH1 0x1 PUSH1 0x20 MSTORE DUP1 PUSH0 MSTORE PUSH1 0x40 PUSH0 KECCAK256 PUSH0 SWAP2 POP SWAP1 POP SLOAD DUP2 JUMP JUMPDEST PUSH0 DUP1 DUP3 SWAP1 POP DUP1 SWAP2 POP POP SWAP2 SWAP1 POP JUMP JUMPDEST PUSH1 0x3 PUSH1 0x20 MSTORE DUP1 PUSH0 MSTORE PUSH1 0x40 PUSH0 KECCAK256 PUSH0 SWAP2 POP SWAP1 POP DUP1 PUSH0 ADD DUP1 SLOAD PUSH2 0x213 SWAP1 PUSH2 0xAC7 JUMP JUMPDEST DUP1 PUSH1 0x1F ADD PUSH1 0x20 DUP1 SWAP2 DIV MUL PUSH1 0x20 ADD PUSH1 0x40 MLOAD SWAP1 DUP2 ADD PUSH1 0x40 MSTORE DUP1 SWAP3 SWAP2 SWAP1 DUP2 DUP2 MSTORE PUSH1 0x20 ADD DUP3 DUP1 SLOAD PUSH2 0x23F SWAP1 PUSH2 0xAC7 JUMP JUMPDEST DUP1 ISZERO PUSH2 0x28A JUMPI DUP1 PUSH1 0x1F LT PUSH2 0x261 JUMPI PUSH2 0x100 DUP1 DUP4 SLOAD DIV MUL DUP4 MSTORE SWAP2 PUSH1 0x20 ADD SWAP2 PUSH2 0x28A JUMP JUMPDEST DUP3 ADD SWAP2 SWAP1 PUSH0 MSTORE PUSH1 0x20 PUSH0 KECCAK256 SWAP1 JUMPDEST DUP2 SLOAD DUP2 MSTORE SWAP1 PUSH1 0x1 ADD SWAP1 PUSH1 0x20 ADD DUP1 DUP4 GT PUSH2 0x26D JUMPI DUP3 SWAP1 SUB PUSH1 0x1F AND DUP3 ADD SWAP2 JUMPDEST POP POP POP POP POP SWAP1 DUP1 PUSH1 0x1 ADD SLOAD SWAP1 DUP1 PUSH1 0x2 ADD PUSH0 SWAP1 SLOAD SWAP1 PUSH2 0x100 EXP SWAP1 DIV PUSH20 0xFFFFFFFFFFFFFFFFFFFFFFFFFFFFFFFFFFFFFFFF AND SWAP1 POP DUP4 JUMP JUMPDEST PUSH0 DUP1 SLOAD SWAP1 PUSH2 0x100 EXP SWAP1 DIV PUSH20 0xFFFFFFFFFFFFFFFFFFFFFFFFFFFFFFFFFFFFFFFF AND DUP2 JUMP JUMPDEST PUSH1 0x2 DUP2 DUP1 MLOAD PUSH1 0x20 DUP2 ADD DUP3 ADD DUP1 MLOAD DUP5 DUP3 MSTORE PUSH1 0x20 DUP4 ADD PUSH1 0x20 DUP6 ADD KECCAK256 DUP2 DUP4 MSTORE DUP1 SWAP6 POP POP POP POP POP POP PUSH0 SWAP2 POP SWAP1 POP SLOAD DUP2 JUMP JUMPDEST PUSH1 0x60 PUSH1 0x40 MLOAD DUP1 PUSH1 0x40 ADD PUSH1 0x40 MSTORE DUP1 PUSH1 0xC DUP2 MSTORE PUSH1 0x20 ADD PUSH32 0x68656C6C6F2C20776F726C640000000000000000000000000000000000000000 DUP2 MSTORE POP SWAP1 POP SWAP1 JUMP JUMPDEST PUSH0 PUSH1 0xFE SWAP1 POP PUSH0 PUSH32 0x6138346200000000000000000000000000000000000000000000000000000000 SWAP1 POP PUSH0 PUSH1 0x40 MLOAD DUP1 PUSH1 0x40 ADD PUSH1 0x40 MSTORE DUP1 PUSH1 0x17 DUP2 MSTORE PUSH1 0x20 ADD PUSH32 0x3735303438303734333834343235353734303339653866000000000000000000 DUP2 MSTORE POP SWAP1 POP PUSH0 PUSH1 0x1 SWAP1 POP PUSH0 PUSH32 0x3132343536386635643535643564356435643564356435356464356435643564 SWAP1 POP PUSH0 PUSH1 0x40 MLOAD DUP1 PUSH1 0x40 ADD PUSH1 0x40 MSTORE DUP1 PUSH1 0x3 DUP2 MSTORE PUSH1 0x20 ADD PUSH32 0x7373730000000000000000000000000000000000000000000000000000000000 DUP2 MSTORE POP SWAP1 POP PUSH0 PUSH1 0x5 PUSH8 0xFFFFFFFFFFFFFFFF DUP2 GT ISZERO PUSH2 0x42C JUMPI PUSH2 0x42B PUSH2 0x884 JUMP JUMPDEST JUMPDEST PUSH1 0x40 MLOAD SWAP1 DUP1 DUP3 MSTORE DUP1 PUSH1 0x20 MUL PUSH1 0x20 ADD DUP3 ADD PUSH1 0x40 MSTORE DUP1 ISZERO PUSH2 0x45A JUMPI DUP2 PUSH1 0x20 ADD PUSH1 0x20 DUP3 MUL DUP1 CALLDATASIZE DUP4 CALLDATACOPY DUP1 DUP3 ADD SWAP2 POP POP SWAP1 POP JUMPDEST POP SWAP1 POP PUSH1 0x1 DUP2 PUSH0 DUP2 MLOAD DUP2 LT PUSH2 0x472 JUMPI PUSH2 0x471 PUSH2 0xAF7 JUMP JUMPDEST JUMPDEST PUSH1 0x20 MUL PUSH1 0x20 ADD ADD DUP2 DUP2 MSTORE POP POP PUSH1 0x1 DUP2 PUSH1 0x1 DUP2 MLOAD DUP2 LT PUSH2 0x494 JUMPI PUSH2 0x493 PUSH2 0xAF7 JUMP JUMPDEST JUMPDEST PUSH1 0x20 MUL PUSH1 0x20 ADD ADD DUP2 DUP2 MSTORE POP POP PUSH1 0x1 DUP2 PUSH1 0x2 DUP2 MLOAD DUP2 LT PUSH2 0x4B6 JUMPI PUSH2 0x4B5 PUSH2 0xAF7 JUMP JUMPDEST JUMPDEST PUSH1 0x20 MUL PUSH1 0x20 ADD ADD DUP2 DUP2 MSTORE POP POP PUSH1 0x1 DUP2 PUSH1 0x3 DUP2 MLOAD DUP2 LT PUSH2 0x4D8 JUMPI PUSH2 0x4D7 PUSH2 0xAF7 JUMP JUMPDEST JUMPDEST PUSH1 0x20 MUL PUSH1 0x20 ADD ADD DUP2 DUP2 MSTORE POP POP PUSH1 0x60 PUSH1 0x1 DUP2 PUSH0 DUP2 MLOAD DUP2 LT PUSH2 0x4FB JUMPI PUSH2 0x4FA PUSH2 0xAF7 JUMP JUMPDEST JUMPDEST PUSH1 0x20 MUL PUSH1 0x20 ADD ADD DUP2 DUP2 MSTORE POP POP DUP9 PUSH1 0x1 PUSH0 CALLER PUSH20 0xFFFFFFFFFFFFFFFFFFFFFFFFFFFFFFFFFFFFFFFF AND PUSH20 0xFFFFFFFFFFFFFFFFFFFFFFFFFFFFFFFFFFFFFFFF AND DUP2 MSTORE PUSH1 0x20 ADD SWAP1 DUP2 MSTORE PUSH1 0x20 ADD PUSH0 KECCAK256 DUP2 SWAP1 SSTORE POP PUSH1 0x40 MLOAD DUP1 PUSH1 0x60 ADD PUSH1 0x40 MSTORE DUP1 PUSH1 0x40 MLOAD DUP1 PUSH1 0x40 ADD PUSH1 0x40 MSTORE DUP1 PUSH1 0x5 DUP2 MSTORE PUSH1 0x20 ADD PUSH32 0x6A65737573000000000000000000000000000000000000000000000000000000 DUP2 MSTORE POP DUP2 MSTORE PUSH1 0x20 ADD PUSH1 0x19 DUP2 MSTORE PUSH1 0x20 ADD CALLER PUSH20 0xFFFFFFFFFFFFFFFFFFFFFFFFFFFFFFFFFFFFFFFF AND DUP2 MSTORE POP PUSH1 0x3 PUSH0 CALLER PUSH20 0xFFFFFFFFFFFFFFFFFFFFFFFFFFFFFFFFFFFFFFFF AND PUSH20 0xFFFFFFFFFFFFFFFFFFFFFFFFFFFFFFFFFFFFFFFF AND DUP2 MSTORE PUSH1 0x20 ADD SWAP1 DUP2 MSTORE PUSH1 0x20 ADD PUSH0 KECCAK256 PUSH0 DUP3 ADD MLOAD DUP2 PUSH0 ADD SWAP1 DUP2 PUSH2 0x600 SWAP2 SWAP1 PUSH2 0xCC1 JUMP JUMPDEST POP PUSH1 0x20 DUP3 ADD MLOAD DUP2 PUSH1 0x1 ADD SSTORE PUSH1 0x40 DUP3 ADD MLOAD DUP2 PUSH1 0x2 ADD PUSH0 PUSH2 0x100 EXP DUP2 SLOAD DUP2 PUSH20 0xFFFFFFFFFFFFFFFFFFFFFFFFFFFFFFFFFFFFFFFF MUL NOT AND SWAP1 DUP4 PUSH20 0xFFFFFFFFFFFFFFFFFFFFFFFFFFFFFFFFFFFFFFFF AND MUL OR SWAP1 SSTORE POP SWAP1 POP POP POP POP POP POP POP POP POP POP POP JUMP JUMPDEST PUSH0 PUSH1 0x40 MLOAD SWAP1 POP SWAP1 JUMP JUMPDEST PUSH0 DUP1 REVERT JUMPDEST PUSH0 DUP1 REVERT JUMPDEST PUSH0 DUP2 SWAP1 POP SWAP2 SWAP1 POP JUMP JUMPDEST PUSH2 0x682 DUP2 PUSH2 0x670 JUMP JUMPDEST DUP2 EQ PUSH2 0x68C JUMPI PUSH0 DUP1 REVERT JUMPDEST POP JUMP JUMPDEST PUSH0 DUP2 CALLDATALOAD SWAP1 POP PUSH2 0x69D DUP2 PUSH2 0x679 JUMP JUMPDEST SWAP3 SWAP2 POP POP JUMP JUMPDEST PUSH0 DUP1 PUSH1 0x40 DUP4 DUP6 SUB SLT ISZERO PUSH2 0x6B9 JUMPI PUSH2 0x6B8 PUSH2 0x668 JUMP JUMPDEST JUMPDEST PUSH0 PUSH2 0x6C6 DUP6 DUP3 DUP7 ADD PUSH2 0x68F JUMP JUMPDEST SWAP3 POP POP PUSH1 0x20 PUSH2 0x6D7 DUP6 DUP3 DUP7 ADD PUSH2 0x68F JUMP JUMPDEST SWAP2 POP POP SWAP3 POP SWAP3 SWAP1 POP JUMP JUMPDEST PUSH0 PUSH20 0xFFFFFFFFFFFFFFFFFFFFFFFFFFFFFFFFFFFFFFFF DUP3 AND SWAP1 POP SWAP2 SWAP1 POP JUMP JUMPDEST PUSH0 PUSH2 0x70A DUP3 PUSH2 0x6E1 JUMP JUMPDEST SWAP1 POP SWAP2 SWAP1 POP JUMP JUMPDEST PUSH2 0x71A DUP2 PUSH2 0x700 JUMP JUMPDEST DUP2 EQ PUSH2 0x724 JUMPI PUSH0 DUP1 REVERT JUMPDEST POP JUMP JUMPDEST PUSH0 DUP2 CALLDATALOAD SWAP1 POP PUSH2 0x735 DUP2 PUSH2 0x711 JUMP JUMPDEST SWAP3 SWAP2 POP POP JUMP JUMPDEST PUSH0 PUSH1 0x20 DUP3 DUP5 SUB SLT ISZERO PUSH2 0x750 JUMPI PUSH2 0x74F PUSH2 0x668 JUMP JUMPDEST JUMPDEST PUSH0 PUSH2 0x75D DUP5 DUP3 DUP6 ADD PUSH2 0x727 JUMP JUMPDEST SWAP2 POP POP SWAP3 SWAP2 POP POP JUMP JUMPDEST PUSH2 0x76F DUP2 PUSH2 0x670 JUMP JUMPDEST DUP3 MSTORE POP POP JUMP JUMPDEST PUSH0 PUSH1 0x20 DUP3 ADD SWAP1 POP PUSH2 0x788 PUSH0 DUP4 ADD DUP5 PUSH2 0x766 JUMP JUMPDEST SWAP3 SWAP2 POP POP JUMP JUMPDEST PUSH2 0x797 DUP2 PUSH2 0x700 JUMP JUMPDEST DUP3 MSTORE POP POP JUMP JUMPDEST PUSH0 PUSH1 0x20 DUP3 ADD SWAP1 POP PUSH2 0x7B0 PUSH0 DUP4 ADD DUP5 PUSH2 0x78E JUMP JUMPDEST SWAP3 SWAP2 POP POP JUMP JUMPDEST PUSH0 DUP2 MLOAD SWAP1 POP SWAP2 SWAP1 POP JUMP JUMPDEST PUSH0 DUP3 DUP3 MSTORE PUSH1 0x20 DUP3 ADD SWAP1 POP SWAP3 SWAP2 POP POP JUMP JUMPDEST PUSH0 JUMPDEST DUP4 DUP2 LT ISZERO PUSH2 0x7ED JUMPI DUP1 DUP3 ADD MLOAD DUP2 DUP5 ADD MSTORE PUSH1 0x20 DUP2 ADD SWAP1 POP PUSH2 0x7D2 JUMP JUMPDEST PUSH0 DUP5 DUP5 ADD MSTORE POP POP POP POP JUMP JUMPDEST PUSH0 PUSH1 0x1F NOT PUSH1 0x1F DUP4 ADD AND SWAP1 POP SWAP2 SWAP1 POP JUMP JUMPDEST PUSH0 PUSH2 0x812 DUP3 PUSH2 0x7B6 JUMP JUMPDEST PUSH2 0x81C DUP2 DUP6 PUSH2 0x7C0 JUMP JUMPDEST SWAP4 POP PUSH2 0x82C DUP2 DUP6 PUSH1 0x20 DUP7 ADD PUSH2 0x7D0 JUMP JUMPDEST PUSH2 0x835 DUP2 PUSH2 0x7F8 JUMP JUMPDEST DUP5 ADD SWAP2 POP POP SWAP3 SWAP2 POP POP JUMP JUMPDEST PUSH0 PUSH1 0x60 DUP3 ADD SWAP1 POP DUP2 DUP2 SUB PUSH0 DUP4 ADD MSTORE PUSH2 0x858 DUP2 DUP7 PUSH2 0x808 JUMP JUMPDEST SWAP1 POP PUSH2 0x867 PUSH1 0x20 DUP4 ADD DUP6 PUSH2 0x766 JUMP JUMPDEST PUSH2 0x874 PUSH1 0x40 DUP4 ADD DUP5 PUSH2 0x78E JUMP JUMPDEST SWAP5 SWAP4 POP POP POP POP JUMP JUMPDEST PUSH0 DUP1 REVERT JUMPDEST PUSH0 DUP1 REVERT JUMPDEST PUSH32 0x4E487B7100000000000000000000000000000000000000000000000000000000 PUSH0 MSTORE PUSH1 0x41 PUSH1 0x4 MSTORE PUSH1 0x24 PUSH0 REVERT JUMPDEST PUSH2 0x8BA DUP3 PUSH2 0x7F8 JUMP JUMPDEST DUP2 ADD DUP2 DUP2 LT PUSH8 0xFFFFFFFFFFFFFFFF DUP3 GT OR ISZERO PUSH2 0x8D9 JUMPI PUSH2 0x8D8 PUSH2 0x884 JUMP JUMPDEST JUMPDEST DUP1 PUSH1 0x40 MSTORE POP POP POP JUMP JUMPDEST PUSH0 PUSH2 0x8EB PUSH2 0x65F JUMP JUMPDEST SWAP1 POP PUSH2 0x8F7 DUP3 DUP3 PUSH2 0x8B1 JUMP JUMPDEST SWAP2 SWAP1 POP JUMP JUMPDEST PUSH0 PUSH8 0xFFFFFFFFFFFFFFFF DUP3 GT ISZERO PUSH2 0x916 JUMPI PUSH2 0x915 PUSH2 0x884 JUMP JUMPDEST JUMPDEST PUSH2 0x91F DUP3 PUSH2 0x7F8 JUMP JUMPDEST SWAP1 POP PUSH1 0x20 DUP2 ADD SWAP1 POP SWAP2 SWAP1 POP JUMP JUMPDEST DUP3 DUP2 DUP4 CALLDATACOPY PUSH0 DUP4 DUP4 ADD MSTORE POP POP POP JUMP JUMPDEST PUSH0 PUSH2 0x94C PUSH2 0x947 DUP5 PUSH2 0x8FC JUMP JUMPDEST PUSH2 0x8E2 JUMP JUMPDEST SWAP1 POP DUP3 DUP2 MSTORE PUSH1 0x20 DUP2 ADD DUP5 DUP5 DUP5 ADD GT ISZERO PUSH2 0x968 JUMPI PUSH2 0x967 PUSH2 0x880 JUMP JUMPDEST JUMPDEST PUSH2 0x973 DUP5 DUP3 DUP6 PUSH2 0x92C JUMP JUMPDEST POP SWAP4 SWAP3 POP POP POP JUMP JUMPDEST PUSH0 DUP3 PUSH1 0x1F DUP4 ADD SLT PUSH2 0x98F JUMPI PUSH2 0x98E PUSH2 0x87C JUMP JUMPDEST JUMPDEST DUP2 CALLDATALOAD PUSH2 0x99F DUP5 DUP3 PUSH1 0x20 DUP7 ADD PUSH2 0x93A JUMP JUMPDEST SWAP2 POP POP SWAP3 SWAP2 POP POP JUMP JUMPDEST PUSH0 PUSH1 0x20 DUP3 DUP5 SUB SLT ISZERO PUSH2 0x9BD JUMPI PUSH2 0x9BC PUSH2 0x668 JUMP JUMPDEST JUMPDEST PUSH0 DUP3 ADD CALLDATALOAD PUSH8 0xFFFFFFFFFFFFFFFF DUP2 GT ISZERO PUSH2 0x9DA JUMPI PUSH2 0x9D9 PUSH2 0x66C JUMP JUMPDEST JUMPDEST PUSH2 0x9E6 DUP5 DUP3 DUP6 ADD PUSH2 0x97B JUMP JUMPDEST SWAP2 POP POP SWAP3 SWAP2 POP POP JUMP JUMPDEST PUSH0 PUSH1 0x20 DUP3 ADD SWAP1 POP DUP2 DUP2 SUB PUSH0 DUP4 ADD MSTORE PUSH2 0xA07 DUP2 DUP5 PUSH2 0x808 JUMP JUMPDEST SWAP1 POP SWAP3 SWAP2 POP POP JUMP JUMPDEST PUSH0 PUSH1 0x20 DUP3 DUP5 SUB SLT ISZERO PUSH2 0xA24 JUMPI PUSH2 0xA23 PUSH2 0x668 JUMP JUMPDEST JUMPDEST PUSH0 PUSH2 0xA31 DUP5 DUP3 DUP6 ADD PUSH2 0x68F JUMP JUMPDEST SWAP2 POP POP SWAP3 SWAP2 POP POP JUMP JUMPDEST PUSH32 0x4E487B7100000000000000000000000000000000000000000000000000000000 PUSH0 MSTORE PUSH1 0x11 PUSH1 0x4 MSTORE PUSH1 0x24 PUSH0 REVERT JUMPDEST PUSH0 PUSH2 0xA71 DUP3 PUSH2 0x670 JUMP JUMPDEST SWAP2 POP PUSH2 0xA7C DUP4 PUSH2 0x670 JUMP JUMPDEST SWAP3 POP DUP3 DUP3 ADD SWAP1 POP DUP1 DUP3 GT ISZERO PUSH2 0xA94 JUMPI PUSH2 0xA93 PUSH2 0xA3A JUMP JUMPDEST JUMPDEST SWAP3 SWAP2 POP POP JUMP JUMPDEST PUSH32 0x4E487B7100000000000000000000000000000000000000000000000000000000 PUSH0 MSTORE PUSH1 0x22 PUSH1 0x4 MSTORE PUSH1 0x24 PUSH0 REVERT JUMPDEST PUSH0 PUSH1 0x2 DUP3 DIV SWAP1 POP PUSH1 0x1 DUP3 AND DUP1 PUSH2 0xADE JUMPI PUSH1 0x7F DUP3 AND SWAP2 POP JUMPDEST PUSH1 0x20 DUP3 LT DUP2 SUB PUSH2 0xAF1 JUMPI PUSH2 0xAF0 PUSH2 0xA9A JUMP JUMPDEST JUMPDEST POP SWAP2 SWAP1 POP JUMP JUMPDEST PUSH32 0x4E487B7100000000000000000000000000000000000000000000000000000000 PUSH0 MSTORE PUSH1 0x32 PUSH1 0x4 MSTORE PUSH1 0x24 PUSH0 REVERT JUMPDEST PUSH0 DUP2 SWAP1 POP DUP2 PUSH0 MSTORE PUSH1 0x20 PUSH0 KECCAK256 SWAP1 POP SWAP2 SWAP1 POP JUMP JUMPDEST PUSH0 PUSH1 0x20 PUSH1 0x1F DUP4 ADD DIV SWAP1 POP SWAP2 SWAP1 POP JUMP JUMPDEST PUSH0 DUP3 DUP3 SHL SWAP1 POP SWAP3 SWAP2 POP POP JUMP JUMPDEST PUSH0 PUSH1 0x8 DUP4 MUL PUSH2 0xB80 PUSH32 0xFFFFFFFFFFFFFFFFFFFFFFFFFFFFFFFFFFFFFFFFFFFFFFFFFFFFFFFFFFFFFFFF DUP3 PUSH2 0xB45 JUMP JUMPDEST PUSH2 0xB8A DUP7 DUP4 PUSH2 0xB45 JUMP JUMPDEST SWAP6 POP DUP1 NOT DUP5 AND SWAP4 POP DUP1 DUP7 AND DUP5 OR SWAP3 POP POP POP SWAP4 SWAP3 POP POP POP JUMP JUMPDEST PUSH0 DUP2 SWAP1 POP SWAP2 SWAP1 POP JUMP JUMPDEST PUSH0 PUSH2 0xBC5 PUSH2 0xBC0 PUSH2 0xBBB DUP5 PUSH2 0x670 JUMP JUMPDEST PUSH2 0xBA2 JUMP JUMPDEST PUSH2 0x670 JUMP JUMPDEST SWAP1 POP SWAP2 SWAP1 POP JUMP JUMPDEST PUSH0 DUP2 SWAP1 POP SWAP2 SWAP1 POP JUMP JUMPDEST PUSH2 0xBDE DUP4 PUSH2 0xBAB JUMP JUMPDEST PUSH2 0xBF2 PUSH2 0xBEA DUP3 PUSH2 0xBCC JUMP JUMPDEST DUP5 DUP5 SLOAD PUSH2 0xB51 JUMP JUMPDEST DUP3 SSTORE POP POP POP POP JUMP JUMPDEST PUSH0 SWAP1 JUMP JUMPDEST PUSH2 0xC06 PUSH2 0xBFA JUMP JUMPDEST PUSH2 0xC11 DUP2 DUP5 DUP5 PUSH2 0xBD5 JUMP JUMPDEST POP POP POP JUMP JUMPDEST JUMPDEST DUP2 DUP2 LT ISZERO PUSH2 0xC34 JUMPI PUSH2 0xC29 PUSH0 DUP3 PUSH2 0xBFE JUMP JUMPDEST PUSH1 0x1 DUP2 ADD SWAP1 POP PUSH2 0xC17 JUMP JUMPDEST POP POP JUMP JUMPDEST PUSH1 0x1F DUP3 GT ISZERO PUSH2 0xC79 JUMPI PUSH2 0xC4A DUP2 PUSH2 0xB24 JUMP JUMPDEST PUSH2 0xC53 DUP5 PUSH2 0xB36 JUMP JUMPDEST DUP2 ADD PUSH1 0x20 DUP6 LT ISZERO PUSH2 0xC62 JUMPI DUP2 SWAP1 POP JUMPDEST PUSH2 0xC76 PUSH2 0xC6E DUP6 PUSH2 0xB36 JUMP JUMPDEST DUP4 ADD DUP3 PUSH2 0xC16 JUMP JUMPDEST POP POP JUMPDEST POP POP POP JUMP JUMPDEST PUSH0 DUP3 DUP3 SHR SWAP1 POP SWAP3 SWAP2 POP POP JUMP JUMPDEST PUSH0 PUSH2 0xC99 PUSH0 NOT DUP5 PUSH1 0x8 MUL PUSH2 0xC7E JUMP JUMPDEST NOT DUP1 DUP4 AND SWAP2 POP POP SWAP3 SWAP2 POP POP JUMP JUMPDEST PUSH0 PUSH2 0xCB1 DUP4 DUP4 PUSH2 0xC8A JUMP JUMPDEST SWAP2 POP DUP3 PUSH1 0x2 MUL DUP3 OR SWAP1 POP SWAP3 SWAP2 POP POP JUMP JUMPDEST PUSH2 0xCCA DUP3 PUSH2 0x7B6 JUMP JUMPDEST PUSH8 0xFFFFFFFFFFFFFFFF DUP2 GT ISZERO PUSH2 0xCE3 JUMPI PUSH2 0xCE2 PUSH2 0x884 JUMP JUMPDEST JUMPDEST PUSH2 0xCED DUP3 SLOAD PUSH2 0xAC7 JUMP JUMPDEST PUSH2 0xCF8 DUP3 DUP3 DUP6 PUSH2 0xC38 JUMP JUMPDEST PUSH0 PUSH1 0x20 SWAP1 POP PUSH1 0x1F DUP4 GT PUSH1 0x1 DUP2 EQ PUSH2 0xD29 JUMPI PUSH0 DUP5 ISZERO PUSH2 0xD17 JUMPI DUP3 DUP8 ADD MLOAD SWAP1 POP JUMPDEST PUSH2 0xD21 DUP6 DUP3 PUSH2 0xCA6 JUMP JUMPDEST DUP7 SSTORE POP PUSH2 0xD88 JUMP JUMPDEST PUSH1 0x1F NOT DUP5 AND PUSH2 0xD37 DUP7 PUSH2 0xB24 JUMP JUMPDEST PUSH0 JUMPDEST DUP3 DUP2 LT ISZERO PUSH2 0xD5E JUMPI DUP5 DUP10 ADD MLOAD DUP3 SSTORE PUSH1 0x1 DUP3 ADD SWAP2 POP PUSH1 0x20 DUP6 ADD SWAP5 POP PUSH1 0x20 DUP2 ADD SWAP1 POP PUSH2 0xD39 JUMP JUMPDEST DUP7 DUP4 LT ISZERO PUSH2 0xD7B JUMPI DUP5 DUP10 ADD MLOAD PUSH2 0xD77 PUSH1 0x1F DUP10 AND DUP3 PUSH2 0xC8A JUMP JUMPDEST DUP4 SSTORE POP JUMPDEST PUSH1 0x1 PUSH1 0x2 DUP9 MUL ADD DUP9 SSTORE POP POP POP JUMPDEST POP POP POP POP POP POP JUMP INVALID LOG2 PUSH5 0x6970667358 0x22 SLT KECCAK256 LOG3 PUSH10 0x5D4CF509622130750FC6 CODECOPY 0xD8 PUSH11 0xF3AA28D1311D2E5F58E3AF DUP5 CALLDATASIZE CALLDATALOAD SWAP15 0xE3 PUSH31 0x64736F6C634300081800330000000000000000000000000000000000000000 "
				},
				"gasEstimates": {
					"creation": {
						"codeDepositCost": "705200",
						"executionCost": "25004",
						"totalCost": "730204"
					},
					"external": {
						"addressTypes(address)": "infinite",
						"ads()": "2505",
						"balances(address)": "2825",
						"counts(string)": "infinite",
						"numbertype(uint256)": "infinite",
						"sayHello()": "infinite",
						"taker(uint256,uint256)": "infinite",
						"users(address)": "infinite"
					}
				},
				"methodIdentifiers": {
					"addressTypes(address)": "a71d3830",
					"ads()": "b6eda884",
					"balances(address)": "27e235e3",
					"counts(string)": "d92bd25c",
					"numbertype(uint256)": "fb13a2be",
					"sayHello()": "ef5fb05b",
					"taker(uint256,uint256)": "0704893f",
					"users(address)": "a87430ba"
				}
			},
			"storageLayout": {
				"storage": [
					{
						"astId": 5,
						"contract": "hello.sol:Hello",
						"label": "ads",
						"offset": 0,
						"slot": "0",
						"type": "t_address"
					},
					{
						"astId": 9,
						"contract": "hello.sol:Hello",
						"label": "balances",
						"offset": 0,
						"slot": "1",
						"type": "t_mapping(t_address,t_uint256)"
					},
					{
						"astId": 13,
						"contract": "hello.sol:Hello",
						"label": "counts",
						"offset": 0,
						"slot": "2",
						"type": "t_mapping(t_string_memory_ptr,t_uint256)"
					},
					{
						"astId": 25,
						"contract": "hello.sol:Hello",
						"label": "users",
						"offset": 0,
						"slot": "3",
						"type": "t_mapping(t_address,t_struct(user)20_storage)"
					}
				],
				"types": {
					"t_address": {
						"encoding": "inplace",
						"label": "address",
						"numberOfBytes": "20"
					},
					"t_mapping(t_address,t_struct(user)20_storage)": {
						"encoding": "mapping",
						"key": "t_address",
						"label": "mapping(address => struct Hello.user)",
						"numberOfBytes": "32",
						"value": "t_struct(user)20_storage"
					},
					"t_mapping(t_address,t_uint256)": {
						"encoding": "mapping",
						"key": "t_address",
						"label": "mapping(address => uint256)",
						"numberOfBytes": "32",
						"value": "t_uint256"
					},
					"t_mapping(t_string_memory_ptr,t_uint256)": {
						"encoding": "mapping",
						"key": "t_string_memory_ptr",
						"label": "mapping(string => uint256)",
						"numberOfBytes": "32",
						"value": "t_uint256"
					},
					"t_string_memory_ptr": {
						"encoding": "bytes",
						"label": "string",
						"numberOfBytes": "32"
					},
					"t_string_storage": {
						"encoding": "bytes",
						"label": "string",
						"numberOfBytes": "32"
					},
					"t_struct(user)20_storage": {
						"encoding": "inplace",
						"label": "struct Hello.user",
						"members": [
							{
								"astId": 15,
								"contract": "hello.sol:Hello",
								"label": "name",
								"offset": 0,
								"slot": "0",
								"type": "t_string_storage"
							},
							{
								"astId": 17,
								"contract": "hello.sol:Hello",
								"label": "age",
								"offset": 0,
								"slot": "1",
								"type": "t_uint256"
							},
							{
								"astId": 19,
								"contract": "hello.sol:Hello",
								"label": "wallet",
								"offset": 0,
								"slot": "2",
								"type": "t_address"
							}
						],
						"numberOfBytes": "96"
					},
					"t_uint256": {
						"encoding": "inplace",
						"label": "uint256",
						"numberOfBytes": "32"
					}
				}
			},
			"userdoc": {
				"kind": "user",
				"methods": {},
				"version": 1
			}
		}
	}
}