{
	"ReceiveExample.sol": {
		"ReceiveExample": {
			"abi": [
				{
					"inputs": [],
					"stateMutability": "nonpayable",
					"type": "constructor"
				},
				{
					"anonymous": false,
					"inputs": [
						{
							"indexed": false,
							"internalType": "uint256",
							"name": "newValue",
							"type": "uint256"
						}
					],
					"name": "DataChanged",
					"type": "event"
				},
				{
					"anonymous": false,
					"inputs": [
						{
							"indexed": false,
							"internalType": "address",
							"name": "sender",
							"type": "address"
						},
						{
							"indexed": false,
							"internalType": "uint256",
							"name": "amount",
							"type": "uint256"
						}
					],
					"name": "FallbackCalled",
					"type": "event"
				},
				{
					"stateMutability": "payable",
					"type": "fallback"
				},
				{
					"inputs": [
						{
							"internalType": "address",
							"name": "newOwner",
							"type": "address"
						}
					],
					"name": "changeOwner",
					"outputs": [],
					"stateMutability": "nonpayable",
					"type": "function"
				},
				{
					"inputs": [],
					"name": "data",
					"outputs": [
						{
							"internalType": "uint256",
							"name": "",
							"type": "uint256"
						}
					],
					"stateMutability": "view",
					"type": "function"
				},
				{
					"inputs": [
						{
							"internalType": "uint256",
							"name": "_in",
							"type": "uint256"
						},
						{
							"internalType": "bool",
							"name": "_flag",
							"type": "bool"
						}
					],
					"name": "f",
					"outputs": [
						{
							"internalType": "uint256",
							"name": "",
							"type": "uint256"
						}
					],
					"stateMutability": "pure",
					"type": "function"
				},
				{
					"inputs": [
						{
							"internalType": "uint256",
							"name": "_in",
							"type": "uint256"
						}
					],
					"name": "f",
					"outputs": [
						{
							"internalType": "uint256",
							"name": "",
							"type": "uint256"
						}
					],
					"stateMutability": "pure",
					"type": "function"
				},
				{
					"stateMutability": "payable",
					"type": "receive"
				}
			],
			"devdoc": {
				"kind": "dev",
				"methods": {},
				"version": 1
			},
			"evm": {
				"assembly": "    /* \"ReceiveExample.sol\":58:969  contract ReceiveExample{... */\n  mstore(0x40, 0x80)\n    /* \"ReceiveExample.sol\":223:224  0 */\n  0x00\n    /* \"ReceiveExample.sol\":204:224  uint public data = 0 */\n  0x01\n  sstore\n    /* \"ReceiveExample.sol\":235:287  constructor()  {... */\n  callvalue\n  dup1\n  iszero\n  tag_1\n  jumpi\n  revert(0x00, 0x00)\ntag_1:\n  pop\n    /* \"ReceiveExample.sol\":269:279  msg.sender */\n  caller\n    /* \"ReceiveExample.sol\":261:266  owner */\n  0x00\n  0x00\n    /* \"ReceiveExample.sol\":261:279  owner = msg.sender */\n  0x0100\n  exp\n  dup2\n  sload\n  dup2\n  0xffffffffffffffffffffffffffffffffffffffff\n  mul\n  not\n  and\n  swap1\n  dup4\n  0xffffffffffffffffffffffffffffffffffffffff\n  and\n  mul\n  or\n  swap1\n  sstore\n  pop\n    /* \"ReceiveExample.sol\":58:969  contract ReceiveExample{... */\n  dataSize(sub_0)\n  dup1\n  dataOffset(sub_0)\n  0x00\n  codecopy\n  0x00\n  return\nstop\n\nsub_0: assembly {\n        /* \"ReceiveExample.sol\":58:969  contract ReceiveExample{... */\n      mstore(0x40, 0x80)\n      jumpi(tag_1, lt(calldatasize, 0x04))\n      shr(0xe0, calldataload(0x00))\n      dup1\n      0x2735acb7\n      eq\n      tag_3\n      jumpi\n      dup1\n      0x73d4a13a\n      eq\n      tag_4\n      jumpi\n      dup1\n      0xa6f9dae1\n      eq\n      tag_5\n      jumpi\n      dup1\n      0xb3de648b\n      eq\n      tag_6\n      jumpi\n      jump(tag_2)\n    tag_1:\n      jumpi(tag_2, calldatasize)\n        /* \"ReceiveExample.sol\":370:379  msg.value */\n      callvalue\n        /* \"ReceiveExample.sol\":362:366  data */\n      0x01\n      0x00\n        /* \"ReceiveExample.sol\":362:379  data += msg.value */\n      dup3\n      dup3\n      sload\n      tag_9\n      swap2\n      swap1\n      tag_10\n      jump\t// in\n    tag_9:\n      swap3\n      pop\n      pop\n      dup2\n      swap1\n      sstore\n      pop\n        /* \"ReceiveExample.sol\":395:412  DataChanged(data) */\n      0x30abf1e3f71dc652b1df75682ae16af5c006ad42cd23d00001e8e106d8af4e1d\n        /* \"ReceiveExample.sol\":407:411  data */\n      sload(0x01)\n        /* \"ReceiveExample.sol\":395:412  DataChanged(data) */\n      mload(0x40)\n      tag_11\n      swap2\n      swap1\n      tag_12\n      jump\t// in\n    tag_11:\n      mload(0x40)\n      dup1\n      swap2\n      sub\n      swap1\n      log1\n        /* \"ReceiveExample.sol\":58:969  contract ReceiveExample{... */\n      stop\n    tag_2:\n        /* \"ReceiveExample.sol\":494:531  FallbackCalled(msg.sender, msg.value) */\n      0x4fdfaf7cd2ae67f3639149bddef2addc991d3f26e0121df03517ec62523649ca\n        /* \"ReceiveExample.sol\":509:519  msg.sender */\n      caller\n        /* \"ReceiveExample.sol\":521:530  msg.value */\n      callvalue\n        /* \"ReceiveExample.sol\":494:531  FallbackCalled(msg.sender, msg.value) */\n      mload(0x40)\n      tag_15\n      swap3\n      swap2\n      swap1\n      tag_16\n      jump\t// in\n    tag_15:\n      mload(0x40)\n      dup1\n      swap2\n      sub\n      swap1\n      log1\n        /* \"ReceiveExample.sol\":58:969  contract ReceiveExample{... */\n      stop\n        /* \"ReceiveExample.sol\":862:963  function f(uint _in, bool _flag) public pure returns (uint) {... */\n    tag_3:\n      callvalue\n      dup1\n      iszero\n      tag_17\n      jumpi\n      revert(0x00, 0x00)\n    tag_17:\n      pop\n      tag_18\n      0x04\n      dup1\n      calldatasize\n      sub\n      dup2\n      add\n      swap1\n      tag_19\n      swap2\n      swap1\n      tag_20\n      jump\t// in\n    tag_19:\n      tag_21\n      jump\t// in\n    tag_18:\n      mload(0x40)\n      tag_22\n      swap2\n      swap1\n      tag_12\n      jump\t// in\n    tag_22:\n      mload(0x40)\n      dup1\n      swap2\n      sub\n      swap1\n      return\n        /* \"ReceiveExample.sol\":204:224  uint public data = 0 */\n    tag_4:\n      callvalue\n      dup1\n      iszero\n      tag_23\n      jumpi\n      revert(0x00, 0x00)\n    tag_23:\n      pop\n      tag_24\n      tag_25\n      jump\t// in\n    tag_24:\n      mload(0x40)\n      tag_26\n      swap2\n      swap1\n      tag_12\n      jump\t// in\n    tag_26:\n      mload(0x40)\n      dup1\n      swap2\n      sub\n      swap1\n      return\n        /* \"ReceiveExample.sol\":681:770  function changeOwner(address newOwner) public onlyOwner {... */\n    tag_5:\n      callvalue\n      dup1\n      iszero\n      tag_27\n      jumpi\n      revert(0x00, 0x00)\n    tag_27:\n      pop\n      tag_28\n      0x04\n      dup1\n      calldatasize\n      sub\n      dup2\n      add\n      swap1\n      tag_29\n      swap2\n      swap1\n      tag_30\n      jump\t// in\n    tag_29:\n      tag_31\n      jump\t// in\n    tag_28:\n      stop\n        /* \"ReceiveExample.sol\":779:856  function f(uint _in) public pure returns (uint) {... */\n    tag_6:\n      callvalue\n      dup1\n      iszero\n      tag_32\n      jumpi\n      revert(0x00, 0x00)\n    tag_32:\n      pop\n      tag_33\n      0x04\n      dup1\n      calldatasize\n      sub\n      dup2\n      add\n      swap1\n      tag_34\n      swap2\n      swap1\n      tag_35\n      jump\t// in\n    tag_34:\n      tag_36\n      jump\t// in\n    tag_33:\n      mload(0x40)\n      tag_37\n      swap2\n      swap1\n      tag_12\n      jump\t// in\n    tag_37:\n      mload(0x40)\n      dup1\n      swap2\n      sub\n      swap1\n      return\n        /* \"ReceiveExample.sol\":862:963  function f(uint _in, bool _flag) public pure returns (uint) {... */\n    tag_21:\n        /* \"ReceiveExample.sol\":916:920  uint */\n      0x00\n        /* \"ReceiveExample.sol\":940:945  _flag */\n      dup2\n        /* \"ReceiveExample.sol\":940:955  _flag ? _in : 0 */\n      tag_39\n      jumpi\n        /* \"ReceiveExample.sol\":954:955  0 */\n      0x00\n        /* \"ReceiveExample.sol\":940:955  _flag ? _in : 0 */\n      jump(tag_40)\n    tag_39:\n        /* \"ReceiveExample.sol\":948:951  _in */\n      dup3\n        /* \"ReceiveExample.sol\":940:955  _flag ? _in : 0 */\n    tag_40:\n        /* \"ReceiveExample.sol\":933:955  return _flag ? _in : 0 */\n      swap1\n      pop\n        /* \"ReceiveExample.sol\":862:963  function f(uint _in, bool _flag) public pure returns (uint) {... */\n      swap3\n      swap2\n      pop\n      pop\n      jump\t// out\n        /* \"ReceiveExample.sol\":204:224  uint public data = 0 */\n    tag_25:\n      sload(0x01)\n      dup2\n      jump\t// out\n        /* \"ReceiveExample.sol\":681:770  function changeOwner(address newOwner) public onlyOwner {... */\n    tag_31:\n        /* \"ReceiveExample.sol\":609:614  owner */\n      0x00\n      0x00\n      swap1\n      sload\n      swap1\n      0x0100\n      exp\n      swap1\n      div\n      0xffffffffffffffffffffffffffffffffffffffff\n      and\n        /* \"ReceiveExample.sol\":595:614  msg.sender == owner */\n      0xffffffffffffffffffffffffffffffffffffffff\n      and\n        /* \"ReceiveExample.sol\":595:605  msg.sender */\n      caller\n        /* \"ReceiveExample.sol\":595:614  msg.sender == owner */\n      0xffffffffffffffffffffffffffffffffffffffff\n      and\n      eq\n        /* \"ReceiveExample.sol\":587:653  require(msg.sender == owner, \"Only owner can call this function.\") */\n      tag_42\n      jumpi\n      mload(0x40)\n      0x08c379a000000000000000000000000000000000000000000000000000000000\n      dup2\n      mstore\n      0x04\n      add\n      tag_43\n      swap1\n      tag_44\n      jump\t// in\n    tag_43:\n      mload(0x40)\n      dup1\n      swap2\n      sub\n      swap1\n      revert\n    tag_42:\n        /* \"ReceiveExample.sol\":754:762  newOwner */\n      dup1\n        /* \"ReceiveExample.sol\":748:753  owner */\n      0x00\n      0x00\n        /* \"ReceiveExample.sol\":748:762  owner=newOwner */\n      0x0100\n      exp\n      dup2\n      sload\n      dup2\n      0xffffffffffffffffffffffffffffffffffffffff\n      mul\n      not\n      and\n      swap1\n      dup4\n      0xffffffffffffffffffffffffffffffffffffffff\n      and\n      mul\n      or\n      swap1\n      sstore\n      pop\n        /* \"ReceiveExample.sol\":681:770  function changeOwner(address newOwner) public onlyOwner {... */\n      pop\n      jump\t// out\n        /* \"ReceiveExample.sol\":779:856  function f(uint _in) public pure returns (uint) {... */\n    tag_36:\n        /* \"ReceiveExample.sol\":821:825  uint */\n      0x00\n        /* \"ReceiveExample.sol\":845:848  _in */\n      dup2\n        /* \"ReceiveExample.sol\":838:848  return _in */\n      swap1\n      pop\n        /* \"ReceiveExample.sol\":779:856  function f(uint _in) public pure returns (uint) {... */\n      swap2\n      swap1\n      pop\n      jump\t// out\n        /* \"#utility.yul\":7:84   */\n    tag_47:\n        /* \"#utility.yul\":44:51   */\n      0x00\n        /* \"#utility.yul\":73:78   */\n      dup2\n        /* \"#utility.yul\":62:78   */\n      swap1\n      pop\n        /* \"#utility.yul\":7:84   */\n      swap2\n      swap1\n      pop\n      jump\t// out\n        /* \"#utility.yul\":90:270   */\n    tag_48:\n        /* \"#utility.yul\":138:215   */\n      0x4e487b7100000000000000000000000000000000000000000000000000000000\n        /* \"#utility.yul\":135:136   */\n      0x00\n        /* \"#utility.yul\":128:216   */\n      mstore\n        /* \"#utility.yul\":235:239   */\n      0x11\n        /* \"#utility.yul\":232:233   */\n      0x04\n        /* \"#utility.yul\":225:240   */\n      mstore\n        /* \"#utility.yul\":259:263   */\n      0x24\n        /* \"#utility.yul\":256:257   */\n      0x00\n        /* \"#utility.yul\":249:264   */\n      revert\n        /* \"#utility.yul\":276:467   */\n    tag_10:\n        /* \"#utility.yul\":316:319   */\n      0x00\n        /* \"#utility.yul\":335:355   */\n      tag_70\n        /* \"#utility.yul\":353:354   */\n      dup3\n        /* \"#utility.yul\":335:355   */\n      tag_47\n      jump\t// in\n    tag_70:\n        /* \"#utility.yul\":330:355   */\n      swap2\n      pop\n        /* \"#utility.yul\":369:389   */\n      tag_71\n        /* \"#utility.yul\":387:388   */\n      dup4\n        /* \"#utility.yul\":369:389   */\n      tag_47\n      jump\t// in\n    tag_71:\n        /* \"#utility.yul\":364:389   */\n      swap3\n      pop\n        /* \"#utility.yul\":412:413   */\n      dup3\n        /* \"#utility.yul\":409:410   */\n      dup3\n        /* \"#utility.yul\":405:414   */\n      add\n        /* \"#utility.yul\":398:414   */\n      swap1\n      pop\n        /* \"#utility.yul\":433:436   */\n      dup1\n        /* \"#utility.yul\":430:431   */\n      dup3\n        /* \"#utility.yul\":427:437   */\n      gt\n        /* \"#utility.yul\":424:460   */\n      iszero\n      tag_72\n      jumpi\n        /* \"#utility.yul\":440:458   */\n      tag_73\n      tag_48\n      jump\t// in\n    tag_73:\n        /* \"#utility.yul\":424:460   */\n    tag_72:\n        /* \"#utility.yul\":276:467   */\n      swap3\n      swap2\n      pop\n      pop\n      jump\t// out\n        /* \"#utility.yul\":473:591   */\n    tag_49:\n        /* \"#utility.yul\":560:584   */\n      tag_75\n        /* \"#utility.yul\":578:583   */\n      dup2\n        /* \"#utility.yul\":560:584   */\n      tag_47\n      jump\t// in\n    tag_75:\n        /* \"#utility.yul\":555:558   */\n      dup3\n        /* \"#utility.yul\":548:585   */\n      mstore\n        /* \"#utility.yul\":473:591   */\n      pop\n      pop\n      jump\t// out\n        /* \"#utility.yul\":597:819   */\n    tag_12:\n        /* \"#utility.yul\":690:694   */\n      0x00\n        /* \"#utility.yul\":728:730   */\n      0x20\n        /* \"#utility.yul\":717:726   */\n      dup3\n        /* \"#utility.yul\":713:731   */\n      add\n        /* \"#utility.yul\":705:731   */\n      swap1\n      pop\n        /* \"#utility.yul\":741:812   */\n      tag_77\n        /* \"#utility.yul\":809:810   */\n      0x00\n        /* \"#utility.yul\":798:807   */\n      dup4\n        /* \"#utility.yul\":794:811   */\n      add\n        /* \"#utility.yul\":785:791   */\n      dup5\n        /* \"#utility.yul\":741:812   */\n      tag_49\n      jump\t// in\n    tag_77:\n        /* \"#utility.yul\":597:819   */\n      swap3\n      swap2\n      pop\n      pop\n      jump\t// out\n        /* \"#utility.yul\":825:951   */\n    tag_50:\n        /* \"#utility.yul\":862:869   */\n      0x00\n        /* \"#utility.yul\":902:944   */\n      0xffffffffffffffffffffffffffffffffffffffff\n        /* \"#utility.yul\":895:900   */\n      dup3\n        /* \"#utility.yul\":891:945   */\n      and\n        /* \"#utility.yul\":880:945   */\n      swap1\n      pop\n        /* \"#utility.yul\":825:951   */\n      swap2\n      swap1\n      pop\n      jump\t// out\n        /* \"#utility.yul\":957:1053   */\n    tag_51:\n        /* \"#utility.yul\":994:1001   */\n      0x00\n        /* \"#utility.yul\":1023:1047   */\n      tag_80\n        /* \"#utility.yul\":1041:1046   */\n      dup3\n        /* \"#utility.yul\":1023:1047   */\n      tag_50\n      jump\t// in\n    tag_80:\n        /* \"#utility.yul\":1012:1047   */\n      swap1\n      pop\n        /* \"#utility.yul\":957:1053   */\n      swap2\n      swap1\n      pop\n      jump\t// out\n        /* \"#utility.yul\":1059:1177   */\n    tag_52:\n        /* \"#utility.yul\":1146:1170   */\n      tag_82\n        /* \"#utility.yul\":1164:1169   */\n      dup2\n        /* \"#utility.yul\":1146:1170   */\n      tag_51\n      jump\t// in\n    tag_82:\n        /* \"#utility.yul\":1141:1144   */\n      dup3\n        /* \"#utility.yul\":1134:1171   */\n      mstore\n        /* \"#utility.yul\":1059:1177   */\n      pop\n      pop\n      jump\t// out\n        /* \"#utility.yul\":1183:1515   */\n    tag_16:\n        /* \"#utility.yul\":1304:1308   */\n      0x00\n        /* \"#utility.yul\":1342:1344   */\n      0x40\n        /* \"#utility.yul\":1331:1340   */\n      dup3\n        /* \"#utility.yul\":1327:1345   */\n      add\n        /* \"#utility.yul\":1319:1345   */\n      swap1\n      pop\n        /* \"#utility.yul\":1355:1426   */\n      tag_84\n        /* \"#utility.yul\":1423:1424   */\n      0x00\n        /* \"#utility.yul\":1412:1421   */\n      dup4\n        /* \"#utility.yul\":1408:1425   */\n      add\n        /* \"#utility.yul\":1399:1405   */\n      dup6\n        /* \"#utility.yul\":1355:1426   */\n      tag_52\n      jump\t// in\n    tag_84:\n        /* \"#utility.yul\":1436:1508   */\n      tag_85\n        /* \"#utility.yul\":1504:1506   */\n      0x20\n        /* \"#utility.yul\":1493:1502   */\n      dup4\n        /* \"#utility.yul\":1489:1507   */\n      add\n        /* \"#utility.yul\":1480:1486   */\n      dup5\n        /* \"#utility.yul\":1436:1508   */\n      tag_49\n      jump\t// in\n    tag_85:\n        /* \"#utility.yul\":1183:1515   */\n      swap4\n      swap3\n      pop\n      pop\n      pop\n      jump\t// out\n        /* \"#utility.yul\":1602:1719   */\n    tag_54:\n        /* \"#utility.yul\":1711:1712   */\n      0x00\n        /* \"#utility.yul\":1708:1709   */\n      0x00\n        /* \"#utility.yul\":1701:1713   */\n      revert\n        /* \"#utility.yul\":1848:1970   */\n    tag_56:\n        /* \"#utility.yul\":1921:1945   */\n      tag_90\n        /* \"#utility.yul\":1939:1944   */\n      dup2\n        /* \"#utility.yul\":1921:1945   */\n      tag_47\n      jump\t// in\n    tag_90:\n        /* \"#utility.yul\":1914:1919   */\n      dup2\n        /* \"#utility.yul\":1911:1946   */\n      eq\n        /* \"#utility.yul\":1901:1964   */\n      tag_91\n      jumpi\n        /* \"#utility.yul\":1960:1961   */\n      0x00\n        /* \"#utility.yul\":1957:1958   */\n      0x00\n        /* \"#utility.yul\":1950:1962   */\n      revert\n        /* \"#utility.yul\":1901:1964   */\n    tag_91:\n        /* \"#utility.yul\":1848:1970   */\n      pop\n      jump\t// out\n        /* \"#utility.yul\":1976:2115   */\n    tag_57:\n        /* \"#utility.yul\":2022:2027   */\n      0x00\n        /* \"#utility.yul\":2060:2066   */\n      dup2\n        /* \"#utility.yul\":2047:2067   */\n      calldataload\n        /* \"#utility.yul\":2038:2067   */\n      swap1\n      pop\n        /* \"#utility.yul\":2076:2109   */\n      tag_93\n        /* \"#utility.yul\":2103:2108   */\n      dup2\n        /* \"#utility.yul\":2076:2109   */\n      tag_56\n      jump\t// in\n    tag_93:\n        /* \"#utility.yul\":1976:2115   */\n      swap3\n      swap2\n      pop\n      pop\n      jump\t// out\n        /* \"#utility.yul\":2121:2211   */\n    tag_58:\n        /* \"#utility.yul\":2155:2162   */\n      0x00\n        /* \"#utility.yul\":2198:2203   */\n      dup2\n        /* \"#utility.yul\":2191:2204   */\n      iszero\n        /* \"#utility.yul\":2184:2205   */\n      iszero\n        /* \"#utility.yul\":2173:2205   */\n      swap1\n      pop\n        /* \"#utility.yul\":2121:2211   */\n      swap2\n      swap1\n      pop\n      jump\t// out\n        /* \"#utility.yul\":2217:2333   */\n    tag_59:\n        /* \"#utility.yul\":2287:2308   */\n      tag_96\n        /* \"#utility.yul\":2302:2307   */\n      dup2\n        /* \"#utility.yul\":2287:2308   */\n      tag_58\n      jump\t// in\n    tag_96:\n        /* \"#utility.yul\":2280:2285   */\n      dup2\n        /* \"#utility.yul\":2277:2309   */\n      eq\n        /* \"#utility.yul\":2267:2327   */\n      tag_97\n      jumpi\n        /* \"#utility.yul\":2323:2324   */\n      0x00\n        /* \"#utility.yul\":2320:2321   */\n      0x00\n        /* \"#utility.yul\":2313:2325   */\n      revert\n        /* \"#utility.yul\":2267:2327   */\n    tag_97:\n        /* \"#utility.yul\":2217:2333   */\n      pop\n      jump\t// out\n        /* \"#utility.yul\":2339:2472   */\n    tag_60:\n        /* \"#utility.yul\":2382:2387   */\n      0x00\n        /* \"#utility.yul\":2420:2426   */\n      dup2\n        /* \"#utility.yul\":2407:2427   */\n      calldataload\n        /* \"#utility.yul\":2398:2427   */\n      swap1\n      pop\n        /* \"#utility.yul\":2436:2466   */\n      tag_99\n        /* \"#utility.yul\":2460:2465   */\n      dup2\n        /* \"#utility.yul\":2436:2466   */\n      tag_59\n      jump\t// in\n    tag_99:\n        /* \"#utility.yul\":2339:2472   */\n      swap3\n      swap2\n      pop\n      pop\n      jump\t// out\n        /* \"#utility.yul\":2478:2946   */\n    tag_20:\n        /* \"#utility.yul\":2543:2549   */\n      0x00\n        /* \"#utility.yul\":2551:2557   */\n      0x00\n        /* \"#utility.yul\":2600:2602   */\n      0x40\n        /* \"#utility.yul\":2588:2597   */\n      dup4\n        /* \"#utility.yul\":2579:2586   */\n      dup6\n        /* \"#utility.yul\":2575:2598   */\n      sub\n        /* \"#utility.yul\":2571:2603   */\n      slt\n        /* \"#utility.yul\":2568:2687   */\n      iszero\n      tag_101\n      jumpi\n        /* \"#utility.yul\":2606:2685   */\n      tag_102\n      tag_54\n      jump\t// in\n    tag_102:\n        /* \"#utility.yul\":2568:2687   */\n    tag_101:\n        /* \"#utility.yul\":2726:2727   */\n      0x00\n        /* \"#utility.yul\":2751:2804   */\n      tag_103\n        /* \"#utility.yul\":2796:2803   */\n      dup6\n        /* \"#utility.yul\":2787:2793   */\n      dup3\n        /* \"#utility.yul\":2776:2785   */\n      dup7\n        /* \"#utility.yul\":2772:2794   */\n      add\n        /* \"#utility.yul\":2751:2804   */\n      tag_57\n      jump\t// in\n    tag_103:\n        /* \"#utility.yul\":2741:2804   */\n      swap3\n      pop\n        /* \"#utility.yul\":2697:2814   */\n      pop\n        /* \"#utility.yul\":2853:2855   */\n      0x20\n        /* \"#utility.yul\":2879:2929   */\n      tag_104\n        /* \"#utility.yul\":2921:2928   */\n      dup6\n        /* \"#utility.yul\":2912:2918   */\n      dup3\n        /* \"#utility.yul\":2901:2910   */\n      dup7\n        /* \"#utility.yul\":2897:2919   */\n      add\n        /* \"#utility.yul\":2879:2929   */\n      tag_60\n      jump\t// in\n    tag_104:\n        /* \"#utility.yul\":2869:2929   */\n      swap2\n      pop\n        /* \"#utility.yul\":2824:2939   */\n      pop\n        /* \"#utility.yul\":2478:2946   */\n      swap3\n      pop\n      swap3\n      swap1\n      pop\n      jump\t// out\n        /* \"#utility.yul\":2952:3074   */\n    tag_61:\n        /* \"#utility.yul\":3025:3049   */\n      tag_106\n        /* \"#utility.yul\":3043:3048   */\n      dup2\n        /* \"#utility.yul\":3025:3049   */\n      tag_51\n      jump\t// in\n    tag_106:\n        /* \"#utility.yul\":3018:3023   */\n      dup2\n        /* \"#utility.yul\":3015:3050   */\n      eq\n        /* \"#utility.yul\":3005:3068   */\n      tag_107\n      jumpi\n        /* \"#utility.yul\":3064:3065   */\n      0x00\n        /* \"#utility.yul\":3061:3062   */\n      0x00\n        /* \"#utility.yul\":3054:3066   */\n      revert\n        /* \"#utility.yul\":3005:3068   */\n    tag_107:\n        /* \"#utility.yul\":2952:3074   */\n      pop\n      jump\t// out\n        /* \"#utility.yul\":3080:3219   */\n    tag_62:\n        /* \"#utility.yul\":3126:3131   */\n      0x00\n        /* \"#utility.yul\":3164:3170   */\n      dup2\n        /* \"#utility.yul\":3151:3171   */\n      calldataload\n        /* \"#utility.yul\":3142:3171   */\n      swap1\n      pop\n        /* \"#utility.yul\":3180:3213   */\n      tag_109\n        /* \"#utility.yul\":3207:3212   */\n      dup2\n        /* \"#utility.yul\":3180:3213   */\n      tag_61\n      jump\t// in\n    tag_109:\n        /* \"#utility.yul\":3080:3219   */\n      swap3\n      swap2\n      pop\n      pop\n      jump\t// out\n        /* \"#utility.yul\":3225:3554   */\n    tag_30:\n        /* \"#utility.yul\":3284:3290   */\n      0x00\n        /* \"#utility.yul\":3333:3335   */\n      0x20\n        /* \"#utility.yul\":3321:3330   */\n      dup3\n        /* \"#utility.yul\":3312:3319   */\n      dup5\n        /* \"#utility.yul\":3308:3331   */\n      sub\n        /* \"#utility.yul\":3304:3336   */\n      slt\n        /* \"#utility.yul\":3301:3420   */\n      iszero\n      tag_111\n      jumpi\n        /* \"#utility.yul\":3339:3418   */\n      tag_112\n      tag_54\n      jump\t// in\n    tag_112:\n        /* \"#utility.yul\":3301:3420   */\n    tag_111:\n        /* \"#utility.yul\":3459:3460   */\n      0x00\n        /* \"#utility.yul\":3484:3537   */\n      tag_113\n        /* \"#utility.yul\":3529:3536   */\n      dup5\n        /* \"#utility.yul\":3520:3526   */\n      dup3\n        /* \"#utility.yul\":3509:3518   */\n      dup6\n        /* \"#utility.yul\":3505:3527   */\n      add\n        /* \"#utility.yul\":3484:3537   */\n      tag_62\n      jump\t// in\n    tag_113:\n        /* \"#utility.yul\":3474:3537   */\n      swap2\n      pop\n        /* \"#utility.yul\":3430:3547   */\n      pop\n        /* \"#utility.yul\":3225:3554   */\n      swap3\n      swap2\n      pop\n      pop\n      jump\t// out\n        /* \"#utility.yul\":3560:3889   */\n    tag_35:\n        /* \"#utility.yul\":3619:3625   */\n      0x00\n        /* \"#utility.yul\":3668:3670   */\n      0x20\n        /* \"#utility.yul\":3656:3665   */\n      dup3\n        /* \"#utility.yul\":3647:3654   */\n      dup5\n        /* \"#utility.yul\":3643:3666   */\n      sub\n        /* \"#utility.yul\":3639:3671   */\n      slt\n        /* \"#utility.yul\":3636:3755   */\n      iszero\n      tag_115\n      jumpi\n        /* \"#utility.yul\":3674:3753   */\n      tag_116\n      tag_54\n      jump\t// in\n    tag_116:\n        /* \"#utility.yul\":3636:3755   */\n    tag_115:\n        /* \"#utility.yul\":3794:3795   */\n      0x00\n        /* \"#utility.yul\":3819:3872   */\n      tag_117\n        /* \"#utility.yul\":3864:3871   */\n      dup5\n        /* \"#utility.yul\":3855:3861   */\n      dup3\n        /* \"#utility.yul\":3844:3853   */\n      dup6\n        /* \"#utility.yul\":3840:3862   */\n      add\n        /* \"#utility.yul\":3819:3872   */\n      tag_57\n      jump\t// in\n    tag_117:\n        /* \"#utility.yul\":3809:3872   */\n      swap2\n      pop\n        /* \"#utility.yul\":3765:3882   */\n      pop\n        /* \"#utility.yul\":3560:3889   */\n      swap3\n      swap2\n      pop\n      pop\n      jump\t// out\n        /* \"#utility.yul\":3895:4064   */\n    tag_63:\n        /* \"#utility.yul\":3979:3990   */\n      0x00\n        /* \"#utility.yul\":4013:4019   */\n      dup3\n        /* \"#utility.yul\":4008:4011   */\n      dup3\n        /* \"#utility.yul\":4001:4020   */\n      mstore\n        /* \"#utility.yul\":4053:4057   */\n      0x20\n        /* \"#utility.yul\":4048:4051   */\n      dup3\n        /* \"#utility.yul\":4044:4058   */\n      add\n        /* \"#utility.yul\":4029:4058   */\n      swap1\n      pop\n        /* \"#utility.yul\":3895:4064   */\n      swap3\n      swap2\n      pop\n      pop\n      jump\t// out\n        /* \"#utility.yul\":4070:4291   */\n    tag_64:\n        /* \"#utility.yul\":4210:4244   */\n      0x4f6e6c79206f776e65722063616e2063616c6c20746869732066756e6374696f\n        /* \"#utility.yul\":4206:4207   */\n      0x00\n        /* \"#utility.yul\":4198:4204   */\n      dup3\n        /* \"#utility.yul\":4194:4208   */\n      add\n        /* \"#utility.yul\":4187:4245   */\n      mstore\n        /* \"#utility.yul\":4279:4283   */\n      0x6e2e000000000000000000000000000000000000000000000000000000000000\n        /* \"#utility.yul\":4274:4276   */\n      0x20\n        /* \"#utility.yul\":4266:4272   */\n      dup3\n        /* \"#utility.yul\":4262:4277   */\n      add\n        /* \"#utility.yul\":4255:4284   */\n      mstore\n        /* \"#utility.yul\":4070:4291   */\n      pop\n      jump\t// out\n        /* \"#utility.yul\":4297:4663   */\n    tag_65:\n        /* \"#utility.yul\":4439:4442   */\n      0x00\n        /* \"#utility.yul\":4460:4527   */\n      tag_121\n        /* \"#utility.yul\":4524:4526   */\n      0x22\n        /* \"#utility.yul\":4519:4522   */\n      dup4\n        /* \"#utility.yul\":4460:4527   */\n      tag_63\n      jump\t// in\n    tag_121:\n        /* \"#utility.yul\":4453:4527   */\n      swap2\n      pop\n        /* \"#utility.yul\":4536:4629   */\n      tag_122\n        /* \"#utility.yul\":4625:4628   */\n      dup3\n        /* \"#utility.yul\":4536:4629   */\n      tag_64\n      jump\t// in\n    tag_122:\n        /* \"#utility.yul\":4654:4656   */\n      0x40\n        /* \"#utility.yul\":4649:4652   */\n      dup3\n        /* \"#utility.yul\":4645:4657   */\n      add\n        /* \"#utility.yul\":4638:4657   */\n      swap1\n      pop\n        /* \"#utility.yul\":4297:4663   */\n      swap2\n      swap1\n      pop\n      jump\t// out\n        /* \"#utility.yul\":4669:5088   */\n    tag_44:\n        /* \"#utility.yul\":4835:4839   */\n      0x00\n        /* \"#utility.yul\":4873:4875   */\n      0x20\n        /* \"#utility.yul\":4862:4871   */\n      dup3\n        /* \"#utility.yul\":4858:4876   */\n      add\n        /* \"#utility.yul\":4850:4876   */\n      swap1\n      pop\n        /* \"#utility.yul\":4922:4931   */\n      dup2\n        /* \"#utility.yul\":4916:4920   */\n      dup2\n        /* \"#utility.yul\":4912:4932   */\n      sub\n        /* \"#utility.yul\":4908:4909   */\n      0x00\n        /* \"#utility.yul\":4897:4906   */\n      dup4\n        /* \"#utility.yul\":4893:4910   */\n      add\n        /* \"#utility.yul\":4886:4933   */\n      mstore\n        /* \"#utility.yul\":4950:5081   */\n      tag_124\n        /* \"#utility.yul\":5076:5080   */\n      dup2\n        /* \"#utility.yul\":4950:5081   */\n      tag_65\n      jump\t// in\n    tag_124:\n        /* \"#utility.yul\":4942:5081   */\n      swap1\n      pop\n        /* \"#utility.yul\":4669:5088   */\n      swap2\n      swap1\n      pop\n      jump\t// out\n\n    auxdata: 0xa2646970667358221220b092e9ea0a3f3401523781c70f28c7e79023e979887d943742c5227687a9204b64736f6c634300081e0033\n}\n",
				"bytecode": {
					"linkReferences": {},
					"object": "60806040525f6001553480156012575f5ffd5b50335f5f6101000a81548173ffffffffffffffffffffffffffffffffffffffff021916908373ffffffffffffffffffffffffffffffffffffffff1602179055506105808061005f5f395ff3fe608060405260043610610042575f3560e01c80632735acb7146100d557806373d4a13a14610111578063a6f9dae11461013b578063b3de648b146101635761009a565b3661009a573460015f82825461005891906102ca565b925050819055507f30abf1e3f71dc652b1df75682ae16af5c006ad42cd23d00001e8e106d8af4e1d600154604051610090919061030c565b60405180910390a1005b7f4fdfaf7cd2ae67f3639149bddef2addc991d3f26e0121df03517ec62523649ca33346040516100cb929190610364565b60405180910390a1005b3480156100e0575f5ffd5b506100fb60048036038101906100f691906103ee565b61019f565b604051610108919061030c565b60405180910390f35b34801561011c575f5ffd5b506101256101b5565b604051610132919061030c565b60405180910390f35b348015610146575f5ffd5b50610161600480360381019061015c9190610456565b6101bb565b005b34801561016e575f5ffd5b5061018960048036038101906101849190610481565b61028b565b604051610196919061030c565b60405180910390f35b5f816101ab575f6101ad565b825b905092915050565b60015481565b5f5f9054906101000a900473ffffffffffffffffffffffffffffffffffffffff1673ffffffffffffffffffffffffffffffffffffffff163373ffffffffffffffffffffffffffffffffffffffff1614610249576040517f08c379a00000000000000000000000000000000000000000000000000000000081526004016102409061052c565b60405180910390fd5b805f5f6101000a81548173ffffffffffffffffffffffffffffffffffffffff021916908373ffffffffffffffffffffffffffffffffffffffff16021790555050565b5f819050919050565b5f819050919050565b7f4e487b71000000000000000000000000000000000000000000000000000000005f52601160045260245ffd5b5f6102d482610294565b91506102df83610294565b92508282019050808211156102f7576102f661029d565b5b92915050565b61030681610294565b82525050565b5f60208201905061031f5f8301846102fd565b92915050565b5f73ffffffffffffffffffffffffffffffffffffffff82169050919050565b5f61034e82610325565b9050919050565b61035e81610344565b82525050565b5f6040820190506103775f830185610355565b61038460208301846102fd565b9392505050565b5f5ffd5b61039881610294565b81146103a2575f5ffd5b50565b5f813590506103b38161038f565b92915050565b5f8115159050919050565b6103cd816103b9565b81146103d7575f5ffd5b50565b5f813590506103e8816103c4565b92915050565b5f5f604083850312156104045761040361038b565b5b5f610411858286016103a5565b9250506020610422858286016103da565b9150509250929050565b61043581610344565b811461043f575f5ffd5b50565b5f813590506104508161042c565b92915050565b5f6020828403121561046b5761046a61038b565b5b5f61047884828501610442565b91505092915050565b5f602082840312156104965761049561038b565b5b5f6104a3848285016103a5565b91505092915050565b5f82825260208201905092915050565b7f4f6e6c79206f776e65722063616e2063616c6c20746869732066756e6374696f5f8201527f6e2e000000000000000000000000000000000000000000000000000000000000602082015250565b5f6105166022836104ac565b9150610521826104bc565b604082019050919050565b5f6020820190508181035f8301526105438161050a565b905091905056fea2646970667358221220b092e9ea0a3f3401523781c70f28c7e79023e979887d943742c5227687a9204b64736f6c634300081e0033",
					"opcodes": "PUSH1 0x80 PUSH1 0x40 MSTORE PUSH0 PUSH1 0x1 SSTORE CALLVALUE DUP1 ISZERO PUSH1 0x12 JUMPI PUSH0 PUSH0 REVERT JUMPDEST POP CALLER PUSH0 PUSH0 PUSH2 0x100 EXP DUP2 SLOAD DUP2 PUSH20 0xFFFFFFFFFFFFFFFFFFFFFFFFFFFFFFFFFFFFFFFF MUL NOT AND SWAP1 DUP4 PUSH20 0xFFFFFFFFFFFFFFFFFFFFFFFFFFFFFFFFFFFFFFFF AND MUL OR SWAP1 SSTORE POP PUSH2 0x580 DUP1 PUSH2 0x5F PUSH0 CODECOPY PUSH0 RETURN INVALID PUSH1 0x80 PUSH1 0x40 MSTORE PUSH1 0x4 CALLDATASIZE LT PUSH2 0x42 JUMPI PUSH0 CALLDATALOAD PUSH1 0xE0 SHR DUP1 PUSH4 0x2735ACB7 EQ PUSH2 0xD5 JUMPI DUP1 PUSH4 0x73D4A13A EQ PUSH2 0x111 JUMPI DUP1 PUSH4 0xA6F9DAE1 EQ PUSH2 0x13B JUMPI DUP1 PUSH4 0xB3DE648B EQ PUSH2 0x163 JUMPI PUSH2 0x9A JUMP JUMPDEST CALLDATASIZE PUSH2 0x9A JUMPI CALLVALUE PUSH1 0x1 PUSH0 DUP3 DUP3 SLOAD PUSH2 0x58 SWAP2 SWAP1 PUSH2 0x2CA JUMP JUMPDEST SWAP3 POP POP DUP2 SWAP1 SSTORE POP PUSH32 0x30ABF1E3F71DC652B1DF75682AE16AF5C006AD42CD23D00001E8E106D8AF4E1D PUSH1 0x1 SLOAD PUSH1 0x40 MLOAD PUSH2 0x90 SWAP2 SWAP1 PUSH2 0x30C JUMP JUMPDEST PUSH1 0x40 MLOAD DUP1 SWAP2 SUB SWAP1 LOG1 STOP JUMPDEST PUSH32 0x4FDFAF7CD2AE67F3639149BDDEF2ADDC991D3F26E0121DF03517EC62523649CA CALLER CALLVALUE PUSH1 0x40 MLOAD PUSH2 0xCB SWAP3 SWAP2 SWAP1 PUSH2 0x364 JUMP JUMPDEST PUSH1 0x40 MLOAD DUP1 SWAP2 SUB SWAP1 LOG1 STOP JUMPDEST CALLVALUE DUP1 ISZERO PUSH2 0xE0 JUMPI PUSH0 PUSH0 REVERT JUMPDEST POP PUSH2 0xFB PUSH1 0x4 DUP1 CALLDATASIZE SUB DUP2 ADD SWAP1 PUSH2 0xF6 SWAP2 SWAP1 PUSH2 0x3EE JUMP JUMPDEST PUSH2 0x19F JUMP JUMPDEST PUSH1 0x40 MLOAD PUSH2 0x108 SWAP2 SWAP1 PUSH2 0x30C JUMP JUMPDEST PUSH1 0x40 MLOAD DUP1 SWAP2 SUB SWAP1 RETURN JUMPDEST CALLVALUE DUP1 ISZERO PUSH2 0x11C JUMPI PUSH0 PUSH0 REVERT JUMPDEST POP PUSH2 0x125 PUSH2 0x1B5 JUMP JUMPDEST PUSH1 0x40 MLOAD PUSH2 0x132 SWAP2 SWAP1 PUSH2 0x30C JUMP JUMPDEST PUSH1 0x40 MLOAD DUP1 SWAP2 SUB SWAP1 RETURN JUMPDEST CALLVALUE DUP1 ISZERO PUSH2 0x146 JUMPI PUSH0 PUSH0 REVERT JUMPDEST POP PUSH2 0x161 PUSH1 0x4 DUP1 CALLDATASIZE SUB DUP2 ADD SWAP1 PUSH2 0x15C SWAP2 SWAP1 PUSH2 0x456 JUMP JUMPDEST PUSH2 0x1BB JUMP JUMPDEST STOP JUMPDEST CALLVALUE DUP1 ISZERO PUSH2 0x16E JUMPI PUSH0 PUSH0 REVERT JUMPDEST POP PUSH2 0x189 PUSH1 0x4 DUP1 CALLDATASIZE SUB DUP2 ADD SWAP1 PUSH2 0x184 SWAP2 SWAP1 PUSH2 0x481 JUMP JUMPDEST PUSH2 0x28B JUMP JUMPDEST PUSH1 0x40 MLOAD PUSH2 0x196 SWAP2 SWAP1 PUSH2 0x30C JUMP JUMPDEST PUSH1 0x40 MLOAD DUP1 SWAP2 SUB SWAP1 RETURN JUMPDEST PUSH0 DUP2 PUSH2 0x1AB JUMPI PUSH0 PUSH2 0x1AD JUMP JUMPDEST DUP3 JUMPDEST SWAP1 POP SWAP3 SWAP2 POP POP JUMP JUMPDEST PUSH1 0x1 SLOAD DUP2 JUMP JUMPDEST PUSH0 PUSH0 SWAP1 SLOAD SWAP1 PUSH2 0x100 EXP SWAP1 DIV PUSH20 0xFFFFFFFFFFFFFFFFFFFFFFFFFFFFFFFFFFFFFFFF AND PUSH20 0xFFFFFFFFFFFFFFFFFFFFFFFFFFFFFFFFFFFFFFFF AND CALLER PUSH20 0xFFFFFFFFFFFFFFFFFFFFFFFFFFFFFFFFFFFFFFFF AND EQ PUSH2 0x249 JUMPI PUSH1 0x40 MLOAD PUSH32 0x8C379A000000000000000000000000000000000000000000000000000000000 DUP2 MSTORE PUSH1 0x4 ADD PUSH2 0x240 SWAP1 PUSH2 0x52C JUMP JUMPDEST PUSH1 0x40 MLOAD DUP1 SWAP2 SUB SWAP1 REVERT JUMPDEST DUP1 PUSH0 PUSH0 PUSH2 0x100 EXP DUP2 SLOAD DUP2 PUSH20 0xFFFFFFFFFFFFFFFFFFFFFFFFFFFFFFFFFFFFFFFF MUL NOT AND SWAP1 DUP4 PUSH20 0xFFFFFFFFFFFFFFFFFFFFFFFFFFFFFFFFFFFFFFFF AND MUL OR SWAP1 SSTORE POP POP JUMP JUMPDEST PUSH0 DUP2 SWAP1 POP SWAP2 SWAP1 POP JUMP JUMPDEST PUSH0 DUP2 SWAP1 POP SWAP2 SWAP1 POP JUMP JUMPDEST PUSH32 0x4E487B7100000000000000000000000000000000000000000000000000000000 PUSH0 MSTORE PUSH1 0x11 PUSH1 0x4 MSTORE PUSH1 0x24 PUSH0 REVERT JUMPDEST PUSH0 PUSH2 0x2D4 DUP3 PUSH2 0x294 JUMP JUMPDEST SWAP2 POP PUSH2 0x2DF DUP4 PUSH2 0x294 JUMP JUMPDEST SWAP3 POP DUP3 DUP3 ADD SWAP1 POP DUP1 DUP3 GT ISZERO PUSH2 0x2F7 JUMPI PUSH2 0x2F6 PUSH2 0x29D JUMP JUMPDEST JUMPDEST SWAP3 SWAP2 POP POP JUMP JUMPDEST PUSH2 0x306 DUP2 PUSH2 0x294 JUMP JUMPDEST DUP3 MSTORE POP POP JUMP JUMPDEST PUSH0 PUSH1 0x20 DUP3 ADD SWAP1 POP PUSH2 0x31F PUSH0 DUP4 ADD DUP5 PUSH2 0x2FD JUMP JUMPDEST SWAP3 SWAP2 POP POP JUMP JUMPDEST PUSH0 PUSH20 0xFFFFFFFFFFFFFFFFFFFFFFFFFFFFFFFFFFFFFFFF DUP3 AND SWAP1 POP SWAP2 SWAP1 POP JUMP JUMPDEST PUSH0 PUSH2 0x34E DUP3 PUSH2 0x325 JUMP JUMPDEST SWAP1 POP SWAP2 SWAP1 POP JUMP JUMPDEST PUSH2 0x35E DUP2 PUSH2 0x344 JUMP JUMPDEST DUP3 MSTORE POP POP JUMP JUMPDEST PUSH0 PUSH1 0x40 DUP3 ADD SWAP1 POP PUSH2 0x377 PUSH0 DUP4 ADD DUP6 PUSH2 0x355 JUMP JUMPDEST PUSH2 0x384 PUSH1 0x20 DUP4 ADD DUP5 PUSH2 0x2FD JUMP JUMPDEST SWAP4 SWAP3 POP POP POP JUMP JUMPDEST PUSH0 PUSH0 REVERT JUMPDEST PUSH2 0x398 DUP2 PUSH2 0x294 JUMP JUMPDEST DUP2 EQ PUSH2 0x3A2 JUMPI PUSH0 PUSH0 REVERT JUMPDEST POP JUMP JUMPDEST PUSH0 DUP2 CALLDATALOAD SWAP1 POP PUSH2 0x3B3 DUP2 PUSH2 0x38F JUMP JUMPDEST SWAP3 SWAP2 POP POP JUMP JUMPDEST PUSH0 DUP2 ISZERO ISZERO SWAP1 POP SWAP2 SWAP1 POP JUMP JUMPDEST PUSH2 0x3CD DUP2 PUSH2 0x3B9 JUMP JUMPDEST DUP2 EQ PUSH2 0x3D7 JUMPI PUSH0 PUSH0 REVERT JUMPDEST POP JUMP JUMPDEST PUSH0 DUP2 CALLDATALOAD SWAP1 POP PUSH2 0x3E8 DUP2 PUSH2 0x3C4 JUMP JUMPDEST SWAP3 SWAP2 POP POP JUMP JUMPDEST PUSH0 PUSH0 PUSH1 0x40 DUP4 DUP6 SUB SLT ISZERO PUSH2 0x404 JUMPI PUSH2 0x403 PUSH2 0x38B JUMP JUMPDEST JUMPDEST PUSH0 PUSH2 0x411 DUP6 DUP3 DUP7 ADD PUSH2 0x3A5 JUMP JUMPDEST SWAP3 POP POP PUSH1 0x20 PUSH2 0x422 DUP6 DUP3 DUP7 ADD PUSH2 0x3DA JUMP JUMPDEST SWAP2 POP POP SWAP3 POP SWAP3 SWAP1 POP JUMP JUMPDEST PUSH2 0x435 DUP2 PUSH2 0x344 JUMP JUMPDEST DUP2 EQ PUSH2 0x43F JUMPI PUSH0 PUSH0 REVERT JUMPDEST POP JUMP JUMPDEST PUSH0 DUP2 CALLDATALOAD SWAP1 POP PUSH2 0x450 DUP2 PUSH2 0x42C JUMP JUMPDEST SWAP3 SWAP2 POP POP JUMP JUMPDEST PUSH0 PUSH1 0x20 DUP3 DUP5 SUB SLT ISZERO PUSH2 0x46B JUMPI PUSH2 0x46A PUSH2 0x38B JUMP JUMPDEST JUMPDEST PUSH0 PUSH2 0x478 DUP5 DUP3 DUP6 ADD PUSH2 0x442 JUMP JUMPDEST SWAP2 POP POP SWAP3 SWAP2 POP POP JUMP JUMPDEST PUSH0 PUSH1 0x20 DUP3 DUP5 SUB SLT ISZERO PUSH2 0x496 JUMPI PUSH2 0x495 PUSH2 0x38B JUMP JUMPDEST JUMPDEST PUSH0 PUSH2 0x4A3 DUP5 DUP3 DUP6 ADD PUSH2 0x3A5 JUMP JUMPDEST SWAP2 POP POP SWAP3 SWAP2 POP POP JUMP JUMPDEST PUSH0 DUP3 DUP3 MSTORE PUSH1 0x20 DUP3 ADD SWAP1 POP SWAP3 SWAP2 POP POP JUMP JUMPDEST PUSH32 0x4F6E6C79206F776E65722063616E2063616C6C20746869732066756E6374696F PUSH0 DUP3 ADD MSTORE PUSH32 0x6E2E000000000000000000000000000000000000000000000000000000000000 PUSH1 0x20 DUP3 ADD MSTORE POP JUMP JUMPDEST PUSH0 PUSH2 0x516 PUSH1 0x22 DUP4 PUSH2 0x4AC JUMP JUMPDEST SWAP2 POP PUSH2 0x521 DUP3 PUSH2 0x4BC JUMP JUMPDEST PUSH1 0x40 DUP3 ADD SWAP1 POP SWAP2 SWAP1 POP JUMP JUMPDEST PUSH0 PUSH1 0x20 DUP3 ADD SWAP1 POP DUP2 DUP2 SUB PUSH0 DUP4 ADD MSTORE PUSH2 0x543 DUP2 PUSH2 0x50A JUMP JUMPDEST SWAP1 POP SWAP2 SWAP1 POP JUMP INVALID LOG2 PUSH5 0x6970667358 0x22 SLT KECCAK256 0xB0 SWAP3 0xE9 0xEA EXP EXTCODEHASH CALLVALUE ADD MSTORE CALLDATACOPY DUP2 0xC7 0xF 0x28 0xC7 SWAPN 0x90 0x23 0xE9 PUSH26 0x887D943742C5227687A9204B64736F6C634300081E0033000000 "
				},
				"gasEstimates": {
					"creation": {
						"codeDepositCost": "281600",
						"executionCost": "29585",
						"totalCost": "311185"
					},
					"external": {
						"": "1742",
						"changeOwner(address)": "26904",
						"data()": "2425",
						"f(uint256)": "infinite",
						"f(uint256,bool)": "infinite"
					}
				},
				"methodIdentifiers": {
					"changeOwner(address)": "a6f9dae1",
					"data()": "73d4a13a",
					"f(uint256)": "b3de648b",
					"f(uint256,bool)": "2735acb7"
				}
			},
			"storageLayout": {
				"storage": [
					{
						"astId": 13,
						"contract": "ReceiveExample.sol:ReceiveExample",
						"label": "owner",
						"offset": 0,
						"slot": "0",
						"type": "t_address"
					},
					{
						"astId": 16,
						"contract": "ReceiveExample.sol:ReceiveExample",
						"label": "data",
						"offset": 0,
						"slot": "1",
						"type": "t_uint256"
					}
				],
				"types": {
					"t_address": {
						"encoding": "inplace",
						"label": "address",
						"numberOfBytes": "20"
					},
					"t_uint256": {
						"encoding": "inplace",
						"label": "uint256",
						"numberOfBytes": "32"
					}
				}
			},
			"userdoc": {
				"kind": "user",
				"methods": {},
				"version": 1
			}
		}
	}
}