{
	"errorhandle.sol": {
		"TryCatchExample": {
			"abi": [
				{
					"inputs": [],
					"stateMutability": "nonpayable",
					"type": "constructor"
				},
				{
					"inputs": [],
					"name": "tryCatchTest",
					"outputs": [
						{
							"internalType": "uint256",
							"name": "",
							"type": "uint256"
						},
						{
							"internalType": "string",
							"name": "",
							"type": "string"
						}
					],
					"stateMutability": "nonpayable",
					"type": "function"
				},
				{
					"inputs": [],
					"name": "tryCatchWithRevert",
					"outputs": [
						{
							"internalType": "string",
							"name": "",
							"type": "string"
						}
					],
					"stateMutability": "nonpayable",
					"type": "function"
				}
			],
			"devdoc": {
				"kind": "dev",
				"methods": {},
				"version": 1
			},
			"evm": {
				"assembly": "    /* \"errorhandle.sol\":264:987  contract TryCatchExample {... */\n  mstore(0x40, 0x80)\n    /* \"errorhandle.sol\":336:410  constructor() {... */\n  callvalue\n  dup1\n  iszero\n  tag_1\n  jumpi\n  revert(0x00, 0x00)\ntag_1:\n  pop\n    /* \"errorhandle.sol\":380:402  new ExternalContract() */\n  mload(0x40)\n  tag_4\n  swap1\n  tag_5\n  jump\t// in\ntag_4:\n  mload(0x40)\n  dup1\n  swap2\n  sub\n  swap1\n  0x00\n  create\n  dup1\n  iszero\n  dup1\n  iszero\n  tag_6\n  jumpi\n  returndatacopy(0x00, 0x00, returndatasize)\n  revert(0x00, returndatasize)\ntag_6:\n  pop\n    /* \"errorhandle.sol\":361:377  externalContract */\n  0x00\n  0x00\n    /* \"errorhandle.sol\":361:402  externalContract = new ExternalContract() */\n  0x0100\n  exp\n  dup2\n  sload\n  dup2\n  0xffffffffffffffffffffffffffffffffffffffff\n  mul\n  not\n  and\n  swap1\n  dup4\n  0xffffffffffffffffffffffffffffffffffffffff\n  and\n  mul\n  or\n  swap1\n  sstore\n  pop\n    /* \"errorhandle.sol\":264:987  contract TryCatchExample {... */\n  jump(tag_7)\ntag_5:\n  dataSize(sub_1)\n  dup1\n  dataOffset(sub_1)\n  dup4\n  codecopy\n  add\n  swap1\n  jump\t// out\ntag_7:\n  dataSize(sub_0)\n  dup1\n  dataOffset(sub_0)\n  0x00\n  codecopy\n  0x00\n  return\nstop\n\nsub_0: assembly {\n        /* \"errorhandle.sol\":264:987  contract TryCatchExample {... */\n      mstore(0x40, 0x80)\n      callvalue\n      dup1\n      iszero\n      tag_1\n      jumpi\n      revert(0x00, 0x00)\n    tag_1:\n      pop\n      jumpi(tag_2, lt(calldatasize, 0x04))\n      shr(0xe0, calldataload(0x00))\n      dup1\n      0x9bf5863b\n      eq\n      tag_3\n      jumpi\n      dup1\n      0xd0e20648\n      eq\n      tag_4\n      jumpi\n    tag_2:\n      revert(0x00, 0x00)\n        /* \"errorhandle.sol\":416:654  function tryCatchTest() public returns (uint, string memory) {... */\n    tag_3:\n      tag_5\n      tag_6\n      jump\t// in\n    tag_5:\n      mload(0x40)\n      tag_7\n      swap3\n      swap2\n      swap1\n      tag_8\n      jump\t// in\n    tag_7:\n      mload(0x40)\n      dup1\n      swap2\n      sub\n      swap1\n      return\n        /* \"errorhandle.sol\":660:984  function tryCatchWithRevert() public returns (string memory) {... */\n    tag_4:\n      tag_9\n      tag_10\n      jump\t// in\n    tag_9:\n      mload(0x40)\n      tag_11\n      swap2\n      swap1\n      tag_12\n      jump\t// in\n    tag_11:\n      mload(0x40)\n      dup1\n      swap2\n      sub\n      swap1\n      return\n        /* \"errorhandle.sol\":416:654  function tryCatchTest() public returns (uint, string memory) {... */\n    tag_6:\n        /* \"errorhandle.sol\":456:460  uint */\n      0x00\n        /* \"errorhandle.sol\":462:475  string memory */\n      0x60\n        /* \"errorhandle.sol\":492:508  externalContract */\n      0x00\n      0x00\n      swap1\n      sload\n      swap1\n      0x0100\n      exp\n      swap1\n      div\n      0xffffffffffffffffffffffffffffffffffffffff\n      and\n        /* \"errorhandle.sol\":492:517  externalContract.getValue */\n      0xffffffffffffffffffffffffffffffffffffffff\n      and\n      0x20965255\n        /* \"errorhandle.sol\":492:519  externalContract.getValue() */\n      mload(0x40)\n      dup2\n      0xffffffff\n      and\n      0xe0\n      shl\n      dup2\n      mstore\n      0x04\n      add\n      0x20\n      mload(0x40)\n      dup1\n      dup4\n      sub\n      dup2\n      dup7\n      gas\n      staticcall\n      swap3\n      pop\n      pop\n      pop\n      dup1\n      iszero\n      tag_14\n      jumpi\n      pop\n      mload(0x40)\n      returndatasize\n      not(0x1f)\n      0x1f\n      dup3\n      add\n      and\n      dup3\n      add\n      dup1\n      0x40\n      mstore\n      pop\n      dup2\n      add\n      swap1\n      tag_15\n      swap2\n      swap1\n      tag_16\n      jump\t// in\n    tag_15:\n      0x01\n    tag_14:\n        /* \"errorhandle.sol\":488:647  try externalContract.getValue() returns (uint value) {... */\n      tag_17\n      jumpi\n        /* \"errorhandle.sol\":623:624  0 */\n      0x00\n        /* \"errorhandle.sol\":615:635  return (0, \"Failed\") */\n      mload(0x40)\n      dup1\n      0x40\n      add\n      0x40\n      mstore\n      dup1\n      0x06\n      dup2\n      mstore\n      0x20\n      add\n      0x4661696c65640000000000000000000000000000000000000000000000000000\n      dup2\n      mstore\n      pop\n      swap2\n      pop\n      swap2\n      pop\n      jump(tag_13)\n        /* \"errorhandle.sol\":488:647  try externalContract.getValue() returns (uint value) {... */\n    tag_17:\n        /* \"errorhandle.sol\":564:569  value */\n      dup1\n        /* \"errorhandle.sol\":556:581  return (value, \"Success\") */\n      mload(0x40)\n      dup1\n      0x40\n      add\n      0x40\n      mstore\n      dup1\n      0x07\n      dup2\n      mstore\n      0x20\n      add\n      0x5375636365737300000000000000000000000000000000000000000000000000\n      dup2\n      mstore\n      pop\n      swap3\n      pop\n      swap3\n      pop\n      pop\n        /* \"errorhandle.sol\":416:654  function tryCatchTest() public returns (uint, string memory) {... */\n    tag_13:\n      swap1\n      swap2\n      jump\t// out\n        /* \"errorhandle.sol\":660:984  function tryCatchWithRevert() public returns (string memory) {... */\n    tag_10:\n        /* \"errorhandle.sol\":706:719  string memory */\n      0x60\n        /* \"errorhandle.sol\":736:752  externalContract */\n      0x00\n      0x00\n      swap1\n      sload\n      swap1\n      0x0100\n      exp\n      swap1\n      div\n      0xffffffffffffffffffffffffffffffffffffffff\n      and\n        /* \"errorhandle.sol\":736:763  externalContract.willRevert */\n      0xffffffffffffffffffffffffffffffffffffffff\n      and\n      0x73ee93b3\n        /* \"errorhandle.sol\":736:765  externalContract.willRevert() */\n      mload(0x40)\n      dup2\n      0xffffffff\n      and\n      0xe0\n      shl\n      dup2\n      mstore\n      0x04\n      add\n      0x00\n      mload(0x40)\n      dup1\n      dup4\n      sub\n      dup2\n      dup7\n      dup1\n      extcodesize\n      iszero\n      dup1\n      iszero\n      tag_23\n      jumpi\n      revert(0x00, 0x00)\n    tag_23:\n      pop\n      gas\n      staticcall\n      swap3\n      pop\n      pop\n      pop\n      dup1\n      iszero\n      tag_24\n      jumpi\n      pop\n      0x01\n    tag_24:\n        /* \"errorhandle.sol\":732:977  try externalContract.willRevert() {... */\n      tag_25\n      jumpi\n      tag_29\n      tag_30\n      jump\t// in\n    tag_29:\n      dup1\n      0x08c379a0\n      sub\n      tag_28\n      jumpi\n      pop\n      tag_31\n      tag_32\n      jump\t// in\n    tag_31:\n      dup1\n      tag_33\n      jumpi\n      pop\n      jump(tag_27)\n    tag_33:\n        /* \"errorhandle.sol\":880:886  reason */\n      dup1\n        /* \"errorhandle.sol\":873:886  return reason */\n      swap2\n      pop\n      pop\n      jump(tag_22)\n        /* \"errorhandle.sol\":732:977  try externalContract.willRevert() {... */\n    tag_28:\n      pop\n    tag_27:\n        /* \"errorhandle.sol\":943:965  return \"Unknown error\" */\n      mload(0x40)\n      dup1\n      0x40\n      add\n      0x40\n      mstore\n      dup1\n      0x0d\n      dup2\n      mstore\n      0x20\n      add\n      0x556e6b6e6f776e206572726f7200000000000000000000000000000000000000\n      dup2\n      mstore\n      pop\n      swap1\n      pop\n      jump(tag_22)\n        /* \"errorhandle.sol\":732:977  try externalContract.willRevert() {... */\n    tag_25:\n        /* \"errorhandle.sol\":781:811  return \"This will not execute\" */\n      mload(0x40)\n      dup1\n      0x40\n      add\n      0x40\n      mstore\n      dup1\n      0x15\n      dup2\n      mstore\n      0x20\n      add\n      0x546869732077696c6c206e6f7420657865637574650000000000000000000000\n      dup2\n      mstore\n      pop\n      swap1\n      pop\n        /* \"errorhandle.sol\":660:984  function tryCatchWithRevert() public returns (string memory) {... */\n    tag_22:\n      swap1\n      jump\t// out\n        /* \"#utility.yul\":7:84   */\n    tag_35:\n        /* \"#utility.yul\":44:51   */\n      0x00\n        /* \"#utility.yul\":73:78   */\n      dup2\n        /* \"#utility.yul\":62:78   */\n      swap1\n      pop\n        /* \"#utility.yul\":7:84   */\n      swap2\n      swap1\n      pop\n      jump\t// out\n        /* \"#utility.yul\":90:208   */\n    tag_36:\n        /* \"#utility.yul\":177:201   */\n      tag_53\n        /* \"#utility.yul\":195:200   */\n      dup2\n        /* \"#utility.yul\":177:201   */\n      tag_35\n      jump\t// in\n    tag_53:\n        /* \"#utility.yul\":172:175   */\n      dup3\n        /* \"#utility.yul\":165:202   */\n      mstore\n        /* \"#utility.yul\":90:208   */\n      pop\n      pop\n      jump\t// out\n        /* \"#utility.yul\":214:313   */\n    tag_37:\n        /* \"#utility.yul\":266:272   */\n      0x00\n        /* \"#utility.yul\":300:305   */\n      dup2\n        /* \"#utility.yul\":294:306   */\n      mload\n        /* \"#utility.yul\":284:306   */\n      swap1\n      pop\n        /* \"#utility.yul\":214:313   */\n      swap2\n      swap1\n      pop\n      jump\t// out\n        /* \"#utility.yul\":319:488   */\n    tag_38:\n        /* \"#utility.yul\":403:414   */\n      0x00\n        /* \"#utility.yul\":437:443   */\n      dup3\n        /* \"#utility.yul\":432:435   */\n      dup3\n        /* \"#utility.yul\":425:444   */\n      mstore\n        /* \"#utility.yul\":477:481   */\n      0x20\n        /* \"#utility.yul\":472:475   */\n      dup3\n        /* \"#utility.yul\":468:482   */\n      add\n        /* \"#utility.yul\":453:482   */\n      swap1\n      pop\n        /* \"#utility.yul\":319:488   */\n      swap3\n      swap2\n      pop\n      pop\n      jump\t// out\n        /* \"#utility.yul\":494:633   */\n    tag_39:\n        /* \"#utility.yul\":583:589   */\n      dup3\n        /* \"#utility.yul\":578:581   */\n      dup2\n        /* \"#utility.yul\":573:576   */\n      dup4\n        /* \"#utility.yul\":567:590   */\n      mcopy\n        /* \"#utility.yul\":624:625   */\n      0x00\n        /* \"#utility.yul\":615:621   */\n      dup4\n        /* \"#utility.yul\":610:613   */\n      dup4\n        /* \"#utility.yul\":606:622   */\n      add\n        /* \"#utility.yul\":599:626   */\n      mstore\n        /* \"#utility.yul\":494:633   */\n      pop\n      pop\n      pop\n      jump\t// out\n        /* \"#utility.yul\":639:741   */\n    tag_40:\n        /* \"#utility.yul\":680:686   */\n      0x00\n        /* \"#utility.yul\":731:733   */\n      0x1f\n        /* \"#utility.yul\":727:734   */\n      not\n        /* \"#utility.yul\":722:724   */\n      0x1f\n        /* \"#utility.yul\":715:720   */\n      dup4\n        /* \"#utility.yul\":711:725   */\n      add\n        /* \"#utility.yul\":707:735   */\n      and\n        /* \"#utility.yul\":697:735   */\n      swap1\n      pop\n        /* \"#utility.yul\":639:741   */\n      swap2\n      swap1\n      pop\n      jump\t// out\n        /* \"#utility.yul\":747:1124   */\n    tag_41:\n        /* \"#utility.yul\":835:838   */\n      0x00\n        /* \"#utility.yul\":863:902   */\n      tag_59\n        /* \"#utility.yul\":896:901   */\n      dup3\n        /* \"#utility.yul\":863:902   */\n      tag_37\n      jump\t// in\n    tag_59:\n        /* \"#utility.yul\":918:989   */\n      tag_60\n        /* \"#utility.yul\":982:988   */\n      dup2\n        /* \"#utility.yul\":977:980   */\n      dup6\n        /* \"#utility.yul\":918:989   */\n      tag_38\n      jump\t// in\n    tag_60:\n        /* \"#utility.yul\":911:989   */\n      swap4\n      pop\n        /* \"#utility.yul\":998:1063   */\n      tag_61\n        /* \"#utility.yul\":1056:1062   */\n      dup2\n        /* \"#utility.yul\":1051:1054   */\n      dup6\n        /* \"#utility.yul\":1044:1048   */\n      0x20\n        /* \"#utility.yul\":1037:1042   */\n      dup7\n        /* \"#utility.yul\":1033:1049   */\n      add\n        /* \"#utility.yul\":998:1063   */\n      tag_39\n      jump\t// in\n    tag_61:\n        /* \"#utility.yul\":1088:1117   */\n      tag_62\n        /* \"#utility.yul\":1110:1116   */\n      dup2\n        /* \"#utility.yul\":1088:1117   */\n      tag_40\n      jump\t// in\n    tag_62:\n        /* \"#utility.yul\":1083:1086   */\n      dup5\n        /* \"#utility.yul\":1079:1118   */\n      add\n        /* \"#utility.yul\":1072:1118   */\n      swap2\n      pop\n        /* \"#utility.yul\":839:1124   */\n      pop\n        /* \"#utility.yul\":747:1124   */\n      swap3\n      swap2\n      pop\n      pop\n      jump\t// out\n        /* \"#utility.yul\":1130:1553   */\n    tag_8:\n        /* \"#utility.yul\":1271:1275   */\n      0x00\n        /* \"#utility.yul\":1309:1311   */\n      0x40\n        /* \"#utility.yul\":1298:1307   */\n      dup3\n        /* \"#utility.yul\":1294:1312   */\n      add\n        /* \"#utility.yul\":1286:1312   */\n      swap1\n      pop\n        /* \"#utility.yul\":1322:1393   */\n      tag_64\n        /* \"#utility.yul\":1390:1391   */\n      0x00\n        /* \"#utility.yul\":1379:1388   */\n      dup4\n        /* \"#utility.yul\":1375:1392   */\n      add\n        /* \"#utility.yul\":1366:1372   */\n      dup6\n        /* \"#utility.yul\":1322:1393   */\n      tag_36\n      jump\t// in\n    tag_64:\n        /* \"#utility.yul\":1440:1449   */\n      dup2\n        /* \"#utility.yul\":1434:1438   */\n      dup2\n        /* \"#utility.yul\":1430:1450   */\n      sub\n        /* \"#utility.yul\":1425:1427   */\n      0x20\n        /* \"#utility.yul\":1414:1423   */\n      dup4\n        /* \"#utility.yul\":1410:1428   */\n      add\n        /* \"#utility.yul\":1403:1451   */\n      mstore\n        /* \"#utility.yul\":1468:1546   */\n      tag_65\n        /* \"#utility.yul\":1541:1545   */\n      dup2\n        /* \"#utility.yul\":1532:1538   */\n      dup5\n        /* \"#utility.yul\":1468:1546   */\n      tag_41\n      jump\t// in\n    tag_65:\n        /* \"#utility.yul\":1460:1546   */\n      swap1\n      pop\n        /* \"#utility.yul\":1130:1553   */\n      swap4\n      swap3\n      pop\n      pop\n      pop\n      jump\t// out\n        /* \"#utility.yul\":1559:1872   */\n    tag_12:\n        /* \"#utility.yul\":1672:1676   */\n      0x00\n        /* \"#utility.yul\":1710:1712   */\n      0x20\n        /* \"#utility.yul\":1699:1708   */\n      dup3\n        /* \"#utility.yul\":1695:1713   */\n      add\n        /* \"#utility.yul\":1687:1713   */\n      swap1\n      pop\n        /* \"#utility.yul\":1759:1768   */\n      dup2\n        /* \"#utility.yul\":1753:1757   */\n      dup2\n        /* \"#utility.yul\":1749:1769   */\n      sub\n        /* \"#utility.yul\":1745:1746   */\n      0x00\n        /* \"#utility.yul\":1734:1743   */\n      dup4\n        /* \"#utility.yul\":1730:1747   */\n      add\n        /* \"#utility.yul\":1723:1770   */\n      mstore\n        /* \"#utility.yul\":1787:1865   */\n      tag_67\n        /* \"#utility.yul\":1860:1864   */\n      dup2\n        /* \"#utility.yul\":1851:1857   */\n      dup5\n        /* \"#utility.yul\":1787:1865   */\n      tag_41\n      jump\t// in\n    tag_67:\n        /* \"#utility.yul\":1779:1865   */\n      swap1\n      pop\n        /* \"#utility.yul\":1559:1872   */\n      swap3\n      swap2\n      pop\n      pop\n      jump\t// out\n        /* \"#utility.yul\":1878:1953   */\n    tag_42:\n        /* \"#utility.yul\":1911:1917   */\n      0x00\n        /* \"#utility.yul\":1944:1946   */\n      0x40\n        /* \"#utility.yul\":1938:1947   */\n      mload\n        /* \"#utility.yul\":1928:1947   */\n      swap1\n      pop\n        /* \"#utility.yul\":1878:1953   */\n      swap1\n      jump\t// out\n        /* \"#utility.yul\":1959:2076   */\n    tag_43:\n        /* \"#utility.yul\":2068:2069   */\n      0x00\n        /* \"#utility.yul\":2065:2066   */\n      0x00\n        /* \"#utility.yul\":2058:2070   */\n      revert\n        /* \"#utility.yul\":2205:2327   */\n    tag_45:\n        /* \"#utility.yul\":2278:2302   */\n      tag_72\n        /* \"#utility.yul\":2296:2301   */\n      dup2\n        /* \"#utility.yul\":2278:2302   */\n      tag_35\n      jump\t// in\n    tag_72:\n        /* \"#utility.yul\":2271:2276   */\n      dup2\n        /* \"#utility.yul\":2268:2303   */\n      eq\n        /* \"#utility.yul\":2258:2321   */\n      tag_73\n      jumpi\n        /* \"#utility.yul\":2317:2318   */\n      0x00\n        /* \"#utility.yul\":2314:2315   */\n      0x00\n        /* \"#utility.yul\":2307:2319   */\n      revert\n        /* \"#utility.yul\":2258:2321   */\n    tag_73:\n        /* \"#utility.yul\":2205:2327   */\n      pop\n      jump\t// out\n        /* \"#utility.yul\":2333:2476   */\n    tag_46:\n        /* \"#utility.yul\":2390:2395   */\n      0x00\n        /* \"#utility.yul\":2421:2427   */\n      dup2\n        /* \"#utility.yul\":2415:2428   */\n      mload\n        /* \"#utility.yul\":2406:2428   */\n      swap1\n      pop\n        /* \"#utility.yul\":2437:2470   */\n      tag_75\n        /* \"#utility.yul\":2464:2469   */\n      dup2\n        /* \"#utility.yul\":2437:2470   */\n      tag_45\n      jump\t// in\n    tag_75:\n        /* \"#utility.yul\":2333:2476   */\n      swap3\n      swap2\n      pop\n      pop\n      jump\t// out\n        /* \"#utility.yul\":2482:2833   */\n    tag_16:\n        /* \"#utility.yul\":2552:2558   */\n      0x00\n        /* \"#utility.yul\":2601:2603   */\n      0x20\n        /* \"#utility.yul\":2589:2598   */\n      dup3\n        /* \"#utility.yul\":2580:2587   */\n      dup5\n        /* \"#utility.yul\":2576:2599   */\n      sub\n        /* \"#utility.yul\":2572:2604   */\n      slt\n        /* \"#utility.yul\":2569:2688   */\n      iszero\n      tag_77\n      jumpi\n        /* \"#utility.yul\":2607:2686   */\n      tag_78\n      tag_43\n      jump\t// in\n    tag_78:\n        /* \"#utility.yul\":2569:2688   */\n    tag_77:\n        /* \"#utility.yul\":2727:2728   */\n      0x00\n        /* \"#utility.yul\":2752:2816   */\n      tag_79\n        /* \"#utility.yul\":2808:2815   */\n      dup5\n        /* \"#utility.yul\":2799:2805   */\n      dup3\n        /* \"#utility.yul\":2788:2797   */\n      dup6\n        /* \"#utility.yul\":2784:2806   */\n      add\n        /* \"#utility.yul\":2752:2816   */\n      tag_46\n      jump\t// in\n    tag_79:\n        /* \"#utility.yul\":2742:2816   */\n      swap2\n      pop\n        /* \"#utility.yul\":2698:2826   */\n      pop\n        /* \"#utility.yul\":2482:2833   */\n      swap3\n      swap2\n      pop\n      pop\n      jump\t// out\n        /* \"#utility.yul\":2839:2945   */\n    tag_47:\n        /* \"#utility.yul\":2883:2891   */\n      0x00\n        /* \"#utility.yul\":2932:2937   */\n      dup2\n        /* \"#utility.yul\":2927:2930   */\n      0xe0\n        /* \"#utility.yul\":2923:2938   */\n      shr\n        /* \"#utility.yul\":2902:2938   */\n      swap1\n      pop\n        /* \"#utility.yul\":2839:2945   */\n      swap2\n      swap1\n      pop\n      jump\t// out\n        /* \"#utility.yul\":2951:3134   */\n    tag_30:\n        /* \"#utility.yul\":2986:2989   */\n      0x00\n        /* \"#utility.yul\":3024:3025   */\n      0x03\n        /* \"#utility.yul\":3006:3022   */\n      returndatasize\n        /* \"#utility.yul\":3003:3026   */\n      gt\n        /* \"#utility.yul\":3000:3128   */\n      iszero\n      tag_82\n      jumpi\n        /* \"#utility.yul\":3062:3063   */\n      0x04\n        /* \"#utility.yul\":3059:3060   */\n      0x00\n        /* \"#utility.yul\":3056:3057   */\n      0x00\n        /* \"#utility.yul\":3041:3064   */\n      returndatacopy\n        /* \"#utility.yul\":3084:3118   */\n      tag_83\n        /* \"#utility.yul\":3115:3116   */\n      0x00\n        /* \"#utility.yul\":3109:3117   */\n      mload\n        /* \"#utility.yul\":3084:3118   */\n      tag_47\n      jump\t// in\n    tag_83:\n        /* \"#utility.yul\":3077:3118   */\n      swap1\n      pop\n        /* \"#utility.yul\":3000:3128   */\n    tag_82:\n        /* \"#utility.yul\":2951:3134   */\n      swap1\n      jump\t// out\n        /* \"#utility.yul\":3140:3320   */\n    tag_48:\n        /* \"#utility.yul\":3188:3265   */\n      0x4e487b7100000000000000000000000000000000000000000000000000000000\n        /* \"#utility.yul\":3185:3186   */\n      0x00\n        /* \"#utility.yul\":3178:3266   */\n      mstore\n        /* \"#utility.yul\":3285:3289   */\n      0x41\n        /* \"#utility.yul\":3282:3283   */\n      0x04\n        /* \"#utility.yul\":3275:3290   */\n      mstore\n        /* \"#utility.yul\":3309:3313   */\n      0x24\n        /* \"#utility.yul\":3306:3307   */\n      0x00\n        /* \"#utility.yul\":3299:3314   */\n      revert\n        /* \"#utility.yul\":3326:3607   */\n    tag_49:\n        /* \"#utility.yul\":3409:3436   */\n      tag_86\n        /* \"#utility.yul\":3431:3435   */\n      dup3\n        /* \"#utility.yul\":3409:3436   */\n      tag_40\n      jump\t// in\n    tag_86:\n        /* \"#utility.yul\":3401:3407   */\n      dup2\n        /* \"#utility.yul\":3397:3437   */\n      add\n        /* \"#utility.yul\":3539:3545   */\n      dup2\n        /* \"#utility.yul\":3527:3537   */\n      dup2\n        /* \"#utility.yul\":3524:3546   */\n      lt\n        /* \"#utility.yul\":3503:3521   */\n      0xffffffffffffffff\n        /* \"#utility.yul\":3491:3501   */\n      dup3\n        /* \"#utility.yul\":3488:3522   */\n      gt\n        /* \"#utility.yul\":3485:3547   */\n      or\n        /* \"#utility.yul\":3482:3570   */\n      iszero\n      tag_87\n      jumpi\n        /* \"#utility.yul\":3550:3568   */\n      tag_88\n      tag_48\n      jump\t// in\n    tag_88:\n        /* \"#utility.yul\":3482:3570   */\n    tag_87:\n        /* \"#utility.yul\":3590:3600   */\n      dup1\n        /* \"#utility.yul\":3586:3588   */\n      0x40\n        /* \"#utility.yul\":3579:3601   */\n      mstore\n        /* \"#utility.yul\":3369:3607   */\n      pop\n        /* \"#utility.yul\":3326:3607   */\n      pop\n      pop\n      jump\t// out\n        /* \"#utility.yul\":3613:4324   */\n    tag_32:\n        /* \"#utility.yul\":3652:3655   */\n      0x00\n        /* \"#utility.yul\":3690:3694   */\n      0x44\n        /* \"#utility.yul\":3672:3688   */\n      returndatasize\n        /* \"#utility.yul\":3669:3695   */\n      lt\n        /* \"#utility.yul\":3698:3703   */\n      tag_89\n        /* \"#utility.yul\":3666:3705   */\n      jumpi\n        /* \"#utility.yul\":3727:3747   */\n      tag_91\n      tag_42\n      jump\t// in\n    tag_91:\n        /* \"#utility.yul\":3802:3803   */\n      0x04\n        /* \"#utility.yul\":3784:3800   */\n      returndatasize\n        /* \"#utility.yul\":3780:3804   */\n      sub\n        /* \"#utility.yul\":3777:3778   */\n      0x04\n        /* \"#utility.yul\":3771:3775   */\n      dup3\n        /* \"#utility.yul\":3756:3805   */\n      returndatacopy\n        /* \"#utility.yul\":3835:3839   */\n      dup1\n        /* \"#utility.yul\":3829:3840   */\n      mload\n        /* \"#utility.yul\":3934:3950   */\n      returndatasize\n        /* \"#utility.yul\":3927:3931   */\n      0x24\n        /* \"#utility.yul\":3919:3925   */\n      dup3\n        /* \"#utility.yul\":3915:3932   */\n      add\n        /* \"#utility.yul\":3912:3951   */\n      gt\n        /* \"#utility.yul\":3879:3897   */\n      0xffffffffffffffff\n        /* \"#utility.yul\":3871:3877   */\n      dup3\n        /* \"#utility.yul\":3868:3898   */\n      gt\n        /* \"#utility.yul\":3852:3965   */\n      or\n        /* \"#utility.yul\":3849:3995   */\n      iszero\n      tag_92\n      jumpi\n        /* \"#utility.yul\":3980:3985   */\n      pop\n      pop\n      jump(tag_89)\n        /* \"#utility.yul\":3849:3995   */\n    tag_92:\n        /* \"#utility.yul\":4026:4032   */\n      dup1\n        /* \"#utility.yul\":4020:4024   */\n      dup3\n        /* \"#utility.yul\":4016:4033   */\n      add\n        /* \"#utility.yul\":4062:4065   */\n      dup1\n        /* \"#utility.yul\":4056:4066   */\n      mload\n        /* \"#utility.yul\":4089:4107   */\n      0xffffffffffffffff\n        /* \"#utility.yul\":4081:4087   */\n      dup2\n        /* \"#utility.yul\":4078:4108   */\n      gt\n        /* \"#utility.yul\":4075:4118   */\n      iszero\n      tag_93\n      jumpi\n        /* \"#utility.yul\":4111:4116   */\n      pop\n      pop\n      pop\n      pop\n      jump(tag_89)\n        /* \"#utility.yul\":4075:4118   */\n    tag_93:\n        /* \"#utility.yul\":4159:4165   */\n      dup1\n        /* \"#utility.yul\":4152:4156   */\n      0x20\n        /* \"#utility.yul\":4147:4150   */\n      dup4\n        /* \"#utility.yul\":4143:4157   */\n      add\n        /* \"#utility.yul\":4139:4166   */\n      add\n        /* \"#utility.yul\":4218:4219   */\n      0x04\n        /* \"#utility.yul\":4200:4216   */\n      returndatasize\n        /* \"#utility.yul\":4196:4220   */\n      sub\n        /* \"#utility.yul\":4190:4194   */\n      dup6\n        /* \"#utility.yul\":4186:4221   */\n      add\n        /* \"#utility.yul\":4181:4184   */\n      dup2\n        /* \"#utility.yul\":4178:4222   */\n      gt\n        /* \"#utility.yul\":4175:4232   */\n      iszero\n      tag_94\n      jumpi\n        /* \"#utility.yul\":4225:4230   */\n      pop\n      pop\n      pop\n      pop\n      pop\n      jump(tag_89)\n        /* \"#utility.yul\":4175:4232   */\n    tag_94:\n        /* \"#utility.yul\":4242:4299   */\n      tag_95\n        /* \"#utility.yul\":4290:4296   */\n      dup3\n        /* \"#utility.yul\":4284:4288   */\n      0x20\n        /* \"#utility.yul\":4280:4297   */\n      add\n        /* \"#utility.yul\":4272:4278   */\n      dup6\n        /* \"#utility.yul\":4268:4298   */\n      add\n        /* \"#utility.yul\":4262:4266   */\n      dup7\n        /* \"#utility.yul\":4242:4299   */\n      tag_49\n      jump\t// in\n    tag_95:\n        /* \"#utility.yul\":4315:4318   */\n      dup3\n        /* \"#utility.yul\":4308:4318   */\n      swap6\n      pop\n        /* \"#utility.yul\":3656:4324   */\n      pop\n      pop\n      pop\n      pop\n      pop\n        /* \"#utility.yul\":3613:4324   */\n    tag_89:\n      swap1\n      jump\t// out\n\n    auxdata: 0xa264697066735822122040838e1f47029b99d6e24c1886705fa82c8d5045b03c95372cb8912f245896a964736f6c634300081e0033\n}\n\nsub_1: assembly {\n        /* \"errorhandle.sol\":56:262  contract ExternalContract {... */\n      mstore(0x40, 0x80)\n      callvalue\n      dup1\n      iszero\n      tag_1\n      jumpi\n      revert(0x00, 0x00)\n    tag_1:\n      pop\n      dataSize(sub_0)\n      dup1\n      dataOffset(sub_0)\n      0x00\n      codecopy\n      0x00\n      return\n    stop\n\n    sub_0: assembly {\n            /* \"errorhandle.sol\":56:262  contract ExternalContract {... */\n          mstore(0x40, 0x80)\n          callvalue\n          dup1\n          iszero\n          tag_1\n          jumpi\n          revert(0x00, 0x00)\n        tag_1:\n          pop\n          jumpi(tag_2, lt(calldatasize, 0x04))\n          shr(0xe0, calldataload(0x00))\n          dup1\n          0x20965255\n          eq\n          tag_3\n          jumpi\n          dup1\n          0x73ee93b3\n          eq\n          tag_4\n          jumpi\n        tag_2:\n          revert(0x00, 0x00)\n            /* \"errorhandle.sol\":89:164  function getValue() public pure returns (uint) {... */\n        tag_3:\n          tag_5\n          tag_6\n          jump\t// in\n        tag_5:\n          mload(0x40)\n          tag_7\n          swap2\n          swap1\n          tag_8\n          jump\t// in\n        tag_7:\n          mload(0x40)\n          dup1\n          swap2\n          sub\n          swap1\n          return\n            /* \"errorhandle.sol\":170:259  function willRevert() public pure {... */\n        tag_4:\n          tag_9\n          tag_10\n          jump\t// in\n        tag_9:\n          stop\n            /* \"errorhandle.sol\":89:164  function getValue() public pure returns (uint) {... */\n        tag_6:\n            /* \"errorhandle.sol\":130:134  uint */\n          0x00\n            /* \"errorhandle.sol\":154:156  42 */\n          0x2a\n            /* \"errorhandle.sol\":147:156  return 42 */\n          swap1\n          pop\n            /* \"errorhandle.sol\":89:164  function getValue() public pure returns (uint) {... */\n          swap1\n          jump\t// out\n            /* \"errorhandle.sol\":170:259  function willRevert() public pure {... */\n        tag_10:\n            /* \"errorhandle.sol\":215:251  revert(\"This function always fails\") */\n          mload(0x40)\n          0x08c379a000000000000000000000000000000000000000000000000000000000\n          dup2\n          mstore\n          0x04\n          add\n          tag_13\n          swap1\n          tag_14\n          jump\t// in\n        tag_13:\n          mload(0x40)\n          dup1\n          swap2\n          sub\n          swap1\n          revert\n            /* \"#utility.yul\":7:84   */\n        tag_15:\n            /* \"#utility.yul\":44:51   */\n          0x00\n            /* \"#utility.yul\":73:78   */\n          dup2\n            /* \"#utility.yul\":62:78   */\n          swap1\n          pop\n            /* \"#utility.yul\":7:84   */\n          swap2\n          swap1\n          pop\n          jump\t// out\n            /* \"#utility.yul\":90:208   */\n        tag_16:\n            /* \"#utility.yul\":177:201   */\n          tag_23\n            /* \"#utility.yul\":195:200   */\n          dup2\n            /* \"#utility.yul\":177:201   */\n          tag_15\n          jump\t// in\n        tag_23:\n            /* \"#utility.yul\":172:175   */\n          dup3\n            /* \"#utility.yul\":165:202   */\n          mstore\n            /* \"#utility.yul\":90:208   */\n          pop\n          pop\n          jump\t// out\n            /* \"#utility.yul\":214:436   */\n        tag_8:\n            /* \"#utility.yul\":307:311   */\n          0x00\n            /* \"#utility.yul\":345:347   */\n          0x20\n            /* \"#utility.yul\":334:343   */\n          dup3\n            /* \"#utility.yul\":330:348   */\n          add\n            /* \"#utility.yul\":322:348   */\n          swap1\n          pop\n            /* \"#utility.yul\":358:429   */\n          tag_25\n            /* \"#utility.yul\":426:427   */\n          0x00\n            /* \"#utility.yul\":415:424   */\n          dup4\n            /* \"#utility.yul\":411:428   */\n          add\n            /* \"#utility.yul\":402:408   */\n          dup5\n            /* \"#utility.yul\":358:429   */\n          tag_16\n          jump\t// in\n        tag_25:\n            /* \"#utility.yul\":214:436   */\n          swap3\n          swap2\n          pop\n          pop\n          jump\t// out\n            /* \"#utility.yul\":442:611   */\n        tag_17:\n            /* \"#utility.yul\":526:537   */\n          0x00\n            /* \"#utility.yul\":560:566   */\n          dup3\n            /* \"#utility.yul\":555:558   */\n          dup3\n            /* \"#utility.yul\":548:567   */\n          mstore\n            /* \"#utility.yul\":600:604   */\n          0x20\n            /* \"#utility.yul\":595:598   */\n          dup3\n            /* \"#utility.yul\":591:605   */\n          add\n            /* \"#utility.yul\":576:605   */\n          swap1\n          pop\n            /* \"#utility.yul\":442:611   */\n          swap3\n          swap2\n          pop\n          pop\n          jump\t// out\n            /* \"#utility.yul\":617:793   */\n        tag_18:\n            /* \"#utility.yul\":757:785   */\n          0x546869732066756e6374696f6e20616c77617973206661696c73000000000000\n            /* \"#utility.yul\":753:754   */\n          0x00\n            /* \"#utility.yul\":745:751   */\n          dup3\n            /* \"#utility.yul\":741:755   */\n          add\n            /* \"#utility.yul\":734:786   */\n          mstore\n            /* \"#utility.yul\":617:793   */\n          pop\n          jump\t// out\n            /* \"#utility.yul\":799:1165   */\n        tag_19:\n            /* \"#utility.yul\":941:944   */\n          0x00\n            /* \"#utility.yul\":962:1029   */\n          tag_29\n            /* \"#utility.yul\":1026:1028   */\n          0x1a\n            /* \"#utility.yul\":1021:1024   */\n          dup4\n            /* \"#utility.yul\":962:1029   */\n          tag_17\n          jump\t// in\n        tag_29:\n            /* \"#utility.yul\":955:1029   */\n          swap2\n          pop\n            /* \"#utility.yul\":1038:1131   */\n          tag_30\n            /* \"#utility.yul\":1127:1130   */\n          dup3\n            /* \"#utility.yul\":1038:1131   */\n          tag_18\n          jump\t// in\n        tag_30:\n            /* \"#utility.yul\":1156:1158   */\n          0x20\n            /* \"#utility.yul\":1151:1154   */\n          dup3\n            /* \"#utility.yul\":1147:1159   */\n          add\n            /* \"#utility.yul\":1140:1159   */\n          swap1\n          pop\n            /* \"#utility.yul\":799:1165   */\n          swap2\n          swap1\n          pop\n          jump\t// out\n            /* \"#utility.yul\":1171:1590   */\n        tag_14:\n            /* \"#utility.yul\":1337:1341   */\n          0x00\n            /* \"#utility.yul\":1375:1377   */\n          0x20\n            /* \"#utility.yul\":1364:1373   */\n          dup3\n            /* \"#utility.yul\":1360:1378   */\n          add\n            /* \"#utility.yul\":1352:1378   */\n          swap1\n          pop\n            /* \"#utility.yul\":1424:1433   */\n          dup2\n            /* \"#utility.yul\":1418:1422   */\n          dup2\n            /* \"#utility.yul\":1414:1434   */\n          sub\n            /* \"#utility.yul\":1410:1411   */\n          0x00\n            /* \"#utility.yul\":1399:1408   */\n          dup4\n            /* \"#utility.yul\":1395:1412   */\n          add\n            /* \"#utility.yul\":1388:1435   */\n          mstore\n            /* \"#utility.yul\":1452:1583   */\n          tag_32\n            /* \"#utility.yul\":1578:1582   */\n          dup2\n            /* \"#utility.yul\":1452:1583   */\n          tag_19\n          jump\t// in\n        tag_32:\n            /* \"#utility.yul\":1444:1583   */\n          swap1\n          pop\n            /* \"#utility.yul\":1171:1590   */\n          swap2\n          swap1\n          pop\n          jump\t// out\n\n        auxdata: 0xa2646970667358221220e1fb34d7e32368582f19ebaaf05217891b1c875ca6453ad1a8458ed4aece007364736f6c634300081e0033\n    }\n}\n",
				"bytecode": {
					"linkReferences": {},
					"object": "6080604052348015600e575f5ffd5b506040516019906074565b604051809103905ff0801580156031573d5f5f3e3d5ffd5b505f5f6101000a81548173ffffffffffffffffffffffffffffffffffffffff021916908373ffffffffffffffffffffffffffffffffffffffff1602179055506081565b61019e806105bf83390190565b6105318061008e5f395ff3fe608060405234801561000f575f5ffd5b5060043610610034575f3560e01c80639bf5863b14610038578063d0e2064814610057575b5f5ffd5b610040610075565b60405161004e929190610333565b60405180910390f35b61005f610185565b60405161006c9190610361565b60405180910390f35b5f60605f5f9054906101000a900473ffffffffffffffffffffffffffffffffffffffff1673ffffffffffffffffffffffffffffffffffffffff1663209652556040518163ffffffff1660e01b8152600401602060405180830381865afa92505050801561010057506040513d601f19601f820116820180604052508101906100fd91906103b8565b60015b610144575f6040518060400160405280600681526020017f4661696c6564000000000000000000000000000000000000000000000000000081525091509150610181565b806040518060400160405280600781526020017f537563636573730000000000000000000000000000000000000000000000000081525092509250505b9091565b60605f5f9054906101000a900473ffffffffffffffffffffffffffffffffffffffff1673ffffffffffffffffffffffffffffffffffffffff166373ee93b36040518163ffffffff1660e01b81526004015f6040518083038186803b1580156101eb575f5ffd5b505afa9250505080156101fc575060015b61026f576102086103ef565b806308c379a003610230575061021c61046c565b806102275750610232565b809150506102a8565b505b6040518060400160405280600d81526020017f556e6b6e6f776e206572726f720000000000000000000000000000000000000081525090506102a8565b6040518060400160405280601581526020017f546869732077696c6c206e6f742065786563757465000000000000000000000081525090505b90565b5f819050919050565b6102bd816102ab565b82525050565b5f81519050919050565b5f82825260208201905092915050565b8281835e5f83830152505050565b5f601f19601f8301169050919050565b5f610305826102c3565b61030f81856102cd565b935061031f8185602086016102dd565b610328816102eb565b840191505092915050565b5f6040820190506103465f8301856102b4565b818103602083015261035881846102fb565b90509392505050565b5f6020820190508181035f83015261037981846102fb565b905092915050565b5f604051905090565b5f5ffd5b610397816102ab565b81146103a1575f5ffd5b50565b5f815190506103b28161038e565b92915050565b5f602082840312156103cd576103cc61038a565b5b5f6103da848285016103a4565b91505092915050565b5f8160e01c9050919050565b5f60033d111561040b5760045f5f3e6104085f516103e3565b90505b90565b7f4e487b71000000000000000000000000000000000000000000000000000000005f52604160045260245ffd5b610444826102eb565b810181811067ffffffffffffffff821117156104635761046261040e565b5b80604052505050565b5f60443d106104f85761047d610381565b60043d036004823e80513d602482011167ffffffffffffffff821117156104a55750506104f8565b808201805167ffffffffffffffff8111156104c357505050506104f8565b80602083010160043d0385018111156104e05750505050506104f8565b6104ef8260200185018661043b565b82955050505050505b9056fea264697066735822122040838e1f47029b99d6e24c1886705fa82c8d5045b03c95372cb8912f245896a964736f6c634300081e00336080604052348015600e575f5ffd5b506101828061001c5f395ff3fe608060405234801561000f575f5ffd5b5060043610610034575f3560e01c8063209652551461003857806373ee93b314610056575b5f5ffd5b610040610060565b60405161004d91906100bb565b60405180910390f35b61005e610068565b005b5f602a905090565b6040517f08c379a000000000000000000000000000000000000000000000000000000000815260040161009a9061012e565b60405180910390fd5b5f819050919050565b6100b5816100a3565b82525050565b5f6020820190506100ce5f8301846100ac565b92915050565b5f82825260208201905092915050565b7f546869732066756e6374696f6e20616c77617973206661696c730000000000005f82015250565b5f610118601a836100d4565b9150610123826100e4565b602082019050919050565b5f6020820190508181035f8301526101458161010c565b905091905056fea2646970667358221220e1fb34d7e32368582f19ebaaf05217891b1c875ca6453ad1a8458ed4aece007364736f6c634300081e0033",
					"opcodes": "PUSH1 0x80 PUSH1 0x40 MSTORE CALLVALUE DUP1 ISZERO PUSH1 0xE JUMPI PUSH0 PUSH0 REVERT JUMPDEST POP PUSH1 0x40 MLOAD PUSH1 0x19 SWAP1 PUSH1 0x74 JUMP JUMPDEST PUSH1 0x40 MLOAD DUP1 SWAP2 SUB SWAP1 PUSH0 CREATE DUP1 ISZERO DUP1 ISZERO PUSH1 0x31 JUMPI RETURNDATASIZE PUSH0 PUSH0 RETURNDATACOPY RETURNDATASIZE PUSH0 REVERT JUMPDEST POP PUSH0 PUSH0 PUSH2 0x100 EXP DUP2 SLOAD DUP2 PUSH20 0xFFFFFFFFFFFFFFFFFFFFFFFFFFFFFFFFFFFFFFFF MUL NOT AND SWAP1 DUP4 PUSH20 0xFFFFFFFFFFFFFFFFFFFFFFFFFFFFFFFFFFFFFFFF AND MUL OR SWAP1 SSTORE POP PUSH1 0x81 JUMP JUMPDEST PUSH2 0x19E DUP1 PUSH2 0x5BF DUP4 CODECOPY ADD SWAP1 JUMP JUMPDEST PUSH2 0x531 DUP1 PUSH2 0x8E PUSH0 CODECOPY PUSH0 RETURN INVALID PUSH1 0x80 PUSH1 0x40 MSTORE CALLVALUE DUP1 ISZERO PUSH2 0xF JUMPI PUSH0 PUSH0 REVERT JUMPDEST POP PUSH1 0x4 CALLDATASIZE LT PUSH2 0x34 JUMPI PUSH0 CALLDATALOAD PUSH1 0xE0 SHR DUP1 PUSH4 0x9BF5863B EQ PUSH2 0x38 JUMPI DUP1 PUSH4 0xD0E20648 EQ PUSH2 0x57 JUMPI JUMPDEST PUSH0 PUSH0 REVERT JUMPDEST PUSH2 0x40 PUSH2 0x75 JUMP JUMPDEST PUSH1 0x40 MLOAD PUSH2 0x4E SWAP3 SWAP2 SWAP1 PUSH2 0x333 JUMP JUMPDEST PUSH1 0x40 MLOAD DUP1 SWAP2 SUB SWAP1 RETURN JUMPDEST PUSH2 0x5F PUSH2 0x185 JUMP JUMPDEST PUSH1 0x40 MLOAD PUSH2 0x6C SWAP2 SWAP1 PUSH2 0x361 JUMP JUMPDEST PUSH1 0x40 MLOAD DUP1 SWAP2 SUB SWAP1 RETURN JUMPDEST PUSH0 PUSH1 0x60 PUSH0 PUSH0 SWAP1 SLOAD SWAP1 PUSH2 0x100 EXP SWAP1 DIV PUSH20 0xFFFFFFFFFFFFFFFFFFFFFFFFFFFFFFFFFFFFFFFF AND PUSH20 0xFFFFFFFFFFFFFFFFFFFFFFFFFFFFFFFFFFFFFFFF AND PUSH4 0x20965255 PUSH1 0x40 MLOAD DUP2 PUSH4 0xFFFFFFFF AND PUSH1 0xE0 SHL DUP2 MSTORE PUSH1 0x4 ADD PUSH1 0x20 PUSH1 0x40 MLOAD DUP1 DUP4 SUB DUP2 DUP7 GAS STATICCALL SWAP3 POP POP POP DUP1 ISZERO PUSH2 0x100 JUMPI POP PUSH1 0x40 MLOAD RETURNDATASIZE PUSH1 0x1F NOT PUSH1 0x1F DUP3 ADD AND DUP3 ADD DUP1 PUSH1 0x40 MSTORE POP DUP2 ADD SWAP1 PUSH2 0xFD SWAP2 SWAP1 PUSH2 0x3B8 JUMP JUMPDEST PUSH1 0x1 JUMPDEST PUSH2 0x144 JUMPI PUSH0 PUSH1 0x40 MLOAD DUP1 PUSH1 0x40 ADD PUSH1 0x40 MSTORE DUP1 PUSH1 0x6 DUP2 MSTORE PUSH1 0x20 ADD PUSH32 0x4661696C65640000000000000000000000000000000000000000000000000000 DUP2 MSTORE POP SWAP2 POP SWAP2 POP PUSH2 0x181 JUMP JUMPDEST DUP1 PUSH1 0x40 MLOAD DUP1 PUSH1 0x40 ADD PUSH1 0x40 MSTORE DUP1 PUSH1 0x7 DUP2 MSTORE PUSH1 0x20 ADD PUSH32 0x5375636365737300000000000000000000000000000000000000000000000000 DUP2 MSTORE POP SWAP3 POP SWAP3 POP POP JUMPDEST SWAP1 SWAP2 JUMP JUMPDEST PUSH1 0x60 PUSH0 PUSH0 SWAP1 SLOAD SWAP1 PUSH2 0x100 EXP SWAP1 DIV PUSH20 0xFFFFFFFFFFFFFFFFFFFFFFFFFFFFFFFFFFFFFFFF AND PUSH20 0xFFFFFFFFFFFFFFFFFFFFFFFFFFFFFFFFFFFFFFFF AND PUSH4 0x73EE93B3 PUSH1 0x40 MLOAD DUP2 PUSH4 0xFFFFFFFF AND PUSH1 0xE0 SHL DUP2 MSTORE PUSH1 0x4 ADD PUSH0 PUSH1 0x40 MLOAD DUP1 DUP4 SUB DUP2 DUP7 DUP1 EXTCODESIZE ISZERO DUP1 ISZERO PUSH2 0x1EB JUMPI PUSH0 PUSH0 REVERT JUMPDEST POP GAS STATICCALL SWAP3 POP POP POP DUP1 ISZERO PUSH2 0x1FC JUMPI POP PUSH1 0x1 JUMPDEST PUSH2 0x26F JUMPI PUSH2 0x208 PUSH2 0x3EF JUMP JUMPDEST DUP1 PUSH4 0x8C379A0 SUB PUSH2 0x230 JUMPI POP PUSH2 0x21C PUSH2 0x46C JUMP JUMPDEST DUP1 PUSH2 0x227 JUMPI POP PUSH2 0x232 JUMP JUMPDEST DUP1 SWAP2 POP POP PUSH2 0x2A8 JUMP JUMPDEST POP JUMPDEST PUSH1 0x40 MLOAD DUP1 PUSH1 0x40 ADD PUSH1 0x40 MSTORE DUP1 PUSH1 0xD DUP2 MSTORE PUSH1 0x20 ADD PUSH32 0x556E6B6E6F776E206572726F7200000000000000000000000000000000000000 DUP2 MSTORE POP SWAP1 POP PUSH2 0x2A8 JUMP JUMPDEST PUSH1 0x40 MLOAD DUP1 PUSH1 0x40 ADD PUSH1 0x40 MSTORE DUP1 PUSH1 0x15 DUP2 MSTORE PUSH1 0x20 ADD PUSH32 0x546869732077696C6C206E6F7420657865637574650000000000000000000000 DUP2 MSTORE POP SWAP1 POP JUMPDEST SWAP1 JUMP JUMPDEST PUSH0 DUP2 SWAP1 POP SWAP2 SWAP1 POP JUMP JUMPDEST PUSH2 0x2BD DUP2 PUSH2 0x2AB JUMP JUMPDEST DUP3 MSTORE POP POP JUMP JUMPDEST PUSH0 DUP2 MLOAD SWAP1 POP SWAP2 SWAP1 POP JUMP JUMPDEST PUSH0 DUP3 DUP3 MSTORE PUSH1 0x20 DUP3 ADD SWAP1 POP SWAP3 SWAP2 POP POP JUMP JUMPDEST DUP3 DUP2 DUP4 MCOPY PUSH0 DUP4 DUP4 ADD MSTORE POP POP POP JUMP JUMPDEST PUSH0 PUSH1 0x1F NOT PUSH1 0x1F DUP4 ADD AND SWAP1 POP SWAP2 SWAP1 POP JUMP JUMPDEST PUSH0 PUSH2 0x305 DUP3 PUSH2 0x2C3 JUMP JUMPDEST PUSH2 0x30F DUP2 DUP6 PUSH2 0x2CD JUMP JUMPDEST SWAP4 POP PUSH2 0x31F DUP2 DUP6 PUSH1 0x20 DUP7 ADD PUSH2 0x2DD JUMP JUMPDEST PUSH2 0x328 DUP2 PUSH2 0x2EB JUMP JUMPDEST DUP5 ADD SWAP2 POP POP SWAP3 SWAP2 POP POP JUMP JUMPDEST PUSH0 PUSH1 0x40 DUP3 ADD SWAP1 POP PUSH2 0x346 PUSH0 DUP4 ADD DUP6 PUSH2 0x2B4 JUMP JUMPDEST DUP2 DUP2 SUB PUSH1 0x20 DUP4 ADD MSTORE PUSH2 0x358 DUP2 DUP5 PUSH2 0x2FB JUMP JUMPDEST SWAP1 POP SWAP4 SWAP3 POP POP POP JUMP JUMPDEST PUSH0 PUSH1 0x20 DUP3 ADD SWAP1 POP DUP2 DUP2 SUB PUSH0 DUP4 ADD MSTORE PUSH2 0x379 DUP2 DUP5 PUSH2 0x2FB JUMP JUMPDEST SWAP1 POP SWAP3 SWAP2 POP POP JUMP JUMPDEST PUSH0 PUSH1 0x40 MLOAD SWAP1 POP SWAP1 JUMP JUMPDEST PUSH0 PUSH0 REVERT JUMPDEST PUSH2 0x397 DUP2 PUSH2 0x2AB JUMP JUMPDEST DUP2 EQ PUSH2 0x3A1 JUMPI PUSH0 PUSH0 REVERT JUMPDEST POP JUMP JUMPDEST PUSH0 DUP2 MLOAD SWAP1 POP PUSH2 0x3B2 DUP2 PUSH2 0x38E JUMP JUMPDEST SWAP3 SWAP2 POP POP JUMP JUMPDEST PUSH0 PUSH1 0x20 DUP3 DUP5 SUB SLT ISZERO PUSH2 0x3CD JUMPI PUSH2 0x3CC PUSH2 0x38A JUMP JUMPDEST JUMPDEST PUSH0 PUSH2 0x3DA DUP5 DUP3 DUP6 ADD PUSH2 0x3A4 JUMP JUMPDEST SWAP2 POP POP SWAP3 SWAP2 POP POP JUMP JUMPDEST PUSH0 DUP2 PUSH1 0xE0 SHR SWAP1 POP SWAP2 SWAP1 POP JUMP JUMPDEST PUSH0 PUSH1 0x3 RETURNDATASIZE GT ISZERO PUSH2 0x40B JUMPI PUSH1 0x4 PUSH0 PUSH0 RETURNDATACOPY PUSH2 0x408 PUSH0 MLOAD PUSH2 0x3E3 JUMP JUMPDEST SWAP1 POP JUMPDEST SWAP1 JUMP JUMPDEST PUSH32 0x4E487B7100000000000000000000000000000000000000000000000000000000 PUSH0 MSTORE PUSH1 0x41 PUSH1 0x4 MSTORE PUSH1 0x24 PUSH0 REVERT JUMPDEST PUSH2 0x444 DUP3 PUSH2 0x2EB JUMP JUMPDEST DUP2 ADD DUP2 DUP2 LT PUSH8 0xFFFFFFFFFFFFFFFF DUP3 GT OR ISZERO PUSH2 0x463 JUMPI PUSH2 0x462 PUSH2 0x40E JUMP JUMPDEST JUMPDEST DUP1 PUSH1 0x40 MSTORE POP POP POP JUMP JUMPDEST PUSH0 PUSH1 0x44 RETURNDATASIZE LT PUSH2 0x4F8 JUMPI PUSH2 0x47D PUSH2 0x381 JUMP JUMPDEST PUSH1 0x4 RETURNDATASIZE SUB PUSH1 0x4 DUP3 RETURNDATACOPY DUP1 MLOAD RETURNDATASIZE PUSH1 0x24 DUP3 ADD GT PUSH8 0xFFFFFFFFFFFFFFFF DUP3 GT OR ISZERO PUSH2 0x4A5 JUMPI POP POP PUSH2 0x4F8 JUMP JUMPDEST DUP1 DUP3 ADD DUP1 MLOAD PUSH8 0xFFFFFFFFFFFFFFFF DUP2 GT ISZERO PUSH2 0x4C3 JUMPI POP POP POP POP PUSH2 0x4F8 JUMP JUMPDEST DUP1 PUSH1 0x20 DUP4 ADD ADD PUSH1 0x4 RETURNDATASIZE SUB DUP6 ADD DUP2 GT ISZERO PUSH2 0x4E0 JUMPI POP POP POP POP POP PUSH2 0x4F8 JUMP JUMPDEST PUSH2 0x4EF DUP3 PUSH1 0x20 ADD DUP6 ADD DUP7 PUSH2 0x43B JUMP JUMPDEST DUP3 SWAP6 POP POP POP POP POP POP JUMPDEST SWAP1 JUMP INVALID LOG2 PUSH5 0x6970667358 0x22 SLT KECCAK256 BLOCKHASH DUP4 DUP15 0x1F SELFBALANCE MUL SWAP12 SWAP10 0xD6 0xE2 0x4C XOR DUP7 PUSH17 0x5FA82C8D5045B03C95372CB8912F245896 0xA9 PUSH5 0x736F6C6343 STOP ADDMOD 0x1E STOP CALLER PUSH1 0x80 PUSH1 0x40 MSTORE CALLVALUE DUP1 ISZERO PUSH1 0xE JUMPI PUSH0 PUSH0 REVERT JUMPDEST POP PUSH2 0x182 DUP1 PUSH2 0x1C PUSH0 CODECOPY PUSH0 RETURN INVALID PUSH1 0x80 PUSH1 0x40 MSTORE CALLVALUE DUP1 ISZERO PUSH2 0xF JUMPI PUSH0 PUSH0 REVERT JUMPDEST POP PUSH1 0x4 CALLDATASIZE LT PUSH2 0x34 JUMPI PUSH0 CALLDATALOAD PUSH1 0xE0 SHR DUP1 PUSH4 0x20965255 EQ PUSH2 0x38 JUMPI DUP1 PUSH4 0x73EE93B3 EQ PUSH2 0x56 JUMPI JUMPDEST PUSH0 PUSH0 REVERT JUMPDEST PUSH2 0x40 PUSH2 0x60 JUMP JUMPDEST PUSH1 0x40 MLOAD PUSH2 0x4D SWAP2 SWAP1 PUSH2 0xBB JUMP JUMPDEST PUSH1 0x40 MLOAD DUP1 SWAP2 SUB SWAP1 RETURN JUMPDEST PUSH2 0x5E PUSH2 0x68 JUMP JUMPDEST STOP JUMPDEST PUSH0 PUSH1 0x2A SWAP1 POP SWAP1 JUMP JUMPDEST PUSH1 0x40 MLOAD PUSH32 0x8C379A000000000000000000000000000000000000000000000000000000000 DUP2 MSTORE PUSH1 0x4 ADD PUSH2 0x9A SWAP1 PUSH2 0x12E JUMP JUMPDEST PUSH1 0x40 MLOAD DUP1 SWAP2 SUB SWAP1 REVERT JUMPDEST PUSH0 DUP2 SWAP1 POP SWAP2 SWAP1 POP JUMP JUMPDEST PUSH2 0xB5 DUP2 PUSH2 0xA3 JUMP JUMPDEST DUP3 MSTORE POP POP JUMP JUMPDEST PUSH0 PUSH1 0x20 DUP3 ADD SWAP1 POP PUSH2 0xCE PUSH0 DUP4 ADD DUP5 PUSH2 0xAC JUMP JUMPDEST SWAP3 SWAP2 POP POP JUMP JUMPDEST PUSH0 DUP3 DUP3 MSTORE PUSH1 0x20 DUP3 ADD SWAP1 POP SWAP3 SWAP2 POP POP JUMP JUMPDEST PUSH32 0x546869732066756E6374696F6E20616C77617973206661696C73000000000000 PUSH0 DUP3 ADD MSTORE POP JUMP JUMPDEST PUSH0 PUSH2 0x118 PUSH1 0x1A DUP4 PUSH2 0xD4 JUMP JUMPDEST SWAP2 POP PUSH2 0x123 DUP3 PUSH2 0xE4 JUMP JUMPDEST PUSH1 0x20 DUP3 ADD SWAP1 POP SWAP2 SWAP1 POP JUMP JUMPDEST PUSH0 PUSH1 0x20 DUP3 ADD SWAP1 POP DUP2 DUP2 SUB PUSH0 DUP4 ADD MSTORE PUSH2 0x145 DUP2 PUSH2 0x10C JUMP JUMPDEST SWAP1 POP SWAP2 SWAP1 POP JUMP INVALID LOG2 PUSH5 0x6970667358 0x22 SLT KECCAK256 RJUMPI 0xFB34 0xD7 CALLF 0x2368 PC 0x2F NOT 0xEB 0xAA CREATE MSTORE OR DUP10 SHL SHR DUP8 TLOAD 0xA6 GASLIMIT GASPRICE DATALOADN 0xA845 DUP15 0xD4 0xAE 0xCE STOP PUSH20 0x64736F6C634300081E0033000000000000000000 "
				},
				"gasEstimates": {
					"creation": {
						"codeDepositCost": "265800",
						"executionCost": "infinite",
						"totalCost": "infinite"
					},
					"external": {
						"tryCatchTest()": "infinite",
						"tryCatchWithRevert()": "infinite"
					}
				},
				"methodIdentifiers": {
					"tryCatchTest()": "9bf5863b",
					"tryCatchWithRevert()": "d0e20648"
				}
			},
			"storageLayout": {
				"storage": [
					{
						"astId": 21,
						"contract": "errorhandle.sol:TryCatchExample",
						"label": "externalContract",
						"offset": 0,
						"slot": "0",
						"type": "t_contract(ExternalContract)18"
					}
				],
				"types": {
					"t_contract(ExternalContract)18": {
						"encoding": "inplace",
						"label": "contract ExternalContract",
						"numberOfBytes": "20"
					}
				}
			},
			"userdoc": {
				"kind": "user",
				"methods": {},
				"version": 1
			}
		}
	}
}