{
	"task01/Array.sol": {
		"Array": {
			"abi": [
				{
					"inputs": [],
					"name": "getarr",
					"outputs": [
						{
							"internalType": "uint256[]",
							"name": "",
							"type": "uint256[]"
						}
					],
					"stateMutability": "view",
					"type": "function"
				}
			],
			"devdoc": {
				"kind": "dev",
				"methods": {},
				"version": 1
			},
			"evm": {
				"assembly": "    /* \"task01/Array.sol\":62:940  contract Array {... */\n  mstore(0x40, 0x80)\n  callvalue\n  dup1\n  iszero\n  tag_1\n  jumpi\n  revert(0x00, 0x00)\ntag_1:\n  pop\n  dataSize(sub_0)\n  dup1\n  dataOffset(sub_0)\n  0x00\n  codecopy\n  0x00\n  return\nstop\n\nsub_0: assembly {\n        /* \"task01/Array.sol\":62:940  contract Array {... */\n      mstore(0x40, 0x80)\n      callvalue\n      dup1\n      iszero\n      tag_1\n      jumpi\n      revert(0x00, 0x00)\n    tag_1:\n      pop\n      jumpi(tag_2, lt(calldatasize, 0x04))\n      shr(0xe0, calldataload(0x00))\n      dup1\n      0x6bc7deae\n      eq\n      tag_3\n      jumpi\n    tag_2:\n      revert(0x00, 0x00)\n        /* \"task01/Array.sol\":88:935  function getarr() view  public returns (uint[] memory) {... */\n    tag_3:\n      tag_4\n      tag_5\n      jump\t// in\n    tag_4:\n      mload(0x40)\n      tag_6\n      swap2\n      swap1\n      tag_7\n      jump\t// in\n    tag_6:\n      mload(0x40)\n      dup1\n      swap2\n      sub\n      swap1\n      return\n    tag_5:\n        /* \"task01/Array.sol\":128:141  uint[] memory */\n      0x60\n        /* \"task01/Array.sol\":154:176  uint8[5]  memory  arr1 */\n      0x00\n        /* \"task01/Array.sol\":154:190  uint8[5]  memory  arr1 = [1,2,3,4,5] */\n      mload(0x40)\n      dup1\n      0xa0\n      add\n      0x40\n      mstore\n      dup1\n        /* \"task01/Array.sol\":180:181  1 */\n      0x01\n        /* \"task01/Array.sol\":154:190  uint8[5]  memory  arr1 = [1,2,3,4,5] */\n      0xff\n      and\n      dup2\n      mstore\n      0x20\n      add\n        /* \"task01/Array.sol\":182:183  2 */\n      0x02\n        /* \"task01/Array.sol\":154:190  uint8[5]  memory  arr1 = [1,2,3,4,5] */\n      0xff\n      and\n      dup2\n      mstore\n      0x20\n      add\n        /* \"task01/Array.sol\":184:185  3 */\n      0x03\n        /* \"task01/Array.sol\":154:190  uint8[5]  memory  arr1 = [1,2,3,4,5] */\n      0xff\n      and\n      dup2\n      mstore\n      0x20\n      add\n        /* \"task01/Array.sol\":186:187  4 */\n      0x04\n        /* \"task01/Array.sol\":154:190  uint8[5]  memory  arr1 = [1,2,3,4,5] */\n      0xff\n      and\n      dup2\n      mstore\n      0x20\n      add\n        /* \"task01/Array.sol\":188:189  5 */\n      0x05\n        /* \"task01/Array.sol\":154:190  uint8[5]  memory  arr1 = [1,2,3,4,5] */\n      0xff\n      and\n      dup2\n      mstore\n      pop\n      swap1\n      pop\n        /* \"task01/Array.sol\":201:222  uint8[5] memory  arr2 */\n      0x00\n        /* \"task01/Array.sol\":201:238  uint8[5] memory  arr2 = [4, 5, 6,8,7] */\n      mload(0x40)\n      dup1\n      0xa0\n      add\n      0x40\n      mstore\n      dup1\n        /* \"task01/Array.sol\":226:227  4 */\n      0x04\n        /* \"task01/Array.sol\":201:238  uint8[5] memory  arr2 = [4, 5, 6,8,7] */\n      0xff\n      and\n      dup2\n      mstore\n      0x20\n      add\n        /* \"task01/Array.sol\":229:230  5 */\n      0x05\n        /* \"task01/Array.sol\":201:238  uint8[5] memory  arr2 = [4, 5, 6,8,7] */\n      0xff\n      and\n      dup2\n      mstore\n      0x20\n      add\n        /* \"task01/Array.sol\":232:233  6 */\n      0x06\n        /* \"task01/Array.sol\":201:238  uint8[5] memory  arr2 = [4, 5, 6,8,7] */\n      0xff\n      and\n      dup2\n      mstore\n      0x20\n      add\n        /* \"task01/Array.sol\":234:235  8 */\n      0x08\n        /* \"task01/Array.sol\":201:238  uint8[5] memory  arr2 = [4, 5, 6,8,7] */\n      0xff\n      and\n      dup2\n      mstore\n      0x20\n      add\n        /* \"task01/Array.sol\":236:237  7 */\n      0x07\n        /* \"task01/Array.sol\":201:238  uint8[5] memory  arr2 = [4, 5, 6,8,7] */\n      0xff\n      and\n      dup2\n      mstore\n      pop\n      swap1\n      pop\n        /* \"task01/Array.sol\":249:269  uint[] memory result */\n      0x00\n        /* \"task01/Array.sol\":297:308  arr2.length */\n      0x05\n        /* \"task01/Array.sol\":283:294  arr1.length */\n      dup1\n        /* \"task01/Array.sol\":283:308  arr1.length + arr2.length */\n      tag_9\n      swap2\n      swap1\n      tag_10\n      jump\t// in\n    tag_9:\n        /* \"task01/Array.sol\":272:309  new uint[](arr1.length + arr2.length) */\n      0xffffffffffffffff\n      dup2\n      gt\n      iszero\n      tag_11\n      jumpi\n      tag_12\n      tag_13\n      jump\t// in\n    tag_12:\n    tag_11:\n      mload(0x40)\n      swap1\n      dup1\n      dup3\n      mstore\n      dup1\n      0x20\n      mul\n      0x20\n      add\n      dup3\n      add\n      0x40\n      mstore\n      dup1\n      iszero\n      tag_14\n      jumpi\n      dup2\n      0x20\n      add\n      0x20\n      dup3\n      mul\n      dup1\n      calldatasize\n      dup4\n      calldatacopy\n      dup1\n      dup3\n      add\n      swap2\n      pop\n      pop\n      swap1\n      pop\n    tag_14:\n      pop\n        /* \"task01/Array.sol\":249:309  uint[] memory result = new uint[](arr1.length + arr2.length) */\n      swap1\n      pop\n        /* \"task01/Array.sol\":320:330  uint index */\n      0x00\n        /* \"task01/Array.sol\":333:334  0 */\n      0x00\n        /* \"task01/Array.sol\":320:334  uint index = 0 */\n      swap1\n      pop\n        /* \"task01/Array.sol\":350:356  uint i */\n      0x00\n        /* \"task01/Array.sol\":359:360  0 */\n      0x00\n        /* \"task01/Array.sol\":350:360  uint i = 0 */\n      swap1\n      pop\n        /* \"task01/Array.sol\":345:436  for (uint i = 0; i < arr1.length; i++) {... */\n    tag_15:\n        /* \"task01/Array.sol\":366:377  arr1.length */\n      0x05\n        /* \"task01/Array.sol\":362:363  i */\n      dup2\n        /* \"task01/Array.sol\":362:377  i < arr1.length */\n      lt\n        /* \"task01/Array.sol\":345:436  for (uint i = 0; i < arr1.length; i++) {... */\n      iszero\n      tag_16\n      jumpi\n        /* \"task01/Array.sol\":417:421  arr1 */\n      dup5\n        /* \"task01/Array.sol\":422:423  i */\n      dup2\n        /* \"task01/Array.sol\":417:424  arr1[i] */\n      0x05\n      dup2\n      lt\n      tag_18\n      jumpi\n      tag_19\n      tag_20\n      jump\t// in\n    tag_19:\n    tag_18:\n      0x20\n      mul\n      add\n      mload\n        /* \"task01/Array.sol\":399:424  result[index++] = arr1[i] */\n      0xff\n      and\n        /* \"task01/Array.sol\":399:405  result */\n      dup4\n        /* \"task01/Array.sol\":406:413  index++ */\n      dup4\n      dup1\n      tag_21\n      swap1\n      tag_22\n      jump\t// in\n    tag_21:\n      swap5\n      pop\n        /* \"task01/Array.sol\":399:414  result[index++] */\n      dup2\n      mload\n      dup2\n      lt\n      tag_23\n      jumpi\n      tag_24\n      tag_20\n      jump\t// in\n    tag_24:\n    tag_23:\n      0x20\n      mul\n      0x20\n      add\n      add\n        /* \"task01/Array.sol\":399:424  result[index++] = arr1[i] */\n      dup2\n      dup2\n      mstore\n      pop\n      pop\n        /* \"task01/Array.sol\":379:382  i++ */\n      dup1\n      dup1\n      0x01\n      add\n      swap2\n      pop\n      pop\n        /* \"task01/Array.sol\":345:436  for (uint i = 0; i < arr1.length; i++) {... */\n      jump(tag_15)\n    tag_16:\n      pop\n        /* \"task01/Array.sol\":451:457  uint i */\n      0x00\n        /* \"task01/Array.sol\":460:461  0 */\n      0x00\n        /* \"task01/Array.sol\":451:461  uint i = 0 */\n      swap1\n      pop\n        /* \"task01/Array.sol\":446:537  for (uint i = 0; i < arr2.length; i++) {... */\n    tag_25:\n        /* \"task01/Array.sol\":467:478  arr2.length */\n      0x05\n        /* \"task01/Array.sol\":463:464  i */\n      dup2\n        /* \"task01/Array.sol\":463:478  i < arr2.length */\n      lt\n        /* \"task01/Array.sol\":446:537  for (uint i = 0; i < arr2.length; i++) {... */\n      iszero\n      tag_26\n      jumpi\n        /* \"task01/Array.sol\":518:522  arr2 */\n      dup4\n        /* \"task01/Array.sol\":523:524  i */\n      dup2\n        /* \"task01/Array.sol\":518:525  arr2[i] */\n      0x05\n      dup2\n      lt\n      tag_28\n      jumpi\n      tag_29\n      tag_20\n      jump\t// in\n    tag_29:\n    tag_28:\n      0x20\n      mul\n      add\n      mload\n        /* \"task01/Array.sol\":500:525  result[index++] = arr2[i] */\n      0xff\n      and\n        /* \"task01/Array.sol\":500:506  result */\n      dup4\n        /* \"task01/Array.sol\":507:514  index++ */\n      dup4\n      dup1\n      tag_30\n      swap1\n      tag_22\n      jump\t// in\n    tag_30:\n      swap5\n      pop\n        /* \"task01/Array.sol\":500:515  result[index++] */\n      dup2\n      mload\n      dup2\n      lt\n      tag_31\n      jumpi\n      tag_32\n      tag_20\n      jump\t// in\n    tag_32:\n    tag_31:\n      0x20\n      mul\n      0x20\n      add\n      add\n        /* \"task01/Array.sol\":500:525  result[index++] = arr2[i] */\n      dup2\n      dup2\n      mstore\n      pop\n      pop\n        /* \"task01/Array.sol\":480:483  i++ */\n      dup1\n      dup1\n      0x01\n      add\n      swap2\n      pop\n      pop\n        /* \"task01/Array.sol\":446:537  for (uint i = 0; i < arr2.length; i++) {... */\n      jump(tag_25)\n    tag_26:\n      pop\n        /* \"task01/Array.sol\":578:584  uint i */\n      0x00\n        /* \"task01/Array.sol\":587:588  0 */\n      0x00\n        /* \"task01/Array.sol\":578:588  uint i = 0 */\n      swap1\n      pop\n        /* \"task01/Array.sol\":573:890  for (uint i = 0;i<result.length;i++){... */\n    tag_33:\n        /* \"task01/Array.sol\":591:597  result */\n      dup3\n        /* \"task01/Array.sol\":591:604  result.length */\n      mload\n        /* \"task01/Array.sol\":589:590  i */\n      dup2\n        /* \"task01/Array.sol\":589:604  i<result.length */\n      lt\n        /* \"task01/Array.sol\":573:890  for (uint i = 0;i<result.length;i++){... */\n      iszero\n      tag_34\n      jumpi\n        /* \"task01/Array.sol\":631:637  uint j */\n      0x00\n        /* \"task01/Array.sol\":640:641  0 */\n      0x00\n        /* \"task01/Array.sol\":631:641  uint j = 0 */\n      swap1\n      pop\n        /* \"task01/Array.sol\":626:879  for (uint j = 0 ;j<result.length-1;j++){... */\n    tag_36:\n        /* \"task01/Array.sol\":659:660  1 */\n      0x01\n        /* \"task01/Array.sol\":645:651  result */\n      dup5\n        /* \"task01/Array.sol\":645:658  result.length */\n      mload\n        /* \"task01/Array.sol\":645:660  result.length-1 */\n      tag_39\n      swap2\n      swap1\n      tag_40\n      jump\t// in\n    tag_39:\n        /* \"task01/Array.sol\":643:644  j */\n      dup2\n        /* \"task01/Array.sol\":643:660  j<result.length-1 */\n      lt\n        /* \"task01/Array.sol\":626:879  for (uint j = 0 ;j<result.length-1;j++){... */\n      iszero\n      tag_37\n      jumpi\n        /* \"task01/Array.sol\":700:706  result */\n      dup4\n        /* \"task01/Array.sol\":709:710  1 */\n      0x01\n        /* \"task01/Array.sol\":707:708  j */\n      dup3\n        /* \"task01/Array.sol\":707:710  j+1 */\n      tag_41\n      swap2\n      swap1\n      tag_10\n      jump\t// in\n    tag_41:\n        /* \"task01/Array.sol\":700:711  result[j+1] */\n      dup2\n      mload\n      dup2\n      lt\n      tag_42\n      jumpi\n      tag_43\n      tag_20\n      jump\t// in\n    tag_43:\n    tag_42:\n      0x20\n      mul\n      0x20\n      add\n      add\n      mload\n        /* \"task01/Array.sol\":689:695  result */\n      dup5\n        /* \"task01/Array.sol\":696:697  i */\n      dup4\n        /* \"task01/Array.sol\":689:698  result[i] */\n      dup2\n      mload\n      dup2\n      lt\n      tag_44\n      jumpi\n      tag_45\n      tag_20\n      jump\t// in\n    tag_45:\n    tag_44:\n      0x20\n      mul\n      0x20\n      add\n      add\n      mload\n        /* \"task01/Array.sol\":689:711  result[i]<=result[j+1] */\n      gt\n        /* \"task01/Array.sol\":686:862  if(result[i]<=result[j+1]){... */\n      tag_46\n      jumpi\n        /* \"task01/Array.sol\":735:744  uint temp */\n      0x00\n        /* \"task01/Array.sol\":747:753  result */\n      dup5\n        /* \"task01/Array.sol\":754:755  i */\n      dup4\n        /* \"task01/Array.sol\":747:756  result[i] */\n      dup2\n      mload\n      dup2\n      lt\n      tag_47\n      jumpi\n      tag_48\n      tag_20\n      jump\t// in\n    tag_48:\n    tag_47:\n      0x20\n      mul\n      0x20\n      add\n      add\n      mload\n        /* \"task01/Array.sol\":735:756  uint temp = result[i] */\n      swap1\n      pop\n        /* \"task01/Array.sol\":791:797  result */\n      dup5\n        /* \"task01/Array.sol\":800:801  1 */\n      0x01\n        /* \"task01/Array.sol\":798:799  j */\n      dup4\n        /* \"task01/Array.sol\":798:801  j+1 */\n      tag_49\n      swap2\n      swap1\n      tag_10\n      jump\t// in\n    tag_49:\n        /* \"task01/Array.sol\":791:802  result[j+1] */\n      dup2\n      mload\n      dup2\n      lt\n      tag_50\n      jumpi\n      tag_51\n      tag_20\n      jump\t// in\n    tag_51:\n    tag_50:\n      0x20\n      mul\n      0x20\n      add\n      add\n      mload\n        /* \"task01/Array.sol\":779:785  result */\n      dup6\n        /* \"task01/Array.sol\":786:787  i */\n      dup5\n        /* \"task01/Array.sol\":779:788  result[i] */\n      dup2\n      mload\n      dup2\n      lt\n      tag_52\n      jumpi\n      tag_53\n      tag_20\n      jump\t// in\n    tag_53:\n    tag_52:\n      0x20\n      mul\n      0x20\n      add\n      add\n        /* \"task01/Array.sol\":779:802  result[i] = result[j+1] */\n      dup2\n      dup2\n      mstore\n      pop\n      pop\n        /* \"task01/Array.sol\":838:842  temp */\n      dup1\n        /* \"task01/Array.sol\":825:831  result */\n      dup6\n        /* \"task01/Array.sol\":834:835  1 */\n      0x01\n        /* \"task01/Array.sol\":832:833  j */\n      dup5\n        /* \"task01/Array.sol\":832:835  j+1 */\n      tag_54\n      swap2\n      swap1\n      tag_10\n      jump\t// in\n    tag_54:\n        /* \"task01/Array.sol\":825:836  result[j+1] */\n      dup2\n      mload\n      dup2\n      lt\n      tag_55\n      jumpi\n      tag_56\n      tag_20\n      jump\t// in\n    tag_56:\n    tag_55:\n      0x20\n      mul\n      0x20\n      add\n      add\n        /* \"task01/Array.sol\":825:842  result[j+1] =temp */\n      dup2\n      dup2\n      mstore\n      pop\n      pop\n        /* \"task01/Array.sol\":712:862  {... */\n      pop\n        /* \"task01/Array.sol\":686:862  if(result[i]<=result[j+1]){... */\n    tag_46:\n        /* \"task01/Array.sol\":661:664  j++ */\n      dup1\n      dup1\n      0x01\n      add\n      swap2\n      pop\n      pop\n        /* \"task01/Array.sol\":626:879  for (uint j = 0 ;j<result.length-1;j++){... */\n      jump(tag_36)\n    tag_37:\n      pop\n        /* \"task01/Array.sol\":605:608  i++ */\n      dup1\n      dup1\n      0x01\n      add\n      swap2\n      pop\n      pop\n        /* \"task01/Array.sol\":573:890  for (uint i = 0;i<result.length;i++){... */\n      jump(tag_33)\n    tag_34:\n      pop\n        /* \"task01/Array.sol\":921:927  result */\n      dup2\n        /* \"task01/Array.sol\":914:927  return result */\n      swap5\n      pop\n      pop\n      pop\n      pop\n      pop\n        /* \"task01/Array.sol\":88:935  function getarr() view  public returns (uint[] memory) {... */\n      swap1\n      jump\t// out\n        /* \"#utility.yul\":7:121   */\n    tag_57:\n        /* \"#utility.yul\":74:80   */\n      0x00\n        /* \"#utility.yul\":108:113   */\n      dup2\n        /* \"#utility.yul\":102:114   */\n      mload\n        /* \"#utility.yul\":92:114   */\n      swap1\n      pop\n        /* \"#utility.yul\":7:121   */\n      swap2\n      swap1\n      pop\n      jump\t// out\n        /* \"#utility.yul\":127:311   */\n    tag_58:\n        /* \"#utility.yul\":226:237   */\n      0x00\n        /* \"#utility.yul\":260:266   */\n      dup3\n        /* \"#utility.yul\":255:258   */\n      dup3\n        /* \"#utility.yul\":248:267   */\n      mstore\n        /* \"#utility.yul\":300:304   */\n      0x20\n        /* \"#utility.yul\":295:298   */\n      dup3\n        /* \"#utility.yul\":291:305   */\n      add\n        /* \"#utility.yul\":276:305   */\n      swap1\n      pop\n        /* \"#utility.yul\":127:311   */\n      swap3\n      swap2\n      pop\n      pop\n      jump\t// out\n        /* \"#utility.yul\":317:449   */\n    tag_59:\n        /* \"#utility.yul\":384:388   */\n      0x00\n        /* \"#utility.yul\":407:410   */\n      dup2\n        /* \"#utility.yul\":399:410   */\n      swap1\n      pop\n        /* \"#utility.yul\":437:441   */\n      0x20\n        /* \"#utility.yul\":432:435   */\n      dup3\n        /* \"#utility.yul\":428:442   */\n      add\n        /* \"#utility.yul\":420:442   */\n      swap1\n      pop\n        /* \"#utility.yul\":317:449   */\n      swap2\n      swap1\n      pop\n      jump\t// out\n        /* \"#utility.yul\":455:532   */\n    tag_60:\n        /* \"#utility.yul\":492:499   */\n      0x00\n        /* \"#utility.yul\":521:526   */\n      dup2\n        /* \"#utility.yul\":510:526   */\n      swap1\n      pop\n        /* \"#utility.yul\":455:532   */\n      swap2\n      swap1\n      pop\n      jump\t// out\n        /* \"#utility.yul\":538:646   */\n    tag_61:\n        /* \"#utility.yul\":615:639   */\n      tag_72\n        /* \"#utility.yul\":633:638   */\n      dup2\n        /* \"#utility.yul\":615:639   */\n      tag_60\n      jump\t// in\n    tag_72:\n        /* \"#utility.yul\":610:613   */\n      dup3\n        /* \"#utility.yul\":603:640   */\n      mstore\n        /* \"#utility.yul\":538:646   */\n      pop\n      pop\n      jump\t// out\n        /* \"#utility.yul\":652:831   */\n    tag_62:\n        /* \"#utility.yul\":721:731   */\n      0x00\n        /* \"#utility.yul\":742:788   */\n      tag_74\n        /* \"#utility.yul\":784:787   */\n      dup4\n        /* \"#utility.yul\":776:782   */\n      dup4\n        /* \"#utility.yul\":742:788   */\n      tag_61\n      jump\t// in\n    tag_74:\n        /* \"#utility.yul\":820:824   */\n      0x20\n        /* \"#utility.yul\":815:818   */\n      dup4\n        /* \"#utility.yul\":811:825   */\n      add\n        /* \"#utility.yul\":797:825   */\n      swap1\n      pop\n        /* \"#utility.yul\":652:831   */\n      swap3\n      swap2\n      pop\n      pop\n      jump\t// out\n        /* \"#utility.yul\":837:950   */\n    tag_63:\n        /* \"#utility.yul\":907:911   */\n      0x00\n        /* \"#utility.yul\":939:943   */\n      0x20\n        /* \"#utility.yul\":934:937   */\n      dup3\n        /* \"#utility.yul\":930:944   */\n      add\n        /* \"#utility.yul\":922:944   */\n      swap1\n      pop\n        /* \"#utility.yul\":837:950   */\n      swap2\n      swap1\n      pop\n      jump\t// out\n        /* \"#utility.yul\":986:1718   */\n    tag_64:\n        /* \"#utility.yul\":1105:1108   */\n      0x00\n        /* \"#utility.yul\":1134:1188   */\n      tag_77\n        /* \"#utility.yul\":1182:1187   */\n      dup3\n        /* \"#utility.yul\":1134:1188   */\n      tag_57\n      jump\t// in\n    tag_77:\n        /* \"#utility.yul\":1204:1290   */\n      tag_78\n        /* \"#utility.yul\":1283:1289   */\n      dup2\n        /* \"#utility.yul\":1278:1281   */\n      dup6\n        /* \"#utility.yul\":1204:1290   */\n      tag_58\n      jump\t// in\n    tag_78:\n        /* \"#utility.yul\":1197:1290   */\n      swap4\n      pop\n        /* \"#utility.yul\":1314:1370   */\n      tag_79\n        /* \"#utility.yul\":1364:1369   */\n      dup4\n        /* \"#utility.yul\":1314:1370   */\n      tag_59\n      jump\t// in\n    tag_79:\n        /* \"#utility.yul\":1393:1400   */\n      dup1\n        /* \"#utility.yul\":1424:1425   */\n      0x00\n        /* \"#utility.yul\":1409:1693   */\n    tag_80:\n        /* \"#utility.yul\":1434:1440   */\n      dup4\n        /* \"#utility.yul\":1431:1432   */\n      dup2\n        /* \"#utility.yul\":1428:1441   */\n      lt\n        /* \"#utility.yul\":1409:1693   */\n      iszero\n      tag_82\n      jumpi\n        /* \"#utility.yul\":1510:1516   */\n      dup2\n        /* \"#utility.yul\":1504:1517   */\n      mload\n        /* \"#utility.yul\":1537:1600   */\n      tag_83\n        /* \"#utility.yul\":1596:1599   */\n      dup9\n        /* \"#utility.yul\":1581:1594   */\n      dup3\n        /* \"#utility.yul\":1537:1600   */\n      tag_62\n      jump\t// in\n    tag_83:\n        /* \"#utility.yul\":1530:1600   */\n      swap8\n      pop\n        /* \"#utility.yul\":1623:1683   */\n      tag_84\n        /* \"#utility.yul\":1676:1682   */\n      dup4\n        /* \"#utility.yul\":1623:1683   */\n      tag_63\n      jump\t// in\n    tag_84:\n        /* \"#utility.yul\":1613:1683   */\n      swap3\n      pop\n        /* \"#utility.yul\":1469:1693   */\n      pop\n        /* \"#utility.yul\":1456:1457   */\n      0x01\n        /* \"#utility.yul\":1453:1454   */\n      dup2\n        /* \"#utility.yul\":1449:1458   */\n      add\n        /* \"#utility.yul\":1444:1458   */\n      swap1\n      pop\n        /* \"#utility.yul\":1409:1693   */\n      jump(tag_80)\n    tag_82:\n        /* \"#utility.yul\":1413:1427   */\n      pop\n        /* \"#utility.yul\":1709:1712   */\n      dup6\n        /* \"#utility.yul\":1702:1712   */\n      swap4\n      pop\n        /* \"#utility.yul\":1110:1718   */\n      pop\n      pop\n      pop\n        /* \"#utility.yul\":986:1718   */\n      swap3\n      swap2\n      pop\n      pop\n      jump\t// out\n        /* \"#utility.yul\":1724:2097   */\n    tag_7:\n        /* \"#utility.yul\":1867:1871   */\n      0x00\n        /* \"#utility.yul\":1905:1907   */\n      0x20\n        /* \"#utility.yul\":1894:1903   */\n      dup3\n        /* \"#utility.yul\":1890:1908   */\n      add\n        /* \"#utility.yul\":1882:1908   */\n      swap1\n      pop\n        /* \"#utility.yul\":1954:1963   */\n      dup2\n        /* \"#utility.yul\":1948:1952   */\n      dup2\n        /* \"#utility.yul\":1944:1964   */\n      sub\n        /* \"#utility.yul\":1940:1941   */\n      0x00\n        /* \"#utility.yul\":1929:1938   */\n      dup4\n        /* \"#utility.yul\":1925:1942   */\n      add\n        /* \"#utility.yul\":1918:1965   */\n      mstore\n        /* \"#utility.yul\":1982:2090   */\n      tag_86\n        /* \"#utility.yul\":2085:2089   */\n      dup2\n        /* \"#utility.yul\":2076:2082   */\n      dup5\n        /* \"#utility.yul\":1982:2090   */\n      tag_64\n      jump\t// in\n    tag_86:\n        /* \"#utility.yul\":1974:2090   */\n      swap1\n      pop\n        /* \"#utility.yul\":1724:2097   */\n      swap3\n      swap2\n      pop\n      pop\n      jump\t// out\n        /* \"#utility.yul\":2103:2283   */\n    tag_65:\n        /* \"#utility.yul\":2151:2228   */\n      0x4e487b7100000000000000000000000000000000000000000000000000000000\n        /* \"#utility.yul\":2148:2149   */\n      0x00\n        /* \"#utility.yul\":2141:2229   */\n      mstore\n        /* \"#utility.yul\":2248:2252   */\n      0x11\n        /* \"#utility.yul\":2245:2246   */\n      0x04\n        /* \"#utility.yul\":2238:2253   */\n      mstore\n        /* \"#utility.yul\":2272:2276   */\n      0x24\n        /* \"#utility.yul\":2269:2270   */\n      0x00\n        /* \"#utility.yul\":2262:2277   */\n      revert\n        /* \"#utility.yul\":2289:2480   */\n    tag_10:\n        /* \"#utility.yul\":2329:2332   */\n      0x00\n        /* \"#utility.yul\":2348:2368   */\n      tag_89\n        /* \"#utility.yul\":2366:2367   */\n      dup3\n        /* \"#utility.yul\":2348:2368   */\n      tag_60\n      jump\t// in\n    tag_89:\n        /* \"#utility.yul\":2343:2368   */\n      swap2\n      pop\n        /* \"#utility.yul\":2382:2402   */\n      tag_90\n        /* \"#utility.yul\":2400:2401   */\n      dup4\n        /* \"#utility.yul\":2382:2402   */\n      tag_60\n      jump\t// in\n    tag_90:\n        /* \"#utility.yul\":2377:2402   */\n      swap3\n      pop\n        /* \"#utility.yul\":2425:2426   */\n      dup3\n        /* \"#utility.yul\":2422:2423   */\n      dup3\n        /* \"#utility.yul\":2418:2427   */\n      add\n        /* \"#utility.yul\":2411:2427   */\n      swap1\n      pop\n        /* \"#utility.yul\":2446:2449   */\n      dup1\n        /* \"#utility.yul\":2443:2444   */\n      dup3\n        /* \"#utility.yul\":2440:2450   */\n      gt\n        /* \"#utility.yul\":2437:2473   */\n      iszero\n      tag_91\n      jumpi\n        /* \"#utility.yul\":2453:2471   */\n      tag_92\n      tag_65\n      jump\t// in\n    tag_92:\n        /* \"#utility.yul\":2437:2473   */\n    tag_91:\n        /* \"#utility.yul\":2289:2480   */\n      swap3\n      swap2\n      pop\n      pop\n      jump\t// out\n        /* \"#utility.yul\":2486:2666   */\n    tag_13:\n        /* \"#utility.yul\":2534:2611   */\n      0x4e487b7100000000000000000000000000000000000000000000000000000000\n        /* \"#utility.yul\":2531:2532   */\n      0x00\n        /* \"#utility.yul\":2524:2612   */\n      mstore\n        /* \"#utility.yul\":2631:2635   */\n      0x41\n        /* \"#utility.yul\":2628:2629   */\n      0x04\n        /* \"#utility.yul\":2621:2636   */\n      mstore\n        /* \"#utility.yul\":2655:2659   */\n      0x24\n        /* \"#utility.yul\":2652:2653   */\n      0x00\n        /* \"#utility.yul\":2645:2660   */\n      revert\n        /* \"#utility.yul\":2672:2852   */\n    tag_20:\n        /* \"#utility.yul\":2720:2797   */\n      0x4e487b7100000000000000000000000000000000000000000000000000000000\n        /* \"#utility.yul\":2717:2718   */\n      0x00\n        /* \"#utility.yul\":2710:2798   */\n      mstore\n        /* \"#utility.yul\":2817:2821   */\n      0x32\n        /* \"#utility.yul\":2814:2815   */\n      0x04\n        /* \"#utility.yul\":2807:2822   */\n      mstore\n        /* \"#utility.yul\":2841:2845   */\n      0x24\n        /* \"#utility.yul\":2838:2839   */\n      0x00\n        /* \"#utility.yul\":2831:2846   */\n      revert\n        /* \"#utility.yul\":2858:3091   */\n    tag_22:\n        /* \"#utility.yul\":2897:2900   */\n      0x00\n        /* \"#utility.yul\":2920:2944   */\n      tag_96\n        /* \"#utility.yul\":2938:2943   */\n      dup3\n        /* \"#utility.yul\":2920:2944   */\n      tag_60\n      jump\t// in\n    tag_96:\n        /* \"#utility.yul\":2911:2944   */\n      swap2\n      pop\n        /* \"#utility.yul\":2966:3032   */\n      0xffffffffffffffffffffffffffffffffffffffffffffffffffffffffffffffff\n        /* \"#utility.yul\":2959:2964   */\n      dup3\n        /* \"#utility.yul\":2956:3033   */\n      sub\n        /* \"#utility.yul\":2953:3056   */\n      tag_97\n      jumpi\n        /* \"#utility.yul\":3036:3054   */\n      tag_98\n      tag_65\n      jump\t// in\n    tag_98:\n        /* \"#utility.yul\":2953:3056   */\n    tag_97:\n        /* \"#utility.yul\":3083:3084   */\n      0x01\n        /* \"#utility.yul\":3076:3081   */\n      dup3\n        /* \"#utility.yul\":3072:3085   */\n      add\n        /* \"#utility.yul\":3065:3085   */\n      swap1\n      pop\n        /* \"#utility.yul\":2858:3091   */\n      swap2\n      swap1\n      pop\n      jump\t// out\n        /* \"#utility.yul\":3097:3291   */\n    tag_40:\n        /* \"#utility.yul\":3137:3141   */\n      0x00\n        /* \"#utility.yul\":3157:3177   */\n      tag_100\n        /* \"#utility.yul\":3175:3176   */\n      dup3\n        /* \"#utility.yul\":3157:3177   */\n      tag_60\n      jump\t// in\n    tag_100:\n        /* \"#utility.yul\":3152:3177   */\n      swap2\n      pop\n        /* \"#utility.yul\":3191:3211   */\n      tag_101\n        /* \"#utility.yul\":3209:3210   */\n      dup4\n        /* \"#utility.yul\":3191:3211   */\n      tag_60\n      jump\t// in\n    tag_101:\n        /* \"#utility.yul\":3186:3211   */\n      swap3\n      pop\n        /* \"#utility.yul\":3235:3236   */\n      dup3\n        /* \"#utility.yul\":3232:3233   */\n      dup3\n        /* \"#utility.yul\":3228:3237   */\n      sub\n        /* \"#utility.yul\":3220:3237   */\n      swap1\n      pop\n        /* \"#utility.yul\":3259:3260   */\n      dup2\n        /* \"#utility.yul\":3253:3257   */\n      dup2\n        /* \"#utility.yul\":3250:3261   */\n      gt\n        /* \"#utility.yul\":3247:3284   */\n      iszero\n      tag_102\n      jumpi\n        /* \"#utility.yul\":3264:3282   */\n      tag_103\n      tag_65\n      jump\t// in\n    tag_103:\n        /* \"#utility.yul\":3247:3284   */\n    tag_102:\n        /* \"#utility.yul\":3097:3291   */\n      swap3\n      swap2\n      pop\n      pop\n      jump\t// out\n\n    auxdata: 0xa2646970667358221220c7ce31fb2f29d4d22e94e3ab0bc6bbc817996c2018564c64759bf3a150b3dd0d64736f6c634300081e0033\n}\n",
				"bytecode": {
					"linkReferences": {},
					"object": "6080604052348015600e575f5ffd5b5061055a8061001c5f395ff3fe608060405234801561000f575f5ffd5b5060043610610029575f3560e01c80636bc7deae1461002d575b5f5ffd5b61003561004b565b60405161004291906103d0565b60405180910390f35b60605f6040518060a00160405280600160ff168152602001600260ff168152602001600360ff168152602001600460ff168152602001600560ff1681525090505f6040518060a00160405280600460ff168152602001600560ff168152602001600660ff168152602001600860ff168152602001600760ff1681525090505f6005806100d7919061041d565b67ffffffffffffffff8111156100f0576100ef610450565b5b60405190808252806020026020018201604052801561011e5781602001602082028036833780820191505090505b5090505f5f90505f5f90505b6005811015610186578481600581106101465761014561047d565b5b602002015160ff1683838061015a906104aa565b94508151811061016d5761016c61047d565b5b602002602001018181525050808060010191505061012a565b505f5f90505b60058110156101e8578381600581106101a8576101a761047d565b5b602002015160ff168383806101bc906104aa565b9450815181106101cf576101ce61047d565b5b602002602001018181525050808060010191505061018c565b505f5f90505b8251811015610305575f5f90505b6001845161020a91906104f1565b8110156102f7578360018261021f919061041d565b815181106102305761022f61047d565b5b602002602001015184838151811061024b5761024a61047d565b5b6020026020010151116102ea575f84838151811061026c5761026b61047d565b5b6020026020010151905084600183610284919061041d565b815181106102955761029461047d565b5b60200260200101518584815181106102b0576102af61047d565b5b60200260200101818152505080856001846102cb919061041d565b815181106102dc576102db61047d565b5b602002602001018181525050505b80806001019150506101fc565b5080806001019150506101ee565b508194505050505090565b5f81519050919050565b5f82825260208201905092915050565b5f819050602082019050919050565b5f819050919050565b61034b81610339565b82525050565b5f61035c8383610342565b60208301905092915050565b5f602082019050919050565b5f61037e82610310565b610388818561031a565b93506103938361032a565b805f5b838110156103c35781516103aa8882610351565b97506103b583610368565b925050600181019050610396565b5085935050505092915050565b5f6020820190508181035f8301526103e88184610374565b905092915050565b7f4e487b71000000000000000000000000000000000000000000000000000000005f52601160045260245ffd5b5f61042782610339565b915061043283610339565b925082820190508082111561044a576104496103f0565b5b92915050565b7f4e487b71000000000000000000000000000000000000000000000000000000005f52604160045260245ffd5b7f4e487b71000000000000000000000000000000000000000000000000000000005f52603260045260245ffd5b5f6104b482610339565b91507fffffffffffffffffffffffffffffffffffffffffffffffffffffffffffffffff82036104e6576104e56103f0565b5b600182019050919050565b5f6104fb82610339565b915061050683610339565b925082820390508181111561051e5761051d6103f0565b5b9291505056fea2646970667358221220c7ce31fb2f29d4d22e94e3ab0bc6bbc817996c2018564c64759bf3a150b3dd0d64736f6c634300081e0033",
					"opcodes": "PUSH1 0x80 PUSH1 0x40 MSTORE CALLVALUE DUP1 ISZERO PUSH1 0xE JUMPI PUSH0 PUSH0 REVERT JUMPDEST POP PUSH2 0x55A DUP1 PUSH2 0x1C PUSH0 CODECOPY PUSH0 RETURN INVALID PUSH1 0x80 PUSH1 0x40 MSTORE CALLVALUE DUP1 ISZERO PUSH2 0xF JUMPI PUSH0 PUSH0 REVERT JUMPDEST POP PUSH1 0x4 CALLDATASIZE LT PUSH2 0x29 JUMPI PUSH0 CALLDATALOAD PUSH1 0xE0 SHR DUP1 PUSH4 0x6BC7DEAE EQ PUSH2 0x2D JUMPI JUMPDEST PUSH0 PUSH0 REVERT JUMPDEST PUSH2 0x35 PUSH2 0x4B JUMP JUMPDEST PUSH1 0x40 MLOAD PUSH2 0x42 SWAP2 SWAP1 PUSH2 0x3D0 JUMP JUMPDEST PUSH1 0x40 MLOAD DUP1 SWAP2 SUB SWAP1 RETURN JUMPDEST PUSH1 0x60 PUSH0 PUSH1 0x40 MLOAD DUP1 PUSH1 0xA0 ADD PUSH1 0x40 MSTORE DUP1 PUSH1 0x1 PUSH1 0xFF AND DUP2 MSTORE PUSH1 0x20 ADD PUSH1 0x2 PUSH1 0xFF AND DUP2 MSTORE PUSH1 0x20 ADD PUSH1 0x3 PUSH1 0xFF AND DUP2 MSTORE PUSH1 0x20 ADD PUSH1 0x4 PUSH1 0xFF AND DUP2 MSTORE PUSH1 0x20 ADD PUSH1 0x5 PUSH1 0xFF AND DUP2 MSTORE POP SWAP1 POP PUSH0 PUSH1 0x40 MLOAD DUP1 PUSH1 0xA0 ADD PUSH1 0x40 MSTORE DUP1 PUSH1 0x4 PUSH1 0xFF AND DUP2 MSTORE PUSH1 0x20 ADD PUSH1 0x5 PUSH1 0xFF AND DUP2 MSTORE PUSH1 0x20 ADD PUSH1 0x6 PUSH1 0xFF AND DUP2 MSTORE PUSH1 0x20 ADD PUSH1 0x8 PUSH1 0xFF AND DUP2 MSTORE PUSH1 0x20 ADD PUSH1 0x7 PUSH1 0xFF AND DUP2 MSTORE POP SWAP1 POP PUSH0 PUSH1 0x5 DUP1 PUSH2 0xD7 SWAP2 SWAP1 PUSH2 0x41D JUMP JUMPDEST PUSH8 0xFFFFFFFFFFFFFFFF DUP2 GT ISZERO PUSH2 0xF0 JUMPI PUSH2 0xEF PUSH2 0x450 JUMP JUMPDEST JUMPDEST PUSH1 0x40 MLOAD SWAP1 DUP1 DUP3 MSTORE DUP1 PUSH1 0x20 MUL PUSH1 0x20 ADD DUP3 ADD PUSH1 0x40 MSTORE DUP1 ISZERO PUSH2 0x11E JUMPI DUP2 PUSH1 0x20 ADD PUSH1 0x20 DUP3 MUL DUP1 CALLDATASIZE DUP4 CALLDATACOPY DUP1 DUP3 ADD SWAP2 POP POP SWAP1 POP JUMPDEST POP SWAP1 POP PUSH0 PUSH0 SWAP1 POP PUSH0 PUSH0 SWAP1 POP JUMPDEST PUSH1 0x5 DUP2 LT ISZERO PUSH2 0x186 JUMPI DUP5 DUP2 PUSH1 0x5 DUP2 LT PUSH2 0x146 JUMPI PUSH2 0x145 PUSH2 0x47D JUMP JUMPDEST JUMPDEST PUSH1 0x20 MUL ADD MLOAD PUSH1 0xFF AND DUP4 DUP4 DUP1 PUSH2 0x15A SWAP1 PUSH2 0x4AA JUMP JUMPDEST SWAP5 POP DUP2 MLOAD DUP2 LT PUSH2 0x16D JUMPI PUSH2 0x16C PUSH2 0x47D JUMP JUMPDEST JUMPDEST PUSH1 0x20 MUL PUSH1 0x20 ADD ADD DUP2 DUP2 MSTORE POP POP DUP1 DUP1 PUSH1 0x1 ADD SWAP2 POP POP PUSH2 0x12A JUMP JUMPDEST POP PUSH0 PUSH0 SWAP1 POP JUMPDEST PUSH1 0x5 DUP2 LT ISZERO PUSH2 0x1E8 JUMPI DUP4 DUP2 PUSH1 0x5 DUP2 LT PUSH2 0x1A8 JUMPI PUSH2 0x1A7 PUSH2 0x47D JUMP JUMPDEST JUMPDEST PUSH1 0x20 MUL ADD MLOAD PUSH1 0xFF AND DUP4 DUP4 DUP1 PUSH2 0x1BC SWAP1 PUSH2 0x4AA JUMP JUMPDEST SWAP5 POP DUP2 MLOAD DUP2 LT PUSH2 0x1CF JUMPI PUSH2 0x1CE PUSH2 0x47D JUMP JUMPDEST JUMPDEST PUSH1 0x20 MUL PUSH1 0x20 ADD ADD DUP2 DUP2 MSTORE POP POP DUP1 DUP1 PUSH1 0x1 ADD SWAP2 POP POP PUSH2 0x18C JUMP JUMPDEST POP PUSH0 PUSH0 SWAP1 POP JUMPDEST DUP3 MLOAD DUP2 LT ISZERO PUSH2 0x305 JUMPI PUSH0 PUSH0 SWAP1 POP JUMPDEST PUSH1 0x1 DUP5 MLOAD PUSH2 0x20A SWAP2 SWAP1 PUSH2 0x4F1 JUMP JUMPDEST DUP2 LT ISZERO PUSH2 0x2F7 JUMPI DUP4 PUSH1 0x1 DUP3 PUSH2 0x21F SWAP2 SWAP1 PUSH2 0x41D JUMP JUMPDEST DUP2 MLOAD DUP2 LT PUSH2 0x230 JUMPI PUSH2 0x22F PUSH2 0x47D JUMP JUMPDEST JUMPDEST PUSH1 0x20 MUL PUSH1 0x20 ADD ADD MLOAD DUP5 DUP4 DUP2 MLOAD DUP2 LT PUSH2 0x24B JUMPI PUSH2 0x24A PUSH2 0x47D JUMP JUMPDEST JUMPDEST PUSH1 0x20 MUL PUSH1 0x20 ADD ADD MLOAD GT PUSH2 0x2EA JUMPI PUSH0 DUP5 DUP4 DUP2 MLOAD DUP2 LT PUSH2 0x26C JUMPI PUSH2 0x26B PUSH2 0x47D JUMP JUMPDEST JUMPDEST PUSH1 0x20 MUL PUSH1 0x20 ADD ADD MLOAD SWAP1 POP DUP5 PUSH1 0x1 DUP4 PUSH2 0x284 SWAP2 SWAP1 PUSH2 0x41D JUMP JUMPDEST DUP2 MLOAD DUP2 LT PUSH2 0x295 JUMPI PUSH2 0x294 PUSH2 0x47D JUMP JUMPDEST JUMPDEST PUSH1 0x20 MUL PUSH1 0x20 ADD ADD MLOAD DUP6 DUP5 DUP2 MLOAD DUP2 LT PUSH2 0x2B0 JUMPI PUSH2 0x2AF PUSH2 0x47D JUMP JUMPDEST JUMPDEST PUSH1 0x20 MUL PUSH1 0x20 ADD ADD DUP2 DUP2 MSTORE POP POP DUP1 DUP6 PUSH1 0x1 DUP5 PUSH2 0x2CB SWAP2 SWAP1 PUSH2 0x41D JUMP JUMPDEST DUP2 MLOAD DUP2 LT PUSH2 0x2DC JUMPI PUSH2 0x2DB PUSH2 0x47D JUMP JUMPDEST JUMPDEST PUSH1 0x20 MUL PUSH1 0x20 ADD ADD DUP2 DUP2 MSTORE POP POP POP JUMPDEST DUP1 DUP1 PUSH1 0x1 ADD SWAP2 POP POP PUSH2 0x1FC JUMP JUMPDEST POP DUP1 DUP1 PUSH1 0x1 ADD SWAP2 POP POP PUSH2 0x1EE JUMP JUMPDEST POP DUP2 SWAP5 POP POP POP POP POP SWAP1 JUMP JUMPDEST PUSH0 DUP2 MLOAD SWAP1 POP SWAP2 SWAP1 POP JUMP JUMPDEST PUSH0 DUP3 DUP3 MSTORE PUSH1 0x20 DUP3 ADD SWAP1 POP SWAP3 SWAP2 POP POP JUMP JUMPDEST PUSH0 DUP2 SWAP1 POP PUSH1 0x20 DUP3 ADD SWAP1 POP SWAP2 SWAP1 POP JUMP JUMPDEST PUSH0 DUP2 SWAP1 POP SWAP2 SWAP1 POP JUMP JUMPDEST PUSH2 0x34B DUP2 PUSH2 0x339 JUMP JUMPDEST DUP3 MSTORE POP POP JUMP JUMPDEST PUSH0 PUSH2 0x35C DUP4 DUP4 PUSH2 0x342 JUMP JUMPDEST PUSH1 0x20 DUP4 ADD SWAP1 POP SWAP3 SWAP2 POP POP JUMP JUMPDEST PUSH0 PUSH1 0x20 DUP3 ADD SWAP1 POP SWAP2 SWAP1 POP JUMP JUMPDEST PUSH0 PUSH2 0x37E DUP3 PUSH2 0x310 JUMP JUMPDEST PUSH2 0x388 DUP2 DUP6 PUSH2 0x31A JUMP JUMPDEST SWAP4 POP PUSH2 0x393 DUP4 PUSH2 0x32A JUMP JUMPDEST DUP1 PUSH0 JUMPDEST DUP4 DUP2 LT ISZERO PUSH2 0x3C3 JUMPI DUP2 MLOAD PUSH2 0x3AA DUP9 DUP3 PUSH2 0x351 JUMP JUMPDEST SWAP8 POP PUSH2 0x3B5 DUP4 PUSH2 0x368 JUMP JUMPDEST SWAP3 POP POP PUSH1 0x1 DUP2 ADD SWAP1 POP PUSH2 0x396 JUMP JUMPDEST POP DUP6 SWAP4 POP POP POP POP SWAP3 SWAP2 POP POP JUMP JUMPDEST PUSH0 PUSH1 0x20 DUP3 ADD SWAP1 POP DUP2 DUP2 SUB PUSH0 DUP4 ADD MSTORE PUSH2 0x3E8 DUP2 DUP5 PUSH2 0x374 JUMP JUMPDEST SWAP1 POP SWAP3 SWAP2 POP POP JUMP JUMPDEST PUSH32 0x4E487B7100000000000000000000000000000000000000000000000000000000 PUSH0 MSTORE PUSH1 0x11 PUSH1 0x4 MSTORE PUSH1 0x24 PUSH0 REVERT JUMPDEST PUSH0 PUSH2 0x427 DUP3 PUSH2 0x339 JUMP JUMPDEST SWAP2 POP PUSH2 0x432 DUP4 PUSH2 0x339 JUMP JUMPDEST SWAP3 POP DUP3 DUP3 ADD SWAP1 POP DUP1 DUP3 GT ISZERO PUSH2 0x44A JUMPI PUSH2 0x449 PUSH2 0x3F0 JUMP JUMPDEST JUMPDEST SWAP3 SWAP2 POP POP JUMP JUMPDEST PUSH32 0x4E487B7100000000000000000000000000000000000000000000000000000000 PUSH0 MSTORE PUSH1 0x41 PUSH1 0x4 MSTORE PUSH1 0x24 PUSH0 REVERT JUMPDEST PUSH32 0x4E487B7100000000000000000000000000000000000000000000000000000000 PUSH0 MSTORE PUSH1 0x32 PUSH1 0x4 MSTORE PUSH1 0x24 PUSH0 REVERT JUMPDEST PUSH0 PUSH2 0x4B4 DUP3 PUSH2 0x339 JUMP JUMPDEST SWAP2 POP PUSH32 0xFFFFFFFFFFFFFFFFFFFFFFFFFFFFFFFFFFFFFFFFFFFFFFFFFFFFFFFFFFFFFFFF DUP3 SUB PUSH2 0x4E6 JUMPI PUSH2 0x4E5 PUSH2 0x3F0 JUMP JUMPDEST JUMPDEST PUSH1 0x1 DUP3 ADD SWAP1 POP SWAP2 SWAP1 POP JUMP JUMPDEST PUSH0 PUSH2 0x4FB DUP3 PUSH2 0x339 JUMP JUMPDEST SWAP2 POP PUSH2 0x506 DUP4 PUSH2 0x339 JUMP JUMPDEST SWAP3 POP DUP3 DUP3 SUB SWAP1 POP DUP2 DUP2 GT ISZERO PUSH2 0x51E JUMPI PUSH2 0x51D PUSH2 0x3F0 JUMP JUMPDEST JUMPDEST SWAP3 SWAP2 POP POP JUMP INVALID LOG2 PUSH5 0x6970667358 0x22 SLT KECCAK256 0xC7 0xCE BALANCE EXTSTATICCALL 0x2F 0x29 0xD4 0xD2 0x2E SWAP5 CALLF 0xAB0B 0xC6 0xBB 0xC8 OR SWAP10 PUSH13 0x2018564C64759BF3A150B3DD0D PUSH5 0x736F6C6343 STOP ADDMOD 0x1E STOP CALLER "
				},
				"gasEstimates": {
					"creation": {
						"codeDepositCost": "274000",
						"executionCost": "310",
						"totalCost": "274310"
					},
					"external": {
						"getarr()": "infinite"
					}
				},
				"methodIdentifiers": {
					"getarr()": "6bc7deae"
				}
			},
			"storageLayout": {
				"storage": [],
				"types": null
			},
			"userdoc": {
				"kind": "user",
				"methods": {},
				"version": 1
			}
		}
	}
}