{
	"data": {
		"bytecode": {
			"linkReferences": {},
			"object": "6080604052335f5f6101000a81548173ffffffffffffffffffffffffffffffffffffffff021916908373ffffffffffffffffffffffffffffffffffffffff1602179055506040518060a00160405280600160ff168152602001600260ff168152602001600360ff168152602001600460ff168152602001600560ff16815250600390600561008e9291906100a0565b5034801561009a575f5ffd5b50610100565b82600581019282156100d4579160200282015b828111156100d3578251829060ff169055916020019190600101906100b3565b5b5090506100e191906100e5565b5090565b5b808211156100fc575f815f9055506001016100e6565b5090565b610db08061010d5f395ff3fe608060405234801561000f575f5ffd5b5060043610610086575f3560e01c8063b6eda88411610059578063b6eda88414610138578063d92bd25c14610156578063ef5fb05b14610186578063fb13a2be146101a457610086565b80630704893f1461008a57806327e235e3146100a6578063a71d3830146100d6578063a87430ba14610106575b5f5ffd5b6100a4600480360381019061009f91906106a4565b6101c0565b005b6100c060048036038101906100bb919061073c565b6101d1565b6040516100cd9190610776565b60405180910390f35b6100f060048036038101906100eb919061073c565b6101e6565b6040516100fd919061079e565b60405180910390f35b610120600480360381019061011b919061073c565b6101f4565b60405161012f93929190610827565b60405180910390f35b6101406102bf565b60405161014d919061079e565b60405180910390f35b610170600480360381019061016b919061098f565b6102e3565b60405161017d9190610776565b60405180910390f35b61018e610310565b60405161019b91906109d6565b60405180910390f35b6101be60048036038101906101b991906109f6565b61034d565b005b80826101cc9190610a4e565b505050565b6001602052805f5260405f205f915090505481565b5f5f82905080915050919050565b6008602052805f5260405f205f91509050805f01805461021390610aae565b80601f016020809104026020016040519081016040528092919081815260200182805461023f90610aae565b801561028a5780601f106102615761010080835404028352916020019161028a565b820191905f5260205f20905b81548152906001019060200180831161026d57829003601f168201915b505050505090806001015490806002015f9054906101000a900473ffffffffffffffffffffffffffffffffffffffff16905083565b5f5f9054906101000a900473ffffffffffffffffffffffffffffffffffffffff1681565b6002818051602081018201805184825260208301602085012081835280955050505050505f915090505481565b60606040518060400160405280600c81526020017f68656c6c6f2c20776f726c640000000000000000000000000000000000000000815250905090565b5f60fe90505f7f613834620000000000000000000000000000000000000000000000000000000090505f6040518060400160405280601781526020017f373530343830373433383434323535373430333965386600000000000000000081525090505f600190505f7f313234353638663564353564356435643564356435643535646435643564356490505f6040518060400160405280600381526020017f737373000000000000000000000000000000000000000000000000000000000081525090505f600567ffffffffffffffff81111561042d5761042c61086b565b5b60405190808252806020026020018201604052801561045b5781602001602082028036833780820191505090505b5090506001815f8151811061047357610472610ade565b5b60200260200101818152505060018160018151811061049557610494610ade565b5b6020026020010181815250506001816002815181106104b7576104b6610ade565b5b6020026020010181815250506001816003815181106104d9576104d8610ade565b5b60200260200101818152505060606001815f815181106104fc576104fb610ade565b5b6020026020010181815250508860015f3373ffffffffffffffffffffffffffffffffffffffff1673ffffffffffffffffffffffffffffffffffffffff1681526020019081526020015f208190555060405180606001604052806040518060400160405280600581526020017f6a657375730000000000000000000000000000000000000000000000000000008152508152602001601981526020013373ffffffffffffffffffffffffffffffffffffffff1681525060085f3373ffffffffffffffffffffffffffffffffffffffff1673ffffffffffffffffffffffffffffffffffffffff1681526020019081526020015f205f820151815f0190816106019190610cab565b50602082015181600101556040820151816002015f6101000a81548173ffffffffffffffffffffffffffffffffffffffff021916908373ffffffffffffffffffffffffffffffffffffffff160217905550905050505050505050505050565b5f604051905090565b5f5ffd5b5f5ffd5b5f819050919050565b61068381610671565b811461068d575f5ffd5b50565b5f8135905061069e8161067a565b92915050565b5f5f604083850312156106ba576106b9610669565b5b5f6106c785828601610690565b92505060206106d885828601610690565b9150509250929050565b5f73ffffffffffffffffffffffffffffffffffffffff82169050919050565b5f61070b826106e2565b9050919050565b61071b81610701565b8114610725575f5ffd5b50565b5f8135905061073681610712565b92915050565b5f6020828403121561075157610750610669565b5b5f61075e84828501610728565b91505092915050565b61077081610671565b82525050565b5f6020820190506107895f830184610767565b92915050565b61079881610701565b82525050565b5f6020820190506107b15f83018461078f565b92915050565b5f81519050919050565b5f82825260208201905092915050565b8281835e5f83830152505050565b5f601f19601f8301169050919050565b5f6107f9826107b7565b61080381856107c1565b93506108138185602086016107d1565b61081c816107df565b840191505092915050565b5f6060820190508181035f83015261083f81866107ef565b905061084e6020830185610767565b61085b604083018461078f565b949350505050565b5f5ffd5b5f5ffd5b7f4e487b71000000000000000000000000000000000000000000000000000000005f52604160045260245ffd5b6108a1826107df565b810181811067ffffffffffffffff821117156108c0576108bf61086b565b5b80604052505050565b5f6108d2610660565b90506108de8282610898565b919050565b5f67ffffffffffffffff8211156108fd576108fc61086b565b5b610906826107df565b9050602081019050919050565b828183375f83830152505050565b5f61093361092e846108e3565b6108c9565b90508281526020810184848401111561094f5761094e610867565b5b61095a848285610913565b509392505050565b5f82601f83011261097657610975610863565b5b8135610986848260208601610921565b91505092915050565b5f602082840312156109a4576109a3610669565b5b5f82013567ffffffffffffffff8111156109c1576109c061066d565b5b6109cd84828501610962565b91505092915050565b5f6020820190508181035f8301526109ee81846107ef565b905092915050565b5f60208284031215610a0b57610a0a610669565b5b5f610a1884828501610690565b91505092915050565b7f4e487b71000000000000000000000000000000000000000000000000000000005f52601160045260245ffd5b5f610a5882610671565b9150610a6383610671565b9250828201905080821115610a7b57610a7a610a21565b5b92915050565b7f4e487b71000000000000000000000000000000000000000000000000000000005f52602260045260245ffd5b5f6002820490506001821680610ac557607f821691505b602082108103610ad857610ad7610a81565b5b50919050565b7f4e487b71000000000000000000000000000000000000000000000000000000005f52603260045260245ffd5b5f819050815f5260205f209050919050565b5f6020601f8301049050919050565b5f82821b905092915050565b5f60088302610b677fffffffffffffffffffffffffffffffffffffffffffffffffffffffffffffffff82610b2c565b610b718683610b2c565b95508019841693508086168417925050509392505050565b5f819050919050565b5f610bac610ba7610ba284610671565b610b89565b610671565b9050919050565b5f819050919050565b610bc583610b92565b610bd9610bd182610bb3565b848454610b38565b825550505050565b5f5f905090565b610bf0610be1565b610bfb818484610bbc565b505050565b5b81811015610c1e57610c135f82610be8565b600181019050610c01565b5050565b601f821115610c6357610c3481610b0b565b610c3d84610b1d565b81016020851015610c4c578190505b610c60610c5885610b1d565b830182610c00565b50505b505050565b5f82821c905092915050565b5f610c835f1984600802610c68565b1980831691505092915050565b5f610c9b8383610c74565b9150826002028217905092915050565b610cb4826107b7565b67ffffffffffffffff811115610ccd57610ccc61086b565b5b610cd78254610aae565b610ce2828285610c22565b5f60209050601f831160018114610d13575f8415610d01578287015190505b610d0b8582610c90565b865550610d72565b601f198416610d2186610b0b565b5f5b82811015610d4857848901518255600182019150602085019450602081019050610d23565b86831015610d655784890151610d61601f891682610c74565b8355505b6001600288020188555050505b50505050505056fea26469706673582212208fabd6147f7ed513f949f00889f64c9b4008c96573e64c985e7fd1af4812508d64736f6c634300081e0033",
			"opcodes": "PUSH1 0x80 PUSH1 0x40 MSTORE CALLER PUSH0 PUSH0 PUSH2 0x100 EXP DUP2 SLOAD DUP2 PUSH20 0xFFFFFFFFFFFFFFFFFFFFFFFFFFFFFFFFFFFFFFFF MUL NOT AND SWAP1 DUP4 PUSH20 0xFFFFFFFFFFFFFFFFFFFFFFFFFFFFFFFFFFFFFFFF AND MUL OR SWAP1 SSTORE POP PUSH1 0x40 MLOAD DUP1 PUSH1 0xA0 ADD PUSH1 0x40 MSTORE DUP1 PUSH1 0x1 PUSH1 0xFF AND DUP2 MSTORE PUSH1 0x20 ADD PUSH1 0x2 PUSH1 0xFF AND DUP2 MSTORE PUSH1 0x20 ADD PUSH1 0x3 PUSH1 0xFF AND DUP2 MSTORE PUSH1 0x20 ADD PUSH1 0x4 PUSH1 0xFF AND DUP2 MSTORE PUSH1 0x20 ADD PUSH1 0x5 PUSH1 0xFF AND DUP2 MSTORE POP PUSH1 0x3 SWAP1 PUSH1 0x5 PUSH2 0x8E SWAP3 SWAP2 SWAP1 PUSH2 0xA0 JUMP JUMPDEST POP CALLVALUE DUP1 ISZERO PUSH2 0x9A JUMPI PUSH0 PUSH0 REVERT JUMPDEST POP PUSH2 0x100 JUMP JUMPDEST DUP3 PUSH1 0x5 DUP2 ADD SWAP3 DUP3 ISZERO PUSH2 0xD4 JUMPI SWAP2 PUSH1 0x20 MUL DUP3 ADD JUMPDEST DUP3 DUP2 GT ISZERO PUSH2 0xD3 JUMPI DUP3 MLOAD DUP3 SWAP1 PUSH1 0xFF AND SWAP1 SSTORE SWAP2 PUSH1 0x20 ADD SWAP2 SWAP1 PUSH1 0x1 ADD SWAP1 PUSH2 0xB3 JUMP JUMPDEST JUMPDEST POP SWAP1 POP PUSH2 0xE1 SWAP2 SWAP1 PUSH2 0xE5 JUMP JUMPDEST POP SWAP1 JUMP JUMPDEST JUMPDEST DUP1 DUP3 GT ISZERO PUSH2 0xFC JUMPI PUSH0 DUP2 PUSH0 SWAP1 SSTORE POP PUSH1 0x1 ADD PUSH2 0xE6 JUMP JUMPDEST POP SWAP1 JUMP JUMPDEST PUSH2 0xDB0 DUP1 PUSH2 0x10D PUSH0 CODECOPY PUSH0 RETURN INVALID PUSH1 0x80 PUSH1 0x40 MSTORE CALLVALUE DUP1 ISZERO PUSH2 0xF JUMPI PUSH0 PUSH0 REVERT JUMPDEST POP PUSH1 0x4 CALLDATASIZE LT PUSH2 0x86 JUMPI PUSH0 CALLDATALOAD PUSH1 0xE0 SHR DUP1 PUSH4 0xB6EDA884 GT PUSH2 0x59 JUMPI DUP1 PUSH4 0xB6EDA884 EQ PUSH2 0x138 JUMPI DUP1 PUSH4 0xD92BD25C EQ PUSH2 0x156 JUMPI DUP1 PUSH4 0xEF5FB05B EQ PUSH2 0x186 JUMPI DUP1 PUSH4 0xFB13A2BE EQ PUSH2 0x1A4 JUMPI PUSH2 0x86 JUMP JUMPDEST DUP1 PUSH4 0x704893F EQ PUSH2 0x8A JUMPI DUP1 PUSH4 0x27E235E3 EQ PUSH2 0xA6 JUMPI DUP1 PUSH4 0xA71D3830 EQ PUSH2 0xD6 JUMPI DUP1 PUSH4 0xA87430BA EQ PUSH2 0x106 JUMPI JUMPDEST PUSH0 PUSH0 REVERT JUMPDEST PUSH2 0xA4 PUSH1 0x4 DUP1 CALLDATASIZE SUB DUP2 ADD SWAP1 PUSH2 0x9F SWAP2 SWAP1 PUSH2 0x6A4 JUMP JUMPDEST PUSH2 0x1C0 JUMP JUMPDEST STOP JUMPDEST PUSH2 0xC0 PUSH1 0x4 DUP1 CALLDATASIZE SUB DUP2 ADD SWAP1 PUSH2 0xBB SWAP2 SWAP1 PUSH2 0x73C JUMP JUMPDEST PUSH2 0x1D1 JUMP JUMPDEST PUSH1 0x40 MLOAD PUSH2 0xCD SWAP2 SWAP1 PUSH2 0x776 JUMP JUMPDEST PUSH1 0x40 MLOAD DUP1 SWAP2 SUB SWAP1 RETURN JUMPDEST PUSH2 0xF0 PUSH1 0x4 DUP1 CALLDATASIZE SUB DUP2 ADD SWAP1 PUSH2 0xEB SWAP2 SWAP1 PUSH2 0x73C JUMP JUMPDEST PUSH2 0x1E6 JUMP JUMPDEST PUSH1 0x40 MLOAD PUSH2 0xFD SWAP2 SWAP1 PUSH2 0x79E JUMP JUMPDEST PUSH1 0x40 MLOAD DUP1 SWAP2 SUB SWAP1 RETURN JUMPDEST PUSH2 0x120 PUSH1 0x4 DUP1 CALLDATASIZE SUB DUP2 ADD SWAP1 PUSH2 0x11B SWAP2 SWAP1 PUSH2 0x73C JUMP JUMPDEST PUSH2 0x1F4 JUMP JUMPDEST PUSH1 0x40 MLOAD PUSH2 0x12F SWAP4 SWAP3 SWAP2 SWAP1 PUSH2 0x827 JUMP JUMPDEST PUSH1 0x40 MLOAD DUP1 SWAP2 SUB SWAP1 RETURN JUMPDEST PUSH2 0x140 PUSH2 0x2BF JUMP JUMPDEST PUSH1 0x40 MLOAD PUSH2 0x14D SWAP2 SWAP1 PUSH2 0x79E JUMP JUMPDEST PUSH1 0x40 MLOAD DUP1 SWAP2 SUB SWAP1 RETURN JUMPDEST PUSH2 0x170 PUSH1 0x4 DUP1 CALLDATASIZE SUB DUP2 ADD SWAP1 PUSH2 0x16B SWAP2 SWAP1 PUSH2 0x98F JUMP JUMPDEST PUSH2 0x2E3 JUMP JUMPDEST PUSH1 0x40 MLOAD PUSH2 0x17D SWAP2 SWAP1 PUSH2 0x776 JUMP JUMPDEST PUSH1 0x40 MLOAD DUP1 SWAP2 SUB SWAP1 RETURN JUMPDEST PUSH2 0x18E PUSH2 0x310 JUMP JUMPDEST PUSH1 0x40 MLOAD PUSH2 0x19B SWAP2 SWAP1 PUSH2 0x9D6 JUMP JUMPDEST PUSH1 0x40 MLOAD DUP1 SWAP2 SUB SWAP1 RETURN JUMPDEST PUSH2 0x1BE PUSH1 0x4 DUP1 CALLDATASIZE SUB DUP2 ADD SWAP1 PUSH2 0x1B9 SWAP2 SWAP1 PUSH2 0x9F6 JUMP JUMPDEST PUSH2 0x34D JUMP JUMPDEST STOP JUMPDEST DUP1 DUP3 PUSH2 0x1CC SWAP2 SWAP1 PUSH2 0xA4E JUMP JUMPDEST POP POP POP JUMP JUMPDEST PUSH1 0x1 PUSH1 0x20 MSTORE DUP1 PUSH0 MSTORE PUSH1 0x40 PUSH0 KECCAK256 PUSH0 SWAP2 POP SWAP1 POP SLOAD DUP2 JUMP JUMPDEST PUSH0 PUSH0 DUP3 SWAP1 POP DUP1 SWAP2 POP POP SWAP2 SWAP1 POP JUMP JUMPDEST PUSH1 0x8 PUSH1 0x20 MSTORE DUP1 PUSH0 MSTORE PUSH1 0x40 PUSH0 KECCAK256 PUSH0 SWAP2 POP SWAP1 POP DUP1 PUSH0 ADD DUP1 SLOAD PUSH2 0x213 SWAP1 PUSH2 0xAAE JUMP JUMPDEST DUP1 PUSH1 0x1F ADD PUSH1 0x20 DUP1 SWAP2 DIV MUL PUSH1 0x20 ADD PUSH1 0x40 MLOAD SWAP1 DUP2 ADD PUSH1 0x40 MSTORE DUP1 SWAP3 SWAP2 SWAP1 DUP2 DUP2 MSTORE PUSH1 0x20 ADD DUP3 DUP1 SLOAD PUSH2 0x23F SWAP1 PUSH2 0xAAE JUMP JUMPDEST DUP1 ISZERO PUSH2 0x28A JUMPI DUP1 PUSH1 0x1F LT PUSH2 0x261 JUMPI PUSH2 0x100 DUP1 DUP4 SLOAD DIV MUL DUP4 MSTORE SWAP2 PUSH1 0x20 ADD SWAP2 PUSH2 0x28A JUMP JUMPDEST DUP3 ADD SWAP2 SWAP1 PUSH0 MSTORE PUSH1 0x20 PUSH0 KECCAK256 SWAP1 JUMPDEST DUP2 SLOAD DUP2 MSTORE SWAP1 PUSH1 0x1 ADD SWAP1 PUSH1 0x20 ADD DUP1 DUP4 GT PUSH2 0x26D JUMPI DUP3 SWAP1 SUB PUSH1 0x1F AND DUP3 ADD SWAP2 JUMPDEST POP POP POP POP POP SWAP1 DUP1 PUSH1 0x1 ADD SLOAD SWAP1 DUP1 PUSH1 0x2 ADD PUSH0 SWAP1 SLOAD SWAP1 PUSH2 0x100 EXP SWAP1 DIV PUSH20 0xFFFFFFFFFFFFFFFFFFFFFFFFFFFFFFFFFFFFFFFF AND SWAP1 POP DUP4 JUMP JUMPDEST PUSH0 PUSH0 SWAP1 SLOAD SWAP1 PUSH2 0x100 EXP SWAP1 DIV PUSH20 0xFFFFFFFFFFFFFFFFFFFFFFFFFFFFFFFFFFFFFFFF AND DUP2 JUMP JUMPDEST PUSH1 0x2 DUP2 DUP1 MLOAD PUSH1 0x20 DUP2 ADD DUP3 ADD DUP1 MLOAD DUP5 DUP3 MSTORE PUSH1 0x20 DUP4 ADD PUSH1 0x20 DUP6 ADD KECCAK256 DUP2 DUP4 MSTORE DUP1 SWAP6 POP POP POP POP POP POP PUSH0 SWAP2 POP SWAP1 POP SLOAD DUP2 JUMP JUMPDEST PUSH1 0x60 PUSH1 0x40 MLOAD DUP1 PUSH1 0x40 ADD PUSH1 0x40 MSTORE DUP1 PUSH1 0xC DUP2 MSTORE PUSH1 0x20 ADD PUSH32 0x68656C6C6F2C20776F726C640000000000000000000000000000000000000000 DUP2 MSTORE POP SWAP1 POP SWAP1 JUMP JUMPDEST PUSH0 PUSH1 0xFE SWAP1 POP PUSH0 PUSH32 0x6138346200000000000000000000000000000000000000000000000000000000 SWAP1 POP PUSH0 PUSH1 0x40 MLOAD DUP1 PUSH1 0x40 ADD PUSH1 0x40 MSTORE DUP1 PUSH1 0x17 DUP2 MSTORE PUSH1 0x20 ADD PUSH32 0x3735303438303734333834343235353734303339653866000000000000000000 DUP2 MSTORE POP SWAP1 POP PUSH0 PUSH1 0x1 SWAP1 POP PUSH0 PUSH32 0x3132343536386635643535643564356435643564356435356464356435643564 SWAP1 POP PUSH0 PUSH1 0x40 MLOAD DUP1 PUSH1 0x40 ADD PUSH1 0x40 MSTORE DUP1 PUSH1 0x3 DUP2 MSTORE PUSH1 0x20 ADD PUSH32 0x7373730000000000000000000000000000000000000000000000000000000000 DUP2 MSTORE POP SWAP1 POP PUSH0 PUSH1 0x5 PUSH8 0xFFFFFFFFFFFFFFFF DUP2 GT ISZERO PUSH2 0x42D JUMPI PUSH2 0x42C PUSH2 0x86B JUMP JUMPDEST JUMPDEST PUSH1 0x40 MLOAD SWAP1 DUP1 DUP3 MSTORE DUP1 PUSH1 0x20 MUL PUSH1 0x20 ADD DUP3 ADD PUSH1 0x40 MSTORE DUP1 ISZERO PUSH2 0x45B JUMPI DUP2 PUSH1 0x20 ADD PUSH1 0x20 DUP3 MUL DUP1 CALLDATASIZE DUP4 CALLDATACOPY DUP1 DUP3 ADD SWAP2 POP POP SWAP1 POP JUMPDEST POP SWAP1 POP PUSH1 0x1 DUP2 PUSH0 DUP2 MLOAD DUP2 LT PUSH2 0x473 JUMPI PUSH2 0x472 PUSH2 0xADE JUMP JUMPDEST JUMPDEST PUSH1 0x20 MUL PUSH1 0x20 ADD ADD DUP2 DUP2 MSTORE POP POP PUSH1 0x1 DUP2 PUSH1 0x1 DUP2 MLOAD DUP2 LT PUSH2 0x495 JUMPI PUSH2 0x494 PUSH2 0xADE JUMP JUMPDEST JUMPDEST PUSH1 0x20 MUL PUSH1 0x20 ADD ADD DUP2 DUP2 MSTORE POP POP PUSH1 0x1 DUP2 PUSH1 0x2 DUP2 MLOAD DUP2 LT PUSH2 0x4B7 JUMPI PUSH2 0x4B6 PUSH2 0xADE JUMP JUMPDEST JUMPDEST PUSH1 0x20 MUL PUSH1 0x20 ADD ADD DUP2 DUP2 MSTORE POP POP PUSH1 0x1 DUP2 PUSH1 0x3 DUP2 MLOAD DUP2 LT PUSH2 0x4D9 JUMPI PUSH2 0x4D8 PUSH2 0xADE JUMP JUMPDEST JUMPDEST PUSH1 0x20 MUL PUSH1 0x20 ADD ADD DUP2 DUP2 MSTORE POP POP PUSH1 0x60 PUSH1 0x1 DUP2 PUSH0 DUP2 MLOAD DUP2 LT PUSH2 0x4FC JUMPI PUSH2 0x4FB PUSH2 0xADE JUMP JUMPDEST JUMPDEST PUSH1 0x20 MUL PUSH1 0x20 ADD ADD DUP2 DUP2 MSTORE POP POP DUP9 PUSH1 0x1 PUSH0 CALLER PUSH20 0xFFFFFFFFFFFFFFFFFFFFFFFFFFFFFFFFFFFFFFFF AND PUSH20 0xFFFFFFFFFFFFFFFFFFFFFFFFFFFFFFFFFFFFFFFF AND DUP2 MSTORE PUSH1 0x20 ADD SWAP1 DUP2 MSTORE PUSH1 0x20 ADD PUSH0 KECCAK256 DUP2 SWAP1 SSTORE POP PUSH1 0x40 MLOAD DUP1 PUSH1 0x60 ADD PUSH1 0x40 MSTORE DUP1 PUSH1 0x40 MLOAD DUP1 PUSH1 0x40 ADD PUSH1 0x40 MSTORE DUP1 PUSH1 0x5 DUP2 MSTORE PUSH1 0x20 ADD PUSH32 0x6A65737573000000000000000000000000000000000000000000000000000000 DUP2 MSTORE POP DUP2 MSTORE PUSH1 0x20 ADD PUSH1 0x19 DUP2 MSTORE PUSH1 0x20 ADD CALLER PUSH20 0xFFFFFFFFFFFFFFFFFFFFFFFFFFFFFFFFFFFFFFFF AND DUP2 MSTORE POP PUSH1 0x8 PUSH0 CALLER PUSH20 0xFFFFFFFFFFFFFFFFFFFFFFFFFFFFFFFFFFFFFFFF AND PUSH20 0xFFFFFFFFFFFFFFFFFFFFFFFFFFFFFFFFFFFFFFFF AND DUP2 MSTORE PUSH1 0x20 ADD SWAP1 DUP2 MSTORE PUSH1 0x20 ADD PUSH0 KECCAK256 PUSH0 DUP3 ADD MLOAD DUP2 PUSH0 ADD SWAP1 DUP2 PUSH2 0x601 SWAP2 SWAP1 PUSH2 0xCAB JUMP JUMPDEST POP PUSH1 0x20 DUP3 ADD MLOAD DUP2 PUSH1 0x1 ADD SSTORE PUSH1 0x40 DUP3 ADD MLOAD DUP2 PUSH1 0x2 ADD PUSH0 PUSH2 0x100 EXP DUP2 SLOAD DUP2 PUSH20 0xFFFFFFFFFFFFFFFFFFFFFFFFFFFFFFFFFFFFFFFF MUL NOT AND SWAP1 DUP4 PUSH20 0xFFFFFFFFFFFFFFFFFFFFFFFFFFFFFFFFFFFFFFFF AND MUL OR SWAP1 SSTORE POP SWAP1 POP POP POP POP POP POP POP POP POP POP POP JUMP JUMPDEST PUSH0 PUSH1 0x40 MLOAD SWAP1 POP SWAP1 JUMP JUMPDEST PUSH0 PUSH0 REVERT JUMPDEST PUSH0 PUSH0 REVERT JUMPDEST PUSH0 DUP2 SWAP1 POP SWAP2 SWAP1 POP JUMP JUMPDEST PUSH2 0x683 DUP2 PUSH2 0x671 JUMP JUMPDEST DUP2 EQ PUSH2 0x68D JUMPI PUSH0 PUSH0 REVERT JUMPDEST POP JUMP JUMPDEST PUSH0 DUP2 CALLDATALOAD SWAP1 POP PUSH2 0x69E DUP2 PUSH2 0x67A JUMP JUMPDEST SWAP3 SWAP2 POP POP JUMP JUMPDEST PUSH0 PUSH0 PUSH1 0x40 DUP4 DUP6 SUB SLT ISZERO PUSH2 0x6BA JUMPI PUSH2 0x6B9 PUSH2 0x669 JUMP JUMPDEST JUMPDEST PUSH0 PUSH2 0x6C7 DUP6 DUP3 DUP7 ADD PUSH2 0x690 JUMP JUMPDEST SWAP3 POP POP PUSH1 0x20 PUSH2 0x6D8 DUP6 DUP3 DUP7 ADD PUSH2 0x690 JUMP JUMPDEST SWAP2 POP POP SWAP3 POP SWAP3 SWAP1 POP JUMP JUMPDEST PUSH0 PUSH20 0xFFFFFFFFFFFFFFFFFFFFFFFFFFFFFFFFFFFFFFFF DUP3 AND SWAP1 POP SWAP2 SWAP1 POP JUMP JUMPDEST PUSH0 PUSH2 0x70B DUP3 PUSH2 0x6E2 JUMP JUMPDEST SWAP1 POP SWAP2 SWAP1 POP JUMP JUMPDEST PUSH2 0x71B DUP2 PUSH2 0x701 JUMP JUMPDEST DUP2 EQ PUSH2 0x725 JUMPI PUSH0 PUSH0 REVERT JUMPDEST POP JUMP JUMPDEST PUSH0 DUP2 CALLDATALOAD SWAP1 POP PUSH2 0x736 DUP2 PUSH2 0x712 JUMP JUMPDEST SWAP3 SWAP2 POP POP JUMP JUMPDEST PUSH0 PUSH1 0x20 DUP3 DUP5 SUB SLT ISZERO PUSH2 0x751 JUMPI PUSH2 0x750 PUSH2 0x669 JUMP JUMPDEST JUMPDEST PUSH0 PUSH2 0x75E DUP5 DUP3 DUP6 ADD PUSH2 0x728 JUMP JUMPDEST SWAP2 POP POP SWAP3 SWAP2 POP POP JUMP JUMPDEST PUSH2 0x770 DUP2 PUSH2 0x671 JUMP JUMPDEST DUP3 MSTORE POP POP JUMP JUMPDEST PUSH0 PUSH1 0x20 DUP3 ADD SWAP1 POP PUSH2 0x789 PUSH0 DUP4 ADD DUP5 PUSH2 0x767 JUMP JUMPDEST SWAP3 SWAP2 POP POP JUMP JUMPDEST PUSH2 0x798 DUP2 PUSH2 0x701 JUMP JUMPDEST DUP3 MSTORE POP POP JUMP JUMPDEST PUSH0 PUSH1 0x20 DUP3 ADD SWAP1 POP PUSH2 0x7B1 PUSH0 DUP4 ADD DUP5 PUSH2 0x78F JUMP JUMPDEST SWAP3 SWAP2 POP POP JUMP JUMPDEST PUSH0 DUP2 MLOAD SWAP1 POP SWAP2 SWAP1 POP JUMP JUMPDEST PUSH0 DUP3 DUP3 MSTORE PUSH1 0x20 DUP3 ADD SWAP1 POP SWAP3 SWAP2 POP POP JUMP JUMPDEST DUP3 DUP2 DUP4 MCOPY PUSH0 DUP4 DUP4 ADD MSTORE POP POP POP JUMP JUMPDEST PUSH0 PUSH1 0x1F NOT PUSH1 0x1F DUP4 ADD AND SWAP1 POP SWAP2 SWAP1 POP JUMP JUMPDEST PUSH0 PUSH2 0x7F9 DUP3 PUSH2 0x7B7 JUMP JUMPDEST PUSH2 0x803 DUP2 DUP6 PUSH2 0x7C1 JUMP JUMPDEST SWAP4 POP PUSH2 0x813 DUP2 DUP6 PUSH1 0x20 DUP7 ADD PUSH2 0x7D1 JUMP JUMPDEST PUSH2 0x81C DUP2 PUSH2 0x7DF JUMP JUMPDEST DUP5 ADD SWAP2 POP POP SWAP3 SWAP2 POP POP JUMP JUMPDEST PUSH0 PUSH1 0x60 DUP3 ADD SWAP1 POP DUP2 DUP2 SUB PUSH0 DUP4 ADD MSTORE PUSH2 0x83F DUP2 DUP7 PUSH2 0x7EF JUMP JUMPDEST SWAP1 POP PUSH2 0x84E PUSH1 0x20 DUP4 ADD DUP6 PUSH2 0x767 JUMP JUMPDEST PUSH2 0x85B PUSH1 0x40 DUP4 ADD DUP5 PUSH2 0x78F JUMP JUMPDEST SWAP5 SWAP4 POP POP POP POP JUMP JUMPDEST PUSH0 PUSH0 REVERT JUMPDEST PUSH0 PUSH0 REVERT JUMPDEST PUSH32 0x4E487B7100000000000000000000000000000000000000000000000000000000 PUSH0 MSTORE PUSH1 0x41 PUSH1 0x4 MSTORE PUSH1 0x24 PUSH0 REVERT JUMPDEST PUSH2 0x8A1 DUP3 PUSH2 0x7DF JUMP JUMPDEST DUP2 ADD DUP2 DUP2 LT PUSH8 0xFFFFFFFFFFFFFFFF DUP3 GT OR ISZERO PUSH2 0x8C0 JUMPI PUSH2 0x8BF PUSH2 0x86B JUMP JUMPDEST JUMPDEST DUP1 PUSH1 0x40 MSTORE POP POP POP JUMP JUMPDEST PUSH0 PUSH2 0x8D2 PUSH2 0x660 JUMP JUMPDEST SWAP1 POP PUSH2 0x8DE DUP3 DUP3 PUSH2 0x898 JUMP JUMPDEST SWAP2 SWAP1 POP JUMP JUMPDEST PUSH0 PUSH8 0xFFFFFFFFFFFFFFFF DUP3 GT ISZERO PUSH2 0x8FD JUMPI PUSH2 0x8FC PUSH2 0x86B JUMP JUMPDEST JUMPDEST PUSH2 0x906 DUP3 PUSH2 0x7DF JUMP JUMPDEST SWAP1 POP PUSH1 0x20 DUP2 ADD SWAP1 POP SWAP2 SWAP1 POP JUMP JUMPDEST DUP3 DUP2 DUP4 CALLDATACOPY PUSH0 DUP4 DUP4 ADD MSTORE POP POP POP JUMP JUMPDEST PUSH0 PUSH2 0x933 PUSH2 0x92E DUP5 PUSH2 0x8E3 JUMP JUMPDEST PUSH2 0x8C9 JUMP JUMPDEST SWAP1 POP DUP3 DUP2 MSTORE PUSH1 0x20 DUP2 ADD DUP5 DUP5 DUP5 ADD GT ISZERO PUSH2 0x94F JUMPI PUSH2 0x94E PUSH2 0x867 JUMP JUMPDEST JUMPDEST PUSH2 0x95A DUP5 DUP3 DUP6 PUSH2 0x913 JUMP JUMPDEST POP SWAP4 SWAP3 POP POP POP JUMP JUMPDEST PUSH0 DUP3 PUSH1 0x1F DUP4 ADD SLT PUSH2 0x976 JUMPI PUSH2 0x975 PUSH2 0x863 JUMP JUMPDEST JUMPDEST DUP2 CALLDATALOAD PUSH2 0x986 DUP5 DUP3 PUSH1 0x20 DUP7 ADD PUSH2 0x921 JUMP JUMPDEST SWAP2 POP POP SWAP3 SWAP2 POP POP JUMP JUMPDEST PUSH0 PUSH1 0x20 DUP3 DUP5 SUB SLT ISZERO PUSH2 0x9A4 JUMPI PUSH2 0x9A3 PUSH2 0x669 JUMP JUMPDEST JUMPDEST PUSH0 DUP3 ADD CALLDATALOAD PUSH8 0xFFFFFFFFFFFFFFFF DUP2 GT ISZERO PUSH2 0x9C1 JUMPI PUSH2 0x9C0 PUSH2 0x66D JUMP JUMPDEST JUMPDEST PUSH2 0x9CD DUP5 DUP3 DUP6 ADD PUSH2 0x962 JUMP JUMPDEST SWAP2 POP POP SWAP3 SWAP2 POP POP JUMP JUMPDEST PUSH0 PUSH1 0x20 DUP3 ADD SWAP1 POP DUP2 DUP2 SUB PUSH0 DUP4 ADD MSTORE PUSH2 0x9EE DUP2 DUP5 PUSH2 0x7EF JUMP JUMPDEST SWAP1 POP SWAP3 SWAP2 POP POP JUMP JUMPDEST PUSH0 PUSH1 0x20 DUP3 DUP5 SUB SLT ISZERO PUSH2 0xA0B JUMPI PUSH2 0xA0A PUSH2 0x669 JUMP JUMPDEST JUMPDEST PUSH0 PUSH2 0xA18 DUP5 DUP3 DUP6 ADD PUSH2 0x690 JUMP JUMPDEST SWAP2 POP POP SWAP3 SWAP2 POP POP JUMP JUMPDEST PUSH32 0x4E487B7100000000000000000000000000000000000000000000000000000000 PUSH0 MSTORE PUSH1 0x11 PUSH1 0x4 MSTORE PUSH1 0x24 PUSH0 REVERT JUMPDEST PUSH0 PUSH2 0xA58 DUP3 PUSH2 0x671 JUMP JUMPDEST SWAP2 POP PUSH2 0xA63 DUP4 PUSH2 0x671 JUMP JUMPDEST SWAP3 POP DUP3 DUP3 ADD SWAP1 POP DUP1 DUP3 GT ISZERO PUSH2 0xA7B JUMPI PUSH2 0xA7A PUSH2 0xA21 JUMP JUMPDEST JUMPDEST SWAP3 SWAP2 POP POP JUMP JUMPDEST PUSH32 0x4E487B7100000000000000000000000000000000000000000000000000000000 PUSH0 MSTORE PUSH1 0x22 PUSH1 0x4 MSTORE PUSH1 0x24 PUSH0 REVERT JUMPDEST PUSH0 PUSH1 0x2 DUP3 DIV SWAP1 POP PUSH1 0x1 DUP3 AND DUP1 PUSH2 0xAC5 JUMPI PUSH1 0x7F DUP3 AND SWAP2 POP JUMPDEST PUSH1 0x20 DUP3 LT DUP2 SUB PUSH2 0xAD8 JUMPI PUSH2 0xAD7 PUSH2 0xA81 JUMP JUMPDEST JUMPDEST POP SWAP2 SWAP1 POP JUMP JUMPDEST PUSH32 0x4E487B7100000000000000000000000000000000000000000000000000000000 PUSH0 MSTORE PUSH1 0x32 PUSH1 0x4 MSTORE PUSH1 0x24 PUSH0 REVERT JUMPDEST PUSH0 DUP2 SWAP1 POP DUP2 PUSH0 MSTORE PUSH1 0x20 PUSH0 KECCAK256 SWAP1 POP SWAP2 SWAP1 POP JUMP JUMPDEST PUSH0 PUSH1 0x20 PUSH1 0x1F DUP4 ADD DIV SWAP1 POP SWAP2 SWAP1 POP JUMP JUMPDEST PUSH0 DUP3 DUP3 SHL SWAP1 POP SWAP3 SWAP2 POP POP JUMP JUMPDEST PUSH0 PUSH1 0x8 DUP4 MUL PUSH2 0xB67 PUSH32 0xFFFFFFFFFFFFFFFFFFFFFFFFFFFFFFFFFFFFFFFFFFFFFFFFFFFFFFFFFFFFFFFF DUP3 PUSH2 0xB2C JUMP JUMPDEST PUSH2 0xB71 DUP7 DUP4 PUSH2 0xB2C JUMP JUMPDEST SWAP6 POP DUP1 NOT DUP5 AND SWAP4 POP DUP1 DUP7 AND DUP5 OR SWAP3 POP POP POP SWAP4 SWAP3 POP POP POP JUMP JUMPDEST PUSH0 DUP2 SWAP1 POP SWAP2 SWAP1 POP JUMP JUMPDEST PUSH0 PUSH2 0xBAC PUSH2 0xBA7 PUSH2 0xBA2 DUP5 PUSH2 0x671 JUMP JUMPDEST PUSH2 0xB89 JUMP JUMPDEST PUSH2 0x671 JUMP JUMPDEST SWAP1 POP SWAP2 SWAP1 POP JUMP JUMPDEST PUSH0 DUP2 SWAP1 POP SWAP2 SWAP1 POP JUMP JUMPDEST PUSH2 0xBC5 DUP4 PUSH2 0xB92 JUMP JUMPDEST PUSH2 0xBD9 PUSH2 0xBD1 DUP3 PUSH2 0xBB3 JUMP JUMPDEST DUP5 DUP5 SLOAD PUSH2 0xB38 JUMP JUMPDEST DUP3 SSTORE POP POP POP POP JUMP JUMPDEST PUSH0 PUSH0 SWAP1 POP SWAP1 JUMP JUMPDEST PUSH2 0xBF0 PUSH2 0xBE1 JUMP JUMPDEST PUSH2 0xBFB DUP2 DUP5 DUP5 PUSH2 0xBBC JUMP JUMPDEST POP POP POP JUMP JUMPDEST JUMPDEST DUP2 DUP2 LT ISZERO PUSH2 0xC1E JUMPI PUSH2 0xC13 PUSH0 DUP3 PUSH2 0xBE8 JUMP JUMPDEST PUSH1 0x1 DUP2 ADD SWAP1 POP PUSH2 0xC01 JUMP JUMPDEST POP POP JUMP JUMPDEST PUSH1 0x1F DUP3 GT ISZERO PUSH2 0xC63 JUMPI PUSH2 0xC34 DUP2 PUSH2 0xB0B JUMP JUMPDEST PUSH2 0xC3D DUP5 PUSH2 0xB1D JUMP JUMPDEST DUP2 ADD PUSH1 0x20 DUP6 LT ISZERO PUSH2 0xC4C JUMPI DUP2 SWAP1 POP JUMPDEST PUSH2 0xC60 PUSH2 0xC58 DUP6 PUSH2 0xB1D JUMP JUMPDEST DUP4 ADD DUP3 PUSH2 0xC00 JUMP JUMPDEST POP POP JUMPDEST POP POP POP JUMP JUMPDEST PUSH0 DUP3 DUP3 SHR SWAP1 POP SWAP3 SWAP2 POP POP JUMP JUMPDEST PUSH0 PUSH2 0xC83 PUSH0 NOT DUP5 PUSH1 0x8 MUL PUSH2 0xC68 JUMP JUMPDEST NOT DUP1 DUP4 AND SWAP2 POP POP SWAP3 SWAP2 POP POP JUMP JUMPDEST PUSH0 PUSH2 0xC9B DUP4 DUP4 PUSH2 0xC74 JUMP JUMPDEST SWAP2 POP DUP3 PUSH1 0x2 MUL DUP3 OR SWAP1 POP SWAP3 SWAP2 POP POP JUMP JUMPDEST PUSH2 0xCB4 DUP3 PUSH2 0x7B7 JUMP JUMPDEST PUSH8 0xFFFFFFFFFFFFFFFF DUP2 GT ISZERO PUSH2 0xCCD JUMPI PUSH2 0xCCC PUSH2 0x86B JUMP JUMPDEST JUMPDEST PUSH2 0xCD7 DUP3 SLOAD PUSH2 0xAAE JUMP JUMPDEST PUSH2 0xCE2 DUP3 DUP3 DUP6 PUSH2 0xC22 JUMP JUMPDEST PUSH0 PUSH1 0x20 SWAP1 POP PUSH1 0x1F DUP4 GT PUSH1 0x1 DUP2 EQ PUSH2 0xD13 JUMPI PUSH0 DUP5 ISZERO PUSH2 0xD01 JUMPI DUP3 DUP8 ADD MLOAD SWAP1 POP JUMPDEST PUSH2 0xD0B DUP6 DUP3 PUSH2 0xC90 JUMP JUMPDEST DUP7 SSTORE POP PUSH2 0xD72 JUMP JUMPDEST PUSH1 0x1F NOT DUP5 AND PUSH2 0xD21 DUP7 PUSH2 0xB0B JUMP JUMPDEST PUSH0 JUMPDEST DUP3 DUP2 LT ISZERO PUSH2 0xD48 JUMPI DUP5 DUP10 ADD MLOAD DUP3 SSTORE PUSH1 0x1 DUP3 ADD SWAP2 POP PUSH1 0x20 DUP6 ADD SWAP5 POP PUSH1 0x20 DUP2 ADD SWAP1 POP PUSH2 0xD23 JUMP JUMPDEST DUP7 DUP4 LT ISZERO PUSH2 0xD65 JUMPI DUP5 DUP10 ADD MLOAD PUSH2 0xD61 PUSH1 0x1F DUP10 AND DUP3 PUSH2 0xC74 JUMP JUMPDEST DUP4 SSTORE POP JUMPDEST PUSH1 0x1 PUSH1 0x2 DUP9 MUL ADD DUP9 SSTORE POP POP POP JUMPDEST POP POP POP POP POP POP JUMP INVALID LOG2 PUSH5 0x6970667358 0x22 SLT KECCAK256 DUP16 0xAB 0xD6 EQ PUSH32 0x7ED513F949F00889F64C9B4008C96573E64C985E7FD1AF4812508D64736F6C63 NUMBER STOP ADDMOD 0x1E STOP CALLER "
		},
		"gasEstimates": {
			"creation": {
				"codeDepositCost": "700800",
				"executionCost": "infinite",
				"totalCost": "infinite"
			},
			"external": {
				"addressTypes(address)": "infinite",
				"ads()": "2507",
				"balances(address)": "2825",
				"counts(string)": "infinite",
				"numbertype(uint256)": "infinite",
				"sayHello()": "infinite",
				"taker(uint256,uint256)": "infinite",
				"users(address)": "infinite"
			}
		},
		"methodIdentifiers": {
			"addressTypes(address)": "a71d3830",
			"ads()": "b6eda884",
			"balances(address)": "27e235e3",
			"counts(string)": "d92bd25c",
			"numbertype(uint256)": "fb13a2be",
			"sayHello()": "ef5fb05b",
			"taker(uint256,uint256)": "0704893f",
			"users(address)": "a87430ba"
		}
	},
	"abi": [
		{
			"inputs": [
				{
					"internalType": "address",
					"name": "x",
					"type": "address"
				}
			],
			"name": "addressTypes",
			"outputs": [
				{
					"internalType": "address",
					"name": "a",
					"type": "address"
				}
			],
			"stateMutability": "pure",
			"type": "function"
		},
		{
			"inputs": [],
			"name": "ads",
			"outputs": [
				{
					"internalType": "address",
					"name": "",
					"type": "address"
				}
			],
			"stateMutability": "view",
			"type": "function"
		},
		{
			"inputs": [
				{
					"internalType": "address",
					"name": "",
					"type": "address"
				}
			],
			"name": "balances",
			"outputs": [
				{
					"internalType": "uint256",
					"name": "",
					"type": "uint256"
				}
			],
			"stateMutability": "view",
			"type": "function"
		},
		{
			"inputs": [
				{
					"internalType": "string",
					"name": "",
					"type": "string"
				}
			],
			"name": "counts",
			"outputs": [
				{
					"internalType": "uint256",
					"name": "",
					"type": "uint256"
				}
			],
			"stateMutability": "view",
			"type": "function"
		},
		{
			"inputs": [
				{
					"internalType": "uint256",
					"name": "account",
					"type": "uint256"
				}
			],
			"name": "numbertype",
			"outputs": [],
			"stateMutability": "nonpayable",
			"type": "function"
		},
		{
			"inputs": [],
			"name": "sayHello",
			"outputs": [
				{
					"internalType": "string",
					"name": "",
					"type": "string"
				}
			],
			"stateMutability": "pure",
			"type": "function"
		},
		{
			"inputs": [
				{
					"internalType": "uint256",
					"name": "_a",
					"type": "uint256"
				},
				{
					"internalType": "uint256",
					"name": "_b",
					"type": "uint256"
				}
			],
			"name": "taker",
			"outputs": [],
			"stateMutability": "pure",
			"type": "function"
		},
		{
			"inputs": [
				{
					"internalType": "address",
					"name": "",
					"type": "address"
				}
			],
			"name": "users",
			"outputs": [
				{
					"internalType": "string",
					"name": "name",
					"type": "string"
				},
				{
					"internalType": "uint256",
					"name": "age",
					"type": "uint256"
				},
				{
					"internalType": "address",
					"name": "wallet",
					"type": "address"
				}
			],
			"stateMutability": "view",
			"type": "function"
		}
	]
}